:020000022000DC
:1030000000000120393202009132020093320200A6
:10301000953202009732020099320200000000004F
:103020000000000000000000000000009B320200D1
:103030009D320200000000009F320200A132020017
:10304000218E0300A7320200EDA60300AB3202007E
:10305000AD320200AF320200B1320200B3320200E0
:10306000B5320200B7320200716F0300BB320200BA
:10307000BD320200BF320200C1320200C332020080
:10308000C5320200753F0200C9320200CB32020095
:10309000B53F0200CF320200C9BF0300D3320200A5
:1030A000D5320200D7320200D9320200DB320200F0
:1030B000DD320200DF320200A3320200A33202003E
:1030C000E1320200E3320200E5320200E7320200A0
:0C30D000E9320200EB320200ED32020097
:1030DC00354936480A1A02D0072291438D463449A5
:1030EC0034480A1A06D00722914381F30988022238
:1030FC0082F3148830483149314A00F044F83148A1
:10310C003149324A00F03FF831483249324A00F036
:10311C003AF832483249334A00F035F832483349EC
:10312C00334A00F030F833483349344A00F02BF876
:10313C0033483449344A00F026F8344834490022E4
:10314C0000F02CF833483449002200F027F83348BB
:10315C003349091A082902DB002202604160314A16
:10316C0090471F481F49884205D00268043003B4B9
:10317C00904703BCF7E700208646EC460020002170
:10318C00294A9047FEE7884207D0521A05D00378A7
:10319C0001300B700131013AF9D17047884202D0ED
:1031AC0002700130FAE770470000012000F800209F
:1031BC000000012000000120E4CD03002077002056
:1031CC00B0770020F0320200F03202004EC2030051
:1031DC00E4CD0300207700202077002078C2030084
:1031EC0078C2030078C2030078C2030078C20300DF
:1031FC0078C2030078C2030078C20300E4CD030058
:10320C0074CE0300B0770020B0770020B077002098
:10321C002B9600202C9600202C9600202C9600201B
:10322C002C9800205D3202001DA703000F484FF0C0
:10323C000701884385460E4880470E48016841F4D3
:10324C0070010160BFF34F8FBFF36F8FFFF740BF6B
:10325C0009480A490A4A884207D0521A05D003780D
:10326C0001300B700131013AF9D170470000012097
:10327C00F1B3030088ED00E078C203002077002052
:10328C0020770020FEE7FEE7FEE7FEE7FEE7FEE71D
:10329C00FEE7FEE7FEE7FEE7FEE7FEE7FEE7FEE7FA
:1032AC00FEE7FEE7FEE7FEE7FEE7FEE7FEE7FEE7EA
:1032BC00FEE7FEE7FEE7FEE7FEE7FEE7FEE7FEE7DA
:1032CC00FEE7FEE7FEE7FEE7FEE7FEE7FEE7FEE7CA
:1032DC00FEE7FEE7FEE7FEE7FEE7FEE7FEE7FEE7BA
:0432EC00FEE700BF3A
:1032F00000B589B0039002910192029B9BB2ADF898
:103300001430019B0693039B079305AB1A460021DB
:1033100044F2010013F0F4F800BF09B05DF804FBBB
:1033200082B00190019B03F00303002B0CBF01232B
:103330000023DBB2184602B07047000082B003469B
:103340008DF807309DF807309AB2064B1B889A42D9
:1033500004D29DF807300133DBB200E000231846A9
:1033600002B07047BC77002000B583B00B4B1B78D0
:103370008DF807300A4B1B78DBB21846FFF7DEFFEB
:1033800003461A469DF8073093420CBF01230023E1
:10339000DBB2184603B05DF804FB00BFB87700202D
:1033A000B977002082B0084B1B788DF80730074BA7
:1033B0001B78DBB29DF807209A420CBF0123002343
:1033C000DBB2184602B07047B8770020B97700200A
:1033D00000B585B003460092ADF806300B46ADF857
:1033E0000430BDF8043001339BB2DB00ADF80E3081
:1033F0000098FFF795FF034683F00103DBB2002B33
:1034000001D0072317E00E4A009B1360BDF80E3071
:10341000009A13440B4A13600B4B00221A700B4B9B
:1034200000221A700A4ABDF806301380094ABDF816
:10343000043013800023184605B05DF804FB00BF7C
:10344000B0770020B4770020B9770020B87700204B
:10345000BA770020BC77002082B0164B1B78DBB215
:10346000ADF80630144B1B78DBB2ADF80430134BCB
:103470001A88BDF80410BDF80630994206D3BDF88D
:103480000410BDF80630CB1A9BB20BE00B4B198829
:10349000BDF80630CB1A99B2BDF804300B449BB28C
:1034A00001339BB2D31AADF80230BDF80230184692
:1034B00002B07047B8770020B9770020BC770020B1
:1034C00000B587B003900B460192ADF80A30374B38
:1034D0001B88BDF80A209A4260D84FF6FF73ADF8FA
:1034E000123000238DF811300DF11103184600F051
:1034F000DBFDFFF739FF0346002B0ED12C4B1B7869
:10350000DBB2ADF812302A4B1B78DBB21846FFF75E
:1035100015FF03461A46264B1A709DF811301846BF
:1035200000F0D8FDBDF812304FF6FF72934232D052
:10353000204B1A68BDF81230DB001344019A1A6060
:10354000039B002B1CD0BDF80A30002B18D01A4B5F
:103550001B68BDF812201549098801FB02F21344CB
:10356000BDF80A200399184618F015FE114B1A6889
:10357000BDF81230DB001344BDF80A209A8007E042
:103580000C4B1A68BDF81230DB00134400229A80FD
:103590000023059304E00423059301E00923059328
:1035A000059B184607B05DF804FB00BFBA77002002
:1035B000B9770020B0770020B477002000B583B041
:1035C00000238DF807300DF10703184600F06CFD5D
:1035D000094B1B68B3F1FF3F04D0074B1B68013355
:1035E000054A13609DF80730184600F073FD00BFD0
:1035F00003B05DF804FB00BFC077002000B583B0C6
:1036000000238DF807300DF10703184600F04CFD3C
:10361000084B1B68002B04D0064B1B68013B054A76
:1036200013609DF80730184600F054FD00BF03B04A
:103630005DF804FBC0770020044B1B68002B14BF0F
:1036400001230023DBB21846704700BFC07700207B
:1036500000B585B02FE0204B1B78DBB2ADF80E3003
:103660001E4B1B68BDF80E201D49098801FB02F2A4
:10367000134402931B4B1A68BDF80E30DB00134451
:103680009B88ADF80630174B1A68BDF80E30DB008A
:1036900013441B680093BDF80620009B1146029856
:1036A00098470D4B1B78DBB21846FFF747FE0346E1
:1036B0001A46094B1A70FFF7BFFF034683F0010358
:1036C000DBB2002B04D0FFF76DFE0346002BC2D007
:1036D00000BF05B05DF804FBB8770020B477002088
:1036E000BA770020B077002082B003468DF807300B
:1036F0009DF8073003F01F0205499DF907305B096B
:10370000012000FA02F241F8232000BF02B0704706
:1037100000E100E082B003468DF807309DF80730E5
:1037200003F01F0206499DF907305B09012000FAEA
:1037300002F2203341F8232000BF02B0704700BFDF
:1037400000E100E082B003468DF807309DF80730B5
:1037500003F01F0206499DF907305B09012000FABA
:1037600002F2403341F8232000BF02B0704700BF8F
:1037700000E100E082B003468DF807309DF8073085
:1037800003F01F0206499DF907305B09012000FA8A
:1037900002F2603341F8232000BF02B0704700BF3F
:1037A00000E100E084B00190244B0393019B002BC7
:1037B00040D0234B1A680399019B00BF00BF00BF94
:1037C00000BF00BF00BF00BF00BF8A422FD000BFB4
:1037D00000BF00BF00BF00BF00BF00BF00BF00BFF1
:1037E00000BF00BF00BF00BF00BF00BF00BF00BFE1
:1037F00000BF00BF00BF00BF00BF00BF00BF00BFD1
:1038000000BF00BF00BF00BF00BF00BF00BF00BFC0
:1038100000BF00BF00BF00BF00BF00BF00BF00BFB0
:1038200000BF00BF00BF00BF00BF00BF00BF013B23
:10383000C3D1019300BF04B0704700BF0024F4005F
:10384000AC77002008B50D4B4FF48032C3F8442309
:103850000A4B4FF48032C3F804231120FFF78AFF8C
:103860001120FFF741FF054B01221A602F20FFF7BF
:1038700099FF034B01221A7000BF08BD00100140E0
:10388000E278002008B51120FFF744FF0E4B4FF4FB
:103890008032C3F848230C4B4FF48032C3F808231E
:1038A000094B01225A602F20FFF77CFF064B0122B3
:1038B0009A60064B00221A602F20FFF773FF044B1B
:1038C00000221A7000BF08BD00100140D47800200B
:1038D000E2780020024BD3F804351846704700BF49
:1038E0000010014082B001900091019A009BD31A10
:1038F00023F07F43184602B07047000082B0019069
:10390000034A019BC2F8403500BF02B0704700BFB8
:103910000010014086B00190284B1B68002B03D19A
:10392000264A019B136045E0019B1A68234B1B68E4
:103930001B689A4210D8214B1B681968019B1A68B2
:103940001E4B1B688A1A1A601C4B1A68019BDA61AD
:103950001A4A019B13602DE0019B1B680393174BD0
:103960001B680593154B1B68049309E0049B1B68B7
:10397000039AD31A0393049B0593049BDB69049376
:10398000049B002B04D0049B1B68039A9A42EDD839
:10399000049B002B05D0049B1A68039BD21A049B3E
:1039A0001A60019B039A1A60019B049ADA61059BD5
:1039B000019ADA6100BF06B0704700BFD0780020DE
:1039C00000B587B001902A4B1B680393284B1B68F6
:1039D0000593059B049308E0049A019B9A4208D042
:1039E000049B0593049BDB690493049B002BF3D198
:1039F00000E000BF049B002B01D1002333E0059AB7
:103A0000049B9A4214D11A4B1B68DB69184A136055
:103A1000174B1B68002B0BD1164B01229A60164BDB
:103A200000221A60154B01221A702F20FFF7BAFEF0
:103A3000049B1B680293049BDA69059BDA61059B72
:103A4000DB690493049B002B05D0049B1A68029B3E
:103A50001A44049B1A60064B1B68039A9A4214BFCF
:103A600001230023DBB2184607B05DF804FB00BF5A
:103A7000D078002000100140D4780020E3780020A6
:103A800008B51120FFF75EFE00BF08BD08B5142081
:103A9000FFF758FE00BF08BD00B583B00190019B41
:103AA0005B69019A92691046984700BF03B05DF8C0
:103AB00004FB000000B585B02B4B1B68002B4ED0DB
:103AC00000230193FFF706FF0246284B1B681946A7
:103AD0001046FFF707FF0290234B1B6803931DE07E
:103AE000039B1B68029A9A421CD3039B1B68029A91
:103AF000D31A0293039B1B68019A13440193039BFF
:103B00000093039BDB690393009B1B7C002B05D078
:103B1000009B00221A740098FFF7BEFF039B002B46
:103B2000DED100E000BF124B1A78124B1B789A428C
:103B30000CD1104B1B780133DAB20E4B1A700D4BBF
:103B40001B78022B02D10B4B00221A70094B1B78F9
:103B50001946094A019B42F82130FFF797FF00BF41
:103B600005B05DF804FB00BFD0780020D4780020B9
:103B7000E0780020E1780020D878002082B0019021
:103B8000184B1A78184B1B789A4223D0154B1B7888
:103B90000133DAB2134B1A70124B1B78022B02D18D
:103BA000104B00221A700F4B1B781A460F4B53F81C
:103BB0002220019B1A60019B1A680D4B1B6813445D
:103BC0000B4A13600A4B1B6823F07F43084A1360BB
:103BD000012303E0019B00221A600023184602B073
:103BE000704700BFE0780020E1780020D8780020FE
:103BF000D478002088B003900291019200230793AB
:103C000038E0204B1B680693069B1B68039A9A4278
:103C100006D2069B1A68039BD21A069B1A602EE0F6
:103C2000069B1B68039AD31A0393069B1B68079A8B
:103C300013440793069B00221A60124B1B680593DE
:103C4000069BDB690F4A1360069BDB68002B11D0D3
:103C5000029A079B134423F07F42069B5A60069BFF
:103C6000DA68069B9A60019B1A68069BDA61019BE1
:103C7000059A1A60034B1B68002BC2D100BF00BF1E
:103C800008B07047D078002000B589B001900023BB
:103C90008DF81F30664B1B680593AAE0019B002B33
:103CA00005D0019B0693069BDB69019361E0614BA4
:103CB0001B781A4613465B001344DB005D4A13442D
:103CC000043304935B4B1B780133DAB2594B1A70FF
:103CD000584B1A78574B9B789A4202D1554B002289
:103CE0001A70049B5B680693049B1B78032B1ED001
:103CF000032B7EDC012B1FD0022B7AD1049B5B6847
:103D00001846FFF75DFE0346002B02D001238DF815
:103D10001F30069B00221A746BE0454B1B6803930F
:103D2000039B00221A74039BDB69414A1360404BDA
:103D30001B68002BF1D15CE000BF069B1B7C002BB5
:103D400000D056E0049B9A68069B5A60049BDA6890
:103D5000069B9A60049B1A69069BDA60049B5A6969
:103D6000069B9A61344B1B78002B02D0069B0022E5
:103D70005A60069B5A68314B1B68D31A23F07F4365
:103D80002F4A93420ED8069B5B682C4A1268114654
:103D90001846FFF7A7FD0246069B9B681A44069B40
:103DA0001A6017E0254B1A68069B5B681946104697
:103DB000FFF798FD0290069B9B68029A9A4206D2F2
:103DC000069B9A68029BD21A069B1A6002E0069B29
:103DD00000221A60069B00225A60069B00229A600D
:103DE000069B01221A74069B0022DA610698FFF7EF
:103DF00091FD019B002B7FF451AF0E4B1A780D4BB8
:103E00005B789A427FF44AAF9DF81F30002B04D1B3
:103E1000074B1B68059A9A4201D0012300E000235A
:103E200003F00103DBB2184609B05DF804FB00BFE4
:103E3000D0780020C4770020E3780020D4780020D8
:103E4000FEFF7F0010B588B00190274B1B68002B48
:103E500044D0254B1B681B680793FFF73BFD06907A
:103E6000224B1B68059305990698FFF73BFD034617
:103E7000033304931E4B1B7883F00103DBB2002B4A
:103E800001D0FFF7DFFC049A079B934238BF13462B
:103E9000059A13440593059B23F07F4305930598EA
:103EA000FFF72CFDFFF716FD039006990398FFF727
:103EB00019FD0346DC1C06990598FFF713FD034620
:103EC0009C420DD9FFF706FD03461846FFF716FD85
:103ED0002F20FFF767FCFFF7D3FD01E0FFF7D2FCCF
:103EE00000BF08B010BD00BFD0780020D4780020FB
:103EF000E278002000B587B00023019300238DF8FD
:103F00001730194B1B680493184B1B6803936B46BF
:103F10001846FFF733FE03468DF80B309DF80B3043
:103F2000002B08D0009B01AA04991846FFF762FEF7
:103F300001238DF81730019B1846FFF7A5FE0346B5
:103F4000002B02D001238DF817309DF81730002B7D
:103F500002D00398FFF776FF054B00221A7000BFCE
:103F600007B05DF804FB00BFD4780020D0780020B3
:103F7000E378002008B50E4B0022C3F840210C4B1B
:103F80000022C3F844210A4B0022C3F84821084B01
:103F90000022C3F84C21064B0022C3F80021044B39
:103FA0000022C3F80421FFF785FD00BF08BD00BF54
:103FB0000010014008B5FFF79DFF00BF08BD82B0AB
:103FC000EFF310830093009B019372B600BF019B37
:103FD000184602B0704762B600BF00BF70470000CD
:103FE00000B585B00190FFF7EAFF0390164B9B6880
:103FF000002B1BD1144B01229A60144BD3F8802064
:10400000134B1340104A1360104B114AC3F8802021
:104010000E4BD3F884300C4A53600C4B4FF0FF32F8
:10402000C3F88420019B00221A7002E0019B012248
:104030001A70039B002B01D1FFF7CDFF0023184618
:1040400005B05DF804FB00BFE478002000E100E06B
:10405000FC06FFBD00B585B003468DF80730104B58
:104060009B68002B16D09DF80730002B12D1FFF76C
:10407000A6FF03900B4A0A4B1B681360094A084BC2
:104080005B685360064B00229A60039B002B01D1B2
:10409000FFF7A1FF0023184605B05DF804FB00BF41
:1040A000E478002000E100E000B583B0019000F06A
:1040B0002BF80346012B03D00549432012F042FAA6
:1040C0000198FFF78DFF00BF03B05DF804FB00BF50
:1040D00078C2030000B583B003468DF8073000F0C6
:1040E00013F80346012B03D00649512012F02AFA97
:1040F0009DF807301846FFF7ADFF00BF03B05DF82D
:1041000004FB00BF78C2030084B0EFF30583019382
:10411000019BC3F308030393039B002B0DD1EFF323
:1041200014830093009B0293029B03F00103002B76
:104130000CBF01230023DBB200E00123184604B0CA
:10414000704786B0039002910192019B002B02D030
:10415000019B1B8801E04FF6FF73ADF8163000237A
:1041600004933CE0BDF816301B0A9BB2DBB21AB2D6
:10417000BDF816301B021BB213431BB2ADF816304C
:10418000039A049B13441B789AB2BDF8163053402F
:10419000ADF81630BDF81630DBB21B09DBB29AB2AF
:1041A000BDF816305340ADF81630BDF816301B037D
:1041B0001AB2BDF9163053401BB2ADF81630BDF837
:1041C00016305B011BB203F4FF531AB2BDF916306F
:1041D00053401BB2ADF81630049B01330493049A8C
:1041E000029B9A42BED3BDF81630184606B07047FF
:1041F00000B583B001900B468DF80330019B002B76
:1042000003D10849AF2012F09DF9019BDA689DF8AF
:1042100003300199098A01FB03F31344184603B0E4
:104220005DF804FBC8C2030000B583B001900091A3
:10423000019B002B03D10849BC2012F083F9009B9D
:10424000019AD2689B1A019A128AB3FBF2F3DBB28D
:10425000184603B05DF804FBC8C2030000B585B082
:104260000190019B002B03D11F49EC2012F06AF949
:104270000023039300238DF80A300DF10A0318463A
:10428000FFF712FF019B1B681A68019B5B689A424B
:104290001FD9019B1B681A68013A1A601B681B78BA
:1042A00019460198FFF7A4FF0390019B9A68019BB0
:1042B0001B681B68D31A8DF80B30019B1B681B7998
:1042C0009DF80B209A4204D9019B1B689DF80B2096
:1042D0001A719DF80A301846FFF7FCFE039B18463A
:1042E00005B05DF804FB00BFC8C2030010B584B080
:1042F00001900091019B002B04D115494FF4887067
:1043000012F020F9009B002B04D1114940F211104A
:1043100012F018F9009B039300238DF80B300DF178
:104320000B031846FFF7C0FE019B1B681C68621C4C
:104330001A6003990198FFF777FF034623709DF8F1
:104340000B301846FFF7C6FE00BF04B010BD00BF1B
:10435000C8C2030000B583B001900091019B002BFF
:1043600003D10849362012F0EDF8019B9B68009AB2
:104370009A4202D2009B013300E00023184603B0AA
:104380005DF804FB10C3030084B00190019B1B681F
:104390001B680393019B1B685B680293029A039B53
:1043A0009A4203D3029A039BD31A06E0019B9A68B0
:1043B000039BD21A029B13440133184604B0704782
:1043C00000B585B00190019B002B03D10D49492018
:1043D00012F0B8F8019B1B681B680393019B1B68D4
:1043E0005B68029302990198FFF7B4FF0246039BB2
:1043F00093420CBF01230023DBB2184605B05DF8E1
:1044000004FB00BF10C3030010B588B001900091F9
:1044100000230793019B002B03D15649542012F02F
:1044200091F8009B002B03D15249552012F08AF8D5
:1044300000238DF80F300DF10F031846FFF734FEFF
:104440000198FFF7BDFF03468DF81B309DF81B3028
:1044500083F00103DBB2002B03D1019B1B7C002BFB
:104460007BD1019B1B685B680593019B1B685A68A5
:10447000019B1C6811460198FFF76CFF03466360BF
:104480009DF81B30002B0AD0019B1B681A68019B0A
:104490001C6811460198FFF75DFF03462360019BEE
:1044A000DB68013B072B38D801A252F823F000BF8C
:1044B000D1440200E14402001B450200F344020023
:1044C0001B4502001B4502001B450200054502007A
:1044D000019B5A68059B1344009A12781A702DE0CC
:1044E000019B5A68059B5B001344009A12881A804E
:1044F00024E0019B5A68059B9B001344009A1268B4
:104500001A601BE0019B5A68059BDB00D118009BD9
:10451000D3E90023C1E9002310E0019B5B68194641
:10452000019BDB68059A02FB03F30B441846019BD1
:10453000DB681A46009917F02EFE00BF0198FFF7BE
:1045400023FF0490019B1B689B68049A9A4207D939
:10455000019B1B68049A9A6002E00423079300E021
:1045600000BF9DF80F301846FFF7B4FD079B1846B3
:1045700008B010BD10C3030010B588B003900291BD
:1045800013468DF8073000230793039B002B03D1BC
:104590004549962011F0D6FF029B002B03D14249DA
:1045A000972011F0CFFF00238DF817300DF117037E
:1045B0001846FFF779FD039800F0C2F8034683F030
:1045C0000103DBB2002B63D0039B1B681B680693BF
:1045D0009DF8073083F00103DBB2002B0AD0039B68
:1045E0001B681A68039B1C6811460398FFF7B2FE0C
:1045F00003462360039BDB68013B072B37D801A2EE
:1046000052F823F025460200354602006F460200AC
:10461000474602006F4602006F4602006F460200E6
:1046200059460200039B5A68069B13441A78029B62
:104630001A702FE0039B5A68069B5B0013441A888C
:10464000029B1A8026E0039B5A68069B9B0013443A
:104650001A68029B1A601DE0039B5A68069BDB00E8
:104660001344D3E900230299C1E9002312E0039B1C
:104670005B681946039BDB68069A02FB03F30B4455
:104680001946039BDB681A46029817F084FD01E087
:10469000052307939DF817301846FFF71BFD079B6E
:1046A000184608B010BD00BF10C3030000B585B0A8
:1046B0000190019B002B04D10E494FF4CF7011F0F3
:1046C00041FF00238DF80F300DF10F031846FFF75F
:1046D000EBFC019B1B680C220021184617F084FD9F
:1046E0009DF80F301846FFF7F5FC00BF05B05DF8E8
:1046F00004FB00BF10C3030000B585B00190019B0F
:10470000002B04D10D494FF4D57011F01BFF00238D
:104710008DF80B300DF10B031846FFF7C5FC01981F
:10472000FFF732FE03909DF80B301846FFF7D2FCDE
:10473000039B184605B05DF804FB00BF10C30300DF
:1047400000B585B00190019B002B04D10B4940F2CC
:10475000B71011F0F7FE019B1B681B680393019BC8
:104760001B685B680293039A029B9A420CBF012369
:104770000023DBB2184605B05DF804FB10C303004C
:1047800000B583B001900091019B002B03D110492B
:10479000502011F0D7FE009B002B03D10C49512073
:1047A00011F0D0FE019B009A1A60019B1B681A68E9
:1047B000019B5A60019B5A68019B1B685B689A4287
:1047C00002D1019B00225A6000BF03B05DF804FBD8
:1047D00058C3030000B583B00190019B002B03D1A7
:1047E0001449632011F0AEFE019B1B68002B03D11E
:1047F0001049642011F0A6FE019B5B68002B14D0C9
:10480000019B5B681A46019B1B689B6813441A4610
:10481000019B5A60019B5A68019B1B685B689A4226
:1048200004D1019B00225A6000E000BF03B05DF894
:1048300004FB00BF58C3030082B0019000BF02B068
:10484000704710B584B00390029101920093069BCB
:10485000002B01D10E230BE0039B002B01D10E2373
:1048600006E0069C009B019A02990398A047034624
:10487000184604B010BD10B584B0039002910192A7
:104880000093069B002B01D10E230BE0009B002B15
:1048900001D10E2306E0069C009B019A0299039821
:1048A000A0470346184604B010BD86B001900091A1
:1048B000019B002B01D10E231CE0009B002B01D19A
:1048C000072317E00023039303AB0593002304930E
:1048D000039B019A13441B78602B01D0072309E046
:1048E000039B01330393039B009A9A4201D009234F
:1048F00000E00023184606B0704700B585B003906D
:1049000002910192019B029A039960200DF04BF9EC
:104910000346184605B05DF804FB00B58BB0059062
:10492000039202930B46ADF81230059B002B01D188
:104930000E234FE0BDF81230002B01D1072349E0D0
:104940000023079307AB099300230893079B059A5D
:1049500013441B78682B01D007233BE0079B0133EE
:104960000793039B002B01D10E2333E0029B002B06
:1049700001D10E232EE0029B1B68002B01D10E23D8
:1049800028E0BDF81210039B099A05980DF075F9FF
:104990000890089B002B01D0089B1BE0029B1B6822
:1049A0001846FFF749FFBDF8121000230093029B41
:1049B000099A05980EF06CF80890089B002B01D01E
:1049C000089B07E0BDF81220079B9A4201D00923FB
:1049D00000E0002318460BB05DF804FB00B58FB073
:1049E0000590049103920293049B002B01D10E23A6
:1049F000D7E0039B002B01D10E23D2E000230893C4
:104A000008AB0B9300230A93039B1B68099368234D
:104A10008DF81F300DF11F000B9B099A04990DF0C2
:104A2000CAF90A900A9B002B01D00A9BB9E005A89D
:104A30000B9B099A04990DF0ECF80A900A9B002B45
:104A400001D00A9BADE00A9B002B01D00A9BA8E095
:104A5000059B002B04D0089A039B1A600023A0E05A
:104A6000109B002B01D10E239BE002A80B9B099AFF
:104A700004990DF0CEF80A900A9B002B01D00A9BF6
:104A80008FE000230D9300230C93029B013B242B0A
:104A900074D801A252F823F02D4B0200374B0200CC
:104AA0007D4B02007D4B02007D4B02007D4B0200DE
:104AB0007D4B02007D4B02007D4B02007D4B0200CE
:104AC0007D4B02007D4B02007D4B02007D4B0200BE
:104AD0007D4B02007D4B02007D4B02007D4B0200AE
:104AE0007D4B02007D4B02007D4B02007D4B02009E
:104AF0007D4B02007D4B02007D4B02007D4B02008E
:104B00007D4B02007D4B02007D4B02007D4B02007D
:104B10007D4B0200414B02004B4B0200554B020003
:104B2000694B0200734B02005F4B02001F4B0D9359
:104B3000109B0C9323E01E4B0D93109B0C931EE0D7
:104B40001C4B0D93109B0C9319E01B4B0D93109B6A
:104B50000C9314E0194B0D93109B0C930FE0184B22
:104B60000D93109B0C930AE0164B0D93109B0C9326
:104B700005E0154B0D93109B0C9300E000BF0D9BBF
:104B800000930B9B099A04990C98FFF75AFE0A9020
:104B90000A9B002B01D00A9B03E0089A039B1A6032
:104BA000002318460FB05DF804FB00BF3125030059
:104BB000032903002BAE020015AF020045B002002E
:104BC000B5B5020009B10200F5B8020000B58DB01C
:104BD0000590039202930B46ADF81230059B002B13
:104BE00001D10E23F4E0BDF81230002B01D10723D0
:104BF000EEE00023079307AB099300230893079B7C
:104C0000059A13441B78672B01D00723E0E0079B2C
:104C100001330793039B002B01D10E23D8E0029BA5
:104C2000002B01D10E23D3E0029B1B68002B01D186
:104C30000E23CDE0BDF81210039B099A05980DF0E4
:104C40001CF80890089B002B01D0089BC0E0029B39
:104C50001B681846FFF7F0FDBDF812100023009303
:104C6000029B099A05980DF013FF0890089B002BF2
:104C700001D0089BACE0029B1B68002B00F0A080D9
:104C800000230B9300230A93039B1B68013B252BF6
:104C900000F2868001A252F823F000BF354D0200D9
:104CA000414D0200A14D0200A14D0200A14D0200A4
:104CB000A14D0200A14D0200A14D0200A14D020034
:104CC000A14D0200A14D0200A14D0200A14D020024
:104CD000A14D0200A14D0200A14D0200A14D020014
:104CE000A14D0200A14D0200A14D0200A14D020004
:104CF000A14D0200A14D0200A14D0200A14D0200F4
:104D0000A14D0200A14D0200A14D0200A14D0200E3
:104D1000A14D0200A14D02004D4D0200594D02006F
:104D2000654D02007D4D0200894D0200714D02006B
:104D3000954D0200284B0B93029B1B680A9330E0B1
:104D4000264B0B93029B1B680A932AE0244B0B9380
:104D5000029B1B680A9324E0224B0B93029B1B6867
:104D60000A931EE0204B0B93029B1B680A9318E0EA
:104D70001E4B0B93029B1B680A9312E01C4B0B9378
:104D8000029B1B680A930CE01A4B0B93029B1B6857
:104D90000A9306E0184B0B93029B1B680A9300E0F2
:104DA00000BFBDF812100B9B00930A9B099A05984F
:104DB000FFF761FD0890089B002B01D0089B07E0DE
:104DC000BDF81220079B9A4201D0092300E000237E
:104DD00018460DB05DF804FBF925030067290300B0
:104DE0009DAE0200A5AF02009FB0020023B60200F4
:104DF0006DB1020059B90200C7B9020000B585B013
:104E0000039002910192019B029A039967200CF092
:104E1000CAFE0346184605B05DF804FB00B58BB02A
:104E20000590049103920293059B002B01D10E2360
:104E30004BE0049B002B01D1072346E0002307939E
:104E400007AB099300230893079B059A13441B782B
:104E5000662B01D0072338E0079B01330793039BA0
:104E6000002B01D10E2330E0029B002B01D10E2339
:104E70002BE0029B1B68002B01D10E2325E0039B36
:104E8000099A049905980CF050FF0890089B002B94
:104E900001D0089B19E0029B1B681846FFF7CCFC69
:104EA0000C4B0093029B099A049905980DF0F0FDB4
:104EB0000890089B002B01D0089B06E0079B049AF2
:104EC0009A4201D0092300E0002318460BB05DF898
:104ED00004FB00BFFB27030000B585B003900291DF
:104EE0000192019B029A039966200CF05CFE034636
:104EF000184605B05DF804FB00B58BB00590049131
:104F000003920293059B002B01D10E2342E0049BE8
:104F1000002B01D107233DE00023079307AB099342
:104F200000230893079B059A13441B78632B01D039
:104F300007232FE0079B01330793029B1B6818464A
:104F4000FFF77AFC039B0093029B099A049905984A
:104F50000CF0B4FF0890089B002B01D0089B19E0CF
:104F60000C9B1B681846FFF767FC002300930C9B03
:104F7000099A049905980DF08BFD0890089B002B69
:104F800001D0089B06E0079B049A9A4201D00923AE
:104F900000E0002318460BB05DF804FB00B58DB0AF
:104FA0000590049103920293049B002B01D10E23E0
:104FB00048E0039B002B01D10E2343E0002308931C
:104FC00008AB0B9300230A93039B1B68099363238D
:104FD0008DF81F300DF11F000B9B099A04990CF0FE
:104FE000EAFE0A900A9B002B01D00A9B2AE005A842
:104FF0000B9B099A04990CF00CFE0A900A9B002B5B
:1050000001D00A9B1EE00A9B002B01D00A9B19E0ED
:10501000059B002B04D0089A039B1A60002311E023
:105020000A4B00930B9B099A049902980DF0FEFC21
:105030000A900A9B002B01D00A9B03E0089A039B6D
:105040001A60002318460DB05DF804FB9D23030091
:1050500000B58BB00590039202930B46ADF8123069
:10506000059B002B01D10E237BE0BDF81230002BF5
:1050700001D1072375E00023079307AB09930023B1
:105080000893079B059A13441B78642B01D00723D0
:1050900067E0079B01330793039B002B01D10E238D
:1050A0005FE0029B002B01D10E235AE00C9B002BEA
:1050B00001D10E2355E0039B1B68002B01D10E2369
:1050C0004FE0029B1B68002B01D10E2349E00C9B93
:1050D0001B68002B01D10E2343E0039B1B6818467D
:1050E000FFF7AAFBBDF81210204B0093039B099A0F
:1050F00005980DF0CDFC0890089B002B01D0089B73
:105100002FE0029B1B681846FFF796FBBDF81210B4
:1051100000230093029B099A05980DF0B9FC0890B2
:10512000089B002B01D0089B1BE00C9B1B681846BA
:10513000FFF782FBBDF81210002300930C9B099A25
:1051400005980DF0A5FC0890089B002B01D0089B4A
:1051500007E0BDF81220079B9A4201D0092300E026
:10516000002318460BB05DF804FB00BF0B240300BE
:1051700000B58DB00590049103928DF80B30049B1F
:10518000002B01D10E235AE0039B002B01D10E23EB
:1051900055E00023089308AB0B9300230A93039B6D
:1051A0001B68099364238DF81F300DF11F000B9BC2
:1051B000099A04990CF0FFFD0A900A9B002B01D07C
:1051C0000A9B3CE005A80B9B099A04990CF021FD71
:1051D0000A900A9B002B01D00A9B30E00A9B002B0F
:1051E00001D00A9B2BE0059B002B04D0089A039B5F
:1051F0001A60002323E00DF10B000B9B099A049920
:105200000CF0D9FD0A900A9B002B01D00A9B16E0F6
:105210000E9B002B0FD09DF80B3099B20B9B009387
:10522000099B049A0E980DF01EF80A900A9B002B19
:1052300001D00A9B03E0089A039B1A6000231846DA
:105240000DB05DF804FB000000B58BB00590039233
:1052500002930B46ADF81230059B002B01D10E23B3
:105260005CE0BDF81230002B01D1072356E000238B
:10527000079307AB099300230893079B059A1344F0
:105280001B78622B01D0072348E0079B013307936B
:10529000039B002B01D10E2340E0029B002B01D188
:1052A0000E233BE0039B1B68002B01D10E2335E04E
:1052B000029B1B68002B01D10E232FE0039B1B6870
:1052C0001846FFF7B9FABDF81210164B0093039B6E
:1052D000099A05980DF0DCFB0890089B002B01D083
:1052E000089B1BE0029B1B681846FFF7A5FABDF858
:1052F000121000230093029B099A05980DF0C8FB39
:105300000890089B002B01D0089B07E0BDF81220F5
:10531000079B9A4201D0092300E0002318460BB0F6
:105320005DF804FBD524030000B58DB00590049111
:1053300003920293049B002B01D10E2348E0039BB0
:10534000002B01D10E2343E00023089308AB0B93FD
:1053500000230A93039B1B68099362238DF81F3077
:105360000DF11F000B9B099A04990CF024FD0A9083
:105370000A9B002B01D00A9B2AE005A80B9B099AE7
:1053800004990CF046FC0A900A9B002B01D00A9B62
:105390001EE00A9B002B01D00A9B19E0059B002B05
:1053A00004D0089A039B1A60002311E00A4B009373
:1053B0000B9B099A049902980DF038FB0A900A9BFE
:1053C000002B01D00A9B03E0089A039B1A6000237C
:1053D00018460DB05DF804FBB71D030000B58BB097
:1053E00005900B460392ADF81230059B002B01D1BE
:1053F0000E233DE0BDF81230002B01D1072337E02A
:105400000023079307AB099300230893079B059A92
:1054100013441B78652B01D0072329E0079B013338
:105420000793039B002B01D10E2321E0039B1B68F4
:10543000002B01D10E231BE0039B1B681846FFF7CE
:10544000FBF9BDF8121000230093039B099A0598FD
:105450000DF01EFB0890089B002B01D0089B07E075
:10546000BDF81220079B9A4201D0092300E00023D7
:1054700018460BB05DF804FB00B58DB005900491A3
:1054800003920293049B002B01D10E2348E0039B5F
:10549000002B01D10E2343E00023089308AB0B93AC
:1054A00000230A93039B1B68099365238DF81F3023
:1054B0000DF11F000B9B099A04990CF07CFC0A90DB
:1054C0000A9B002B01D00A9B2AE005A80B9B099A96
:1054D00004990CF09EFB0A900A9B002B01D00A9BBA
:1054E0001EE00A9B002B01D00A9B19E0059B002BB4
:1054F00004D0089A039B1A60002311E00A4B009322
:105500000B9B099A04990298FFF79BF90A900A9B52
:10551000002B01D00A9B03E0089A039B1A6000232A
:1055200018460DB05DF804FB7B28030000B589B078
:1055300003900B460192ADF80A30039B002B01D17A
:105540000E2329E0BDF80A30002B01D1072323E008
:105550000023059305AB079300230693059B039A4D
:1055600013441B78672B01D0072315E0059B0133FB
:105570000593019B002B01D10E230DE0BDF80A100D
:10558000019B079A03980CF078FB0690069B002B72
:1055900001D0069B00E00023184609B05DF804FB2B
:1055A00000B58DB00590049103920293059B002BEA
:1055B00001D10E230EE1049B002B01D1072309E149
:1055C0000023079307AB099300230893079B059AD1
:1055D00013441B78692B01D00723FBE0079B0133A1
:1055E0000793039B099A049905980CF046FB0890D1
:1055F000089B002B01D0089BECE0029B1B6818461F
:10560000FFF71AF900230093029B099A0499059861
:105610000DF03EFA0890089B002B01D0089BD9E0C2
:10562000029B1B68002B00F0CE8000230B9300230D
:105630000A93039B1B68A12B00F09B80A12B00F217
:105640009E80A02B00F08F80A02B00F29880012B71
:1056500077D0002B00F09380412B00F29080202B1C
:10566000C0F08D80203B212B00F2898001A252F8EE
:1056700023F000BFFD5602000B570200195702002D
:1056800027570200355702007F5702007F5702005C
:105690007F5702007F5702007F5702007F570200AA
:1056A0007F5702007F5702007F5702007F5702009A
:1056B0007F5702007F5702007F5702007F5702008A
:1056C0007F5702007F5702007F5702007F5702007A
:1056D0007F5702007F5702007F5702007F5702006A
:1056E0007F5702007F5702007F5702007F5702005A
:1056F0007F5702004F5702005B570200374B0B9356
:10570000029B1B6802330A933AE0354B0B93029BD2
:105710001B6802330A9333E0324B0B93029B1B68E6
:1057200002330A932CE0304B0B93029B1B6802332D
:105730000A9325E02D4B0B93029B1B6802330A93BF
:105740001EE02B4B0B93029B1B680A9318E0294B1E
:105750000B93029B1B680A9312E0274B0B93029B4F
:105760001B680A930CE0254B0B93029B1B680A9362
:1057700006E0234B0B93029B1B680A9300E000BFDB
:10578000039B1B681F2B10D9039B1B68232B0CD872
:10579000029B1B68099A049905980CF02AFB089053
:1057A000089B002B01D0089B14E00B9B00930A9BE5
:1057B000099A04990598FFF75EF80890089B002B5A
:1057C00001D0089B06E0079B049A9A4201D0092366
:1057D00000E0002318460DB05DF804FB4DBA02004E
:1057E00081E20200B30803007DC0020055180300E7
:1057F000D5290300BFBA020095B602000B090300C9
:105800007909030000B585B0039002910192019BD4
:10581000029A039969200CF0C6F90346184605B0B0
:105820005DF804FB00B587B003900B460192ADF81C
:105830000A30039B002B01D10E2339E0019B002B82
:1058400001D10E2334E00023049300230593BDF817
:105850000A10019B013304AA03980CF0CAFA0590C0
:10586000059B002B01D0059B22E0BDF80A10019B8F
:1058700004AA03980CF0BDFA0590059B002B01D0FB
:10588000059B15E0BDF80A10019B053304AA039897
:105890000CF0AFFA0590059B002B01D0059B07E0AB
:1058A000BDF80A20049B9A4201D0092300E0059B21
:1058B000184607B05DF804FB00B587B0039002916D
:1058C0000192029B002B01D10E2319E0019B002BBA
:1058D00001D10E2314E00023049300230593019BC0
:1058E0001A6804AB03A802990CF093F90590059B84
:1058F000002B01D0059B03E0049A019B1A60059BD5
:10590000184607B05DF804FB00B587B0039002911C
:105910000192009300230593019B002B01D10E23DC
:10592000A7E2009B002B01D10E23A2E2039B002BD8
:1059300001D10E239DE2039B1B88013B762B00F2D5
:10594000918201A252F823F0355B0200255B020030
:10595000655E0200655E0200655E0200655E020033
:10596000655E0200655E0200655E0200655E020023
:10597000655E0200655E0200655E0200655E020013
:10598000655E0200F55B0200E55B0200455B02001C
:10599000655B0200755B0200955B0200155C02000E
:1059A000A55B0200255C0200855B0200B55B02007E
:1059B000D55B0200C55B0200455E0200055C02008B
:1059C000555B0200555E0200455C0200355C02003A
:1059D000555C0200655C0200655E0200655E0200C7
:1059E000655E0200655E0200655E0200655E0200A3
:1059F000655E0200655E0200655E0200655E020093
:105A0000655E0200A55C0200F55C0200755C0200A8
:105A1000855C0200155D0200955C0200C55C020019
:105A2000055D0200E55C0200B55C0200255D020038
:105A3000D55C0200355D0200655E0200655E020015
:105A4000655E0200655E0200655E0200655E020042
:105A5000655E0200655E0200655E0200655E020032
:105A6000655E0200655E0200655E0200655E020022
:105A7000655E0200655E0200655E0200655E020012
:105A8000655E0200755D0200855D0200955D0200A5
:105A9000455D0200655D0200A55D0200555D0200E6
:105AA000B55D0200655E0200655E0200655E020093
:105AB000655E0200655E0200655E0200655E0200D2
:105AC000655E0200655E0200655E0200655E0200C2
:105AD000655E0200655E0200655E0200655E0200B2
:105AE000655E0200655E0200655E0200655E0200A2
:105AF000655E0200655E0200655E0200655E020092
:105B0000655E0200C55D0200D55D0200E55D020034
:105B1000F55D0200055E0200155E0200255E0200D2
:105B2000355E0200009B019A0299039800F0A6F9E5
:105B300005909DE1009B019A0299039800F01DFADF
:105B4000059095E1009B019A0299039802F038FEB6
:105B500005908DE1009B019A0299039802F08CFE5A
:105B6000059085E1009B019A0299039803F05CFA85
:105B700005907DE1009B019A0299039803F0F8F9E2
:105B8000059075E1009B019A0299039802F08CFD43
:105B900005906DE1009B019A0299039803F0BAF811
:105BA000059065E1009B019A0299039802F024FD9B
:105BB00005905DE1009B019A0299039802F0B8FEFE
:105BC000059055E1009B019A0299039803F00FF9A3
:105BD00005904DE1009B019A0299039803F0DCFACD
:105BE000059045E1009B019A0299039802F058FF45
:105BF00005903DE1009B019A0299039802F0F4FEA2
:105C0000059035E1009B019A0299039803F068FA28
:105C100005902DE1009B019A0299039802F0B4FFD0
:105C2000059025E1009B019A0299039803F004F87E
:105C300005901DE1009B019A0299039803F003FB74
:105C4000059015E1009B019A0299039803F06EFB01
:105C500005900DE1009B019A0299039803F0C2FBA5
:105C6000059005E1009B019A0299039803F016FC48
:105C70000590FDE0009B019A0299039806F054FFFD
:105C80000590F5E0009B019A0299039807F0AEF8A1
:105C90000590EDE0009B019A0299039806F0BAFF87
:105CA0000590E5E0009B019A0299039807F08AF9B4
:105CB0000590DDE0009B019A0299039807F00CF92A
:105CC0000590D5E0009B019A0299039807F0F0F93E
:105CD0000590CDE0009B019A0299039807F0D4FA51
:105CE0000590C5E0009B019A0299039807F042FBDA
:105CF0000590BDE0009B019A0299039807F04EFAC7
:105D00000590B5E0009B019A0299039806F0F8FF10
:105D10000590ADE0009B019A0299039806F08EFE73
:105D20000590A5E0009B019A0299039807F098FB63
:105D300005909DE0009B019A0299039807F006FCEC
:105D4000059095E0009B019A0299039809F07AFC6E
:105D500005908DE0009B019A0299039809F070FD6F
:105D6000059085E0009B019A0299039809F0C4FC14
:105D700005907DE0009B019A0299039809F0BAFD15
:105D8000059075E0009B019A0299039809F0CAFBFF
:105D900005906DE0009B019A0299039809F0F6FCCA
:105DA000059065E0009B019A0299039809F02CFE8A
:105DB00005905DE0009B019A0299039809F07EFE30
:105DC000059055E0009B019A029903980BF08CF91D
:105DD00005904DE0009B019A029903980BF0FAF9A7
:105DE000059045E0009B019A029903980BF064FA34
:105DF00005903DE0009B019A029903980BF0C4FACC
:105E0000059035E0009B019A029903980BF012FB74
:105E100005902DE0009B019A029903980BF087FBF7
:105E2000059025E0009B019A029903980BF0E3FB93
:105E300005901DE0009B019A029903980BF073FCFA
:105E4000059015E0009B019A0299039802F078FBF7
:105E500005900DE0009B019A0299039803F01EF84B
:105E6000059005E006230593009B00221A6000BF01
:105E7000059B184607B05DF804FB00BF00B58DB068
:105E80000590049103920293059B002B01D10E23F0
:105E90006FE0039B002B01D10E236AE0029B002BD5
:105EA00001D10E2365E0059B1B88022B01D007233F
:105EB0005FE00023089308AB0B93029B1B680A93D7
:105EC000002309930223ADF81E300DF11E000B9B39
:105ED0000A9A03990BF004FF0990099B002B01D04B
:105EE000099B46E0059B181D0B9B0A9A03990BF032
:105EF000F7FE0990099B002B01D0099B39E0059B17
:105F000003F108000B9B0A9A03990BF054FF0990C8
:105F1000099B002B01D0099B2BE0059B03F110008E
:105F20000B9B0A9A03990BF0DBFE0990099B002B4F
:105F300001D0099B1DE0059BD868002300930B9BB3
:105F40000A9A03990CF072FD0990099B002B01D06D
:105F5000099B0EE0059B9B8818460CF0D7FE099024
:105F6000099B002B01D0099B03E0089A029B1A6051
:105F7000099B18460DB05DF804FB00B58BB003908B
:105F8000029101920093039B002B01D10E2347E065
:105F9000019B002B01D10E2342E0009B002B01D17D
:105FA0000E233DE0039B1B88012B01D0072337E024
:105FB0000023069306AB0993009B1B6808930023FC
:105FC00007930123ADF816300DF11600099B089ACE
:105FD00001990BF085FE0790079B002B01D0079BD2
:105FE0001EE0039B181D099B089A01990BF078FE8F
:105FF0000790079B002B01D0079B11E0039B03F147
:106000000800099B089A01990BF0D5FE0790079BA1
:10601000002B01D0079B03E0069A009B1A60079BA8
:1060200018460BB05DF804FB82B0019000BF02B0CF
:10603000704710B584B00390029101920093069BC3
:10604000002B01D10E230BE0039B002B01D10E236B
:1060500006E0069C009B019A02990398A04703461C
:10606000184604B010BD00B58BB0059004910392A2
:106070000293059B002B01D10E234CE0049B002BC7
:1060800001D1072347E00023079307AB09930023BF
:106090000893079B059A13441B78722B01D00723A2
:1060A00039E0079B01330793029B002B01D10E239C
:1060B00031E00D9B002B01D10E232CE0039B1B68CC
:1060C0001846FFF7B1FF029B0093039B099A0499BE
:1060D00005980BF0F3FE0890089B002B01D0089B5D
:1060E00019E00C9B1B681846FFF79EFF0D9B009361
:1060F0000C9B099A049905980BF0E0FE0890089B08
:10610000002B01D0089B06E0079B049A9A4201D01D
:10611000092300E0002318460BB05DF804FB00B52E
:1061200085B0039002910192019B029A039972201B
:106130000BF039FD0346184605B05DF804FB00007E
:1061400000B58BB00590049103920293059B002B40
:1061500001D10E234DE0049B002B01D1072348E021
:106160000023079307AB099300230893079B059A25
:1061700013441B78732B01D007233AE0079B0133AC
:106180000793039B002B01D10E2332E0039B1B6876
:10619000002B01D10E232CE0039B1B685B68002BB6
:1061A00001D10E2325E0039B1B681846FFF73CFF37
:1061B000124B0093039B099A049905980CF068FC14
:1061C0000890089B002B01D0089B12E0029B099AC3
:1061D000049905980BF00DFE0890089B002B01D048
:1061E000089B06E0079B049A9A4201D0092300E02D
:1061F000002318460BB05DF804FB00BFC1B40200D9
:1062000000B585B0039002910192019B029A039917
:1062100073200BF0C8FC0346184605B05DF804FB7C
:1062200000B585B0039002910192019B029A0399F7
:1062300074200BF0B8FC0346184605B05DF804FB6B
:1062400000B58BB005900B460392ADF81230059B5C
:10625000002B01D10E233DE0BDF81230002B01D1FF
:10626000072337E00023079307AB09930023089324
:10627000079B059A13441B78792B01D0072329E04B
:10628000079B01330793039B002B01D10E2321E0D1
:10629000039B1B68002B01D10E231BE0039B1B6893
:1062A0001846FFF7C1FEBDF8121000230093039BB0
:1062B000099A05980CF0ECFB0890089B002B01D084
:1062C000089B07E0BDF81220079B9A4201D00923E2
:1062D00000E0002318460BB05DF804FB00B58DB05C
:1062E0000590049103920293049B002B01D10E238D
:1062F00048E0039B002B01D10E2343E000230893C9
:1063000008AB0B9300230A93039B1B680993792323
:106310008DF81F300DF11F000B9B099A04990BF0AB
:106320004AFD0A900A9B002B01D00A9B2AE005A88F
:106330000B9B099A04990BF06CFC0A900A9B002BAA
:1063400001D00A9B1EE00A9B002B01D00A9B19E09A
:10635000059B002B04D0089A039B1A60002311E0D0
:106360000A4B00930B9B099A049902980CF05EFB70
:106370000A900A9B002B01D00A9B03E0089A039B1A
:106380001A60002318460DB05DF804FBE11C030001
:1063900000B589B0039002910192039B002B01D1BB
:1063A0000E232DE0029B002B01D1072328E00023C0
:1063B000059305AB079300230693059B039A1344AB
:1063C0001B78782B01D007231AE0059B0133059336
:1063D000019B002B01D10E2312E0019B079A029929
:1063E00003980BF0A2FC0690069B002B01D0069BA5
:1063F00006E0059B029A9A4201D0092300E000239F
:10640000184609B05DF804FB00B585B00390029111
:106410000192019B029A039978200BF0C4FB03467A
:10642000184605B05DF804FB00B58BB005900392EB
:1064300002930B46ADF81230059B002B01D10E23C1
:1064400075E0BDF81230002B01D107236FE0002367
:10645000069306AB089300230793069B059A134403
:106460001B78802B01D0072361E0069B0133069344
:10647000039B002B01D10E2359E0029B002B01D17D
:106480000E2354E0BDF81210039B089A05980BF0F8
:106490004CFC0790079B002B01D0079B47E0BDF801
:1064A0001210029B089A05980BF0A3FC0790079B1B
:1064B000002B01D0079B3AE0029B1B78022B0ED0E9
:1064C000022B10DC002B02D0012B04D00BE00023A8
:1064D0008DF8273009E006238DF8273005E01023DA
:1064E0008DF8273001E0072321E00C9B1B6818463C
:1064F000FFF79AFDBDF812109DF827309BB29DF86A
:10650000272092B2019200930C9B089A05980BF0F9
:1065100054FE0790079B002B01D0079B07E0BDF8B6
:106520001220069B9A4201D0092300E0002318465E
:106530000BB05DF804FB00B585B0039002910192A9
:10654000019B029A039980200BF02DFB034618460D
:1065500005B05DF804FB000000B58BB00590049118
:1065600003920293059B002B01D10E234BE0049B69
:10657000002B01D1072346E00023079307AB0993C3
:1065800000230893079B059A13441B787E2B01D0A8
:10659000072338E0079B01330793039B002B01D1AE
:1065A0000E2330E0029B002B01D10E232BE0029B37
:1065B0001B68002B01D10E2325E0039B099A049947
:1065C00005980BF0B2FB0890089B002B01D0089BAC
:1065D00019E0029B1B681846FFF726FD0C4B009341
:1065E000029B099A049905980CF052FA0890089BAE
:1065F000002B01D0089B06E0079B049A9A4201D029
:10660000092300E0002318460BB05DF804FB00BF2F
:1066100025A3020000B585B0039002910192019B71
:10662000029A03997E200BF0BEFA0346184605B085
:106630005DF804FB00B58BB00590049103920293C2
:10664000059B002B01D10E234BE0049B002B01D1B5
:10665000072346E00023079307AB09930023089321
:10666000079B059A13441B78752B01D0072338E04C
:10667000079B01330793039B002B01D10E2330E0CE
:10668000029B002B01D10E232BE0029B1B68002BE9
:1066900001D10E2325E0039B099A049905980BF07C
:1066A00044FB0890089B002B01D0089B19E0029B3B
:1066B0001B681846FFF7B8FC0C4B0093029B099A25
:1066C000049905980CF0E4F90890089B002B01D080
:1066D000089B06E0079B049A9A4201D0092300E038
:1066E000002318460BB05DF804FB00BF37A602007C
:1066F00000B585B0039002910192019B029A039923
:1067000075200BF050FA0346184605B05DF804FBFF
:1067100000B58BB00590049103920293059B002B6A
:1067200001D10E2340E0049B002B01D107233BE065
:106730000023079307AB099300230893079B059A4F
:1067400013441B78872B01D007232DE0079B0133CF
:106750000793039B002B01D10E2325E0039B099A8D
:10676000049905980BF0E1FA0890089B002B01D0E2
:10677000089B19E0029B1B681846FFF755FC002395
:106780000093029B099A049905980CF081F90890EE
:10679000089B002B01D0089B06E0079B049A9A42B5
:1067A00001D0092300E0002318460BB05DF804FB7C
:1067B00000B58DB00590049103920293039B002BCA
:1067C00001D10E2348E0029B002B01D10E2343E0B0
:1067D0000023089308AB0B9300230A93029B1B68CA
:1067E000099387238DF81F300DF11F000B9B099A29
:1067F00003990BF0E0FA0A900A9B002B01D00A9B48
:106800002AE005A80B9B099A03990BF002FA0A905B
:106810000A9B002B01D00A9B1EE00A9B002B01D093
:106820000A9B19E0059B002B04D0089A029B1A6072
:10683000002311E00A4B00930B9B099A03990498DB
:106840000CF0F4F80A900A9B002B01D00A9B03E09D
:10685000089A029B1A60002318460DB05DF804FBED
:10686000D99F020000B58BB005900491039202936A
:10687000059B002B01D10E2382E0049B002B01D14C
:1068800007237DE00023079307AB099300230893B8
:10689000079B059A13441B788C2B01D007236FE0CC
:1068A000079B01330793039B002B01D10E2367E065
:1068B000039B1B68002B01D10E2361E0029B002B80
:1068C00001D10E235CE0029B1B68002B01D10E233B
:1068D00056E00C9B002B01D10E2351E00C9B1B6852
:1068E000002B01D10E234BE0039B1B681846FFF7DA
:1068F0009BFB254B0093039B099A049905980CF088
:10690000C7F80890089B002B01D0089B38E0029B39
:106910001B681846FFF788FB1C4B0093029B099AE3
:10692000049905980CF0B4F80890089B002B01D04E
:10693000089B25E00C9B1B681846FFF775FB144B62
:1069400000930C9B099A049905980CF0A1F8089003
:10695000089B002B01D0089B12E00D9B099A04991B
:1069600005980BF046FA0890089B002B01D0089B75
:1069700006E0079B049A9A4201D0092300E0002315
:1069800018460BB05DF804FB2B98020019A8020012
:1069900037A6020000B585B0039002910192019BD9
:1069A000029A03998C200BF0FEF80346184605B0B6
:1069B0005DF804FB00B585B0039002910192019B44
:1069C000029A03998D200BF0EEF80346184605B0A5
:1069D0005DF804FB00B58BB005900491039202931F
:1069E000059B002B01D10E2347E0049B002B01D116
:1069F000072342E00023079307AB09930023089382
:106A0000079B059A13441B787D2B01D0072334E0A4
:106A1000079B01330793029B002B01D10E232CE02F
:106A2000029B1B681846FFF7FFFA164B0093029B68
:106A3000099A049905980CF02BF80890089B002BF4
:106A400001D0089B19E0039B1B681846FFF7ECFA7E
:106A500000230093039B099A049905980CF018F8F9
:106A60000890089B002B01D0089B06E0079B049A26
:106A70009A4201D0092300E0002318460BB05DF8CC
:106A800004FB00BF2B1D030000B58DB005900491E1
:106A900003920293029B002B01D10E235AE00E9B1E
:106AA000002B01D10E2355E00023089308AB0B9374
:106AB00000230A930E9B1B6809937D238DF81F30DA
:106AC0000DF11F000B9B099A02990BF074F90A90C3
:106AD0000A9B002B01D00A9B3CE005A80B9B099A5E
:106AE00002990BF096F80A900A9B002B01D00A9BA2
:106AF00030E00A9B002B01D00A9B2BE0059B002B6A
:106B000004D0089A0E9B1A60002323E0134B0093D5
:106B10000B9B099A029903980BF088FF0A900A9B35
:106B2000002B01D00A9B15E0039B002B0ED0039B8A
:106B300019880B9B0093099B029A04980BF093FB16
:106B40000A900A9B002B01D00A9B03E0089A0E9B37
:106B50001A60002318460DB05DF804FBE11C030029
:106B600000B58BB00590049103920293059B002B16
:106B700001D10E2351E0049B002B01D107234CE0EF
:106B80000023079307AB099300230893079B059AFB
:106B900013441B787C2B01D007233EE0079B013375
:106BA0000793039B002B01D10E2336E0029B002BA1
:106BB00001D10E2331E00C9B002B01D10E232CE0E0
:106BC000039B1B681846FFF72FFA164B0093039B95
:106BD000099A049905980BF05BFF0890089B002B1D
:106BE00001D0089B19E0029B1B681846FFF71CFAAE
:106BF0000C9B0093029B099A049905980BF0B9F934
:106C00000890089B002B01D0089B06E0079B049A84
:106C10009A4201D0092300E0002318460BB05DF82A
:106C200004FB00BFF59E020000B585B00390029101
:106C30000192019B029A03997C200AF0B4FF03465B
:106C4000184605B05DF804FB00B589B003900291C9
:106C500001920093039B002B01D10E233EE0029B87
:106C6000002B01D1072339E00023059305AB0793DF
:106C700000230693059B039A13441B78762B01D0BF
:106C800007232BE0059B01330593019B002B01D1CA
:106C90000E2323E0009B002B01D10E231EE0019B5D
:106CA000079A029903980BF040F80690069B002B78
:106CB00001D0069B12E0009B079A029903980BF003
:106CC00098F80690069B002B01D0069B06E0059BDA
:106CD000029A9A4201D0092300E00023184609B025
:106CE0005DF804FB00B585B0039002910192019B11
:106CF000029A039976200AF056FF0346184605B01B
:106D00005DF804FB00B58BB00590039202930B462F
:106D1000ADF81230059B002B01D10E236EE0BDF8BB
:106D20001230002B01D1072368E00023079307AB43
:106D3000099300230893079B059A13441B78852B1E
:106D400001D007235AE0079B01330793039B002BD5
:106D500001D10E2352E00C9B002B01D10E234DE0FC
:106D6000029B002B01D10E2348E00C9B1B68002BDB
:106D700001D10E2342E0029B1B68002B01D10E23A0
:106D80003CE0BDF81210039B099A05980AF0CDFF6C
:106D90000890089B002B01D0089B2FE0029B1B68EA
:106DA0001846FFF741F9BDF81210164B0093029BED
:106DB000099A05980BF06CFE0890089B002B01D0F7
:106DC000089B1BE00C9B1B681846FFF72DF9BDF8CC
:106DD00012100D4B00930C9B099A05980BF058FE6E
:106DE0000890089B002B01D0089B07E0BDF81220FB
:106DF000079B9A4201D0092300E0002318460BB0FC
:106E00005DF804FBA3A70200D59B020000B585B086
:106E1000039002910192019B029A039985200AF046
:106E2000C2FE0346184605B05DF804FB00B589B004
:106E30000390029101920093039B002B01D10E233A
:106E40003EE0029B002B01D1072339E0002305938C
:106E500005AB079300230693059B039A13441B7805
:106E6000822B01D007232BE0059B01330593019B67
:106E7000002B01D10E2323E0009B002B01D10E2318
:106E80001EE0019B079A029903980AF04EFF0690B4
:106E9000069B002B01D0069B12E0009B079A0299EB
:106EA00003980AF0A6FF0690069B002B01D0069BD4
:106EB00006E0059B029A9A4201D0092300E00023D4
:106EC000184609B05DF804FB00B585B00390029147
:106ED0000192019B029A039982200AF064FE034604
:106EE000184605B05DF804FB00B58BB00590049121
:106EF00003920293059B002B01D10E2345E0049BD6
:106F0000002B01D1072340E00023079307AB09932F
:106F100000230893079B059A13441B78812B01D00B
:106F2000072332E0079B01330793039B002B01D11A
:106F30000E232AE0029B002B01D10E2325E0039BA8
:106F4000099A049905980AF0F0FE0890089B002B16
:106F500001D0089B19E0029B1B681846FFF764F8F4
:106F60000C4B0093029B099A049905980BF090FD35
:106F70000890089B002B01D0089B06E0079B049A11
:106F80009A4201D0092300E0002318460BB05DF8B7
:106F900004FB00BF2DB3020000B585B00390029141
:106FA0000192019B029A039981200AF0FCFD03469D
:106FB000184605B05DF804FB00B58BB00590049150
:106FC00003920293059B002B01D10E235DE0049BED
:106FD000002B01D1072358E00023079307AB099347
:106FE00000230893079B059A13441B78832B01D039
:106FF00007234AE0079B01330793039B002B01D132
:107000000E2342E00C9B002B01D10E233DE0029B9E
:10701000002B01D10E2338E0039B099A04990598AF
:107020000AF083FE0890089B002B01D0089B2CE0FF
:10703000029B1B681846FEF7F7FF164B0093029B56
:10704000099A049905980BF023FD0890089B002BE2
:1070500001D0089B19E00C9B1B681846FEF7E4FF63
:10706000002300930C9B099A049905980BF010FDDE
:107070000890089B002B01D0089B06E0079B049A10
:107080009A4201D0092300E0002318460BB05DF8B6
:1070900004FB00BFD1B2020000B58DB00590049191
:1070A00003920293039B002B01D10E2348E0029B25
:1070B000002B01D10E2343E00023089308AB0B9370
:1070C00000230A93029B1B68099383238DF81F30CA
:1070D0000DF11F000B9B099A03990AF06CFE0A90B0
:1070E0000A9B002B01D00A9B2AE005A80B9B099A5A
:1070F00003990AF08EFD0A900A9B002B01D00A9B8F
:107100001EE00A9B002B01D00A9B19E0059B002B77
:1071100004D0089A029B1A60002311E00A4B0093E6
:107120000B9B099A039904980BF080FC0A900A9B28
:10713000002B01D00A9B03E0089A029B1A600023EF
:1071400018460DB05DF804FB89B3020000B58BB0A2
:107150000590049103920293059B002B01D10E230D
:107160005DE0049B002B01D1072358E00023079327
:1071700007AB099300230893079B059A13441B78D8
:10718000842B01D007234AE0079B01330793039B1D
:10719000002B01D10E2342E0029B002B01D10E23D4
:1071A0003DE00C9B002B01D10E2338E0039B099A94
:1071B000049905980AF0B9FD0890089B002B01D0AE
:1071C000089B2CE0029B1B681846FEF72DFF164B10
:1071D0000093029B099A049905980BF059FC0890BA
:1071E000089B002B01D0089B19E00C9B1B681846DC
:1071F000FEF71AFF0C4B00930C9B099A0499059813
:107200000BF046FC0890089B002B01D0089B06E081
:10721000079B049A9A4201D0092300E000231846F4
:107220000BB05DF804FB00BF25B4020000B585B0CB
:10723000039002910192019B029A039984200AF023
:10724000B2FC0346184605B05DF804FB00B58BB0F0
:1072500005900B460392ADF81230059B002B01D12F
:107260000E2343E0BDF81230002B01D107233DE08F
:107270000023079307AB099300230893079B059A04
:1072800013441B787B2B01D007232FE0079B01338E
:107290000793039B002B01D10E2327E0039B1B6860
:1072A000002B01D10E2321E0BDF81230012B01D8B3
:1072B00009231BE0039B1B681846FEF7B5FEBDF8CB
:1072C000121000230093039B099A05980BF0E0FB32
:1072D0000890089B002B01D0089B07E0BDF8122006
:1072E000079B9A4201D0092300E0002318460BB007
:1072F0005DF804FB00B58DB00590049103920293F4
:10730000049B002B01D10E2348E0039B002B01D1ED
:107310000E2343E00023089308AB0B9300230A934A
:10732000039B1B6809937B238DF81F300DF11F0011
:107330000B9B099A04990AF03EFD0A900A9B002BC8
:1073400001D00A9B2AE005A80B9B099A04990AF030
:1073500060FC0A900A9B002B01D00A9B1EE00A9B4E
:10736000002B01D00A9B19E0059B002B04D0089A42
:10737000039B1A60002311E00A4B00930B9B099AB0
:10738000049902980BF052FB0A900A9B002B01D043
:107390000A9B03E0089A039B1A60002318460DB06D
:1073A0005DF804FB95A5020000B58BB00590049133
:1073B0000392059B002B01D10E2334E0049B002B8C
:1073C00001D107232FE00023079307AB0993002384
:1073D0000893079B059A13441B787A2B01D0072347
:1073E00021E0079B01330793039B002B01D10E2360
:1073F00019E0039B1B681846FEF716FE0C4B009322
:10740000039B099A049905980BF042FB0890089B8E
:10741000002B01D0089B06E0079B049A9A4201D0FA
:10742000092300E0002318460BB05DF804FB00BF01
:1074300037A6020000B585B0039002910192019B2E
:10744000029A03997A200AF0AEFB0346184605B06B
:107450005DF804FB00B58BB00590039202930B46D8
:10746000ADF81230059B002B01D10E234FE0BDF883
:107470001230002B01D1072349E00023079307AB0B
:10748000099300230893079B059A13441B788E2BBE
:1074900001D007233BE0079B01330793039B002B9D
:1074A00001D10E2333E0029B002B01D10E232EE0ED
:1074B000029B1B68002B01D10E2328E0BDF812109F
:1074C000039B099A05980AF030FC0890089B002B52
:1074D00001D0089B1BE0029B1B681846FEF7A4FD29
:1074E000BDF8121000230093029B099A05980BF037
:1074F000CFFA0890089B002B01D0089B07E0BDF84D
:107500001220079B9A4201D0092300E0002318466D
:107510000BB05DF804FB00B58BB0039002910192B3
:107520008DF80330029B002B01D10E2347E0019B15
:10753000002B01D10E2342E00023069306AB0993F2
:1075400000230893019B1B6807938E238DF8173047
:107550000DF11700099B079A02990AF02CFC08907C
:10756000089B002B01D0089B29E003A8099B079AE0
:1075700002990AF04EFB0890089B002B01D0089B53
:107580001DE0089B002B01D0089B18E0039B002BFB
:1075900004D0069A019B1A60002310E00DF103004D
:1075A000099B079A02990AF006FC0890089B002B99
:1075B00001D0089B03E0069A019B1A60002318463D
:1075C0000BB05DF804FB00B589B003900291019205
:1075D0000093039B002B01D10E234FE0029B002B55
:1075E00001D107234AE00023059305AB079300234D
:1075F0000693059B039A13441B78882B01D007231D
:107600003CE0059B01330593019B002B01D10E2328
:1076100034E0009B002B01D10E232FE00A9B002BAE
:1076200001D10E232AE0019B079A029903980AF0E0
:107630007CFB0690069B002B01D0069B1EE0009B66
:10764000079A029903980AF0D4FB0690069B002B38
:1076500001D0069B12E00A9B079A029903980AF050
:10766000C8FB0690069B002B01D0069B06E0059BFD
:10767000029A9A4201D0092300E00023184609B07B
:107680005DF804FB00B585B0039002910192019B67
:10769000029A039988200AF086FA0346184605B034
:1076A0005DF804FB00B589B0039002910192039B41
:1076B000002B01D10E232DE0029B002B01D10723CB
:1076C00028E00023059305AB079300230693059B51
:1076D000039A13441B78892B01D007231AE0059BDA
:1076E00001330593019B002B01D10E2312E0019B76
:1076F000079A029903980AF018FB0690069B002B44
:1077000001D0069B06E0059B029A9A4201D009230C
:1077100000E00023184609B05DF804FB00B585B011
:10772000039002910192019B029A039989200AF029
:107730003AFA0346184605B05DF804FB00B58BB075
:10774000059004910392059B002B01D10E233AE092
:10775000049B002B01D1072335E00023079307ABDF
:10776000099300230893079B059A13441B788A2BDF
:1077700001D0072327E0079B01330793039B002BCE
:1077800001D10E231FE0039B1B68002B01D10E23A8
:1077900019E0039B1B681846FEF746FC0C4B009350
:1077A000039B099A049905980BF072F90890089BBD
:1077B000002B01D0089B06E0079B049A9A4201D057
:1077C000092300E0002318460BB05DF804FB00BF5E
:1077D00019A8020000B585B0039002910192019BA7
:1077E000029A03998A200AF0DEF90346184605B08A
:1077F0005DF804FB00B585B0039002910192019BF6
:10780000029A03998B200AF0CEF90346184605B078
:107810005DF804FB00B58BB00590039202930B4614
:10782000ADF81230059B002B01D10E238DE0BDF881
:107830001230002B01D1072387E00023079307AB09
:10784000099300230893079B059A13441B78862B02
:1078500001D0072379E0079B01330793039B002B9B
:1078600001D10E2371E0029B002B01D10E236CE0AD
:107870000C9B002B01D10E2367E00D9B002B01D147
:107880000E2362E0029B1B68002B01D10E235CE0FB
:107890000C9B1B68002B01D10E2356E00D9B1B682F
:1078A000002B01D10E2350E0BDF81210039B099A62
:1078B00005980AF03AFA0890089B002B01D0089B23
:1078C00043E0029B1B681846FEF7AEFBBDF81210A2
:1078D000204B0093029B099A05980BF0D9F8089069
:1078E000089B002B01D0089B2FE00C9B1B681846BF
:1078F000FEF79AFBBDF81210174B00930C9B099AE8
:1079000005980BF0C5F80890089B002B01D0089B48
:107910001BE00D9B1B681846FEF786FBBDF8121096
:107920000E4B00930D9B099A05980BF0B1F8089047
:10793000089B002B01D0089B07E0BDF81220079B95
:107940009A4201D0092300E0002318460BB05DF8ED
:1079500004FB00BFD59B020031970200E79C0200A8
:1079600000B585B0039002910192019B029A0399A0
:1079700086200AF018F90346184605B05DF804FBA6
:1079800000B58BB00590049103920293059B002BE8
:1079900001D10E237AE0049B002B01D1072375E06F
:1079A0000023079307AB099300230893079B059ACD
:1079B00013441B787F2B01D0072367E0079B01331B
:1079C0000793039B002B01D10E235FE0029B002B4A
:1079D00001D10E235AE00C9B002B01D10E2355E060
:1079E0000C9B1B68002B01D10E234FE00D9B002B3D
:1079F00001D10E234AE00D9B1B68002B01D10E2301
:107A000044E0039B099A049905980AF08EF90890BE
:107A1000089B002B01D0089B38E0029B099A04992F
:107A200005980AF0E6F90890089B002B01D0089B06
:107A30002CE00C9B1B681846FEF7F6FA154B0093DA
:107A40000C9B099A049905980BF022F80890089B62
:107A5000002B01D0089B19E00D9B1B681846FEF710
:107A6000E3FA0D4B00930D9B099A049905980BF0CE
:107A70000FF80890089B002B01D0089B06E0079B9D
:107A8000049A9A4201D0092300E0002318460BB063
:107A90005DF804FB25A3020089AB020000B58DB0A0
:107AA0000590049103920293049B002B01D10E23B5
:107AB00048E0039B002B01D10E2343E000230893F1
:107AC00008AB0B9300230A93039B1B6809937F2346
:107AD0008DF81F300DF11F000B9B099A04990AF0D5
:107AE0006AF90A900A9B002B01D00A9B2AE005A89C
:107AF0000B9B099A04990AF08CF80A900A9B002BB8
:107B000001D00A9B1EE00A9B002B01D00A9B19E0C2
:107B1000059B002B04D0089A039B1A60002311E0F8
:107B20000A4B00930B9B099A049902980AF07EFF76
:107B30000A900A9B002B01D00A9B03E0089A039B42
:107B40001A60002318460DB05DF804FB0DAB02006F
:107B500000B589B0039002910192039B002B01D1E3
:107B60000E232DE0029B002B01D1072328E00023E8
:107B7000059305AB079300230693059B039A1344D3
:107B80001B78772B01D007231AE0059B013305935F
:107B9000019B002B01D10E2312E0019B079A029951
:107BA00003980AF026F90690069B002B01D0069B4D
:107BB00006E0059B029A9A4201D0092300E00023C7
:107BC000184609B05DF804FB00B585B0039002913A
:107BD0000192019B029A0399772009F0E4FF034682
:107BE000184605B05DF804FB00B58BB005900B4658
:107BF0000392ADF81230059B002B01D10E2332E029
:107C0000BDF81230002B01D107232CE0002307938D
:107C100007AB099300230893079B059A13441B782D
:107C20006D2B01D007231EE0079B01330793039BB5
:107C30001B681846FEF7F8F9BDF8121000230093F0
:107C4000039B099A05980AF023FF0890089B002BD4
:107C500001D0089B07E0BDF81220079B9A4201D093
:107C6000092300E0002318460BB05DF804FB000078
:107C700000B58DB00590049103920293049B002BF4
:107C800001D10E2348E0039B002B01D10E2343E0DA
:107C90000023089308AB0B9300230A93039B1B68F4
:107CA00009936D238DF81F300DF11F000B9B099A6E
:107CB00004990AF080F80A900A9B002B01D00A9BD5
:107CC0002AE005A80B9B099A049909F0A2FF0A90E3
:107CD0000A9B002B01D00A9B1EE00A9B002B01D0BF
:107CE0000A9B19E0059B002B04D0089A039B1A609D
:107CF000002311E00A4B00930B9B099A0499029808
:107D0000FEF797F90A900A9B002B01D00A9B03E02B
:107D1000089A039B1A60002318460DB05DF804FB17
:107D20008D97020000B58BB0059004910392059BDE
:107D3000002B01D10E232FE0049B002B01D1072340
:107D40002AE00023079307AB099300230893079BBE
:107D5000059A13441B786C2B01D007231CE0079B6A
:107D600001330793039B1B681846FEF75DF90C4B24
:107D70000093039B099A049905980AF089FE0890DC
:107D8000089B002B01D0089B06E0079B049A9A42AF
:107D900001D0092300E0002318460BB05DF804FB76
:107DA0002B98020000B585B0039002910192019BCF
:107DB000029A03996C2009F0F6FE0346184605B0B6
:107DC0005DF804FB00B58BB0059004910392059B10
:107DD000002B01D10E232FE0049B002B01D10723A0
:107DE0002AE00023079307AB099300230893079B1E
:107DF000059A13441B78702B01D007231CE0079BC6
:107E000001330793039B1B681846FEF70DF90C4BD3
:107E10000093039B099A049905980AF039FE08908B
:107E2000089B002B01D0089B06E0079B049A9A420E
:107E300001D0092300E0002318460BB05DF804FBD5
:107E40003DB8020000B585B0039002910192019BFC
:107E5000029A0399702009F0A6FE0346184605B061
:107E60005DF804FB00B58BB005900B460392ADF8AE
:107E70001230059B002B01D10E2332E0BDF81230E9
:107E8000002B01D107232CE00023079307AB0993B4
:107E900000230893079B059A13441B78712B01D08C
:107EA00007231EE0079B01330793039B1B681846BB
:107EB000FEF7BAF8BDF812100C4B0093039B099A19
:107EC00005980AF0E5FD0890089B002B01D0089B5F
:107ED00007E0BDF81220079B9A4201D0092300E079
:107EE000002318460BB05DF804FB00BF3DB802004C
:107EF00000B58DB00590049103920293049B002B72
:107F000001D10E2348E0039B002B01D10E2343E057
:107F10000023089308AB0B9300230A93039B1B6871
:107F2000099371238DF81F300DF11F000B9B099AE7
:107F3000049909F040FF0A900A9B002B01D00A9B8C
:107F40002AE005A80B9B099A049909F062FE0A90A1
:107F50000A9B002B01D00A9B1EE00A9B002B01D03C
:107F60000A9B19E0059B002B04D0089A039B1A601A
:107F7000002311E00A4B00930B9B099A0499029885
:107F80000AF054FD0A900A9B002B01D00A9B03E0E3
:107F9000089A039B1A60002318460DB05DF804FB95
:107FA00091B7020000B58DB0059004910392029341
:107FB000059B002B01D10E2377E0049B002B01D100
:107FC000072372E00023079307AB0A93002309936A
:107FD000079B059A13441B786E2B01D0072364E09E
:107FE000079B01330793039B002B01D10E235CE019
:107FF000039B1B68002B01D10E2356E0039B1B68DB
:108000001B68002B01D10E234FE0029B0A9A0499B2
:10801000059809F0EEFE0990099B002B01D0099B01
:1080200043E00DF11B030A9A0499059809F0E1FE5B
:108030000990099B002B01D0099B36E09DF81B306D
:10804000012B28D1039B1B68089300230B931BE093
:108050000B9B9B00089A13441B681846FDF7E4FF2E
:108060000B9B9B00089A1344124A00920A9A0499A7
:1080700005980AF00DFD0990099B002B01D0099B82
:1080800013E00B9B01330B93029B1B781A460B9B4F
:108090009342DDD302E0039B00221A60079B049AFF
:1080A0009A4201D0092300E0002318460DB05DF884
:1080B00004FB00BF2B98020000B585B0039002912D
:1080C0000192019B029A03996E2009F06CFD034610
:1080D000184605B05DF804FB00B58FB0059004911B
:1080E00003920293059B002B01D10E23C6E0049B53
:1080F000002B01D10723C1E00023079307AB0B93AB
:1081000000230A93079B059A13441B786F2B01D019
:108110000723B3E0079B01330793039B002B01D197
:108120000E23ABE0039B1B68002B01D10E23A5E0BF
:10813000039B1B681B68002B01D10E239EE0029B52
:10814000002B01D10E2399E0029B1B68002B01D16B
:108150000E2393E0029B1B681B68002B01D10E23AA
:108160008CE0109B0B9A0499059809F042FE0A9046
:108170000A9B002B01D00A9B80E00DF11B030B9A98
:108180000499059809F035FE0A900A9B002B01D04E
:108190000A9B73E09DF81B30012B28D1039B1B68C1
:1081A000099300230D931BE00D9B9B00099A134438
:1081B0001B681846FDF738FF0D9B9B00099A134476
:1081C000304A00920B9A049905980AF061FC0A90D3
:1081D0000A9B002B01D00A9B50E00D9B01330D93AD
:1081E000109B1B781A460D9B9342DDD302E0039B44
:1081F00000221A600DF11B030B9A0499059809F0EF
:10820000F8FD0A900A9B002B01D00A9B36E09DF8EE
:108210001B30012B28D1029B1B68089300230C9371
:108220001BE00C9B9B00089A13441B681846FDF743
:10823000FBFE0C9B9B00089A1344134A00920B9A76
:10824000049905980AF024FC0A900A9B002B01D09F
:108250000A9B13E00C9B01330C93109B1B781A466E
:108260000C9B9342DDD302E0029B00221A60079B25
:10827000049A9A4201D0092300E0002318460FB067
:108280005DF804FB89AA02003197020000B585B0B1
:10829000039002910192019B029A03996F2009F0C9
:1082A00082FC0346184605B05DF804FB00B58BB0B0
:1082B0000590039202930B46ADF81230059B002BFC
:1082C00001D10E2353E0BDF81230002B01D107235A
:1082D0004DE00023079307AB099300230893079B06
:1082E000059A13441B78902B01D007233FE0079B8E
:1082F00001330793BDF81210039B099A059809F002
:1083000014FD0890089B002B01D0089B2FE0029BD6
:108310001B681846FDF788FEBDF81210164B009337
:10832000029B099A05980AF0B3FB0890089B002B62
:1083300001D0089B1BE00C9B1B681846FDF774FEE0
:10834000BDF81210002300930C9B099A05980AF0BF
:108350009FFB0890089B002B01D0089B07E0BDF80D
:108360001220079B9A4201D0092300E000231846FF
:108370000BB05DF804FB00BFEDBB020000B58DB093
:108380000590049103920293049B002B01D10E23CC
:1083900048E0039B002B01D10E2343E00023089308
:1083A00008AB0B9300230A93039B1B68099390234C
:1083B0008DF81F300DF11F000B9B099A049909F0ED
:1083C000FAFC0A900A9B002B01D00A9B2AE005A820
:1083D0000B9B099A049909F01CFC0A900A9B002B3C
:1083E00001D00A9B1EE00A9B002B01D00A9B19E0DA
:1083F000059B002B04D0089A039B1A60002311E010
:108400000A4B00930B9B099A049902980AF00EFB01
:108410000A900A9B002B01D00A9B03E0089A039B59
:108420001A60002318460DB05DF804FB93BC0200EF
:1084300000B58BB00590049103920293059B002B2D
:1084400001D10E234BE0049B002B01D1072346E012
:108450000023079307AB099300230893079B059A12
:1084600013441B788F2B01D0072338E0079B01337F
:108470000793039B002B01D10E2330E0029B002BBE
:1084800001D10E232BE0029B1B68002B01D10E2390
:1084900025E0039B099A0499059809F046FC089089
:1084A000089B002B01D0089B19E0029B1B68184613
:1084B000FDF7BAFD0C4B0093029B099A04990598AD
:1084C0000AF0E6FA0890089B002B01D0089B06E012
:1084D000079B049A9A4201D0092300E00023184622
:1084E0000BB05DF804FB00BF89BD020000B585B08C
:1084F000039002910192019B029A03998F2009F047
:1085000052FB0346184605B05DF804FB10B584B075
:108510000390029101920093069B002B01D10E2340
:108520000BE0039B002B01D10E2306E0069C009B71
:10853000019A02990398A0470346184604B010BD5B
:1085400000B58DB00590049103920293059B002B1A
:1085500001D10E2349E0039B002B01D10E2344E0FF
:10856000029B002B01D10E233FE0059B1B881D2B96
:1085700001D0072339E00023089308AB0B93029B3B
:108580001B680A93002309931D23ADF81E300DF1DB
:108590001E000B9B0A9A039909F0A2FB0990099B04
:1085A000002B01D0099B20E0059B181D0B9B0A9A0C
:1085B000039909F095FB0990099B002B01D0099BB9
:1085C00013E0059B03F108000A4B00930B9B0A9AEA
:1085D0000399FFF79BFF0990099B002B01D0099B92
:1085E00003E0089A029B1A60099B18460DB05DF8DB
:1085F00004FB00BFC995020000B58BB00390029147
:1086000001920093039B002B01D10E2347E0019BB5
:10861000002B01D10E2342E0009B002B01D10E2341
:108620003DE0039B1B88172B01D0072337E0002375
:10863000069306AB0993009B1B68089300230793DE
:108640001723ADF816300DF11600099B089A019911
:1086500009F046FB0790079B002B01D0079B1EE00B
:10866000039B181D099B089A019909F039FB079093
:10867000079B002B01D0079B11E0039B03F108002F
:10868000099B089A019909F096FB0790079B002B1C
:1086900001D0079B03E0069A009B1A60079B1846CF
:1086A0000BB05DF804FB000000B58DB0059004919F
:1086B00003920293059B002B01D10E2376E0039BCE
:1086C000002B01D10E2371E0029B002B01D10E2360
:1086D0006CE0059B1B88192B01D0072366E0002363
:1086E000089308AB0A93029B1B68099300230B9322
:1086F0001923ADF81E300DF11E000A9B099A03994B
:1087000009F0EEFA0B900B9B002B01D00B9B4DE078
:10871000059B181D0A9B099A039909F0E1FA0B9031
:108720000B9B002B01D00B9B40E0059B03F1080045
:10873000204B00930A9B099A0399FFF7E7FE0B90E1
:108740000B9B002B01D00B9B30E0059B9B8806AA5E
:10875000114618460AF03AFA0B900B9B002B1FD1DA
:10876000069B4FF4967202FB03F3134A1344181D41
:10877000124B00930A9B099A0399FFF7C7FE0B90CF
:108780000B9B002B01D00B9B10E0059B9B88184690
:108790000AF0EEF90B900B9B002B03D00B9B05E02E
:1087A00000230B93089A029B1A600B9B18460DB08E
:1087B0005DF804FB459D0200F07800200DAB02003F
:1087C00000B58DB00590049103920293059B002B98
:1087D00001D10E2349E0039B002B01D10E2344E07D
:1087E000029B002B01D10E233FE0059B1B88122B1F
:1087F00001D0072339E00023089308AB0B93029BB9
:108800001B680A93002309931223ADF81E300DF163
:108810001E000B9B0A9A039909F062FA0990099BC2
:10882000002B01D0099B20E0059B181D0B9B0A9A89
:10883000039909F055FA0990099B002B01D0099B77
:1088400013E0059B03F108000A4B00930B9B0A9A67
:108850000399FFF75BFE0990099B002B01D0099B50
:1088600003E0089A029B1A60099B18460DB05DF858
:1088700004FB00BFDDA4020000B58DB0059004919B
:1088800003920293059B002B01D10E2349E0039B29
:10889000002B01D10E2344E0029B002B01D10E23BB
:1088A0003FE0059B1B881F2B01D0072339E00023E5
:1088B000089308AB0B93029B1B680A930023099350
:1088C0001F23ADF81E300DF11E000B9B0A9A039971
:1088D00009F006FA0990099B002B01D0099B20E0C2
:1088E000059B181D0B9B0A9A039909F0F9F9099049
:1088F000099B002B01D0099B13E0059B03F10800A5
:108900000A4B00930B9B0A9A0399FFF7FFFD09900E
:10891000099B002B01D0099B03E0089A029B1A6077
:10892000099B18460DB05DF804FB00BF39A5020095
:1089300000B58DB00590049103920293059B002B26
:1089400001D10E2349E0039B002B01D10E2344E00B
:10895000029B002B01D10E233FE0059B1B881A2BA5
:1089600001D0072339E00023089308AB0B93029B47
:108970001B680A93002309931A23ADF81E300DF1EA
:108980001E000B9B0A9A039909F0AAF90990099B0A
:10899000002B01D0099B20E0059B181D0B9B0A9A18
:1089A000039909F09DF90990099B002B01D0099BBF
:1089B00013E0059B03F108000A4B00930B9B0A9AF6
:1089C0000399FFF7A3FD0990099B002B01D0099B98
:1089D00003E0089A029B1A60099B18460DB05DF8E7
:1089E00004FB00BF7D9F020000B58DB0059004918F
:1089F00003920293059B002B01D10E2349E0039BB8
:108A0000002B01D10E2344E0029B002B01D10E2349
:108A10003FE0059B1B88102B01D0072339E0002382
:108A2000089308AB0B93029B1B680A9300230993DE
:108A30001023ADF81E300DF11E000B9B0A9A03990E
:108A400009F04EF90990099B002B01D0099B20E009
:108A5000059B181D0B9B0A9A039909F041F909908F
:108A6000099B002B01D0099B13E0059B03F1080033
:108A70000A4B00930B9B0A9A0399FFF747FD099055
:108A8000099B002B01D0099B03E0089A029B1A6006
:108A9000099B18460DB05DF804FB00BF35A102002C
:108AA00000B58DB00590049103920293059B002BB5
:108AB00001D10E2361E0039B002B01D10E235CE06A
:108AC000029B002B01D10E2357E0059B1B88112B25
