:020000022000DC
:103000000060002015320200593202005B320200DB
:103010005D3202005F3202006132020000000000F7
:103020000000000000000000000000006332020009
:1030300065320200000000006732020069320200BF
:10304000216F02006F3202004D7B020073320200DA
:103050007532020000000000F173020079320200B4
:103060007B3202007D3202007F3202008132020098
:103070008332020085320200873202008932020068
:103080008B320200815002008F3202009132020026
:10309000C15002009532020029BE0200993202009E
:1030A0009B3202009D320200000000000000000080
:0830B0009F320200A132020070
:1030B800354936480A1A02D0072291438D463449C9
:1030C80034480A1A06D00722914381F3098802225C
:1030D80082F3148830483149314A00F044F83148C5
:1030E8003149324A00F03FF831483249324A00F05B
:1030F8003AF832483249334A00F035F83248334911
:10310800334A00F030F833483349344A00F02BF89A
:1031180033483449344A00F026F834483449002208
:1031280000F02CF833483449002200F027F83348DF
:103138003349091A082902DB002202604160314A3A
:1031480090471F481F49884205D00268043003B4DD
:10315800904703BCF7E700208646EC460020002194
:10316800294A9047FEE7884207D0521A05D00378CB
:1031780001300B700131013AF9D17047884202D011
:1031880002700130FAE77047006000200058002004
:10319800006000200060002098E20200E02A002081
:1031A8004C2B0020A4320200A4320200B0CC020052
:1031B80098E20200E02A0020E02A0020F0CD020078
:1031C800F0CD0200F0CD0200F0CD0200F0CD0200FB
:1031D800F0CD0200F0CD0200F0CD020097E202002F
:1031E80004E302004C2B00204C2B00204C2B002029
:1031F800943700209437002094370020943700201B
:103208009439002027320200D18C02000B484FF07D
:103218000701884385460A488047FFF749BF0948A0
:1032280009490A4A884207D0521A05D00378013062
:103238000B700131013AF9D170470000006000209D
:10324800F5B1020078CD0200682A0020E02A0020AB
:10325800FEE7FEE7FEE7FEE7FEE7FEE7FEE7FEE73E
:10326800FEE7FEE7FEE7FEE7FEE7FEE7FEE7FEE72E
:10327800FEE7FEE7FEE7FEE7FEE7FEE7FEE7FEE71E
:10328800FEE7FEE7FEE7FEE7FEE7FEE7FEE7FEE70E
:0C329800FEE7FEE7FEE7FEE7FEE700BFF2
:1032A40009F0C3B908B505F0B3FE00BF08BD00B509
:1032B40089B0039002910192019B002B22D000233C
:1032C40007930A230693029A079B1344019A19460B
:1032D400002005F04DFE0590079A059B13440793C3
:1032E400019A059BD31A0193059B002B05D1069BDC
:1032F400013B0693069B002B03D0019B002BE2D1DC
:1033040000E000BF00BF09B05DF804FB00B585B064
:1033140003900291054B00934023054A02990398B8
:1033240000F012F800BF05B05DF804FBB3320200F0
:103334004C2B002082B0019000BF02B0704782B0D5
:10334400019000BF02B0704700B5A1B00590049190
:1033540003920293049803F083F8039B1593029B52
:1033640016930023179300238DF8603000231993DC
:10337400229B1A9300231F930FA91F9B08220498D2
:1033840003F02CF908231F93119B1293109B9BB2FB
:10339400ADF84C3000238DF850309DF83C3003F0EC
:1033A4000303DBB2012B32D10F9BC3F395231C9390
:1033B4009DF83C30C3F3C203DBB28DF84E309DF868
:1033C4003C30C3F38003DBB2002B14BF0123002382
:1033D400DBB28DF84F30BDF83C30C3F38313DBB25E
:1033E4001B931B9B9A0009A91F9B049803F0F6F8F2
:1033F4001B9B9B001F9A13441F9312AA09A915AB88
:10340400009313461B9A1C9800F072FE3BE09DF853
:103414003C3003F00303DBB2022B34D1BDF83E3061
:10342400C3F389139BB21E939DF83C30C3F3C203CC
:10343400DBB28DF84E309DF83C30C3F38003DBB231
:10344400002B14BF01230023DBB28DF84F301E9BE9
:10345400082B28BF08231D9307A91F9B1D9A0498B6
:1034640003F0BCF81F9A1D9B13441F931E9A1D9BC7
:10347400D31A1E9315AB12AA07A81D9900F0DAFE01
:103484001E9B002BE3D1049802F0F9FF00BF21B08A
:103494005DF804FB82B00190019B01225A7200BFC7
:1034A40002B0704700B583B04FF0FF330193FFF7CC
:1034B400F9FE0421084800F055FD0190019B002B02
:1034C40003DA0649412004F029FF0348FFF7E2FF2D
:1034D40000BF03B05DF804FBE02A0020FCCD02002D
:1034E40000B583B001900091019B1B681B68009993
:1034F4000198984700BF03B05DF804FB00B583B0A2
:103504000190019B1B685B680198984700BF03B05A
:103514005DF804FB82B001900B468DF80330019BEB
:103524009DF803201A7200BF02B0704782B0019068
:10353400019B1B7A184602B0704782B00190019B30
:1035440001225A7200BF02B0704782B00190019B01
:103554005B7A184602B0704710B487B001900091AE
:10356400019B009A53E8004F44EA020043E800013B
:1035740091F0000FF6D1059404900391049B184632
:1035840007B010BC704710B487B001900091019B44
:10359400009A53E8004F04EA020043E8000191F066
:1035A400000FF6D1059404900391059B184607B0CB
:1035B40010BC704700B583B0019001210198FFF75A
:1035C400CBFF0346184603B05DF804FB00B583B097
:1035D400019000210198FFF7D6FF0346184603B077
:1035E4005DF804FB00B587B001901F4BFF229A6081
:1035F4001D4B00221A601C4B00225A601A4B0022F9
:10360400C3F81824184B0022C3F81424164B0022C4
:1036140083F81C24154802F087FE0490049B002BB9
:1036240001D0049B1CE0124A124BD31ADB0803930B
:10363400002305930FE0059A13465B0013449B0097
:103644001A460D4B13440293059B9AB2029B1A80AF
:10365400059B01330593059A039B9A42EBD3002300
:10366400184607B05DF804FB5C2C002060CE020015
:1036740050CD020000CD0200682A0020024A034B0C
:10368400D31ADB081846704750CD020000CD020063
:1036940000B587B001900B468DF803309DF80330D8
:1036A400002B23D0FFF7EAFF04900023059317E0D3
:1036B400059A13465B0013449B001A460E4B1344B1
:1036C4000393039B5B881A46019B1B689A4204D1AF
:1036D400019B059A1A60002309E0059B01330593B9
:1036E400059A049B9A42E3D3052300E0002318467D
:1036F40007B05DF804FB00BF682A002000B585B060
:1037040001900B468DF803309DF8032001AB114660
:103714001846FFF7BDFF0346002B07D1019BDB00D2
:10372400054A13440393039B1B6800E000231846D7
:1037340005B05DF804FB00BF00CD020084B0019029
:103744000B468DF80330019BDB00174A13440293A8
:103754009DF80330013B032B1CD801A252F823F03F
:10376400753702007D370200853702008F3702006B
:1037740002238DF80F3011E004238DF80F300DE093
:10378400029B1B798DF80F3008E0029B5B798DF862
:103794000F3003E000238DF80F3000BF9DF80F3089
:1037A400184604B0704700BF00CD020000B589B0D0
:1037B4004148FFF7FFFE4148FFF7FCFE404B5B68C2
:1037C40007933F4B9B680493079A049B134002336F
:1037D4009B003B4A1344043306931BE0079B0133CD
:1037E4000793069B5B88C3F389139BB21A46069B17
:1037F4001B88C3F389139BB213441A46079B1344D3
:103804000793079A049B134002339B002C4A1344EA
:1038140004330693069B1B7803F00303DBB2002BEF
:10382400DCD00023059311E0079B5A1C0792049AED
:103834001340059A920069460A44214902339B00C9
:103844000B445B681360059B01330593059B012BB7
:10385400EAD99DF80030C3F30103DBB2012B0CD08D
:10386400022B14D1BDF80230C3F389139BB2033386
:103874009B08079A134407930FE0BDF80030C3F385
:103884008313DBB21A46079B1344079305E00D49E3
:1038940040F24D1004F042FD00BF0848FFF796FEC9
:1038A4000390039B002B02D0054A079B536000BF83
:1038B40009B05DF804FB00BF7430002070300020B4
:1038C4005C2C002084CE020010B586B003900291D7
:1038D40001920093039B1B0CADF81630BDF8164003
:1038E400FFF7CCFE03469C4204D323494FF4B27045
:1038F40004F014FD009B5A1C089B1340BDF81620CD
:103904001E4902339B000B445A60009A089B1340E3
:1039140002339B00194A134404330493039B1B0989
:1039240003F00103D9B2049A137861F3820313708C
:10393400039B03F00703D9B2049A137861F3C50318
:103944001370019B03F00F03D9B2049A138861F337
:1039540089131380029BC3F31501049A136861F35E
:103964009F231360049A1378012161F301031370F8
:1039740000BF06B010BD00BF84CE02005C2C002046
:1039840000B58BB001900091019B02330893022390
:10399400079301238DF81B3000238DF80F300DF1B0
:1039A4000F03184601F0ECFC214B1A68009B1A60C7
:1039B4001F4B9A681E4B59681D4B1B68CB1A134446
:1039C40001330993089A079B134405930BE0FFF70F
:1039D400EDFE174B9A68164B5968154B1B68CB1AAA
:1039E400134401330993059A099B9A42EFD8104B6B
:1039F4001A680F4B9B68134002339B000C4A134414
:103A040004330493049A137843F003031370084BAC
:103A14001A68089B1344064A13609DF80F30184631
:103A240001F0C4FC9DF81B3018460BB05DF804FB94
:103A34005C2C002000B58BB0059004910392029396
:103A44001F4B9B68079306AB19460298FFF798FF34
:103A54000346002B24D0069B0233099300230893CA
:103A640011E0089B9B00039A1A44099B591C099175
:103A740007990B401268124902339B000B445A60A9
:103A8400089B01330893089A029B9A42E9D3069A49
:103A9400079B00931346029A04990598FFF714FFB5
:103AA400074B93F81C34002B05D000BF00F064F8DA
:103AB4000346002BFAD100BF0BB05DF804FB00BF36
:103AC4005C2C002000B583B00190009100230022FB
:103AD40000990198FFF7AEFF00BF03B05DF804FB47
:103AE40000B587B0039002910192019B059305AA4A
:103AF400012302990398FFF79DFF00BF07B05DF80B
:103B040004FB00B587B00390029101920093019BDE
:103B14000493009B059304AA022302990398FFF7D8
:103B240089FF00BF07B05DF804FB00B589B00390BE
:103B3400029101920093019B0493009B05930A9BBD
:103B440006930B9B079304AA042302990398FFF797
:103B540071FF00BF09B05DF804FB0000054B5A6813
:103B6400044B1B689A420CBF01230023DBB21846A6
:103B7400704700BF5C2C002000B599B0FFF7EEFF42
:103B84000346002B01D00023B2E1AB4B0022C3F863
:103B94001824BFF34F8F00BFA74B5B681793A64B46
:103BA4009B681093179A109B134002339B00A24A00
:103BB4001344043316930023159300231493002312
:103BC4000F931BE0179B01331793169B5B88C3F37A
:103BD40089139BB21A46169B1B88C3F389139BB2A5
:103BE40013441A46179B13441793179A109B1340B8
:103BF40002339B00904A134404331693169B1B789C
:103C040003F00303DBB2002BDCD00023139311E099
:103C1400179B5A1C1792109A1340139A920002A9E8
:103C24000A44854902339B000B445B681360139B71
:103C340001331393139B012BEAD99DF8083003F049
:103C44000303DBB2022B40F09C80BDF80A30C3F3BF
:103C540089139BB20D93BDF80A30C3F389139BB249
:103C6400502B28BF50239BB20C930C9BC3F3090326
:103C74009AB2BDF80A3062F38F13ADF80A300C9B88
:103C840008330B939DF80830C3F3C203DBB20F93E0
:103C94000B996A4802F053FB1590159B002B00F01A
:103CA400DF80159802F0DCFB02A9149B082215980A
:103CB40002F082FC149B08331493179BDA43109B85
:103CC400134001339B000A930C9A0A9B9A4242D9EF
:103CD4000A9B002B08D0179A109B134002339B00B9
:103CE400554A1344043300E0554B08930A9B002BB8
:103CF40002D00A9BDBB201E00C9BDBB28DF81F30D3
:103D04000A9B002B01D04E4B00E0002306930A9B34
:103D1400002B06D00C9BDAB20A9BDBB2D31ADBB2BF
:103D240000E000238DF817309DF81F20149B08999C
:103D3400159802F041FC9DF81F30149A1344149313
:103D4400069B002B16D09DF81720149B06991598F6
:103D540002F032FC0EE0179A109B134002339B00D2
:103D6400354A134404330993149B0C9A0999159802
:103D740002F022FC0D9B03339B08179A13441793FC
:103D84006EE09DF8083003F00303DBB2012B59D138
:103D9400BDF80830C3F38313DBB2062B28BF062318
:103DA400DAB2BDF8083062F38913ADF80830BDF813
:103DB4000830C3F38313DBB202330E939DF808304B
:103DC400C3F3C203DBB20F930E9B9B0019461B483F
:103DD40002F0B5FA1590159B002B41D0159802F00E
:103DE4003FFB02A9149B0822159802F0E5FB149BE3
:103DF400083314930023139314E0179B5A1C17924F
:103E0400109A134002339B000B4A1344191D149B50
:103E14000422159802F0D0FB149B04331493139BD3
:103E240001331393BDF80830C3F38313DBB21A468E
:103E3400139B9342E1D313E05C2C002060CE02007C
:103E4400682C00209DF8083003F00303DBB2032B39
:103E540006D1294BD3F81834002B01D1002347E0B5
:103E6400159B002B3ED0244BD3F810341293224BD5
:103E7400D3F81834002B1AD0159802F000FB31E067
:103E840000238DF847301298FFF75FFB0346002BA1
:103E940002D001238DF847309DF84730002B03D022
:103EA40015991298FFF71CFB129B5B681293129BE7
:103EB400002BE5D1159802F0E2FA00238DF80730C3
:103EC4000DF10703184601F05BFA0B4BD3F81834D5
:103ED400002B02D1084A179B53609DF807301846FF
:103EE40001F064FAFFF73AFE034683F00103DBB204
:103EF400184619B05DF804FB5C2C002000B585B0B1
:103F04000023039322E0164BD3F8103402930123C9
:103F14008DF807300EE00298FFF708FB03461A46B7
:103F2400039B934203D100238DF8073005E0029BE5
:103F34005B680293029B002BEDD19DF80730002BA8
:103F440001D0039B07E0039B01330393039B092BDD
:103F5400D9DD4FF0FF33184605B05DF804FB00BF10
:103F64005C2C002000B585B001900B468DF8033021
:103F7400FFF7C4FF0390039BB3F1FF3F01D1039B01
:103F84001EE0039BDBB219460198FFF7C3FA0E4B00
:103F9400D3F81034002B07D10B4A019BC2F810341C
:103FA400019B00225A600AE0074BD3F810345A6888
:103FB400019B5A60044BD3F81034019A5A60039B56
:103FC400184605B05DF804FB5C2C002000B583B0F6
:103FD4000C4BD3F8103401930A4B012283F81C24B0
:103FE40008E00198FFF7A9FA0198FFF787FA019B07
:103FF4005B680193019B002BF3D100BF00BF03B0AA
:104004005DF804FB5C2C002010B582B00190009197
:10401400019BDB7983F00103DBB2002B28D0019BE9
:104024001B7A002B12D0019B9B881A46019B9B791B
:1040340019461046FFF782FB03461A460E4B53F807
:1040440022301A460D49009801F07AFB019B9B79B6
:104054001A460B4B53F82240019B9B8800211846BB
:10406400FFF74CFB034622460649009801F068FB23
:1040740000BF02B010BD00BF002B002048CF0200DB
:10408400EC2A00204CCF020000B585B003900291C9
:1040940013468DF80730039BDB7983F00103DBB211
:1040A400002B0FD0039B1B7A002B06D00D4B1B68F3
:1040B4001A460D49029801F043FB0C49029801F09D
:1040C4003FFB07E09DF80730002B03D00749029817
:1040D40001F036FB029801F011FB00BF05B05DF85A
:1040E40004FB00BF002B002048CF020058CF020081
:1040F40030B58BB007900691059204930E9B1B7B01
:104104008DF827300E9B00221A730E990498FFF73E
:104114007BFF059B062B7FD801A252F823F000BF3A
:10412400414102004B4102005B4102006F41020029
:104134008D410200B5410200E541020007990E9845
:1041440001F0FEFA69E0069B1B681A4607990E986F
:1041540001F0F6FA61E0069B1A68069B04331B68BB
:1041640007990E9801F0ECFA57E0069B1A68069B33
:1041740004331968069B08331B6800930B460799A0
:104184000E9801F0DDFA48E0069B1968069B04339B
:104194001868069B08331B68069A0C321268019251
:1041A400009303460A4607990E9801F0C9FA34E0D1
:1041B400069B1868069B04331C68069B08331B681F
:1041C400069A0C321268069910310968029101921C
:1041D40000932346024607990E9801F0B1FA1CE0B9
:1041E400069B1C68069B04331D68069B08331B68EA
:1041F400069A0C3212680699103109680698143030
:10420400006803900291019200932B46224607997D
:104214000E9801F095FA00E000BF00220E99049870
:10422400FFF732FF0E9B9DF827201A7300BF0BB0D7
:1042340030BD00BF00B587B0039002910192009396
:10424400029B082B5CD8009B1B7B8DF81330009BD2
:1042540000221A7300990198FFF7D6FE00230593F4
:1042640014E0059A029B9A4209D2039A059B1344CF
:104274001B781A462449009801F062FA03E02349A6
:10428400009801F05DFA059B01330593059B072B0C
:10429400E7D91F49009801F053FA0023059322E05F
:1042A400059A029B9A4217D2039A059B13441B78E2
:1042B4008DF812309DF81230184608F0CFF80346F6
:1042C400002B02D09DF8123000E02E231A4611492B
:1042D400009801F035FA03E00F49009801F030FA34
:1042E400059B01330593059B072BD9D9012200991E
:1042F4000198FFF7C9FE009B9DF813201A7300E094
:1043040000BF07B05DF804FB5CCF020064CF02007D
:1043140068CF02006CCF020070CF020000B589B0F4
:10432400039002910192029B9BB2ADF81430019B61
:104334000693039B079305AB1A46002144F2010040
:1043440000F052F800BF09B05DF804FB86B003909A
:104354000291019201238DF817309DF81730214AFC
:10436400039B13601F4A029B53601E4A019B936088
:10437400039B44F20102934213D0039B44F20202D2
:10438400934222D1019B174AD360164BDB681B88EA
:104394001A46144B9A61134BDB685B68114AD3616C
:1043A40013E0019B0F4A13610E4B1B699B680D4A76
:1043B40053610C4B1B691B881A460A4B9A61094BC3
:1043C4001B695B68074AD36100BF72B600BF00BFB8
:1043D4009DF81730DBB2002BFAD162B600BF00BFE4
:1043E40006B070477C30002030B589B00590049148
:1043F4000392FFF7EBFD00BFFFF7BEFB0346002B64
:10440400FAD1059B44F2020293422BD0059B44F25D
:104414000202934254D8059B44F20102934231D0E4
:10442400059B44F2010293424AD8059B012B05D017
:10443400059B41F2010293420AD041E02D4B1B88B7
:104444001B0443F001032C491846FFF73BFB42E0F1
:10445400284B1B881B0443F0010328491846FFF727
:1044640031FB38E0039B0793224B1B881B0443F06A
:104474000100079B5B681A46079B1B882049FFF7CE
:1044840040FB28E0039B06931A4B1B881B0443F054
:104494000104069B9D68069B9B68184602F00CF974
:1044A40003461946069B5B681A46069B1B880193C4
:1044B40000920B462A4613492046FFF736FB0AE0D2
:1044C4000C4B1B881B0443F00103049A0E49184645
:1044D400FFF706FB00BF0D4B1B6803F00103002B25
:1044E40000D0FFDE039A04990598FFF72FFF00BF61
:1044F40009B030BD682A002074CF020094CF0200B6
:10450400B8CF0200D4CF0200ECCF0200F0ED00E0FF
:1045140084B00190019B9B680393019BDA68039B21
:10452400D31A184604B0704782B001900B468DF838
:104534000330019B1A68019BDB68019989880B4051
:1045440013449DF803201A70019BDB685A1C019BDD
:10455400DA6000BF02B0704784B003900B4601924A
:10456400ADF80A30039B1A68039B9968BDF80A30BA
:104574000B44039989880B4013441A78019B1A70E1
:1045840000BF04B0704700B583B001900091009A59
:1045940000210198FFF7E0FF019B9B685A1C019BD7
:1045A4009A6000BF03B05DF804FB00B583B00190CE
:1045B4000B468DF803300198FFF7AAFF0246019BD2
:1045C4009B889A4207D89DF8033019460198FFF753
:1045D400ABFF002300E00423184603B05DF804FB9E
:1045E40000B583B0019000910198FFF791FF034655
:1045F400002B05D000990198FFF7C5FF002300E0C8
:104604000523184603B05DF804FB000082B003469E
:104614008DF807309DF8073003F01F0205499DF916
:1046240007305B09012000FA02F241F8232000BFA1
:1046340002B0704700E100E082B003468DF8073015
:104644009DF8073003F01F0206499DF907305B0906
:10465400012000FA02F2203341F8232000BF02B007
:10466400704700BF00E100E082B003468DF80730D8
:104674009DF8073003F01F0206499DF907305B09D6
:10468400012000FA02F2403341F8232000BF02B0B7
:10469400704700BF00E100E082B003468DF80730A8
:1046A4009DF8073003F01F0206499DF907305B09A6
:1046B400012000FA02F2603341F8232000BF02B067
:1046C400704700BF00E100E082B0034600918DF81E
:1046D40007309DF90730002B0CDA009BDAB20C4945
:1046E4009DF8073003F00F03043B5201D2B20B4490
:1046F4001A7609E0009BDAB206499DF907305201A7
:10470400D2B20B4483F8002300BF02B0704700BF4D
:1047140000ED00E000E100E084B00190244B03933D
:10472400019B002B40D0234B1A680399019B00BFC7
:1047340000BF00BF00BF00BF00BF00BF00BF8A4270
:104744002FD000BF00BF00BF00BF00BF00BF00BF2D
:1047540000BF00BF00BF00BF00BF00BF00BF00BF5D
:1047640000BF00BF00BF00BF00BF00BF00BF00BF4D
:1047740000BF00BF00BF00BF00BF00BF00BF00BF3D
:1047840000BF00BF00BF00BF00BF00BF00BF00BF2D
:1047940000BF00BF00BF00BF00BF00BF00BF00BF1D
:1047A40000BF013BC3D1019300BF04B0704700BFF9
:1047B4000024F400342B002000B583B00190064A95
:1047C400019BC2F8083507211120FFF77DFF00BFC8
:1047D40003B05DF804FB00BF0010014008B50D4BA9
:1047E4004FF48032C3F844230A4B4FF48032C3F8A9
:1047F40004231120FFF750FF1120FFF707FF054B9B
:1048040001221A602F20FFF787FF034B01221A7041
:1048140000BF08BD00100140BA31002008B51120C6
:10482400FFF70AFF0E4B4FF48032C3F848230C4BBA
:104834004FF48032C3F80823094B01225A602F2019
:10484400FFF76AFF064B01229A60064B00221A60AA
:104854002F20FFF761FF044B00221A7000BF08BD30
:1048640000100140AC310020BA310020024BD3F8D3
:1048740004351846704700BF0010014082B0019013
:104884000091019A009BD31A23F07F43184602B08B
:104894007047000082B00190034A019BC2F8403582
:1048A40000BF02B0704700BF0010014086B0019005
:1048B400284B1B68002B03D1264A019B136045E05B
:1048C400019B1A68234B1B681B689A4210D8214B22
:1048D4001B681968019B1A681E4B1B688A1A1A60A8
:1048E4001C4B1A68019BDA611A4A019B13602DE084
:1048F400019B1B680393174B1B680593154B1B689F
:10490400049309E0049B1B68039AD31A0393049B42
:104914000593049BDB690493049B002B04D0049B44
:104924001B68039A9A42EDD8049B002B05D0049B84
:104934001A68039BD21A049B1A60019B039A1A609B
:10494400019B049ADA61059B019ADA6100BF06B003
:10495400704700BFA831002000B587B001902A4BF2
:104964001B680393284B1B680593059B049308E07D
:10497400049A019B9A4208D0049B0593049BDB692B
:104984000493049B002BF3D100E000BF049B002B95
:1049940001D1002333E0059A049B9A4214D11A4BA7
:1049A4001B68DB69184A1360174B1B68002B0BD17B
:1049B400164B01229A60164B00221A60154B0122F5
:1049C4001A702F20FFF7A8FE049B1B680293049B18
:1049D400DA69059BDA61059BDB690493049B002B70
:1049E40005D0049B1A68029B1A44049B1A60064B68
:1049F4001B68039A9A4214BF01230023DBB21846B2
:104A040007B05DF804FB00BFA8310020001001408E
:104A1400AC310020BB31002008B51120FFF724FE83
:104A240000BF08BD08B51420FFF71EFE00BF08BD77
:104A340000B583B00190019B5B69019A92691046AD
:104A4400984700BF03B05DF804FB000000B585B0D3
:104A54002B4B1B68002B4ED000230193FFF706FF5E
:104A64000246284B1B6819461046FFF707FF0290C1
:104A7400234B1B6803931DE0039B1B68029A9A4215
:104A84001CD3039B1B68029AD31A0293039B1B68D3
:104A9400019A13440193039B0093039BDB690393E3
:104AA400009B1B7C002B05D0009B00221A740098ED
:104AB400FFF7BEFF039B002BDED100E000BF124BCB
:104AC4001A78124B1B789A420CD1104B1B78013385
:104AD400DAB20E4B1A700D4B1B78022B02D10B4B22
:104AE40000221A70094B1B781946094A019B42F8A7
:104AF4002130FFF797FF00BF05B05DF804FB00BF4E
:104B0400A8310020AC310020B8310020B931002098
:104B1400B031002082B00190184B1A78184B1B78E2
:104B24009A4223D0154B1B780133DAB2134B1A7017
:104B3400124B1B78022B02D1104B00221A700F4B20
:104B44001B781A460F4B53F82220019B1A60019BD5
:104B54001A680D4B1B6813440B4A13600A4B1B68FD
:104B640023F07F43084A1360012303E0019B0022E2
:104B74001A600023184602B0704700BFB831002005
:104B8400B9310020B0310020AC31002088B003904E
:104B9400029101920023079338E0204B1B6806938F
:104BA400069B1B68039A9A4206D2069B1A68039BCB
:104BB400D21A069B1A602EE0069B1B68039AD31A2E
:104BC4000393069B1B68079A13440793069B0022D2
:104BD4001A60124B1B680593069BDB690F4A13602E
:104BE400069BDB68002B11D0029A079B134423F029
:104BF4007F42069B5A60069BDA68069B9A60019B7B
:104C04001A68069BDA61019B059A1A60034B1B68BC
:104C1400002BC2D100BF00BF08B07047A8310020EC
:104C240000B589B0019000238DF81F30664B1B68D6
:104C34000593AAE0019B002B05D0019B0693069BDC
:104C4400DB69019361E0614B1B781A4613465B00F4
:104C54001344DB005D4A1344043304935B4B1B7819
:104C64000133DAB2594B1A70584B1A78574B9B7868
:104C74009A4202D1554B00221A70049B5B6806933A
:104C8400049B1B78032B1ED0032B7EDC012B1FD02F
:104C9400022B7AD1049B5B681846FFF75DFE03463E
:104CA400002B02D001238DF81F30069B00221A74BA
:104CB4006BE0454B1B680393039B00221A74039B10
:104CC400DB69414A1360404B1B68002BF1D15CE067
:104CD40000BF069B1B7C002B00D056E0049B9A6807
:104CE400069B5A60049BDA68069B9A60049B1A69C7
:104CF400069BDA60049B5A69069B9A61344B1B78C5
:104D0400002B02D0069B00225A60069B5A68314B46
:104D14001B68D31A23F07F432F4A93420ED8069B75
:104D24005B682C4A126811461846FFF7A7FD024635
:104D3400069B9B681A44069B1A6017E0254B1A6869
:104D4400069B5B6819461046FFF798FD0290069B88
:104D54009B68029A9A4206D2069B9A68029BD21AD0
:104D6400069B1A6002E0069B00221A60069B002242
:104D74005A60069B00229A60069B01221A74069BC5
:104D84000022DA610698FFF791FD019B002B7FF466
:104D940051AF0E4B1A780D4B5B789A427FF44AAFB1
:104DA4009DF81F30002B04D1074B1B68059A9A42CB
:104DB40001D0012300E0002303F00103DBB2184615
:104DC40009B05DF804FB00BFA83100209C3000202E
:104DD400BB310020AC310020FEFF7F0010B588B04D
:104DE4000190274B1B68002B44D0254B1B681B6884
:104DF4000793FFF73BFD0690224B1B68059305992B
:104E04000698FFF73BFD0346033304931E4B1B78C0
:104E140083F00103DBB2002B01D0FFF7DFFC049A1F
:104E2400079B934238BF1346059A13440593059B89
:104E340023F07F4305930598FFF72CFDFFF716FD3C
:104E4400039006990398FFF719FD0346DC1C0699A5
:104E54000598FFF713FD03469C420DD9FFF706FDA5
:104E640003461846FFF716FD2F20FFF755FCFFF702
:104E7400D3FD01E0FFF7D2FC00BF08B010BD00BFB6
:104E8400A8310020AC310020BA31002000B587B031
:104E94000023019300238DF81730194B1B680493EA
:104EA400184B1B6803936B461846FFF733FE034603
:104EB4008DF80B309DF80B30002B08D0009B01AA15
:104EC40004991846FFF762FE01238DF81730019B01
:104ED4001846FFF7A5FE0346002B02D001238DF8E8
:104EE40017309DF81730002B02D00398FFF776FF98
:104EF400054B00221A7000BF07B05DF804FB00BF29
:104F0400AC310020A8310020BB31002082B0034620
:104F14008DF80730034A9DF80730537000BF02B084
:104F2400704700BF9C30002084B00190144B5B7824
:104F340001338DF80F30124B9B789DF80F209A4265
:104F440002D100238DF80F300D4B1B789DF80F20F4
:104F54009A4201D100230FE0019B9DF80F201A70A3
:104F6400074B5B781A4613465B001344DB00044A84
:104F7400134404330293029B184604B0704700BFE5
:104F84009C30002000B589B00390029101920093F7
:104F94000023079300238DF816300DF116031846ED
:104FA40000F0EEF90DF117031846FFF7BDFF069068
:104FB400069B002B02D10423079318E0069B0122D1
:104FC4001A70069B039A5A60FFF750FC0246069B30
:104FD4009A60069B029ADA60069B019A1A61069B04
:104FE400009A5A619DF817301846FFF78FFF9DF815
:104FF4001630184600F0DAF9079B002B01D1FFF7B1
:1050040011FD079B184609B05DF804FB00B587B095
:1050140001900B468DF803300023059300238DF88F
:105024000E300DF10E03184600F0AAF90DF10F032E
:105034001846FFF779FF0490049B002B02D1042348
:1050440005930BE0049B9DF803201A70049B019ABE
:105054005A609DF80F301846FFF758FF9DF80E3040
:10506400184600F0A3F9059B002B01D1FFF7DAFCE9
:10507400059B184607B05DF804FB000008B50E4B0D
:105084000022C3F840210C4B0022C3F844210A4BF0
:105094000022C3F84821084B0022C3F84C21064BD8
:1050A4000022C3F80021044B0022C3F80421FFF7B7
:1050B400CDFC00BF08BD00BF0010014008B5FFF7DC
:1050C400E5FE00BF08BD000008B5FFF7A7FB134BC2
:1050D40000221A70114B00225A70104B0B229A7046
:1050E4000F4B00221A600F4B00221A700E4B002245
:1050F4001A701420FFF7D0FA07211420FFF7E4FAFE
:105104001420FFF783FA0020FFF756FBFFF7AEFBEE
:105114000346064A13600023184608BD9C3000204D
:10512400A8310020B8310020B9310020AC31002072
:1051340086B003900B4601928DF80B30134B9B788D
:10514400002B01D108231EE0019B002B01D1072372
:1051540019E0039B002B01D1072314E0039B1B6878
:105164001B7C002B01D008230DE0039B1B680593D7
:10517400059B00221A74059B9DF80B205A74059B0D
:10518400019A5A610023184606B070479C300020EB
:1051940000B587B0039002910192039B0593144BD1
:1051A4009B78002B01D108231EE0039B002B01D127
:1051B400082319E0029B042B01D8072314E0059B64
:1051C4005B69002B01D108230EE0059B5B7C012B5E
:1051D40001D1029B00E000230493019B049A0299ED
:1051E4000598FFF7CFFE0346184607B05DF804FBA9
:1051F4009C30002000B585B00190019B03930D4BBA
:105204009B78002B01D1082310E0019B002B03D0D5
:10521400039B5B69002B01D1082307E0039B002259
:105224001A7402210398FFF7F1FE0346184605B0ED
:105234005DF804FB9C30002000B585B003468DF872
:1052440007309DF8073019461048FFF7AEF9039070
:10525400039B002B15D10E4802F074FB034683F028
:105264000103DBB2002B0CD00A490848FFF7B8F958
:105274000346002B05D101220649054802F00AFB2A
:105284000390039B184605B05DF804FBC031002071
:10529400242B0020BC31002082B0EFF31083009354
:1052A400009B019372B600BF019B184602B0704781
:1052B40062B600BF00BF704700B585B00190FFF72C
:1052C400EBFF0390164B9B68002B1BD1144B012260
:1052D4009A60144BD3F88020134B1340104A136088
:1052E400104B114AC3F880200E4BD3F884300C4A7B
:1052F40053600C4B4FF0FF32C3F88420019B002213
:105304001A7002E0019B01221A70039B002B01D149
:10531400FFF7CEFF0023184605B05DF804FB00BF7D
:10532400D031002000E100E0FC06FFBD00B585B0EF
:1053340003468DF80730104B9B68002B16D09DF860
:105344000730002B12D1FFF7A7FF03900B4A0A4B3B
:105354001B681360094A084B5B685360064B0022C4
:105364009A60039B002B01D1FFF7A2FF002318468C
:1053740005B05DF804FB00BFD031002000E100E07F
:1053840000B583B0019000F02BF80346012B03D045
:105394000549432002F0C2FF0198FFF78DFF00BFCB
:1053A40003B05DF804FB00BF04D0020000B583B075
:1053B40003468DF8073000F013F80346012B03D0A1
:1053C4000649512002F0AAFF9DF807301846FFF75E
:1053D400ADFF00BF03B05DF804FB00BF04D00200C2
:1053E40084B0EFF305830193019BC3F30803039394
:1053F400039B002B0DD1EFF314830093009B0293C6
:10540400029B03F00103002B0CBF01230023DBB23A
:1054140000E00123184604B0704786B00190009163
:10542400019B53E8021F1FFAA1F2D888824202BFEF
:10543400BFF32F8F00230DE0D8890244988982425C
:1054440028BF121AC1EA024243E802200028E8D128
:105454004FF001038DF80F30059002910492029AE7
:10546400009B1A609DF80F30DBB2184606B07047F7
:1054740084B00190019951E8023FC3EA234341E813
:105484000232002AF7D10392029300BF04B070479E
:1054940000B583B001900091009B19460198FFF775
:1054A400BCFF0346002B05D0019B1B68009A528861
:1054B400134400E00023184603B05DF804FB00B574
:1054C40083B001900091009B1A88009B5B889A42EC
:1054D40004D10198FFF7CCFF012300E00023184614
:1054E40003B05DF804FB000000B583B001900B46E7
:1054F4008DF80330019B002B03D10849AF2002F043
:105504000DFF019BDA689DF803300199098A01FBBC
:1055140003F31344184603B05DF804FB5CD00200A7
:1055240000B583B001900091019B002B03D1084981
:10553400BC2002F0F3FE009B019AD2689B1A019AE8
:10554400128AB3FBF2F3DBB2184603B05DF804FB36
:105554005CD0020000B585B00190019B002B01D105
:105564000E2348E0019B1B68002B03D12449C6206D
:1055740002F0D4FE019B5B68002B03D12049C720B5
:1055840002F0CCFE019B9B68002B03D11C49C82070
:1055940002F0C4FE019BDB68002B03D11849C9202B
:1055A40002F0BCFE019B1B8A002B03D11449CA20C4
:1055B40002F0B4FE019B9A68019B5B68D31A8DF8D4
:1055C4000F30019B1B68019A52681A6007E0019B27
:1055D4001A681368591C11609DF80F201A709DF801
:1055E4000F305A1E8DF80F20002BF0D1019B1B6841
:1055F40000221A710023184605B05DF804FB00BFB1
:105604005CD0020000B585B00190019B002B03D152
:105614001F49EC2002F082FE0023039300238DF83F
:105624000A300DF10A031846FFF7AAFE019B1B6816
:105634001A68019B5B689A421FD9019B1B681A6810
:10564400013A1A601B681B7819460198FFF74CFF52
:105654000390019B9A68019B1B681B68D31A8DF801
:105664000B30019B1B681B799DF80B209A4204D9CF
:10567400019B1B689DF80B201A719DF80A3018468F
:10568400FFF794FE039B184605B05DF804FB00BFCA
:105694005CD0020010B584B001900091019B002BF6
:1056A40004D115494FF4887002F038FE009B002B9A
:1056B40004D1114940F2111002F030FE009B039313
:1056C40000238DF80B300DF10B031846FFF758FE3D
:1056D400019B1B681C68621C1A6003990198FFF700
:1056E4001FFF034623709DF80B301846FFF75EFE3C
:1056F40000BF04B010BD00BF5CD0020000B583B091
:105704000190019B002B03D10C49312002F006FECD
:10571400019B9B68002B0CD0019B5B69019A10696B
:10572400019A1168019A92689847019B00229A6035
:1057340000E000BF03B05DF804FB00BFA4D002008A
:105744000EB400B584B00190019B002B03D118491D
:10575400422002F0E3FD019B5B69002B03D1144955
:10576400432002F0DBFD019B1B68002B03D1104991
:10577400442002F0D3FD019B5B68002B03D10C494C
:10578400452002F0CBFD059B002B0AD00023039398
:1057940006AB039303AB1A460599019800F0B0F9E0
:1057A40000E000BF04B05DF804EB03B0704700BF35
:1057B400A4D0020000B583B001900B468DF80330ED
:1057C400019B1A68019B9B68581C019988601344CB
:1057D4009DF803201A70019B9A68019B5B689A42AA
:1057E40002D30198FFF78AFF00BF03B05DF804FB02
:1057F40000B587B0039002910192009300230593B2
:10580400009B03F00103002B24D00BE0029B013327
:105814000293059B013305939DF8133019460398B1
:10582400FFF7C8FF029B1B788DF813309DF81330E7
:10583400002BEBD106E0019B013B0193202103984F
:10584400FFF7B8FF019A059B9A422ED9019B002BC2
:10585400F1D12AE0029B002B0BD0029806F0B3FE94
:10586400059006E0019B013B019320210398FFF77B
:10587400A1FF019A059B9A420FD9019B002BF1D1FC
:105884000BE0029B01330293059B013305939DF8C2
:10589400133019460398FFF78DFF029B1B788DF890
:1058A40013309DF81330002BEBD100BF07B05DF827
:1058B40004FB000000B589B00390029101920093AB
:1058C400029B07930123069307E0079A019BB2FB0F
:1058D400F3F30793069B01330693079A019B9A42BD
:1058E400F3D2009A069B9A4201D9009B06930B9B24
:1058F40003F00103002B22D10A9B002B1FD00B9B2A
:1059040003F00203002B06D0009B002B03D13023AD
:105914008DF8173002E020238DF8173008E00A9B39
:10592400013B0A939DF8173019460398FFF742FF8D
:105934000A9B002B03D0069A0A9B9A42EFD30123B9
:105944000793009B012B03D9009B013B009309E0C3
:10595400029A079BB2FBF3F30493049A019B9A42C5
:1059640000D205E0079B019A02FB03F30793E8E7E3
:10597400029A079BB2FBF3F30493049B079A02FB7E
:1059840003F3029AD31A0293154A049B13441B7817
:1059940019460398FFF70EFF079A019BB2FBF3F336
:1059A4000793079B002BE3D10B9B03F00103002B10
:1059B40011D00A9B002B0ED006E00A9B013B0A93F0
:1059C40020210398FFF7F6FE0A9B002B03D0069ACA
:1059D4000A9B9A42F1D300BF09B05DF804FB00BFF3
:1059E4002CD1020000B589B0059004910392029372
:1059F400049B002BB8BF5B4206930123079307E087
:105A0400039B069A92FBF3F30693079B01330793D8
:105A1400039B069A9A42F3DA029A079B9A4201D9A7
:105A2400029B07930A9B002B0AD0049B002B04DBE8
:105A34000B9B03F00403002B02D00A9B013B0A9347
:105A44000B9B03F00203002B02D0029B002B16D009
:105A54000B9B03F00103002B11D10A9B002B0ED0EA
:105A640006E00A9B013B0A9320210598FFF7A2FE5A
:105A74000A9B002B03D0079A0A9B9A42F1D3049BFA
:105A8400002B07DA049B5B4204932D210598FFF752
:105A940091FE08E00B9B03F00403002B03D02B21A1
:105AA4000598FFF787FE0B9B03F00203002B19D028
:105AB4000B9B03F00103002B14D1029B002B11D18B
:105AC4000A9B002B0ED006E00A9B013B0A9330216F
:105AD4000598FFF76FFE0A9B002B03D0079A0A9BD9
:105AE4009A42F1D304990B9B01930A9B0093029B66
:105AF400039A0598FFF7DEFE00BF09B05DF804FBCA
:105B040000B58FB0059004910392059B002B04D13E
:105B1400B6494FF49F7002F001FC059B5B69002BB2
:105B240004D1B2494FF4A07002F0F8FB059B1B6846
:105B3400002B04D1AD4940F2411002F0EFFB059B6C
:105B44005B68002B04D1A9494FF4A17002F0E6FB75
:105B5400049B002B00F09381049B1B788DF8373055
:105B6400049B013304939DF83730002B00F07E81B1
:105B74009DF83730252B40F06D8100230A930123D3
:105B84000C93049B1B788DF837309DF83730302BFD
:105B94000DD0302B1BDC2B2B11D02D2B17D10A9BB6
:105BA40043F001030A93049B0133049312E00A9B1C
:105BB40043F002030A93049B013304930AE00A9B13
:105BC40043F004030A93049B0133049302E000238B
:105BD4000C9300BF0C9B002BD3D1002309939DF899
:105BE40037302A2B0CD1039B1B68191D039A1160B3
:105BF4001B68099A13440993049B013304931AE024
:105C0400049B1B788DF837309DF837302F2B12D931
:105C14009DF83730392B0ED8049B01330493099A2D
:105C240013469B0013445B001A469DF83730134417
:105C3400303B0993D3E700230B93049B1B788DF827
:105C440037309DF837302E2B1DD1049B013304933C
:105C5400049B1B788DF837309DF837302F2B12D9E1
:105C64009DF83730392B0ED8049B013304930B9ADB
:105C740013469B0013445B001A469DF837301344C7
:105C8400303B0B93E4E7049B1B788DF837309DF889
:105C940037306C2B03D09DF83730682B07D1049B29
:105CA40001330493049B1B788DF83730EFE79DF89C
:105CB4003730252B00F0C480252BC0F2C680782B0A
:105CC40000F3C380582BC0F2C080583B202B00F255
:105CD400BC8001A252F823F0CB5D02004F5E0200AB
:105CE4004F5E02004F5E02004F5E02004F5E0200F4
:105CF4004F5E02004F5E02004F5E02004F5E0200E4
:105D04004F5E0200615D0200835D02004F5E02008F
:105D14004F5E02004F5E02004F5E0200835D020090
:105D24004F5E02004F5E02004F5E02004F5E0200B3
:105D34004F5E02004F5E0200115E02004F5E0200E1
:105D44004F5E0200F55D02004F5E0200A75D020097
:105D54004F5E02004F5E0200CB5D0200039B1B6896
:105D6400191D039A11601B680C930C9B8DF81F304E
:105D74009DF81F3019460598FFF71CFD66E0039B4C
:105D84001B68191D039A11601B680C930A9B0193ED
:105D9400099B00930B9B0A220C990598FFF722FE9E
:105DA40054E0039B1B68191D039A11601B680C9334
:105DB4000C990A9B0193099B00930B9B0A2205985B
:105DC400FFF778FD42E0039B1B68191D039A1160DD
:105DD4001B680C930C990A9B0193099B00930B9BE2
:105DE40010220598FFF766FD30E000BFE4D0020002
:105DF400039B1B68191D039A11601B6808930A9B77
:105E0400099A08990598FFF7F3FC1FE0039B1B68A8
:105E1400191D039A11601B680C9330210598FFF734
:105E2400C9FC78210598FFF7C5FC0C990023019360
:105E340008230093082310220598FFF73BFD05E093
:105E440025210598FFF7B6FC00E000BF049B013351
:105E5400049305E09DF8373019460598FFF7AAFC2E
:105E6400049B1B78002B7FF477AE00E000BF059BFA
:105E74001B7B002B04D00598FFF740FC00E000BF1B
:105E84000FB05DF804FB00BF00B585B00190019B25
:105E9400002B03D0019B1B68002B28D10023039304
:105EA40019E0039A13469B0013449B001A46154BB2
:105EB40013440193019B1B68002B09D0019B1B68B1
:105EC400DB69019898470346002B01D0012314E0B5
:105ED400039B013303930C4A0A4BD31A0B4AA2FBCC
:105EE40003231B09039A9A42DBD3002305E0019B99
:105EF4001B68DB69019898470346184605B05DF8AE
:105F040004FB00BFE02A0020E02A0020CDCCCCCC4A
:105F140029DF704700BF184628DF704700BF1846C6
:105F240000B589B001900091019B1B689B68002B10
:105F340031D003AB00221A605A609A60DA601A61A9
:105F4400009B0493019B9B680793019B1B79002B87
:105F540002D0012B0AD017E001238DF80C30019BED
:105F64001B690593019B5B6906930DE002238DF881
:105F74000C30019BDB684FF4805202FB03F3059362
:105F8400019B5B69069300BF019B1B689B6803AA86
:105F94001046984700E000BF09B05DF804FB00B567
:105FA40087B00190019B5A69019B9B69D31AB3F591
:105FB400805F28BF4FF4805305930422059BB3FBF5
:105FC400F2F3012B38BF01230593019B1A69019B4E
:105FD4009B6913440493019BDB681A46019B9B69EC
:105FE40013440393059A03990498FFF791FF03461A
:105FF400184607B05DF804FB00B583B00190019B1F
:10600400DA68019B1B6913441846FFF785FF0346B2
:10601400184603B05DF804FB08B5034B0349184662
:10602400FFF74DFA00BF08BDDC3100200432002028
:1060340008B5084B08491846FFF72AFA0346074AE9
:106044001360064B1B68002B14BF01230023DBB233
:10605400184608BDDC310020043200200032002044
:1060640000B583B0294B1B7A002B0BD1FFF7E0FF5F
:10607400034683F00103DBB2002B03D0234B002241
:106084005A6040E0214B02221A72214B1B681B7993
:10609400002B02D0012B07D00DE01D4B1B681846C6
:1060A400FFF77DFF019009E0194B1B681846FFF7C5
:1060B400A3FF019002E00323019300BF019B002B87
:1060C40003D0019B112B0CD00FE0104B1B7C83F0F1
:1060D4000103DBB2002B15D00021022000F06CF884
:1060E40010E00A4B01221A720DE0094B1B680321D0
:1060F4001846FFF715FF054B00221A72034B0022C6
:106104005A6000E000BF03B05DF804FBEC310020EE
:106114000032002084B001901B4B0022DA60019B06
:106124001B79002B02D0012B19D028E0019B5A695E
:10613400019B9B69D31AB3F5805F28BF4FF480534A
:106144000393019B9A69039B1A44019B9A61019BE7
:106154009A69019B5B699A420ED1012310E0019B6D
:106164001B695A1C019B1A61019B1A69019B5B699B
:106174009A4203D1012303E000BF00E000BF0023E3
:10618400184604B0704700BFEC31002082B0019083
:10619400084BDB680133074AD360064BDB68082BE6
:1061A40004D9044B0022DA60012300E000231846DE
:1061B40002B07047EC31002000B585B00190009129
:1061C400254B1B7A012B33D0022B41D100238DF8B0
:1061D4000F30019B022B03D0019B032B09D011E04C
:1061E4001E4B1B681846FFF795FF03468DF80F30CA
:1061F40008E01A4B1B681846FFF7C8FF03468DF8E2
:106204000F3000BF9DF80F30002B13D0124B00222B
:106214001A72124B1A68019B022B01D1002300E071
:106224000D2319461046FFF77BFEFFF7F5FE01E04C
:1062340000BF00E000BF084B5B7C83F00103DBB2CE
:10624400002B02D0FFF70CFF03E005F0A1FD00E0F6
:1062540000BF05B05DF804FBEC31002000320020E3
:1062640082B0034600918DF80730064B01225A7420
:10627400044B1B7A002B0CBF01230023DBB218460E
:1062840002B07047EC31002000B583B003460091A2
:106294008DF807309DF80730012B03D09DF80730A7
:1062A400032B0DD1084B00225A749DF80730012BA3
:1062B4000CBF01230023DAB2034B1A74FFF7D0FE9C
:1062C40000BF03B05DF804FBEC31002010B487B0CC
:1062D40001900091019B009A53E8004F04EB0200E7
:1062E40043E8000191F0000FF6D105940490039166
:1062F400049B184607B010BC704710B487B00190D7
:106304000091019B009A53E8004FA4EB020043E87C
:10631400000191F0000FF6D1059404900391049BC1
:10632400184607B010BC704700B583B001900198BF
:10633400FFF710F90346184603B05DF804FB00B5F7
:106344008BB001900091019B1B8A043B0793009A38
:10635400079B1344DA1C079BB2FBF3F38DF81B3045
:106364000198FFF74FF90590059B002B01D10023FD
:1063740038E0059B00221A71059B01225A71079B84
:106384009AB2059BDA80059B09939DF81B30013B6B
:106394000493099B019A1A60002308931DE0019855
:1063A400FFF730F90390039B002B0ED0059B5B791C
:1063B4000133DAB2059B5A71099B039A1A60039B55
:1063C400019A1A60039B099304E0059800F00EF803
:1063D400002307E0089B01330893089A049B9A4220
:1063E400DDD3059B18460BB05DF804FB00B58BB0FC
:1063F4000190019B0793079B5B798DF81B30019BF0
:1064040008939DF81B30013B05930023099305E095
:10641400089B1B680893099B01330993099A059B00
:106424009A42F5D3089B1B680493019B08930023AD
:1064340009930BE0089B1B68039308990498FFF7E2
:1064440029F9039B0893099B013309939DF81B3099
:10645400099A9A42EED300BF00BF0BB05DF804FB6B
:1064640000B585B00190019B0393039B0433012184
:106474001846FFF72BFF00BF05B05DF804FB00B51D
:1064840087B00190019B0593059B043301211846B5
:10649400FFF733FF0346039303AB0493049B1B787A
:1064A400002B02D10198FFF7A1FF00BF07B05DF8F0
:1064B40004FB000000B58DB003900291019200939B
:1064C400039B0693069BDB880593039B0B93009B1E
:1064D4001A1D059BB2FBF3F30A93009B0433059A40
:1064E400B3FBF2F2059901FB02F29B1A0993009A9D
:1064F400019B1A44059B1344DA1C059BB2FBF3F37E
:106504008DF81330069B5B799DF813209A420AD9C3
:106514002849BA2001F002FF05E00B9B1B680B938E
:106524000A9B013B0A930A9B002BF6D10023089394
:10653400059A099BD31A0793079A019B934228BF94
:10654400134607932DE09DF83830002B0BD0029AA8
:10655400089BD0180B9A099B13440433079A1946D5
:1065640005F0B3FF0AE00B9A099B1344181D029A25
:10657400089B1344079A194605F0A7FF00230993C3
:106584000B9B1B680B93019A079BD31A0193089AE0
:10659400079B13440893059A019B934228BF134613
:1065A4000793019B002BCED100BF00BF0DB05DF857
:1065B40004FB00BF3CD1020000B587B005900491F4
:1065C4000392029300230093029B039A0499059873
:1065D400FFF770FF00BF07B05DF804FB00B587B09C
:1065E400059004910392029301230093029B039A62
:1065F40004990598FFF75EFF00BF07B05DF804FB40
:1066040000B583B001900091019B002B03D1104988
:10661400502001F083FE009B002B03D10C49512034
:1066240001F07CFE019B009A1A60019B1B681A68AA
:10663400019B5A60019B5A68019B1B685B689A42E4
:1066440002D1019B00225A6000BF03B05DF804FB35
:1066540078D2020000B583B00190019B002B03D1D6
:106664001449632001F05AFE019B1B68002B03D1DF
:106674001049642001F052FE019B5B68002B14D08A
:10668400019B5B681A46019B1B689B6813441A466E
:10669400019B5A60019B5A68019B1B685B689A4284
:1066A40004D1019B00225A6000E000BF03B05DF8F2
:1066B40004FB00BF78D2020000B585B001900198B8
:1066C40000F00EF80390039B002B01D0039B00E025
:1066D400024B184605B05DF804FB00BFDCD2020093
:1066E40086B00190164B0593164B04931FE0049A51
:1066F400059BD31ADB10DA0F13445B10DB00059AF9
:1067040013440393039B1B680293029A019B9A42CE
:1067140002D9039B04930AE0029A019B9A4203D292
:10672400039B0833059302E0039B5B6804E0059A2E
:10673400049B9A42DBD30023184606B0704700BF7F
:10674400F8D50200E8D6020082B001900B46ADF8FD
:106754000230019B1A68BDF80230012101FA03F3EB
:106764001A43019B1A6000BF02B0704782B00190C7
:106774000B46ADF80230019B1A68BDF802300121C6
:1067840001FA03F3DB431A40019B1A6000BF02B015
:10679400704782B001900B46ADF80230BDF802306C
:1067A400012202FA03F31A46019B1340002B14BF83
:1067B40001230023DBB2184602B0704700B585B050
:1067C40001900023ADF80E3010E0BDF80E301946EC
:1067D4000198FFF7DEFF0346002B02D0BDF80E3010
:1067E4000AE0BDF80E300133ADF80E30BDF80E30BE
:1067F4001F2BEAD94FF6FF73184605B05DF804FB6A
:1068040000B587B00590049111461A460B46ADF8C1
:106814000E3013468DF80D30BDF80E209DF80D3066
:106824000093134601220499059800F004F800BF70
:1068340007B05DF804FB00B587B0039002910192A4
:10684400ADF80230039B002B3BD0029B002B38D0C9
:10685400019B002B35D0002305932FE0059B5B00A3
:10686400039A13441B88BDF802209A4223D10023C3
:1068740004931BE09DF82030002B0AD0049B9B005E
:10688400029A1344059A92B211461846FFF75CFF28
:1068940009E0049B9B00029A1344059A92B21146A4
:1068A4001846FFF763FF049B01330493049A019B8A
:1068B4009A42DFD305E0059B01330593059B1F2B0B
:1068C400CCD907B05DF804FB00B597B003900291F2
:1068D400019200230493029B002B1ED000231593E6
:1068E40018E0159B9BB219460198FFF752FF034627
:1068F400002B0CD0159B5B00029A1A44049B591C74
:10690400049112885B0016A90B4423F8442C159BB0
:1069140001331593159B1F2BE3D9039B184604AB36
:106924004422194605F0D1FD039817B05DF804FB25
:1069340000B583B00190019B1B681F2B04D9054946
:106944004FF4E87001F0EAFC4FF0A043184603B09E
:106954005DF804FBE8D6020000B585B00190084656
:1069640011461A4603468DF803300B468DF8023063
:1069740013468DF8013001AB1846FFF7D9FF039099
:106984009DF803209DF802305B001A439DF8013006
:106994009B001A439DF818301B0242EA03019DF83C
:1069A4001C301B04019A1943039B02F5E07243F85F
:1069B400221000BF05B05DF804FB00B585B003905C
:1069C4000023019300230093002301220121039853
:1069D400FFF7C2FF00BF05B05DF804FB00B585B04A
:1069E400019001AB1846FFF7A3FF0390019B01221E
:1069F40002FA03F31946039800F069F800BF05B0E2
:106A04005DF804FB00B585B0019001AB1846FFF7B3
:106A14008FFF0390019B012202FA03F319460398A6
:106A240000F05FF800BF05B05DF804FB00B585B069
:106A3400019001AB1846FFF77BFF0390039BD3F84B
:106A440004350293029BDA43019B012101FA03F30B
:106A54001A40039BC3F80825019B01229A40029B1C
:106A64001A40039BC3F80C2500BF05B05DF804FB76
:106A740000B583B001900091009B002B03D10198D5
:106A8400FFF7C0FF02E00198FFF7A8FF00BF03B0C3
:106A94005DF804FB00B585B0019001AB1846FFF723
:106AA40047FF0390039800F00AF80246019B22FA7C
:106AB40003F303F00103184605B05DF804FB82B04C
:106AC4000190019BD3F80435184602B0704782B098
:106AD40001900091019B009AC3F8082500BF02B001
:106AE400704782B001900091019B009AC3F80C2575
:106AF40000BF02B07047000000B585B00190019B53
:106B0400022B03D91149372001F008FC104A019BDC
:106B140013441B781846FFF7BDFF0346002B14BF30
:106B2400012300238DF80F309DF80F30002B14BF84
:106B340001230023DBB283F00103DBB203F0010382
:106B4400DBB2184605B05DF804FB00BF20D7020095
:106B54005CD7020000B583B00190019B022B03D9DE
:106B640007493E2001F0DAFB064A019B13441B78D7
:106B740000211846FFF77CFF00BF03B05DF804FB5B
:106B840020D702005CD7020000B583B00190019BBE
:106B9400022B03D90749442001F0C0FB064A019B9C
:106BA40013441B7801211846FFF762FF00BF03B0AE
:106BB4005DF804FB20D702005CD7020000B583B067
:106BC4000023019305E00198FFF7DEFF019B0133E9
:106BD4000193019B022BF6D900BF00BF03B05DF8FF
:106BE40004FB00B583B00023019305E00198FFF78F
:106BF400B1FF019B01330193019B022BF6D900BF26
:106C040000BF03B05DF804FB00B583B00190019BA5
:106C1400022B03D907495C2001F080FB064A019B43
:106C240013441B781846FFF701FF00BF03B05DF85B
:106C340004FB00BF20D702005CD7020000B583B07C
:106C44000023019309E0094A019B13441B78184669
:106C5400FFF7B3FE019B01330193019B022BF2D991
:106C6400FFF7ACFF00BF03B05DF804FB5CD7020084
:106C740082B003468DF807309DF8073003F01F02F9
:106C840006499DF907305B09012000FA02F220331E
:106C940041F8232000BF02B0704700BF00E100E0CC
:106CA40082B001904FF08042019BC2F8083300BFCC
:106CB40002B0704782B003468DF807309DF8073064
:106CC40003F1804301221A6000BF02B0704784B010
:106CD4000346ADF80630BDF8063003F180430022C8
:106CE4001A60BDF8063003F180431B680393039BCD
:106CF40000BF04B0704782B00346ADF80630BDF85B
:106D0400063003F180431B68002B14BF01230023CA
:106D1400DBB2184602B0704782B003468DF80730E4
:106D24009DF807304FF0804203F00303C2F8183592
:106D340000BF02B070474FF08043D3F818341B0CE7
:106D440003F00103002B14BF01230023DBB2184618
:106D54007047000082B003468DF807300A4A9DF957
:106D640007305B0952F823209DF8073003F01F0316
:106D7400012101FA03F31340002B14BF0123002364
:106D8400DBB2184602B0704700E100E008B500200D
:106D9400FFF7E0FF034683F00103DBB2002B03D0CF
:106DA4000721002000F09AF900BF08BD08B505F0DE
:106DB4000BF8034683F00103DBB2002B03D109492E
:106DC400842001F0ABFA0C20FFF774FF00BFFFF73B
:106DD400B2FF0346002BFAD1034B00229A7000BF86
:106DE40008BD00BF68D702000832002000B583B098
:106DF40000230193134B1B78002B02D085230193AE
:106E04001BE0104B00229A600E4B00225A600D4B7F
:106E140000221A610B4B0022DA60FFF7B7FF04F07F
:106E2400D3FF034683F00103DBB2002B02D0012021
:106E3400FFF772FF034B01221A70019B184603B03F
:106E44005DF804FB0832002084B00190019B1B68AC
:106E54000393039B002B03D0039B1A68019B1A60C6
:106E6400039B184604B0704700B583B0164B1B78DB
:106E7400002B04D115494FF48E7001F04FFA124BD8
:106E8400DB68002B04D1114940F21D1001F046FAD1
:106E940000238DF807300DF107031846FEF770FA4A
:106EA400094BDB68013B084AD360074BDB68002BC6
:106EB40001D1FFF77BFF9DF807301846FEF776FAFD
:106EC40000BF03B05DF804FB0832002068D702005D
:106ED40000B585B003468DF807309DF80730002BC8
:106EE40002D10C4B039301E00B4B03930398FFF780
:106EF400ABFF0290029B002B06D0029B5B689DF8BF
:106F0400072010469847F1E700BF00BF05B05DF8C1
:106F140004FB00BF103200201832002008B54FF4E3
:106F24008070FFF7E8FE0346002B0CD04FF480700E
:106F3400FFF7CDFE0120FFF7B3FE0E4B01225A707E
:106F44000020FFF7C5FF4FF48270FFF7D4FE03461D
:106F5400002B0CD04FF48270FFF7B9FE0220FFF72C
:106F64009FFE044B01229A700120FFF7B1FF00BF7E
:106F740008BD00BF0832002000B583B00190009125
:106F8400019B002B02D10020FFF7A2FF00BF03B03A
:106F94005DF804FB00B585B0034600918DF8073019
:106FA4009DF80730032B29D0032B37DC002B02D0AC
:106FB400012B04D032E00020FFF75AFE2FE000231B
:106FC4008DF80F300DF10F031846FEF7D9F9164B63
:106FD4001B7883F00103DBB2002B01D0FFF706FF1F
:106FE400114BDB680133104AD3600F4B01229A70B6
:106FF4009DF80F301846FEF7D9F910E00A4B1B78BC
:10700400002B04D1094940F25B2001F087F90721E4
:10701400002000F063F8FFF727FF00E000BF00BF87
:1070240005B05DF804FB00BF0832002068D70200F9
:1070340082B003468DF807309DF8073003F01F0235
:1070440005499DF907305B09012000FA02F241F875
:10705400232000BF02B0704700E100E082B0034685
:107064008DF807309DF8073003F01F0206499DF99B
:1070740007305B09012000FA02F2603341F8232053
:1070840000BF02B0704700BF00E100E082B00346D9
:1070940000918DF807309DF90730002B0CDA009B26
:1070A400DAB20C499DF8073003F00F03043B520198
:1070B400D2B20B441A7609E0009BDAB206499DF974
:1070C40007305201D2B20B4483F8002300BF02B050
:1070D400704700BF00ED00E000E100E000B583B0C0
:1070E40003460A468DF8073013468DF806309DF89E
:1070F4000630012B03D99DF80630032B0CD99DF8DB
:107104000630042B03D99DF80630072B04D90D490A
:107114004FF4927001F002F99DF806209DF90730B2
:1071240011461846FFF7B2FF9DF907301846FFF7DE
:1071340095FF9DF907301846FFF77AFF00BF03B0AB
:107144005DF804FBB4D7020000B583B00346ADF884
:107154000630BDF80630184600F026F803461B68D2
:10716400012B0CBF01230023DBB2184603B05DF8EA
:1071740004FB00B585B00346ADF80630BDF8063013
:10718400184600F011F803461A4600231360BDF8B0
:107194000630184600F008F803461B680393039B67
:1071A40000BF05B05DF804FB82B00346ADF80630BD
:1071B400BDF8063003F1804303F5C043184602B01E
:1071C4007047000082B00190034BD3F80423019B65
:1071D4001340184602B070470060004082B001902E
:1071E400054A019B03F5A27352F823301B0A03F0EE
:1071F4001F03184602B070470060004082B001903F
:10720400064A019B03F5A27352F823301B0C03F0CA
:107214000303DBB2184602B0704700BF00600040B1
:1072240000B583B00190019B1B681F2B04D905494D
:107234004FF4E87001F072F84FF0A043184603B021
:107244005DF804FB04D8020000B585B001900B463C
:107254008DF8033001AB1846FFF7E2FF0390019A63
:10726400039B02F5E07253F82230019A23F4403173
:10727400039B02F5E07243F82210019A039B02F586
:10728400E07253F822309DF8032012041146019A4B
:107294001943039B02F5E07243F8221000BF05B0C6
:1072A4005DF804FB00B585B0019001AB1846FFF70B
:1072B400B7FF0390019A039B02F5E07253F8223062
:1072C4001B0C03F00303DBB2184605B05DF804FBA6
:1072D40082B00190019BD3F81035184602B0704774
:1072E40000B587B00390029101924FF0A04304933C
:1072F400039A029B1344012B04D912494FF43A70A8
:1073040001F00CF8039B059311E0059B9B0006AA72
:10731400134453F8083C1846FFF7DAFF0246019B72
:107324001A60019B04330193059B01330593039A6F
:10733400029B1344059A9A42E7D300BF00BF07B0EB
:107344005DF804FB04D8020084B001900091009B16
:107354000393019BDB080293019B03F00703019352
:107364000122019B02FA03F30399029A0A44127858
:107374001340184604B0704784B001900091009BFC
:107384000393019BDB080293019B03F00703019322
:10739400039A029B13441B785AB20121019B01FA00
:1073A40003F35BB2134359B2039A029B1344CAB268
:1073B4001A7000BF04B0704782B00190044A019B68
:1073C4001344303393F90030184602B0704700BFBD
:1073D4001C32002082B00190034A019B52F82330F2
:1073E400184602B0704700BF1C32002000B595B0AB
:1073F40000231093002303934FF48073ADF84C30B3
:107404000123129300230F9321E0BDF84C3018465A
:10741400FFF79AFE0346002B0ED01298FFF7D2FE18
:107424000346002B08D0BDF84C301846FFF7A1FEE8
:10743400109A129B13431093129B5B001293BDF896
:107444004C300433ADF84C300F9B01330F930F9B3A
:10745400072BDAD94FF4BE70FFF776FE0346002BF4
:107464000DD04FF4BE70FFF784FE109B43F0004331
:10747400109303AB1A4601210020FFF731FF109B44
:10748400DBB2002B29D00123129300230F9321E0B8
:10749400129A109B1340002B16D00F98FFF79EFEF4
:1074A4000D900F98FFF7AAFE03468DF833300F981E
:1074B400FFF790FF0B900B9B002B05D09DF833201A
:1074C4000B9B11460D989847129B5B0012930F9BE0
:1074D40001330F930F9B072BDAD9109B002B80F2FB
:1074E400EE8000238DF84F30002302930023119384
:1074F4000AE0119B9B0014AA13444FF0FF3243F897
:107504004C2C119B01331193119B002BF1D00023C0
:107514008DF84F3000230F9378E06B4A0F9B134490
:10752400503393F900308DF82B309DF82B3023F035
:10753400C0030993644A0F9B1344503393F90030FA
:10754400B3F1FF3F5FD001AB19460998FFF7FCFE8A
:107554000346002B57D09DF82B309B098DF8233020
:107564000998FFF729FF03461846FFF733FF0790F2
:10757400079B002B03D19DF82330032B43D19DF8A7
:107584002330032B04D102AB19460998FFF7F4FE0C
:107594000998FFF787FE03468DF81B3003AB1946A5
:1075A4000998FFF7D1FE0590059B002B03D09DF8A9
:1075B4001B30022B06D0059B002B24D19DF81B30D9
:1075C400032B20D19DF82330032B13D19DF81B30BE
:1075D400022B01D1032300E002238DF813309DF820
:1075E400133019460998FFF72FFE9DF84F300133E9
:1075F4008DF84F30079B002B05D09DF82320079B67
:107604001146099898470F9B01330F930F9B032B47
:1076140083D99DF84F30002B4CD001238DF83B309B
:107624006B461A4601210020FFF75AFE00231193EE
:1076340014E0119B9B0014AA134453F8502C119B83
:107644009B0014A90B4453F8443C9A4203D00023F2
:107654008DF83B3005E0119B01331193119B002BF6
:10766400E7D09DF83B30002B03D000238DF84F303A
:1076740020E0002311931AE0119B9B0014AA1344E9
:1076840053F8502C119B9B0014A90B4443F8442C31
:10769400119B9B0014AA134453F8482C119B9B0084
:1076A40014A90B4443F84C2C119B01331193119BE7
:1076B400002BE1D09DF84F30002B7FF428AF00BFA2
:1076C40015B05DF804FB00BF1C32002084B00190AB
:1076D4000B46ADF80230BDF80230019A1344002283
:1076E4001A60BDF80230019A13441B680393039B8C
:1076F40000BF04B0704782B001900B46ADF8023071
:10770400BDF80230019A13441B68002B14BF0123F7
:107714000023DBB2184602B0704782B0019000919A
:10772400019BD3F80022009BDB431A40019BC3F862
:10773400002200BF02B0704784B00190019BD3F8CF
:1077440080340393019B039AC3F88024039B184657
:1077540004B0704782B001900B468DF803309DF859
:107764000330019A134401221A6000BF02B070472B
:1077740084B00390029113468DF80730029A039B5C
:10778400C3F844259DF80720039BC3F8482500BF90
:1077940004B0704782B00190019BD3F84C35184671
:1077A40002B0704782B00190019BD3F83C35184673
:1077B40002B0704782B00190019B03F06043B3F1C3
:1077C400005F0CBF01230023DBB2184602B07047F0
:1077D40000B587B00190019B1B791A461346DB0064
:1077E4009B1A9B002A4A1344049300230593019B8C
:1077F4001B684FF490711846FFF768FF019B1B68E4
:107804004FF4AC711846FFF761FF019B1868049BA5
:107814009968049B9B7D1A46FFF7AAFF019B1B688E
:1078240008211846FFF796FF049B5B68002B2AD1BA
:10783400019B1B684FF490711846FFF75CFF0346E9
:107844008DF80F30019B1B684FF4AC711846FFF79D
:1078540052FF03468DF80E309DF80F3083F001037C
:10786400DBB2002B06D09DF80E3083F00103DBB2AF
:10787400002BDDD19DF80E30002B01D00F23059392
:10788400049B00229A75059B184607B05DF804FB1B
:107894007432002000B587B00390029113468DF82E
:1078A4000730039B1B791A461346DB009B1A9B0087
:1078B400224A13440493049BDB7E012B04D0204909
:1078C4004FF4CC7000F02AFD9DF80730002B04D152
:1078D4001B4940F2991000F021FD029B002B04D1BA
:1078E40017494FF4CD7000F019FD0298FFF762FFBD
:1078F400034683F00103DBB2002B03D0102305936E
:10790400059B17E0039800F01DF80346002B03D0F5
:1079140011230593059B0DE0049B9DF807209A75A0
:10792400049B029A9A60049B00229A820398FFF7B0
:107934004FFF0346184607B05DF804FB743200207D
:10794400D4D8020082B00190019B1B791946084AE1
:107954000B46DB005B1A9B00134416331B78002B89
:1079640014BF01230023DBB2184602B0704700BFE6
:107974007432002000B589B003900B4601928DF853
:107984000B3001238DF810309DF80B308DF8183032
:10799400019B0593039B5B68039A116804AA104634
:1079A400984700BF09B05DF804FB00B587B00190AB
:1079B4000B468DF8033000238DF808309DF8033012
:1079C4008DF81030019B9B680393019B00229A75EC
:1079D400019B5B68019A116802AA1046984700BF90
:1079E40007B05DF804FB00B589B0019000914FF435
:1079F40092710198FFF77FFE0346002B24D04FF4C9
:107A040092710198FFF762FE02238DF80830019805
:107A1400FFF792FE034605930198FFF7C3FE034662
:107A2400DBB28DF81030009BDB680393009B0022CF
:107A3400DA75009B00221A76009B5B68009A116835
:107A440002AA1046984741E04FF488710198FFF765
:107A540052FE0346002B39D04FF488710198FFF78A
:107A640035FE0198FFF79EFE03468DF81F30009BFC
:107A7400DB7D9DF81F209A4228D1009B1B7E002BA2
:107A840019D0009BDB68069320210198FFF745FE7F
:107A9400009B1A7E009BDA75009B1A69009BDA60D2
:107AA400009B00221A769DF81F30069A194600980A
:107AB400FFF760FF0AE0009B0022DA75009BDA689A
:107AC4009DF81F3019460098FFF754FF4FF4A27138
:107AD4000198FFF710FE0346002B16D04FF4A27155
:107AE4000198FFF7F3FD009BDB7D002B0DD0009B7D
:107AF4000022DA750198FFF755FE0346D9B2009BC0
:107B0400DB681A460098FFF735FF4FF4907101982F
:107B1400FFF7F1FD0346002B11D04FF4907101984B
:107B2400FFF7D4FD009B9B7D002B08D00198FFF745
:107B340031FE0346DBB219460098FFF736FF00BF5B
:107B440009B05DF804FB000008B503490348FFF7DA
:107B54004AFF00BF08BD00BF74320020002000406F
:107B640000B583B00C4B1B78002B0FD0002301937E
:107B740008E0019B022B02D00198FFF705F8019B56
:107B840001330193019B022BF3D901E0FFF716F8AF
:107B940000BF03B05DF804FB983200202DE9F04FDC
:107BA40087B003468DF80F30002305930023049318
:107BB400CE4B1B78002B04D0CC4B00221A70FFF75D
:107BC400CFFF9DF80F30172B00F2238201A252F849
:107BD40023F000BF397C0200477C0200477C02008E
:107BE400D97C0200677D0200DB7D0200677E020013
:107BF400877E0200977E0200B57E0200D37E0200DB
:107C0400FD7E02001B7F0200297F0200297F020003
:107C1400297F0200297F0200297F0200B97F020028
:107C2400C77F0200DB7F0200EF7F020009800200B1
:107C340009800200FFF794FFAD4A9DF80F301370DE
:107C4400E8E10020FEF758FF0346002B0DD000208A
:107C5400FEF79AFF9DF80F30022B02D14FF4E16337
:107C640001E04FF47A6304930BE00020FEF772FF07
:107C74009DF80F30022B01D1C82301E04FF4C873E3
:107C840004939B4A9DF80F3013709A4C049B18463A
:107C94004FF000014FF000024FF00003CB0343EA22
:107CA4005043C20312F5FA71009143F100030193AA
:107CB4004FF47A724FF00003DDE9000104F0DAFAC0
:107CC40002460B461346002219462046FDF760FA89
:107CD40005909FE10020FEF70FFF0346002B0DD017
:107CE4000020FEF751FF9DF80F30032B02D14FF413
:107CF400487301E04FF47A6304930BE00020FEF72D
:107D040029FF9DF80F30032B01D1C82301E04FF464
:107D1400C8730493764A9DF80F301370754C049B16
:107D240018464FF000014FF000024FF00003CB0360
:107D340043EA5043C20312F5FA7A43F1000B4FF4BD
:107D44007A724FF000035046594604F093FA024603
:107D54000B461346002219462046FDF719FA0590F2
:107D640058E10020FEF7C8FE0346002B06D0002091
:107D7400FEF70AFF4FF47A63049305E00020FEF750
:107D8400E9FE4FF4C8730493594A9DF80F301370F9
:107D9400584C049B18464FF000014FF000024FF07E
:107DA4000003CB0343EA5043C20312F5FA7843F1CC
:107DB40000094FF47A724FF000034046494604F03C
:107DC40059FA02460B461346002219462046FDF78F
:107DD400DFF905901EE10020FEF78EFE0346002B1E
:107DE4000CD00020FEF7D0FE9DF80F30052B01D1FA
:107DF400C82301E04FF47A6304930BE00020FEF7FC
:107E0400A9FE9DF80F30052B01D1C82301E04FF4E2
:107E1400C8730493364A9DF80F301370354C049B95
:107E240018464FF000014FF000024FF00003CB035F
:107E340043EA5043C20312F5FA7643F100074FF4C4
:107E44007A724FF000033046394604F013FA0246C2
:107E54000B461346002219462046FDF799F9059072
:107E6400D8E00020FEF7D0FE214A9DF80F301370B1
:107E7400204B002240F6CD411846FDF789F90590C4
:107E8400C8E00020FEF766FE194A9DF80F30137013
:107E9400C0E0164B01221A700120FEF7B5FE154B07
:107EA400002240F6CD411846FDF772F90590B1E085
:107EB4000E4B01221A700120FEF7A6FE0D4B002284
:107EC4004FF480411846FDF763F90590A2E0074B93
:107ED40001221A700120FEF797FE064B002240F69D
:107EE400CD411846FDF754F9059093E091320020F6
:107EF400903200209C320020494B01221A7001204C
:107F0400FEF782FE474B00224FF480411846FDF7EE
:107F14003FF905907EE0FEF764FE434A9DF80F307A
:107F2400137077E0414B1846FDF764F905909DF80E
:107F34000F30C3F111030493049B002B33D0059B32
:107F4400002B30D1049B012B26D9384E049B9BB2C5
:107F54001A46C82303FB02F318464FEAE0714FF0B8
:107F640000024FF00003CB0343EA5043C20312F56F
:107F7400FA7443F100054FF47A724FF0000320467F
:107F8400294604F077F902460B46134600221946A7
:107F94003046FDF7FDF805900220FEF7DBFD244B8B
:107FA40001221A7036E00220FEF7EEFD204B00227B
:107FB4001A702FE0FFF7D4FD1B4A9DF80F301370A1
:107FC40028E0FFF7CDFD0020FEF7C4FD164A9DF81A
:107FD4000F3013701EE0FFF7C3FD0120FEF7BAFD5A
:107FE400114A9DF80F30137014E0FFF7B9FD00201B
:107FF400FEF7B0FD0120FEF7ADFD0B4A9DF80F30F2
:10800400137007E0FEF7EDFD074A9DF80F3013707B
:1080140000E000BF059B184607B0BDE8F08F00BF25
:10802400913200209C32002090320020BC3200208B
:108034009832002000B583B00190074B1B6803F011
:108044000103002B04D0054B1B781846FFF7A6FD4F
:1080540000BF03B05DF804FB94320020903200208E
:1080640000B583B001900220FEF7CEFD00BF03B03F
:108074005DF804FB00B585B003468DF80730002396
:108084000393084B1B6803F00103002B05D09DF8F4
:1080940007301846FFF782FD0390039B184605B08E
:1080A4005DF804FB9432002000B585B00190009186
:1080B40000230393104A019B1360019B03F0010307
:1080C400002B01D0FEF7BAFD039B002B05D10B4A10
:1080D40000210B48FDF72CF80390039B002B05D1DE
:1080E400084A01210848FDF723F80390039B18462A
:1080F40005B05DF804FB00BF943200203980020013
:1081040020D902006580020024D9020084B00190C5
:108114000B468DF8033013468DF802300023039389
:1081240007230393039B184604B0704782B0019061
:108134000623184602B0704700B583B0012200211F
:108144000020FFF7E3FF0190019B002B04D0019B6B
:10815400072B01D0019B1CE0072202210020FFF71E
:10816400D5FF0190019B002B04D0019B072B01D06C
:10817400019B0EE0042202210020FFF7C7FF0190BB
:10818400019B002B04D0019B072B01D0019B00E035
:108194000023184603B05DF804FB00B583B0012248
:1081A40002210020FFF7B2FF0190019B002B04D0B5
:1081B400019B072B01D0019B1CE007220221002018
:1081C400FFF7A4FF0190019B002B04D0019B072B18
:1081D40001D0019B0EE00A2200210020FFF796FF48
:1081E4000190019B002B04D0019B072B01D0019B24
:1081F40000E00023184603B05DF804FB00B583B02B
:108204000020FFF793FF0190019B002B04D0019BFA
:10821400062B01D0019B0CE00020FFF787FF0190A3
:10822400019B002B04D0019B062B01D0019B00E095
:108234000023184603B05DF804FB000000B585B0C8
:1082440001900091019B1B88102B02D0112B18D098
:108254002FE01A4B1B68002B0DD1FFF76DFF039025
:10826400039B002B07D0164B1B68002B03D0144B29
:108274001B6803989847114B1B6801330F4A13601E
:1082840017E00E4B1B68013B0C4A13600B4B1B6839
:10829400002B0DD1FFF781FF0390039B002B07D028
:1082A400074B1B68002B03D0054B1B6803989847AA
:1082B40000BF00BF05B05DF804FB00BFE032002042
:1082C400DC32002076DF704700BF18467ADF704743
:1082D40000BF18467CDF704700BF18467FDF704739
:1082E40000BF18468FDF704700BF184690DF704705
:1082F40000BF1846A8DF704700BF1846A9DF7047C3
:1083040000BF184666DF704700BF184632DF70476B
:1083140000BF18463EDF704700BF184600B583B063
:1083240003460091ADF80630BDF80630009A1946B0
:108334000348FBF7F3FF00BF03B05DF804FB00BF85
:10834400EFBEADDE00B587B09DF80030012262F3C8
:1083540003038DF800309DF80030012262F3071307
:108364008DF800301D4804F02EF903469AB26B468E
:108374001A491846FFF7AEFF0590059B0493049B2A
:10838400002B04D0164A99210498FBF7C7FF01ABD0
:1083940008220021184604F0C1F81023ADF8043077
:1083A4003C23ADF806300023ADF808304FF4C87311
:1083B400ADF80A3001AB1846FFF788FF0590059B1E
:1083C4000393039B002B04D0054AA3210398FBF7D6
:1083D400A5FF00BF07B05DF804FB00BF28D9020069
:1083E40034D9020000B587B00190019B1B78002BA3
:1083F40041D10023059328E0019B9A68059B13440F
:108404001B781846FCF718FF0490049B002B16D029
:10841400049B112B13D01A4B1B881B0443F001033C
:10842400049A18491846FBF75BFB049B0393039BD0
:10843400002B04D0144AC3210398FBF76FFF049B5D
:10844400112BD9D0059B01330593019B9B891A46B7
:10845400059B9342D0D3019B9A68019B9B89013B66
:1084640013441B780D2B06D100BF0A20FCF7E4FE51
:108474000346112BF9D000BF07B05DF804FB00BF21
:10848400682A002084D9020034D9020000B585B0DE
:1084940001AB04220021184604F040F80A4B019372
:1084A40001AB1946094803F079F90390039B029341
:1084B400029B002B04D0064ADD210298FBF72EFF15
:1084C40000BF05B05DF804FBE9830200E43200203C
:1084D40034D9020000B585B00190019B1B78002BB4
:1084E40010D10A4B1B883B211846FFF7EBFE039083
:1084F400039B0293029B002B04D0054AF3210298AC
:10850400FBF70CFF00BF05B05DF804FB2C2B00202B
:1085140034D9020000B583B00190044AFE210198C9
:10852400FBF7FCFE00BF03B05DF804FB34D9020086
:1085340000B58BB001AB1C220021184603F0EEFFFE
:10854400002301934FF4203302934FF470230393D9
:1085540003238DF810300023ADF8123000238DF87A
:1085640014300C4B06930C4B079301AB184602F0E6
:1085740085F80990099B0893089B002B05D0074AAE
:1085840040F215110898FBF7C9FE00BF0BB05DF867
:1085940004FB00BFD98402001985020034D902000B
:1085A40000B585B00020FFF765FD0390039B02939F
:1085B400029B002B05D0134A4FF490710298FBF7ED
:1085C400ADFEFFF71BFE0390039B0193019B002B61
:1085D40005D00C4A4FF492710198FBF79FFEFFF708
:1085E40095FE0390039B0093009B002B05D0054A46
:1085F4004FF494710098FBF791FE00BF05B05DF84D
:1086040004FB00BF34D9020000B585B003468DF8E1
:1086140007309DF80730002B11D0032B12D1022014
:10862400FFF728FD0390039B0293029B002B0BD0C2
:10863400084A4FF49D710298FBF770FE04E0FFF7BF
:10864400AFFF02E000BF00E000BF00BF05B05DF86F
:1086540004FB00BF34D9020010B598B0019000911A
:10866400019B1B88232B00F39180002B40DC93E1BA
:108674003B3B1B2B00F2908101A252F823F000BF78
:10868400B58802009D8902009D8902009D8902002F
:108694009D8902009D8902009D8902009D89020036
:1086A4009D8902009D8902009D8902009D89020026
:1086B4009D8902009D8902009D8902009D89020016
:1086C4009D8902009D8902009D8902009D89020006
:1086D4009D8902009D890200278902008B8802007F
:1086E4009D8902009D8902009D890200DB880200A9
:1086F400013B222B00F2508101A252F823F000BF6B
:10870400018902009D8902009D8902009D89020061
:108714009D8902009D8902009D8902009D890200B5
:108724009D8902009D8902009D8902009D890200A5
:108734009D8902009D8902009D8902009F87020095
:10874400D98702009D8902002B8802009D890200BE
:108754009D8902009D8902009D8902009D89020075
:108764009D8902009D8902009D8902009D89020065
:108774009D8902009D8902009D8902009D89020055
:10878400F58702009D89020055880200562B00F3EC
:1087940003813B2BBFF66CAFFEE0894B1B881B04A7
:1087A40043F0030387491846FBF78CF90720FFF7CA
:1087B40061FC1790179B0F930F9B002B05D0824AE7
:1087C40040F253110F98FBF7A9FD019B9A887F4B48
:1087D4001A80F2E07A4B1B881B0443F003037C49A4
:1087E4001846FBF76FF9794B4FF6FF721A80E4E0F5
:1087F40000238DF8343000238DF83530019B9B889D
:108804000DAA11461846FFF76DFD1790179B11939B
:10881400119B002B00F0C2806B4A40F26711119843
:10882400FBF77CFDBAE0694B188800230022852100
:10883400FFF754FD1790179B1093109B002B00F02B
:10884400AF80614A4FF4B7711098FBF767FDA7E05A
:108854000BAB08220021184603F060FE019B9B88A5
:108864000BA900221846FFF741FD1790179B12939E
:10887400129B002B00F09680534A4FF4BC7112985F
:10888400FBF74CFD8EE0514B188800230022002199
:10889400FFF734FD1790179B1593159B002B00F0E1
:1088A4008380494A4FF4BF711598FBF737FD7BE08D
:1088B400019B9B8813211846FFF704FD1790179B13
:1088C4001393139B002B71D03F4A40F285111398E8
:1088D400FBF724FD6AE0019B9B8813211846FFF7F0
:1088E400F1FC1790179B1693169B002B60D0364A09
:1088F4004FF4C6711698FBF711FD59E0019B9B8854
:1089040000211846FFF7FEFC1790179B0E930E9B51
:10891400002B4FD02C4A40F291110E98FBF7FEFC2D
:1089240048E0019B07AC0633186859689A68DB680D
:108934000FC49DF81C30002B3ED09DF82430042B2E
:1089440007D09DF82430062B03D09DF82430052B46
:1089540032D19DF81C30022B03D102238DF80C3048
:1089640002E001238DF80C304FF4C173ADF81030E0
:10897400019B9B8803AA11461846FFF7BBFC17907E
:10898400179B1493149B002B16D00F4A4FF4D671E7
:108994001498FBF7C3FC0FE000BF0EE000BF0CE02F
:1089A40000BF0AE000BF08E000BF06E000BF04E02B
:1089B40000BF02E000BF00E000BF00BF18B010BD60
:1089C400682A0020B0D9020034D902002C2B0020E0
:1089D400BCD9020000B587B003F060F90590059B8F
:1089E4000493049B002B05D0164A40F2C11104984D
:1089F400FBF794FC0023019301AB1946012003F01B
:108A040047FA0590059B0393039B002B05D00D4A61
:108A140040F2C7110398FBF781FC01AB184603F041
:108A240047FB0590059B0293029B002B05D0054A4A
:108A340040F2CB110298FBF771FC00BF07B05DF860
:108A440004FB00BF34D9020000B583B0019000914B
:108A5400009B5A88104B1B889A4218D1009B1B8894
:108A640040F67722934212D1009B9B88033B9AB233
:108A74000A4B1A800A4B1B881B0443F00300074B64
:108A84001B881A46054B1B880649FBF73AF800BFBA
:108A940003B05DF804FB00BF2C2B00202E2B00201C
:108AA400682A0020CCD9020000B585B011491248CB
:108AB40002F0A2FA0390039B0293029B002B05D0C1
:108AC4000E4A4FF4F3710298FBF728FC40210A4840
