:10000000000001203902000091020000930200006C
:100010009502000097020000990200000000000015
:100020000000000000000000000000009B02000033
:100030009D020000000000009F020000A1020000DD
:10004000A5020000A7020000C5430000F93100002E
:10005000AD020000AF020000B1020000B3020000D8
:10006000B5020000B7020000B9020000BB020000A8
:10007000BD020000BF020000C1020000C302000078
:10008000C5020000C7020000C9020000CB02000048
:10009000CD020000CF020000D1020000D302000018
:1000A000D5020000D7020000D9020000DB020000E8
:1000B000DD020000DF020000A3020000A302000036
:1000C000E1020000E3020000E5020000E702000098
:0C00D000E9020000EB020000ED0200005D
:1000DC00354936480A1A02D0072291438D463449D5
:1000EC0034480A1A06D00722914381F30988022268
:1000FC0082F3148830483149314A00F044F83148D1
:10010C003149324A00F03FF831483249324A00F066
:10011C003AF832483249334A00F035F8324833491C
:10012C00334A00F030F833483349344A00F02BF8A6
:10013C0033483449344A00F026F834483449002214
:10014C0000F02CF833483449002200F027F83348EB
:10015C003349091A082902DB002202604160314A46
:10016C0090471F481F49884205D00268043003B4E9
:10017C00904703BCF7E700208646EC4600200021A0
:10018C00294A9047FEE7884207D0521A05D00378D7
:10019C0001300B700131013AF9D17047884202D01D
:1001AC0002700130FAE770470000012000F80020CF
:1001BC000000012000000120885A000030000020BF
:1001CC0094000020F0020000F0020000184E000025
:1001DC00885A00003000002030000020684E0000DB
:1001EC00684E0000684E0000684E0000684E00002B
:1001FC00684E0000684E0000684E0000865A0000F1
:10020C00EC5A000094000020940000209400002080
:10021C00360600203806002038060020380600205C
:10022C00380800205D020000594600000F484FF0CE
:10023C000701884385460E4880470E48016841F403
:10024C0070010160BFF34F8FBFF36F8FFFF740BF9B
:10025C0009480A490A4A884207D0521A05D003783D
:10026C0001300B700131013AF9D1704700000120C7
:10027C001D47000088ED00E0384E00000000002013
:10028C0030000020FEE7FEE7FEE7FEE7FEE7FEE7B4
:10029C00FEE7FEE7FEE7FEE7FEE7FEE7FEE7FEE72A
:1002AC00FEE7FEE7FEE7FEE7FEE7FEE7FEE7FEE71A
:1002BC00FEE7FEE7FEE7FEE7FEE7FEE7FEE7FEE70A
:1002CC00FEE7FEE7FEE7FEE7FEE7FEE7FEE7FEE7FA
:1002DC00FEE7FEE7FEE7FEE7FEE7FEE7FEE7FEE7EA
:0402EC00FEE700BF6A
:1002F00000B5A1B00590049103920293049801F017
:100300006BFF039B1593029B169300231793002307
:100310008DF8603000231993229B1A9300231F93BA
:100320000FA91F9B0822049802F014F808231F93BA
:10033000119B1293109B9BB2ADF84C3000238DF8AB
:1003400050309DF83C3003F00303DBB2012B32D177
:100350000F9BC3F395231C939DF83C30C3F3C2035A
:10036000DBB28DF84E309DF83C30C3F38003DBB236
:10037000002B14BF01230023DBB28DF84F30BDF8F2
:100380003C30C3F38313DBB21B931B9B9A0009A978
:100390001F9B049801F0DEFF1B9B9B001F9A1344D8
:1003A0001F9312AA09A915AB009313461B9A1C9818
:1003B00000F026FF3BE09DF83C3003F00303DBB286
:1003C000022B34D1BDF83E30C3F389139BB21E9388
:1003D0009DF83C30C3F3C203DBB28DF84E309DF87C
:1003E0003C30C3F38003DBB2002B14BF0123002396
:1003F000DBB28DF84F301E9B082B28BF08231D93BE
:1004000007A91F9B1D9A049801F0A4FF1F9A1D9B2A
:1004100013441F931E9A1D9BD31A1E9315AB12AA49
:1004200007A81D9900F08EFF1E9B002BE3D10498B6
:1004300001F0E1FE00BF21B05DF804FB82B0019045
:100440000091034B01221A7000BF02B0704700BF39
:10045000D400002030B58DB003468DF807301A4B1C
:1004600002AC1D460FCD0FC495E80F0084E80F00C5
:10047000062302934FF0FF3303934FF0FF330493AF
:100480004FF0FF3305934FF0EB7308939DF807305F
:10049000002B01D00D4A00E0002202AB19460C48A7
:1004A00003F0AAFB0B900B9B0A930A9B002B04D032
:1004B000084A43210A9800F0B9FF074A9DF807301F
:1004C000137000BF0DB030BDC84E00003D040000E9
:1004D00030000020684E0000D500002000B583B039
:1004E00001238DF807309DF807301846FFF7B2FF5B
:1004F00000BF03B05DF804FB00B589B00390029122
:100500000192019B8DF81F30124B00221A709DF84A
:100510001F301A460299104803F0D6FC0690069B3D
:100520000593059B002B04D00C4A5321059800F03D
:100530007DFF00BF0A4B1B78002B07D0054B1B78B3
:10054000DBB283F00103DBB2002BF3D100BF09B0B3
:100550005DF804FBD400002030000020684E00004D
:10056000D500002000B585B003900291054B0093A3
:100570004023054A02990398FFF7BAFE00BF05B071
:100580005DF804FBF90400009400002082B00190A3
:1005900000BF02B07047000000B583B0019005486D
:1005A00003F07CFB0020FFF755FF00BF03B05DF8B0
:1005B00004FB00BF3000002082B00190019B0122AB
:1005C0005A7200BF02B0704700B583B04FF0FF33DE
:1005D0000193FFF783FF0421084800F04BFD0190D1
:1005E000019B002B03DA0649482001F052F803482A
:1005F000FFF7E2FF00BF03B05DF804FB3800002006
:10060000F44E000000B583B001900091019B1B687F
:100610001B6800990198984700BF03B05DF804FB80
:1006200000B583B00190019B1B685B6801989847F7
:1006300000BF03B05DF804FB82B001900B468DF85B
:100640000330019B9DF803201A7200BF02B070476F
:1006500082B00190019B1B7A184602B0704782B0AD
:100660000190019B01225A7200BF02B0704782B014
:100670000190019B5B7A184602B0704710B487B0B6
:1006800001900091019B009A53E8004F44EA020058
:1006900043E8000191F0000FF6D105940490039116
:1006A000049B184607B05DF8044B704710B487B040
:1006B00001900091019B009A53E8004F04EA020068
:1006C00043E8000191F0000FF6D1059404900391E6
:1006D000059B184607B05DF8044B704700B583B022
:1006E000019001210198FFF7C9FF0346184603B0A6
:1006F0005DF804FB00B583B0019000210198FFF77D
:10070000D5FF0346184603B05DF804FB00B587B07B
:1007100001901F4BFF229A601D4B00221A601C4B58
:1007200000225A601A4B0022C3F81824184B0022EA
:10073000C3F81424164B002283F81C24154801F03A
:10074000AFFC0490049B002B01D0049B1CE0124AD8
:10075000124BD31ADB080393002305930FE0059A8D
:1007600013465B0013449B001A460D4B134402933F
:10077000059B9AB2029B1A80059B01330593059A4B
:10078000039B9A42EBD30023184607B05DF804FBA5
:10079000A8010020584F0000384E0000184E0000FD
:1007A00000000020024A034BD31ADB0818467047AA
:1007B000384E0000184E000000B587B001900B467F
:1007C0008DF803309DF80330002B23D0FFF7EAFFAC
:1007D00004900023059317E0059A13465B00134429
:1007E0009B001A460E4B13440393039B5B881A46E7
:1007F000019B1B689A4204D1019B059A1A60002351
:1008000009E0059B01330593059A049B9A42E3D3C3
:10081000052300E00023184607B05DF804FB00BF85
:100820000000002000B585B001900B468DF8033024
:100830009DF8032001AB11461846FFF7BDFF0346A4
:10084000002B07D1019BDB00054A13440393039B54
:100850001B6800E00023184605B05DF804FB00BFEC
:10086000184E000084B001900B468DF80330019BB8
:10087000DB00174A134402939DF80330013B032B1E
:100880001CD801A252F823F099080000A10800002A
:10089000A9080000B308000002238DF80F3011E012
:1008A00004238DF80F300DE0029B1B798DF80F307B
:1008B00008E0029B5B798DF80F3003E000238DF890
:1008C0000F3000BF9DF80F30184604B0704700BFCE
:1008D000184E000000B589B04148FFF7FFFE4148BF
:1008E000FFF7FCFE404B5B6807933F4B9B6804930C
:1008F000079A049B134002339B003B4A1344043382
:1009000006931BE0079B01330793069B5B88C3F3A9
:1009100089139BB21A46069B1B88C3F389139BB2AB
:1009200013441A46079B13440793079A049B1340EA
:1009300002339B002C4A134404330693069B1B7816
:1009400003F00303DBB2002BDCD00023059311E09E
:10095000079B5A1C0792049A1340059A9200694615
:100960000A44214902339B000B445B681360059BDA
:1009700001330593059B012BEAD99DF80030C3F3A1
:100980000103DBB2012B0CD0022B14D1BDF80230D5
:10099000C3F389139BB203339B08079A134407934D
:1009A0000FE0BDF80030C3F38313DBB21A46079B98
:1009B0001344079305E00D4940F24D1000F069FE25
:1009C00000BF0848FFF796FE0390039B002B02D060
:1009D000054A079B536000BF09B05DF804FB00BFE8
:1009E000C0050020BC050020A80100207C4F0000AD
:1009F00010B586B00390029101920093039B1B0CEB
:100A0000ADF81630BDF81640FFF7CCFE03469C4209
:100A100004D323494FF4B27000F03BFE009B5A1CF4
:100A2000089B1340BDF816201E4902339B000B445F
:100A30005A60009A089B134002339B00194A1344E2
:100A400004330493039B1B0903F00103D9B2049AF6
:100A5000137861F382031370039B03F00703D9B289
:100A6000049A137861F3C5031370019B03F00F031D
:100A7000D9B2049A138861F389131380029BC3F3DC
:100A80001501049A136861F39F231360049A137885
:100A9000012161F30103137000BF06B010BD00BF58
:100AA0007C4F0000A801002000B589B001900091A2
:100AB000019B023306930223059301238DF8133023
:100AC000002000F09FFD214B1A68009B1A601F4B0D
:100AD0009A681E4B59681D4B1B68CB1A134401338F
:100AE0000793069A059B134403930BE0FFF7F2FE6E
:100AF000164B9A68154B5968144B1B68CB1A134454
:100B000001330793039A079B9A42EFD80F4B1A6859
:100B10000E4B9B68134002339B000C4A1344043372
:100B20000293029A137843F003031370074B1A6879
:100B3000069B1344054A1360002000F077FD9DF8E2
:100B40001330184609B05DF804FB00BFA80100206F
:100B500000B58BB005900491039202931F4B9B68E4
:100B6000079306AB19460298FFF79EFF0346002B3A
:100B700024D0069B023309930023089311E0089BBD
:100B80009B00039A1A44099B591C099107990B4031
:100B90001268124902339B000B445A60089B0133D0
:100BA0000893089A029B9A42E9D3069A079B0093FE
:100BB0001346029A04990598FFF71AFF074B93F81A
:100BC0001C34002B05D000BF00F064F80346002B56
:100BD000FAD100BF0BB05DF804FB00BFA8010020F4
:100BE00000B583B001900091002300220099019884
:100BF000FFF7AEFF00BF03B05DF804FB00B587B0A0
:100C0000039002910192019B059305AA0123029989
:100C10000398FFF79DFF00BF07B05DF804FB00B528
:100C200087B00390029101920093019B0493009B73
:100C3000059304AA022302990398FFF789FF00BFD6
:100C400007B05DF804FB00B589B0039002910192F2
:100C50000093019B0493009B05930A9B06930B9BB7
:100C6000079304AA042302990398FFF771FF00BFBA
:100C700009B05DF804FB0000054B5A68044B1B6883
:100C80009A420CBF01230023DBB21846704700BF15
:100C9000A801002000B597B0FFF7EEFF0346002B38
:100CA00001D00023ABE1AB4B0022C3F81824BFF303
:100CB0004F8F00BFA74B5B681593A64B9B680E93A5
:100CC000159A0E9B134002339B00A24A134404332F
:100CD0001493002313930023129300230D931BE01E
:100CE000159B01331593149B5B88C3F389139BB247
:100CF0001A46149B1B88C3F389139BB213441A46EC
:100D0000159B13441593159A0E9B134002339B00B9
:100D1000904A134404331493149B1B7803F0030389
:100D2000DBB2002BDCD00023119311E0159B5A1C81
:100D300015920E9A1340119A920069460A44854909
:100D400002339B000B445B681360119B01331193CA
:100D5000119B012BEAD99DF8003003F00303DBB2AD
:100D6000022B40F09C80BDF80230C3F389139BB284
:100D70000B93BDF80230C3F389139BB2502B28BFED
:100D800050239BB20A930A9BC3F309039AB2BDF89E
:100D9000023062F38F13ADF802300A9B08330993D7
:100DA0009DF80030C3F3C203DBB20D9309996A4882
:100DB00001F081F91390139B002B00F0DF80139852
:100DC00001F00AFA6946129B0822139801F0B0FA62
:100DD000129B08331293159BDA430E9B1340013389
:100DE0009B0008930A9A089B9A4242D9089B002BC1
:100DF00008D0159A0E9B134002339B00554A1344AA
:100E0000043300E0554B0693089B002B02D0089B4F
:100E1000DBB201E00A9BDBB28DF81730089B002B98
:100E200001D04E4B00E000230493089B002B06D01A
:100E30000A9BDAB2089BDBB2D31ADBB200E00023D4
:100E40008DF80F309DF81720129B0699139801F02A
:100E50006FFA9DF81730129A13441293049B002BDB
:100E600016D09DF80F20129B0499139801F060FA98
:100E70000EE0159A0E9B134002339B00354A134433
:100E800004330793129B0A9A0799139801F050FABA
:100E90000B9B03339B08159A134415936EE09DF842
:100EA000003003F00303DBB2012B59D1BDF8003051
:100EB000C3F38313DBB2062B28BF0623DAB2BDF8D7
:100EC000003062F38913ADF80030BDF80030C3F391
:100ED0008313DBB202330C939DF80030C3F3C203DB
:100EE000DBB20D930C9B9B0019461B4801F0E3F805
:100EF0001390139B002B41D0139801F06DF96946B4
:100F0000129B0822139801F013FA129B08331293D4
:100F10000023119314E0159B5A1C15920E9A13404E
:100F200002339B000B4A1344191D129B0422139891
:100F300001F0FEF9129B04331293119B01331193BC
:100F4000BDF80030C3F38313DBB21A46119B934202
:100F5000E1D313E0A8010020584F0000B4010020A5
:100F60009DF8003003F00303DBB2032B06D1264BC0
:100F7000D3F81834002B01D1002340E0139B002B41
:100F800037D0214BD3F8103410931F4BD3F81834BB
:100F9000002B1AD0139801F02EF92AE000238DF8C7
:100FA0003F301098FFF763FB0346002B02D001236C
:100FB0008DF83F309DF83F30002B03D013991098E7
:100FC000FFF720FB109B5B681093109B002BE5D173
:100FD000139801F010F9002000F014FB0A4BD3F82D
:100FE0001834002B02D1084A159B5360002000F0F2
:100FF0001DFBFFF741FE034683F00103DBB21846F9
:1010000017B05DF804FB00BFA801002000B585B053
:101010000023039322E0164BD3F8103402930123EC
:101020008DF807300EE00298FFF712FB03461A46D0
:10103000039B934203D100238DF8073005E0029B08
:101040005B680293029B002BEDD19DF80730002BCB
:1010500001D0039B07E0039B01330393039B092B00
:10106000D9DD4FF0FF33184605B05DF804FB00BF33
:10107000A801002000B585B001900B468DF8033023
:10108000FFF7C4FF0390039BB3F1FF3F01D1039B24
:101090001EE0039BDBB219460198FFF7CDFA0E4B19
:1010A000D3F81034002B07D10B4A019BC2F810343F
:1010B000019B00225A600AE0074BD3F810345A68AB
:1010C000019B5A60044BD3F81034019A5A60039B79
:1010D000184605B05DF804FBA801002000B583B0F8
:1010E0000C4BD3F8103401930A4B012283F81C24D3
:1010F00008E00198FFF7B3FA0198FFF791FA019B16
:101100005B680193019B002BF3D100BF00BF03B0CC
:101110005DF804FBA801002010B582B00190009199
:10112000019BDB7983F00103DBB2002B28D0019B0C
:101130001B7A002B12D0019B9B881A46019B9B793E
:1011400019461046FFF78EFB03461A460E4B53F81E
:1011500022301A460D49009800F0CEFB019B9B7986
:101160001A460B4B53F82240019B9B8800211846DE
:10117000FFF758FB034622460649009800F0BCFBE7
:1011800000BF02B010BD00BF58000020405000005A
:10119000440000204450000000B585B00390029147
:1011A00013468DF80730039BDB7983F00103DBB234
:1011B000002B0FD0039B1B7A002B06D00D4B1B6816
:1011C0001A460D49029800F097FB0C49029800F06E
:1011D00093FB07E09DF80730002B03D007490298E6
:1011E00000F08AFB029800F065FB00BF05B05DF8D7
:1011F00004FB00BF58000020405000005050000089
:1012000030B58BB007900691059204930E9B1B7B23
:101210008DF827300E9B00221A730E990498FFF761
:101220007BFF059B062B7FD801A252F823F000BF5D
:101230004D12000057120000671200007B120000E0
:1012400099120000C1120000F112000007990E98D7
:1012500000F052FB69E0069B1B681A4607990E983E
:1012600000F04AFB61E0069B1A68069B04331B688A
:1012700007990E9800F040FB57E0069B1A68069B02
:1012800004331968069B08331B6800930B460799C3
:101290000E9800F031FB48E0069B1968069B04336A
:1012A0001868069B08331B68069A0C321268019274
:1012B000009303460A4607990E9800F01DFB34E0A0
:1012C000069B1868069B04331C68069B08331B6842
:1012D000069A0C321268069910310968029101923F
:1012E00000932346024607990E9800F005FB1CE088
:1012F000069B1C68069B04331D68069B08331B680D
:10130000069A0C3212680699103109680698143052
:10131000006803900291019200932B4622460799A0
:101320000E9800F0E9FA00E000BF00220E99049840
:10133000FFF732FF0E9B9DF827201A7300BF0BB0FA
:1013400030BD00BF00B587B00390029101920093B9
:10135000029B082B5CD8009B1B7B8DF81330009BF5
:1013600000221A7300990198FFF7D6FE0023059317
:1013700014E0059A029B9A4209D2039A059B1344F2
:101380001B781A462449009800F0B6FA03E0234976
:10139000009800F0B1FA059B01330593059B072BDC
:1013A000E7D91F49009800F0A7FA0023059322E02F
:1013B000059A029B9A4217D2039A059B13441B7805
:1013C0008DF812309DF81230184603F0C7FC034622
:1013D000002B02D09DF8123000E02E231A4611494E
:1013E000009800F089FA03E00F49009800F084FAB1
:1013F000059B01330593059B072BD9D90122009941
:101400000198FFF7C9FE009B9DF813201A7300E0B6
:1014100000BF07B05DF804FB545000005C500000B2
:1014200060500000645000006850000000B589B0B2
:10143000039002910192029B9BB2ADF81430019B84
:101440000693039B079305AB1A46002144F2010063
:1014500000F052F800BF09B05DF804FB86B00390BD
:101460000291019201238DF817309DF81730214A1F
:10147000039B13601F4A029B53601E4A019B9360AB
:10148000039B44F20102934213D0039B44F20202F5
:10149000934222D1019B174AD360164BDB681B880D
:1014A0001A46144B9A61134BDB685B68114AD3618F
:1014B00013E0019B0F4A13610E4B1B699B680D4A99
:1014C00053610C4B1B691B881A460A4B9A61094BE6
:1014D0001B695B68074AD36100BF72B600BF00BFDB
:1014E0009DF81730DBB2002BFAD162B600BF00BF07
:1014F00006B07047C805002030B589B0059004914A
:101500000392FFF7EBFD00BFFFF7C4FB0346002B80
:10151000FAD1059B44F20102934214D0059B44F298
:10152000020293422DD1039B0793234B1B881B047C
:1015300043F00100079B5B681A46079B1B881F4905
:10154000FFF76DFB28E0039B06931B4B1B881B04D6
:1015500043F00104069B9D68069B9B68184600F0BB
:101560000BFF03461946069B5B681A46069B1B88C1
:10157000019300920B462A4611492046FFF763FB70
:101580000AE00D4B1B881B0443F00103049A0D492C
:101590001846FFF733FB00BF0B4B1B6803F001033A
:1015A000002B00D0FFDE039A04990598FFF756FF41
:1015B00000BF09B030BD00BF000000206C5000002B
:1015C00088500000A0500000F0ED00E072B600BFAF
:1015D000034B1B680133024A136000BF704700BF12
:1015E000E8050020064B1B68013B054A1360044BCD
:1015F0001B68002B01D162B600BF00BF704700BF5F
:10160000E805002000B583B0019000F025F80346FE
:10161000012B03D00449432000F03BF8FFF7D6FF2D
:1016200000BF03B05DF804FBB850000000B583B004
:1016300003468DF8073000F00FF80346012B03D066
:101640000449512000F025F8FFF7CCFF00BF03B09C
:101650005DF804FBB850000084B0EFF305830193FC
:10166000019BC3F308030393039B002B0DD1EFF3FE
:1016700014830093009B0293029B03F00103002B51
:101680000CBF01230023DBB200E00123184604B0A5
:10169000704700B585B003460091ADF80630BDF83F
:1016A0000630ADF80830009B039302AB1A460021C8
:1016B00044F20200FFF720FF00BF05B05DF804FB15
:1016C00000B583B001900B468DF80330019B002BD1
:1016D00003D10849AF20FFF7DCFF019BDA689DF8D2
:1016E00003300199098A01FB03F31344184603B040
:1016F0005DF804FB1051000000B583B0019000912B
:10170000019B002B03D10849BC20FFF7C2FF009BBF
:10171000019AD2689B1A019A128AB3FBF2F3DBB2E8
:10172000184603B05DF804FB1051000000B585B009
:101730000190019B002B01D10E2348E0019B1B6807
:10174000002B03D12449C620FFF7A3FF019B5B6850
:10175000002B03D12049C720FFF79BFF019B9B680B
:10176000002B03D11C49C820FFF793FF019BDB68C6
:10177000002B03D11849C920FFF78BFF019B1B8A5F
:10178000002B03D11449CA20FFF783FF019B9A68FD
:10179000019B5B68D31A8DF80F30019B1B68019A7F
:1017A00052681A6007E0019B1A681368591C11609F
:1017B0009DF80F201A709DF80F305A1E8DF80F20DB
:1017C000002BF0D1019B1B6800221A7100231846E0
:1017D00005B05DF804FB00BF1051000000B585B0F6
:1017E0000190019B002B03D11B49EC20FFF751FF17
:1017F000002303930020FFF705FF019B1B681A6875
:10180000019B5B689A421FD9019B1B681A68013AC9
:101810001A601B681B7819460198FFF751FF039067
:10182000019B9A68019B1B681B68D31A8DF80B30CB
:10183000019B1B681B799DF80B209A4204D9019BE0
:101840001B689DF80B201A710020FFF7EFFE039B29
:10185000184605B05DF804FB1051000010B584B0C7
:1018600001900091019B002B04D111494FF4887025
:10187000FFF70FFF009B002B04D10D4940F2111020
:10188000FFF707FF009B03930020FFF7BBFE019BC0
:101890001B681C68621C1A6003990198FFF72CFFF3
:1018A000034623700020FFF7C1FE00BF04B010BD47
:1018B0001051000000B583B00190019B002B03D1B3
:1018C0000C493120FFF7E5FE019B9B68002B0CD0F3
:1018D000019B5B69019A1069019A1168019A9268EB
:1018E0009847019B00229A6000E000BF03B05DF8BA
:1018F00004FB00BF585100000EB400B584B0019045
:10190000019B002B03D118494220FFF7C2FE019B27
:101910005B69002B03D114494320FFF7BAFE019BFA
:101920001B68002B03D110494420FFF7B2FE019B36
:101930005B68002B03D10C494520FFF7AAFE059BED
:10194000002B0AD00023039306AB039303AB1A4684
:101950000599019800F0B0F900E000BF04B05DF80F
:1019600004EB03B0704700BF5851000000B583B0CE
:1019700001900B468DF80330019B1A68019B9B6810
:10198000581C0199886013449DF803201A70019B2C
:101990009A68019B5B689A4202D30198FFF78AFF1D
:1019A00000BF03B05DF804FB00B587B0039002915F
:1019B0000192009300230593009B03F00103002B89
:1019C00024D00BE0029B01330293059B0133059366
:1019D0009DF8133019460398FFF7C8FF029B1B7848
:1019E0008DF813309DF81330002BEBD106E0019BEE
:1019F000013B019320210398FFF7B8FF019A059B53
:101A00009A422ED9019B002BF1D12AE0029B002B98
:101A10000BD0029803F0D0F9059006E0019B013B42
:101A2000019320210398FFF7A1FF019A059B9A4299
:101A30000FD9019B002BF1D10BE0029B01330293E4
:101A4000059B013305939DF8133019460398FFF762
:101A50008DFF029B1B788DF813309DF81330002BFF
:101A6000EBD100BF07B05DF804FB000000B589B002
:101A70000390029101920093029B07930123069326
:101A800007E0079A019BB2FBF3F30793069B013330
:101A90000693079A019B9A42F3D2009A069B9A42B8
:101AA00001D9009B06930B9B03F00103002B22D16D
:101AB0000A9B002B1FD00B9B03F00203002B06D0C8
:101AC000009B002B03D130238DF8173002E0202338
:101AD0008DF8173008E00A9B013B0A939DF81730F8
:101AE00019460398FFF742FF0A9B002B03D0069A82
:101AF0000A9B9A42EFD301230793009B012B03D942
:101B0000009B013B009309E0029A079BB2FBF3F3B1
:101B10000493049A019B9A4200D205E0079B019A24
:101B200002FB03F30793E8E7029A079BB2FBF3F388
:101B30000493049B079A02FB03F3029AD31A0293BD
:101B4000154A049B13441B7819460398FFF70EFFB0
:101B5000079A019BB2FBF3F30793079B002BE3D19A
:101B60000B9B03F00103002B11D00A9B002B0ED01E
:101B700006E00A9B013B0A9320210398FFF7F6FE3B
:101B80000A9B002B03D0069A0A9B9A42F1D300BF0E
:101B900009B05DF804FB00BFE051000000B589B05A
:101BA0000590049103920293049B002BB8BF5B4203
:101BB00006930123079307E0039B069A92FBF3F336
:101BC0000693079B01330793039B069A9A42F3DA25
:101BD000029A079B9A4201D9029B07930A9B002B0A
:101BE0000AD0049B002B04DB0B9B03F00403002BA7
:101BF00002D00A9B013B0A930B9B03F00203002BCC
:101C000002D0029B002B16D00B9B03F00103002B8C
:101C100011D10A9B002B0ED006E00A9B013B0A93D0
:101C200020210598FFF7A2FE0A9B002B03D0079AFC
:101C30000A9B9A42F1D3049B002B07DA049B5B4278
:101C400004932D210598FFF791FE08E00B9B03F00C
:101C50000403002B03D02B210598FFF787FE0B9B75
:101C600003F00203002B19D00B9B03F00103002BA0
:101C700014D1029B002B11D10A9B002B0ED006E041
:101C80000A9B013B0A9330210598FFF76FFE0A9BE0
:101C9000002B03D0079A0A9B9A42F1D304990B9B1D
:101CA00001930A9B0093029B039A0598FFF7DEFEBF
:101CB00000BF09B05DF804FB00B58FB0059004913A
:101CC0000392059B002B04D1B6494FF49F70FFF798
:101CD000E0FC059B5B69002B04D1B2494FF4A07076
:101CE000FFF7D7FC059B1B68002B04D1AD4940F2E0
:101CF0004110FFF7CEFC059B5B68002B04D1A9497E
:101D00004FF4A170FFF7C5FC049B002B00F09381FA
:101D1000049B1B788DF83730049B013304939DF8A6
:101D20003730002B00F07E819DF83730252B40F0B6
:101D30006D8100230A9301230C93049B1B788DF87B
:101D400037309DF83730302B0DD0302B1BDC2B2B50
:101D500011D02D2B17D10A9B43F001030A93049B4A
:101D60000133049312E00A9B43F002030A93049B9D
:101D7000013304930AE00A9B43F004030A93049B93
:101D80000133049302E000230C9300BF0C9B002B53
:101D9000D3D1002309939DF837302A2B0CD1039B14
:101DA0001B68191D039A11601B68099A1344099353
:101DB000049B013304931AE0049B1B788DF83730A1
:101DC0009DF837302F2B12D99DF83730392B0ED88C
:101DD000049B01330493099A13469B0013445B0050
:101DE0001A469DF837301344303B0993D3E700235C
:101DF0000B93049B1B788DF837309DF837302E2BD2
:101E00001DD1049B01330493049B1B788DF837305C
:101E10009DF837302F2B12D99DF83730392B0ED83B
:101E2000049B013304930B9A13469B0013445B00FD
:101E30001A469DF837301344303B0B93E4E7049B7C
:101E40001B788DF837309DF837306C2B03D09DF818
:101E50003730682B07D1049B01330493049B1B7814
:101E60008DF83730EFE79DF83730252B00F0C48030
:101E7000252BC0F2C680782B00F3C380582BC0F20C
:101E8000C080583B202B00F2BC8001A252F823F006
:101E90007F1F00000320000003200000032000003B
:101EA00003200000032000000320000003200000A6
:101EB000032000000320000003200000151F000085
:101EC000371F000003200000032000000320000053
:101ED00003200000371F0000032000000320000043
:101EE0000320000003200000032000000320000066
:101EF000C51F00000320000003200000A91F0000F0
:101F0000032000005B1F00000320000003200000EE
:101F10007F1F0000039B1B68191D039A11601B683B
:101F20000C930C9B8DF81F309DF81F3019460598B7
:101F3000FFF71CFD66E0039B1B68191D039A1160E7
:101F40001B680C930A9B0193099B00930B9B0A222D
:101F50000C990598FFF722FE54E0039B1B68191D9E
:101F6000039A11601B680C930C990A9B0193099BBF
:101F700000930B9B0A220598FFF778FD42E0039B34
:101F80001B68191D039A11601B680C930C990A9B1E
:101F90000193099B00930B9B10220598FFF766FDA8
:101FA00030E000BF98510000039B1B68191D039A85
:101FB00011601B6808930A9B099A08990598FFF716
:101FC000F3FC1FE0039B1B68191D039A11601B683B
:101FD0000C9330210598FFF7C9FC78210598FFF78D
:101FE000C5FC0C99002301930823009308231022B9
:101FF0000598FFF73BFD05E025210598FFF7B6FCA6
:1020000000E000BF049B0133049305E09DF83730E6
:1020100019460598FFF7AAFC049B1B78002B7FF458
:1020200077AE00E000BF059B1B7B002B04D005981A
:10203000FFF740FC00E000BF0FB05DF804FB00BFFD
:1020400010B487B001900091019B009A53E8004FB3
:1020500004EB020043E8000191F0000FF6D1059473
:1020600004900391049B184607B05DF8044B704739
:1020700010B487B001900091019B009A53E8004F83
:10208000A4EB020043E8000191F0000FF6D10594A3
:1020900004900391049B184607B05DF8044B704709
:1020A00000B583B001900198FFF740FB0346184646
:1020B00003B05DF804FB00B58BB001900091019B6B
:1020C0001B8A043B0793009A079B1344DA1C079B67
:1020D000B2FBF3F38DF81B300198FFF77FFB0590FF
:1020E000059B002B01D1002338E0059B00221A71CB
:1020F000059B01225A71079B9AB2059BDA80059BCA
:1021000009939DF81B30013B0493099B019A1A60C7
:10211000002308931DE00198FFF760FB0390039BE9
:10212000002B0ED0059B5B790133DAB2059B5A7107
:10213000099B039A1A60039B019A1A60039B0993F7
:1021400004E0059800F00EF8002307E0089B013337
:102150000893089A049B9A42DDD3059B18460BB05E
:102160005DF804FB00B58BB00190019B0793079BC2
:102170005B798DF81B30019B08939DF81B30013B68
:1021800005930023099305E0089B1B680893099BAE
:1021900001330993099A059B9A42F5D3089B1B6862
:1021A0000493019B0893002309930BE0089B1B6891
:1021B000039308990498FFF751FB039B0893099B2D
:1021C000013309939DF81B30099A9A42EED300BF60
:1021D00000BF0BB05DF804FB00B585B00190019B1A
:1021E0000393039B043301211846FFF729FF00BF27
:1021F00005B05DF804FB00B587B00190019B059325
:10220000059B043301211846FFF732FF0346039371
:1022100003AB0493049B1B78002B02D10198FFF7BA
:10222000A1FF00BF07B05DF804FB000000B58DB052
:102230000390029101920093039B0693069BDB8817
:102240000593039B0B93009B1A1D059BB2FBF3F3B5
:102250000A93009B0433059AB3FBF2F2059901FB44
:1022600002F29B1A0993009A019B1A44059B13449E
:10227000DA1C059BB2FBF3F38DF81330069B5B79F8
:102280009DF813209A420AD92849BA20FFF701FA8B
:1022900005E00B9B1B680B930A9B013B0A930A9B6F
:1022A000002BF6D100230893059A099BD31A0793B4
:1022B000079A019B934228BF134607932DE09DF890
:1022C0003830002B0BD0029A089BD0180B9A099B30
:1022D00013440433079A194602F045FD0AE00B9AAD
:1022E000099B1344181D029A089B1344079A194628
:1022F00002F039FD002309930B9B1B680B93019A95
:10230000079BD31A0193089A079B13440893059AD5
:10231000019B934228BF13460793019B002BCED10C
:1023200000BF00BF0DB05DF804FB00BFF05100001E
:1023300000B587B0059004910392029300230093A7
:10234000029B039A04990598FFF770FF00BF07B03E
:102350005DF804FB00B587B00590049103920293E9
:1023600001230093029B039A04990598FFF75EFFEF
:1023700000BF07B05DF804FB00B585B0019001987F
:1023800000F00EF80390039B002B01D0039B00E0AC
:10239000024B184605B05DF804FB00BF4852000030
:1023A00086B00190164B0593164B04931FE0049AD8
:1023B000059BD31ADB10DA0F13445B10DB00059A80
:1023C00013440393039B1B680293029A019B9A4256
:1023D00002D9039B04930AE0029A019B9A4203D21A
:1023E000039B0833059302E0039B5B6804E0059AB6
:1023F000049B9A42DBD30023184606B0704700BF07
:10240000645500005456000082B003468DF8073032
:102410009DF8073003F01F0205499DF907305B095D
:10242000012000FA02F241F8232000BF02B07047F9
:1024300000E100E082B003468DF807309DF80730D8
:1024400003F01F0206499DF907305B09012000FADD
:1024500002F2603341F8232000BF02B0704700BF92
:1024600000E100E082B0034600918DF807309DF94D
:102470000730002B0CDA009BDAB20C499DF80730CC
:1024800003F00F03043B5201D2B20B441A7609E069
:10249000009BDAB206499DF907305201D2B20B44D3
:1024A00083F8002300BF02B0704700BF00ED00E0DA
:1024B00000E100E000B583B003460A468DF807301E
:1024C00013468DF806309DF80630072B04D90D49C8
:1024D0004FF49270FFF7DDF89DF806209DF9073064
:1024E00011461846FFF7BEFF9DF907301846FFF763
:1024F000A1FF9DF907301846FFF786FF00BF03B024
:102500005DF804FB5456000082B001900B468DF834
:1025100003309DF80330019A134401221A6000BF72
:1025200002B0704784B001900B46ADF80230BDF8A0
:102530000230019A134400221A60BDF80230019A59
:1025400013441B680393039B00BF04B0704782B021
:1025500001900B46ADF80230BDF80230019A1344E9
:102560001B68002B14BF01230023DBB2184602B006
:10257000704782B001900091019B009AC3F8042338
:1025800000BF02B0704782B001900091019B009A99
:10259000C3F8082300BF02B0704782B00190019BCE
:1025A0000622C3F8002500BF02B0704784B0039034
:1025B00002910192039B029AC3F80825039B019A9A
:1025C000C3F80C2500BF04B0704782B001900091A1
:1025D000019B009AC3F8242500BF02B0704784B065
:1025E0000190019BD3F8C4340393019B039AC3F871
:1025F000C424039B184604B0704782B001900B4678
:102600008DF803309DF80320019BC3F8882500BF97
:1026100002B0704784B00390029113468DF80730E2
:10262000029A039BC3F844259DF80720039BC3F837
:10263000482500BF04B0704784B003900291134650
:102640008DF80730029A039BC3F834259DF80720C4
:10265000039BC3F8382500BF04B0704782B00190D7
:102660000091019B009AC3F8002200BF02B070479E
:1026700082B00190019BD3F84C35184602B07047E8
:1026800082B00190019BD3F83C35184602B07047E8
:1026900082B00190019B0122C3F8502500BF02B017
:1026A000704782B00190019B0022C3F8502500BF03
:1026B00002B0704782B00190019B0122C3F840250F
:1026C00000BF02B0704782B00190019B0022C3F8A6
:1026D000402500BF02B0704784B00190019B1B0BE6
:1026E0008DF80F309DF90F30184604B0704782B056
:1026F0000190019B03F06043B3F1005F0CBF012325
:102700000023DBB2184602B07047000000B583B06A
:102710000190019B1B681F2B04D905494FF4E870F9
:10272000FEF7B7FF4FF0A043184603B05DF804FB77
:10273000A456000000B585B0019001AB1846FFF724
:10274000E5FF0390019B012202FA03F31946039867
:1027500000F035F800BF05B05DF804FB00B585B0AA
:10276000019001AB1846FFF7D1FF0390019B0122B6
:1027700002FA03F31946039800F02BF800BF05B0E6
:102780005DF804FB00B585B0019001AB1846FFF77A
:10279000BDFF0390039800F00AF80246019B22FA5D
:1027A00003F303F00103184605B05DF804FB82B0A3
:1027B0000190019BD3F81035184602B0704782B0E3
:1027C00001900091019B009AC3F8082500BF02B058
:1027D000704782B001900091019B009AC3F80C25CC
:1027E00000BF02B07047000084B00190244B0393F7
:1027F000019B002B40D0234B1A680399019B00BF1B
:1028000000BF00BF00BF00BF00BF00BF00BF8A42C3
:102810002FD000BF00BF00BF00BF00BF00BF00BF80
:1028200000BF00BF00BF00BF00BF00BF00BF00BFB0
:1028300000BF00BF00BF00BF00BF00BF00BF00BFA0
:1028400000BF00BF00BF00BF00BF00BF00BF00BF90
:1028500000BF00BF00BF00BF00BF00BF00BF00BF80
:1028600000BF00BF00BF00BF00BF00BF00BF00BF70
:1028700000BF013BC3D1019300BF04B0704700BF4C
:102880000024F4007C00002084B001900323039313
:10289000019B03F00203002B02D048F201230393B3
:1028A000019B03F00403002B02D048F202230393A0
:1028B000039B184604B0704700B585B001904FF0F7
:1028C000A042019B1B6803F5E07340F20C6142F8E3
:1028D00023104FF0A042019B5B6803F5E07340F2C8
:1028E0000C6142F82310019B1B681846FFF722FF7A
:1028F000019B5B681846FFF71DFF4FF0A042019B4C
:102900001B6803F5E07340F20D6142F823104FF0AD
:10291000A042019B5B6803F5E07340F20D6142F851
:1029200023100420FFF760FF002303931EE0019BA8
:102930005B681846FFF726FF0346002B03D0039B76
:10294000002B17D124E0019B1B681846FFF706FFF8
:102950000420FFF749FF019B1B681846FFF7EAFEBA
:102960000420FFF741FF039B01330393039B082BD4
:10297000DDDD00E000BF019B5B681846FFF7EEFE5F
:102980000420FFF731FF019B5B681846FFF7D2FE7A
:1029900005B05DF804FB000000B589B0039002911A
:1029A00001920093029B002B03D13F49F520FEF7D3
:1029B00070FE029B1A68029B5B689A4203D13A49F7
:1029C000F620FEF766FE039B1B791A4613469B0012
:1029D0001344DB00354A13440793079B93F82230D6
:1029E000002B03D008230593059B59E0079B019A10
:1029F0001A60079B009A5A60079B00229A60079B07
:102A0000002283F82520079B002283F82420029BC4
:102A10009A7B079B83F82720029B5B7B002B02D0CD
:102A20000298FFF749FF4FF0A042029B1B6803F595
:102A3000E07340F20C6142F823104FF0A042029B79
:102A40005B6803F5E07340F20C6142F82310039BCE
:102A50001B680693029B1968029B5B681A460698DE
:102A6000FFF7A4FD029B9B6819460698FFF7ADFD92
:102A7000079B1B68002B0CD0039B1B681846FFF7B5
:102A80002BFE03461A46029B1B7B19461046FFF796
:102A900011FD079B012283F8222000230593059B4B
:102AA000184609B05DF804FBE0560000EC05002074
:102AB00000B585B00190019B1B791A4613469B0017
:102AC0001344DB000D4A13440393039B93F8223015
:102AD000012B04D00A4940F27710FEF7DAFD019B82
:102AE0001B6802930298FFF758FD039B022283F8AC
:102AF000222000BF05B05DF804FB00BFEC050020FC
:102B0000E056000000B583B001900091009B03F0F7
:102B10000103002B03D00198FFF7BAFD02E00198F2
:102B2000FFF7BFFD009B03F00203002B03D00198C9
:102B3000FFF7C0FD02E00198FFF7C5FD00BF03B03D
:102B40005DF804FB00B589B00390029101920093F7
:102B50000023069308238DF81F304FF48273ADF8DD
:102B60001C30019B5B681846FFF7C1FD034683F0EC
:102B70000103DBB2002B03D010230693069B95E1E3
:102B80004FF0FF310298FFF7FEFC039B93F82430CF
:102B9000DBB2002B09D0039B9B6819460298FFF714
:102BA000E8FC11230693069B80E1009B03F00403DD
:102BB000002B06D1009B03F01003002B01D1012351
:102BC00000E0002303F00103DAB2039B83F8242022
:102BD000039B019A0C3307CA83E80700009B1B097B
:102BE00003F00103002B14BF01230023DAB2039B7F
:102BF00083F82520019B5B7819460298FFF7FDFCBE
:102C00004FF482710298FFF78DFC4FF49271029895
:102C1000FFF788FC00990298FFF774FF019B1B786F
:102C2000032B00F2E88001A252F823F06B2D000084
:102C3000C52D0000192D00003D2C0000009B03F065
:102C40001003002B04D09B4940F23530FEF721FDE4
:102C5000009B03F00803002B04D0964940F2363065
:102C6000FEF717FD009B03F00403002B04D09149ED
:102C700040F23730FEF70DFD019B9B681846FFF7C9
:102C800036FD034683F00103DBB2002B03D0102393
:102C90000693069B0AE14FF480710298FFF7DEFC71
:102CA000019B5968019B9B781A460298FFF7B2FC7A
:102CB0004FF4A8710298FFF735FC4FF4B0710298F9
:102CC000FFF730FC4FF4A4710298FFF72BFC202192
:102CD0000298FFF719FC08210298FFF715FC00BFC6
:102CE0004FF4A8710298FFF732FC034683F001030A
:102CF000DBB2002BF4D14FF4A8710298FFF712FC5D
:102D0000019B9968019BDB781A460298FFF782FCC9
:102D1000039B694A9A6071E0019B5968019B9B780B
:102D20001A460298FFF776FC019B9B681846FFF74E
:102D3000DEFC034683F00103DBB2002B03D010233B
:102D40000693069BB2E0019B9968019BDB781A46CB
:102D50000298FFF771FC4FF484510298FFF77EFC54
:102D6000039B40F202229A6048E0019B5968019B54
:102D70009B781A460298FFF74DFC009B03F0200356
:102D8000002B11D04FF480710298FFF767FC039B72
:102D9000494A9A604FF4A4710298FFF7C3FB4FF4BD
:102DA000A473ADF81C3008E04FF400710298FFF7EF
:102DB00055FC039B40F202229A6020210298FFF703
:102DC000A3FB1BE0019B5968019B9B781A46029864
:102DD000FFF732FC4FF480510298FFF73FFC039B52
:102DE00040F202229A6000238DF81F3020210298C1
:102DF000FFF78AFB02E00723069300BF009B03F066
:102E00000803002B09D1019B1B78032B05D09DF8EB
:102E10001F3019460298FFF777FB039B1B68002BB6
:102E200028D0009B03F00403002B03D0039B4FF436
:102E300000729A60039B9B6819460298FFF799FB02
:102E400033E04FF492710298FFF781FB0346002BA9
:102E500010D04FF492710298FFF764FB2021029882
:102E6000FFF752FB14210298FFF74EFB4FF48273D9
:102E7000ADF81C30BDF81C3019460298FFF767FB0F
:102E8000034683F00103DBB2002BDAD10298FFF78F
:102E9000A6FB0590039B002283F82420059B002BB2
:102EA00003D00598FFF7F0FC0690069B184609B082
:102EB0005DF804FBE05600000002040000B587B096
:102EC00003900291019200230593039B1B791A46FC
:102ED00013469B001344DB00144A13440493049BE1
:102EE0001B68002B08D1029B1B78022B04D11049D0
:102EF00040F2B730FEF7CDFB049B1B68002B08D1D6
:102F0000029B1B78032B04D109494FF46E70FEF726
:102F1000C0FB039B1968019B029A0498FFF712FEFD
:102F20000590059B184607B05DF804FBEC050020F2
:102F3000E056000000B589B0039001921A460B4696
:102F40008DF80B3013468DF80A3005AB00221A605D
:102F50005A609A609DF80B308DF815309DF80A3054
:102F60008DF81630019B06939DF82830002B01D078
:102F7000202200E0002205AB19460398FFF79EFFD0
:102F80000346184609B05DF804FB00B589B003900C
:102F900001921A460B468DF80B3013468DF80A3015
:102FA00005AB00221A605A609A6001238DF8143034
:102FB0009DF80B308DF815309DF80A308DF81630DD
:102FC000019B069305AB002219460398FFF776FF95
:102FD0000346184609B05DF804FB000000B589B04F
:102FE00001900091009B1B68002B04D1814940F2A5
:102FF0003240FEF74EFB4FF492710198FFF7A7FAAB
:103000000346002B27D04FF492710198FFF78AFAFC
:103010004FF482710198FFF79AFA034683F0010397
:10302000DBB2002B17D0009B9B6819460198FFF775
:10303000AAFA009B02229A60009B9B68194601989D
:10304000FFF797FA20210198FFF75EFA1421019803
:10305000FFF75AFACAE04FF482710198FFF777FA46
:103060000346002B55D04FF482710198FFF75AFAAE
:10307000009A04AB0C3207CA83E80700009B93F860
:103080002330002B21D0009B1B7B012B05D1019805
:10309000FFF7F6FA0346DBB204E00198FFF7E8FA1F
:1030A0000346DBB28DF81230009B1B7B022B05D14F
:1030B0000198FFF7E5FA0346DBB204E00198FFF759
:1030C000D7FA0346DBB28DF813304FF4B071019894
:1030D000FFF728FA4FF4AE710198FFF723FA009B2F
:1030E00093F8253083F00103DBB2002B04D1009B61
:1030F00093F82330002B4DD000210198FFF7AEFA52
:10310000009B00229A604FF0FF310198FFF73BFAD5
:1031100040E04FF4A4710198FFF704FA009B1B7B79
:10312000002B1AD1009A04AB0C3207CA83E80700BF
:10313000009B93F8253083F00103DBB2002B29D0EC
:1031400000210198FFF78AFA009B00229A604FF055
:10315000FF310198FFF717FA1CE04FF40071019856
:10316000FFF77CFA009B40F202229A604FF0FF3199
:103170000198FFF708FA009B9B6819460198FFF732
:10318000F8F908210198FFF7BFF920210198FFF70E
:10319000BBF92BE00198FFF722FA0790079B03F099
:1031A0000203002B03D001238DF80C300BE0079BAA
:1031B00003F00403002B03D002238DF80C3002E04F
:1031C00000238DF80C30009B93F8253083F0010329
:1031D000DBB2002B03D0009B002283F82420009B4D
:1031E0001B68009A516803AA1046984709B05DF819
:1031F00004FB00BFE056000008B503490348FFF791
:10320000EDFE00BF08BD00BFEC050020003000400F
:1032100082B003468DF807309DF8073003F01F0297
:1032200006499DF907305B09012000FA02F22033BC
:1032300041F8232000BF02B0704700BF00E100E06A
:1032400084B001900B46ADF80230BDF80230019A0F
:10325000134400221A60BDF80230019A13441B681F
:103260000393039B00BF04B0704782B001900B46EC
:10327000ADF80230BDF80230019A13441B68002BF0
:1032800014BF01230023DBB2184602B0704782B09E
:1032900001900091019B009AC3F8042300BF02B083
:1032A000704782B001900091019BD3F80423009BEA
:1032B0001340002B14BF01230023DBB2184602B0D9
:1032C000704782B001900091019B009AC3F80823D7
:1032D00000BF02B0704784B00190019BD3F88034E6
:1032E0000393019B039AC3F88024039B184604B000
:1032F000704782B00190019B0422C3F8002500BFF3
:1033000002B0704782B00190019B0022C3F80025F3
:1033100000BF02B0704784B0039002910192039BFA
:10332000019AC3F81425039B029AC3F80C2500BF29
:1033300004B0704700B583B001904FF0FF324FF0FA
:10334000FF310198FFF7E7FF00BF03B05DF804FB12
:1033500082B00190019BD3F80C35184602B070473B
:1033600082B00190019BD3F81435184602B0704723
:1033700082B00190019BD3F80835184602B070471F
:1033800082B00190019BD3F81035184602B0704707
:1033900084B0039002910192039B029AC3F808251E
:1033A000039B019AC3F8102500BF04B0704700B515
:1033B00083B001904FF0FF324FF0FF310198FFF7DB
:1033C000E7FF00BF03B05DF804FB82B00190019BF2
:1033D000D3F81835DBB2184602B0704782B00190BE
:1033E0000B468DF803309DF80320019BC3F81C2584
:1033F00000BF02B0704782B001900B468DF80330D9
:103400009DF80330019A134401221A6000BF02B0F4
:10341000704782B001900B468DF8033013468DF84B
:1034200002309DF803209DF802301343DBB21A46A8
:10343000019BC3F86C2500BF02B0704782B00190B9
:103440000091019B009AC3F8242500BF02B0704789
:1034500084B001900B46ADF80230BDF80230019AFD
:10346000134400221A60BDF80230019A13441B680D
:103470000393039B00BF04B0704782B001900B46DA
:10348000ADF80230BDF80230019A13441B68002BDE
:1034900014BF01230023DBB2184602B0704782B08C
:1034A00001900091019BD3F80022009BDB431A405E
:1034B000019BC3F8002200BF02B0704782B00190A8
:1034C0000091019B009AC3F8042300BF02B070472B
:1034D00082B001900091019B009AC3F8082300BFBD
:1034E00002B0704784B00190019BD3F880340393FD
:1034F000019B039AC3F88024039B184604B07047CD
:1035000082B00190019B0822C3F8002500BF02B0E1
:10351000704782B00190019B0022C3F8002500BFD4
:1035200002B0704784B0039002910192039B029A0B
:10353000C3F80C25039B019AC3F8142500BF04B0FF
:10354000704700B583B001904FF0FF324FF0FF316C
:103550000198FFF7E7FF00BF03B05DF804FB82B0FE
:103560000190019BD3F80C35184602B0704782B029
:103570000190019BD3F81435184602B0704782B011
:103580000190019BD3F80835184602B0704782B00D
:103590000190019BD3F81035184602B0704784B0F3
:1035A000039002910192039B029AC3F80825039BA2
:1035B000019AC3F8102500BF04B0704700B583B06E
:1035C00001904FF0FF324FF0FF310198FFF7E7FF16
:1035D00000BF03B05DF804FB82B001900B468DF88C
:1035E00003309DF80330019A134401221A6000BF92
:1035F00002B0704782B001900B468DF8033013463D
:103600008DF802309DF803209DF802301343DBB2A1
:103610001A46019BC3F86C2500BF02B0704782B008
:1036200001900091019B009AC3F8242500BF02B0CD
:10363000704784B00390029113468DF80730029AC8
:10364000039BC3F844259DF80720039BC3F8482536
:1036500000BF04B0704782B00190019BD3F84C3595
:10366000184602B0704782B00190019BD3F83C35F8
:10367000184602B0704700B583B003468DF8073096
:103680009DF907301846FFF7C3FD00BF03B05DF892
:1036900004FB84B00190019B1B0B8DF80F309DF94A
:1036A0000F30184604B0704782B00190019B03F0C0
:1036B0006043B3F1005F0CBF01230023DBB2184667
:1036C00002B0704700B583B00190019B1B681F2BAF
:1036D00004D905494FF4E870FDF7DBFF4FF0A04334
:1036E000184603B05DF804FB3057000000B585B004
:1036F0000190084611461A4603468DF803300B46E2
:103700008DF8023013468DF8013001AB1846FFF7F3
:10371000D9FF03909DF803209DF802305B001A4307
:103720009DF801309B001A439DF818301B0242EAB5
:1037300003019DF81C301B04019A1943039B02F5F9
:10374000E07243F8221000BF05B05DF804FB00B53D
:1037500085B00390002301930023009300230122EE
:1037600001210398FFF7C2FF00BF05B05DF804FB1D
:1037700000B585B003900B468DF80B309DF80B30EB
:103780000022019200220092002200210398FFF7FC
:10379000ADFF00BF05B05DF804FB00B585B0039038
:1037A00000230193002300930023012200210398AA
:1037B000FFF79CFF00BF05B05DF804FB00B585B0C6
:1037C000019001AB1846FFF77DFF0390019B01229A
:1037D00002FA03F31946039800F004F800BF05B09D
:1037E0005DF804FB82B001900091019B009AC3F840
:1037F000082500BF02B0704700B583B0019000916A
:10380000009B1B68B3F1FF3F09D0009B1B68184663
:10381000FFF7D4FF009B1B681846FFF798FF009B3B
:103820005B68B3F1FF3F05D0009B5B680021184641
:10383000FFF79EFF019B1B79464A5B0113441C3333
:103840001B78002B41D0019B1A68009B9B6919468D
:103850001046FFF7E4FE019B1868009B597D009B12
:103860001B7D1A46FFF7C6FE019B1868009B19686E
:10387000009B5B681A46FFF755FE009B1B7D012BE2
:1038800064D1009B9B68B3F1FF3F05D0009B9B6810
:1038900000211846FFF76CFF009BDB68B3F1FF3F88
:1038A00009D0009BDB681846FFF788FF009BDB68A8
:1038B0001846FFF74CFF019B1868009BD968009BD6
:1038C0009B681A46FFF76BFE40E0019B1A68009B5D
:1038D0009B6919461046FFF7B1FD019B1868009BD4
:1038E000597D009B1B7D1A46FFF793FD019B1868CD
:1038F000009B1968009B5B681A46FFF70CFD009B54
:103900001B7D012B22D1009B9B68B3F1FF3F05D0AB
:10391000009B9B6800211846FFF72AFF009BDB688D
:10392000B3F1FF3F09D0009BDB681846FFF746FF65
:10393000009BDB681846FFF70AFF019B1868009B95
:10394000D968009B9B681A46FFF722FD00BF03B0B1
:103950005DF804FB1406002000B583B001900B460F
:103960008DF80330019B1B792D4A5B0113441C33F6
:103970001B78002B2FD0019B1B684FF488711846D1
:10398000FFF766FD019B1B684FF490711846FFF727
:103990005FFD019B1B684FF492711846FFF758FDBD
:1039A000019B1B684FF4A2711846FFF751FD019B64
:1039B0001B681C491846FFF781FD019B1B681846D0
:1039C000FFF767FE03461A469DF803301946104676
:1039D000FEF770FD20E0019B1B684FF48E711846C6
:1039E000FFF72EFC019B1B684FF4A2711846FFF7EE
:1039F00027FC019B1B680C491846FFF748FC019BFC
:103A00001B681846FFF745FE03461A469DF803302B
:103A100019461046FEF74EFD00BF03B05DF804FBEB
:103A200014060020100302008000020000B583B0DD
:103A30000190019B1B79154A5B0113441C331B78D1
:103A4000002B0FD0019B1B6811491846FFF740FD62
:103A5000019B1B681846FFF71CFE03461846FFF73C
:103A60000AFE0EE0019B1B680A491846FFF729FC75
:103A7000019B1B681846FFF70CFE03461846FFF72C
:103A8000FAFD00BF03B05DF804FB00BF1406002080
:103A9000100302008402020000B587B00190019B70
:103AA0001B79364A5B0113441C331B78002B22D050
:103AB000019B1B681846FFF752FD0590019B1B6890
:103AC0001846FFF754FD0490019B1B681846FFF74A
:103AD00056FD0390019B1B681846FFF758FD0290A6
:103AE000019B1B681846FFF72CFD019B1B681846BD
:103AF000FFF764FD21E0019B1B681846FFF728FCD7
:103B00000590019B1B681846FFF72AFC0490019B57
:103B10001B681846FFF72CFC0390019B1B68184696
:103B2000FFF72EFC0290019B1B681846FFF702FC72
:103B3000019B1B681846FFF73AFC059BB3F1FF3F5A
:103B400002D00598FFF729FE049BB3F1FF3F02D096
:103B50000498FFF722FE029BB3F1FF3F02D00298C8
:103B6000FFF71BFE039BB3F1FF3F02D00398FFF763
:103B700014FE00BF07B05DF804FB00BF1406002070
:103B800000B583B00190019B1B790B4A5B01134484
:103B90001C331B78002B05D0019B1B681846FFF7D0
:103BA000AFFC04E0019B1B681846FFF7A2FB00BFB7
:103BB00003B05DF804FB00BF1406002000B583B01D
:103BC0000190019B1B790B4A5B0113441C331B784A
:103BD000002B05D0019B1B681846FFF79AFC04E0F8
:103BE000019B1B681846FFF78DFB00BF03B05DF813
:103BF00004FB00BF1406002000B587B003900291BB
:103C00000192029B002B04D122494FF48870FDF7EA
:103C100040FD039B1B795B011F4A1344059300235E
:103C20000493059BDB7E002B03D008230493049BA5
:103C30002BE0029B5A7F059B1A7702990398FFF7A6
:103C4000DBFD059B019A5A60029B1A69059B1A606D
:103C5000059B5B68002B05D0029B1B7F19460398D0
:103C6000FFF77AFE0398FFF78BFF059B0022DA75BA
:103C7000059B00221A76059B00229A75059B01225E
:103C8000DA76059B00229A76049B184607B05DF809
:103C900004FB00BF705700001406002000B585B07B
:103CA0000190019B1B795B010C4A1344039301981B
:103CB000FFF784FF039B5B68002B02D00198FFF79E
:103CC000B5FE0198FFF7E8FE039B0022DA76039B1E
:103CD00000225A6000BF05B05DF804FB1406002006
:103CE00000B585B0019000914FF48E710198FFF7F7
:103CF000A7FA009B9B68009A928A92B213441B78A1
:103D00008DF80F30009B9B8A9BB201339AB2009BC7
:103D10009A829DF80F3019460198FFF75FFB00BFAC
:103D200005B05DF804FB000000B585B00190019B73
:103D30001B795B01344A1344029300230393019BD4
:103D40001B684FF48E711846FFF77AFA019B1B68C7
:103D500008211846FFF74FFB019B1B680299184684
:103D6000FFF7BEFF029B5B68002B48D11FE000BF3E
:103D7000019B1B684FF48E711846FFF776FA0346D5
:103D800083F00103DBB2002B05D0029B9B8A9BB220
:103D9000B3F5807FECD1029B9B8A9BB2B3F5807F09
:103DA00005D0019B1B6802991846FFF799FF029BFB
:103DB0009B8A9AB2029B9B7D9BB29A42D7D3029B6D
:103DC0009B8A9BB2B3F5807F02D10F23039313E04C
:103DD00000BF019B1B684FF48E711846FFF745FA30
:103DE000034683F00103DBB2002BF2D1019B1B6879
:103DF0000C211846FFF7FFFA029B00229A75039BDD
:103E0000184605B05DF804FB1406002000B587B025
:103E10000190019B1B795B012A4A13440493002300
:103E20000593019B1B684FF490711846FFF710FB38
:103E3000019B1B684FF4AC711846FFF709FB019B0F
:103E40001868049B9968049B9B7D1A46FFF7F1FB59
:103E5000019B1B6808211846FFF7BEFB049B5B68AB
:103E6000002B2AD1019B1B684FF490711846FFF775
:103E700004FB03468DF80F30019B1B684FF4AC71B7
:103E80001846FFF7FAFA03468DF80E309DF80F300A
:103E900083F00103DBB2002B06D09DF80E3083F0D7
:103EA0000103DBB2002BDDD19DF80E30002B01D0D9
:103EB0000F230593049B00229A75059B184607B0B3
:103EC0005DF804FB1406002000B587B00390029152
:103ED00013468DF80730039B1B795B012E4A134470
:103EE0000493049BDB7E012B04D02C494FF4CC704F
:103EF000FDF7CFFB9DF80730002B04D1274940F296
:103F00009910FDF7C6FB029B002B04D123494FF407
:103F1000CD70FDF7BEFB039B1B791F4A5B01134469
:103F20001C331B78002B0CD00298FFF7BDFB034617
:103F300083F00103DBB2002B03D010230593059B14
:103F400025E0039800F02CF80346002B03D0112342
:103F50000593059B1BE0049B9DF807209A75049B25
:103F6000029A9A60049B00229A82039B1B790A4A58
:103F70005B0113441C331B78002B04D00398FFF71C
:103F800045FF034603E00398FFF7CEFE03461846BD
:103F900007B05DF804FB00BF140600207057000056
:103FA00082B00190019B1B79064A5B0113441633D2
:103FB0001B78002B14BF01230023DBB2184602B08C
:103FC000704700BF1406002010B582B00190009128
:103FD000009BDB7D002B08D14FF484710198FFF723
:103FE0002FF90198FFF7F1F916E04FF48471019869
:103FF000FFF726F9009BDB68009A527ED2B29C182C
:104000000198FFF7E2F903462370009B5B7EDBB269
:104010000133DAB2009B5A7602B010BD00B589B008
:1040200003900B4601928DF80B3001238DF8103070
:104030009DF80B308DF81830019B0593039B5B684E
:10404000039A116804AA1046984700BF09B05DF8AA
:1040500004FB00B587B001900B468DF803300023B8
:104060008DF808309DF803308DF81030019B9B6867
:104070000393019B00229A75019B5B68019A11686A
:1040800002AA1046984700BF07B05DF804FB00B5D0
:1040900089B0019000914FF400710198FFF701F988
:1040A0000346002B39D04FF492710198FFF7DDF8E9
:1040B0000346002B31D04FF492710198FFF7C0F8FE
:1040C0004FF401710198FFF7FCF8009B9B7E83F091
:1040D0000103DBB2002B03D004210198FFF78BF919
:1040E00002238DF808300198FFF7F5F80346059391
:1040F000009BDB7D8DF81030009BDB680393009BF9
:104100000022DA75009B00221A76009B5B68009AF9
:10411000116802AA1046984756E004210198FFF75B
:10412000C0F80346002B4FD04FF484710198FFF77D
:104130009CF80346002B47D000990198FFF744FFF5
:10414000009BDA7D009B5B7EDBB29A423CD1009BF8
:104150001B7E002B1CD0009BDB680793009B5B7EC3
:104160008DF81B30009B1A7E009BDA75009B1A6944
:10417000009BDA60009B00221A76009B00225A7690
:104180009DF81B30079A19460098FFF747FF1BE080
:10419000009B9B7E83F00103DBB2002B03D0042144
:1041A0000198FFF728F94FF401710198FFF789F89A
:1041B000009B0022DA75009B5B7ED9B2009BDB6816
:1041C0001A460098FFF72AFF4FF48E710198FFF707
:1041D0004CF80346002B1BD0009B9B8A9AB2009B95
:1041E0009B7D9BB29A4204D200990198FFF778FD1B
:1041F0000EE04FF48E710198FFF722F8009B9B7D33
:10420000002B05D0009B9B7D19460098FFF721FFEE
:104210004FF4A2710198FFF728F80346002B1CD039
:104220004FF4A2710198FFF70BF8009B9B7E002BC7
:1042300003D000210198FFF7DEF8009BDB7D002B07
:104240000BD0009B0022DA75009B5B7ED9B2009BED
:10425000DB681A460098FFF7E1FE00BF09B05DF881
:1042600004FB00B589B0019000914FF49271019860
:10427000FFF703F90346002B24D04FF49271019805
:10428000FFF7E6F802238DF808300198FFF72AF9C6
:10429000034605930198FFF7E6F90346DBB28DF874
:1042A0001030009BDB680393009B0022DA75009BB3
:1042B00000221A76009B5B68009A116802AA1046D9
:1042C000984741E04FF488710198FFF7D6F803460C
:1042D000002B39D04FF488710198FFF7B9F8019895
:1042E000FFF7C1F903468DF81F30009BDB7D9DF879
:1042F0001F209A4228D1009B1B7E002B19D0009BC7
:10430000DB68069320210198FFF7C9F8009B1A7E0D
:10431000009BDA75009B1A69009BDA60009B002203
:104320001A769DF81F30069A19460098FFF776FE18
:104330000AE0009B0022DA75009BDA689DF81F30C6
:1043400019460098FFF76AFE4FF4A2710198FFF733
:1043500094F80346002B16D04FF4A2710198FFF792
:1043600077F8009BDB7D002B0DD0009B0022DA75D7
:104370000198FFF778F90346D9B2009BDB681A462B
:104380000098FFF74BFE4FF490710198FFF775F816
:104390000346002B11D04FF490710198FFF758F8A5
:1043A000009B9B7D002B08D00198FFF754F9034632
:1043B000DBB219460098FFF74CFE00BF09B05DF86C
:1043C00004FB000008B5074B1B7F002B04D00549F8
:1043D0000548FFF746FF03E002490348FFF757FE91
:1043E00000BF08BD140600200020004084B00190EA
:1043F000244B0393019B002B40D0234B1A68039955
:10440000019B00BF00BF00BF00BF00BF00BF00BFD7
:1044100000BF8A422FD000BF00BF00BF00BF00BF57
:1044200000BF00BF00BF00BF00BF00BF00BF00BF94
:1044300000BF00BF00BF00BF00BF00BF00BF00BF84
:1044400000BF00BF00BF00BF00BF00BF00BF00BF74
:1044500000BF00BF00BF00BF00BF00BF00BF00BF64
:1044600000BF00BF00BF00BF00BF00BF00BF00BF54
:1044700000BF00BF00BF013BC3D1019300BF04B028
:10448000704700BF0024F4007C00002000B583B01A
:104490000190019B4FF47A7202FB03F31846FFF779
:1044A000A5FF00BF03B05DF804FB000000B587B0B6
:1044B0000123ADF8083002AA00230093022348210B
:1044C0001E48FEF737FD0590059B0493049B002BC7
:1044D00004D01B4A5F210498FCF7A8FF00BF194BCA
:1044E0001B78DBB283F00103DBB2002BF7D1002392
:1044F0008DF80830134B00221A7002AA0023009393
:10450000012348210D48FEF715FD0590059B0393F7
:10451000039B002B04D00A4A66210398FCF786FF10
:1045200000BF084B1B78DBB283F00103DBB2002B2A
:10453000F7D100BF00BF07B05DF804FBBC57000017
:10454000C45700003406002000B583B003468DF840
:104550000730074B1B881B0443F003039DF807201B
:1045600004491846FCF74AFB00BF03B05DF804FBA2
:10457000000000200C58000000B583B001900091AD
:10458000019B1B78002B0CD1019B1B79012B04D1C3
:10459000064B1B781846FFF7D7FF054B01221A7010
:1045A00000E000BF00BF03B05DF804FB350600204B
:1045B0003406002000B587B06B4600221A605A60AE
:1045C0009A60DA601B2300931A2301934FF0CC7397
:1045D000029302238DF80C30694600230A4A0B48E7
:1045E000FEF7DAF90590059B0493049B002B04D099
:1045F000074A97210498FCF719FF0448FEF758FA78
:1046000000BF07B05DF804FB79450000BC5700000F
:10461000C457000000B583B00B4B00221A70012371
:104620000A4A48210A48FEF7B0FC0190019B00931A
:10463000009B002B04D0074AA5210098FCF7F6FE4A
:1046400000BF03B05DF804FB3406002035060020EF
:10465000BC570000C457000000B583B00020FCF731
:1046600055F80190019B002B04D0184AAD21019808
:10467000FCF7DCFEFBF7A8FF154B1B881B0443F07F
:10468000030314491846FCF7ABFA00BFFCF702FB22
:104690000346002BFAD1FFF78DFFFFF707FF4FF41A
:1046A000FA70FFF7F3FE20BF00BF0B4B1B78DBB2A5
:1046B00083F00103DBB2002BF5D1FFF7ABFF00BFA6
:1046C000FCF7E8FA0346002BFAD1E8E7C4570000EC
:1046D000000000203058000034060020BFF34F8F48
:1046E00000BF074BDB6803F4E0620549054B134349
:1046F000CB60BFF34F8F00BF00BF00BFFCE700BF20
:1047000000ED00E00400FA05024B034A1A6000BF06
:10471000704700BF7C0000200090D00308B500F077
:104720005DF90346002B06D09B4B1B681B0A9B4A76
:1047300003F01F03136000F07DF90346002B02D045
:10474000974B984A1A6000F091F90346002B06D067
:10475000954B1B685B0B954A03F00703136000F051
:10476000B1F90346002B05D0914BDB68904A23F04A
:104770008073D36000F0C2F90346002B0ED04FF0D7
:1047800080430022C3F80C214FF080430022C3F87D
:1047900010214FF080430022C3F8382500F0DAF9E9
:1047A0000346002B02D0834B03221A6000F0EEF97F
:1047B0000346002B0BD0804B05221A607F4B012251
:1047C0001A607F4B00221A607E4B3F221A6000F075
:1047D000F9F90346002B76D04FF080537A4AD3F88C
:1047E0000434C2F820354FF08053774AD3F80834A8
:1047F000C2F824354FF08053734AD3F80C34C2F812
:1048000028354FF08053704AD3F81034C2F82C3555
:104810004FF080536C4AD3F81434C2F830354FF05F
:104820008053694AD3F81834C2F834354FF08053B6
:10483000654AD3F81C34C2F840354FF08053624AC1
:10484000D3F82034C2F844354FF080535E4AD3F891
:104850002434C2F848354FF080535B4AD3F82834EB
:10486000C2F84C354FF08053574AD3F82C34C2F875
:1048700050354FF08053544AD3F83034C2F8543591
:104880004FF08053504AD3F83434C2F860354FF0BB
:1048900080534D4AD3F83834C2F864354FF0805312
:1048A000494AD3F83C34C2F868354FF08053464A41
:1048B000D3F84034C2F86C354FF08053424AD3F8F5
:1048C0004434C2F8703500F099F90346002B05D046
:1048D0003E4B1B683E4A03F04F03136000F0BAF9E9
:1048E0000346002B0DD04FF08043D3F8003403F083
:1048F0000103002B05D04FF080436FF00102C3F895
:104900000024344BD3F88830324A43F47003C2F8A1
:104910008830BFF34F8F00BFBFF36F8F00BF4FF0E2
:104920001023D3F80032002B05DB4FF01023D3F80F
:104930000432002B2BDA284B0122C3F8042500BFD8
:10494000254BD3F80034002BFAD04FF0102315225A
:10495000C3F8002200BF204BD3F80034002BFAD05C
:104960004FF010231522C3F8042200BF1A4BD3F8CE
:104970000034002BFAD0184B0022C3F8042500BFE6
:10498000154BD3F80034002BFAD0FFF7A7FEFFF742
:10499000BBFE00BF08BD00BF24030010403501402E
:1049A00074C007400DF0ADBA440200103C05004051
:1049B000F0ED00E0A0050040105600408856004091
:1049C000185600401456004000C000405802001025
:1049D000E40E004000ED00E000E00140124B1B68D7
:1049E000DBB2062B1DD1114B1B6803F00F03002B0C
:1049F00017D10F4B1B6803F0F003302B01D10123BB
:104A000010E00B4B1B6803F0F003402B01D1012396
:104A100008E0074B1B6803F0F003502B01D1012382
:104A200000E0002318467047E00F00F0E40F00F0AC
:104A3000E80F00F00A4B1B68DBB2062B0DD1094BC7
:104A40001B6803F00F03002B07D1074B1B6803F013
:104A5000F003302B01D1012300E0002318467047FA
:104A6000E00F00F0E40F00F0E80F00F0124B1B68BD
:104A7000DBB2062B1DD1114B1B6803F00F03002B7B
:104A800017D10F4B1B6803F0F003302B01D101232A
:104A900010E00B4B1B6803F0F003402B01D1012306
:104AA00008E0074B1B6803F0F003502B01D10123F2
:104AB00000E0002318467047E00F00F0E40F00F01C
:104AC000E80F00F00A4B1B68DBB2062B0DD1094B37
:104AD0001B6803F00F03002B07D1074B1B6803F083
:104AE000F003302B01D1012300E00023184670476A
:104AF000E00F00F0E40F00F0E80F00F0124B1B682D
:104B0000DBB2062B1DD1114B1B6803F00F03002BEA
:104B100017D10F4B1B6803F0F003302B01D1012399
:104B200010E00B4B1B6803F0F003402B01D1012375
:104B300008E0074B1B6803F0F003502B01D1012361
:104B400000E0002318467047E00F00F0E40F00F08B
:104B5000E80F00F00A4B1B68DBB2062B0DD1094BA6
:104B60001B6803F00F03002B07D1074B1B6803F0F2
:104B7000F003302B01D1012300E0002318467047D9
:104B8000E00F00F0E40F00F0E80F00F00A4B1B68A4
:104B9000DBB2062B0DD1094B1B6803F00F03002B72
:104BA00007D1074B1B6803F0F003302B01D1012321
:104BB00000E0002318467047E00F00F0E40F00F01B
:104BC000E80F00F00A4B1B68DBB2062B0DD1094B36
:104BD0001B6803F00F03002B07D1074B1B6803F082
:104BE000F003502B01D1012300E000231846704749
:104BF000E00F00F0E40F00F0E80F00F0124B1B682C
:104C0000DBB2062B1DD1114B1B6803F00F03002BE9
:104C100017D10F4B1B6803F0F003302B01D1012398
:104C200010E00B4B1B6803F0F003402B01D1012374
:104C300008E0074B1B6803F0F003502B01D1012360
:104C400000E0002318467047E00F00F0E40F00F08A
:104C5000E80F00F0124B1B68DBB2062B1DD1114B85
:104C60001B6803F00F03002B17D10F4B1B6803F0D9
:104C7000F003302B01D1012310E00B4B1B6803F034
:104C8000F003402B01D1012308E0074B1B6803F020
:104C9000F003502B01D1012300E000231846704798
:104CA000E00F00F0E40F00F0E80F00F07F2805D8D7
:104CB000034B185C034B5B5C184070470020704747
:104CC00054580000D4580000A0F16103192B98BF7C
:104CD00020387047A0F14103192B98BF203070474E
:104CE0007F2805D8034B185C034B5B5C184070476A
:104CF0000020704754580000D4580000A0F1610310
:104D0000192B98BF20387047A0F14103192B98BF89
:104D1000203070477F299ABF017001206FF02E006C
:104D200070475AB10A787F2A0AD800B10260002180
:104D300019605960501A18BF012070470020704751
:104D40006FF02E007047000008B5034B5B689B684E
:104D50001B68984708BD00BF8000002008B50921E6
:104D6000FFF7F2FF08BD844640EA010313F0030F8A
:104D700018D18446202A0BD32DE9F007B1E8F807B3
:104D8000A0E8F807A2F12002202AF7D2BDE8F00738
:104D9000042A07D351F8043B40F8043BA2F1040273
:104DA000042AF7D2002A05D011F8013B00F8013B94
:104DB000013AF9D16046704700F1010110F0030F8C
:104DC00011D010F8012B002A23D010F0030F0AD0C5
:104DD00010F8012B002A1CD010F0030F03D010F89C
:104DE000012B002A15D02DE970004FF001324FF051
:104DF000803350F8044BA4EB020525EA04051D405E
:104E000000D1F6E7A0F1040070BC10F8012B002AD5
:084E1000FBD1A0EB010070478B
:104E1800784F000000000300085100000000000067
:104E2800DC56000000000000685700000000000089
:104E3800000000000000000000000000000000006A
:104E4800000000000000000000000000000000005A
:104E5800000000000000000000000000000000004A
:104E6800433A5C6E52465C6E5246355F53444B5F24
:104E780031342E322E305F313762393438615C6319
:104E88006F6D706F6E656E74735C6C69627261725F
:104E98006965735C6578706572696D656E74616C5F
:104EA8005F6C6F675C7372635C6E72665F6C6F6772
:104EB8005F6261636B656E645F756172742E630017
:104EC800FFFFFFFFFFFFFFFFFFFFFFFFFFFFFFFFEA
:104ED80000000000000000000000D60107010000EB
:104EE80065050000990500008D050000433A5C6ED9
:104EF80052465C6E5246355F53444B5F31342E3216
:104F08002E305F313762393438615C636F6D706F92
:104F18006E656E74735C6C69627261726965735CEC
:104F28006578706572696D656E74616C5F6C6F67CA
:104F38005C7372635C6E72665F6C6F675F646566F4
:104F480061756C745F6261636B656E64732E630078
:104F5800A0010020D8000020E0000020E000002090
:104F6800180000004F766572666C6F7700000000CD
:104F780061707000433A5C6E52465C6E5246355F13
:104F880053444B5F31342E322E305F31376239341F
:104F980038615C636F6D706F6E656E74735C6C699D
:104FA800627261726965735C6578706572696D6556
:104FB8006E74616C5F6C6F675C7372635C6E726653
:104FC8005F6C6F675F66726F6E74656E642E6300E8
:104FD8006572726F720000007761726E696E6700A9
:104FE800696E666F00000000646562756700000006
:104FF8001B5B306D000000001B5B313B33306D00E4
:105008001B5B313B33316D001B5B313B33326D0031
:105018001B5B313B33336D001B5B313B33346D001D
:105028001B5B313B33356D001B5B313B33366D0009
:105038001B5B313B33376D00257300003C25733E05
:105048002025733A200000000D0A00002025303288
:1050580078000000202020007C000000256300006C
:1050680020000000415353455254494F4E204641B9
:10507800494C45442061742025733A257500000089
:105088004552524F52202575205B25735D2061746F
:105098002025733A25750000554E4B4E4F574E202C
:1050A8004641554C542061742030782530385800DA
:1050B800433A5C6E52465C6E5246355F53444B5FD2
:1050C80031342E322E305F313762393438615C63C7
:1050D8006F6D706F6E656E74735C6C69627261720D
:1050E8006965735C7574696C5C6170705F7574690F
:1050F8006C5F706C6174666F726D2E6300000000E7
:1051080062616C6C6F630000433A5C6E52465C6E81
:105118005246355F53444B5F31342E322E305F3167
:105128003762393438615C636F6D706F6E656E74A9
:10513800735C6C69627261726965735C62616C6CE4
:105148006F635C6E72665F62616C6C6F632E630086
:10515800433A5C6E52465C6E5246355F53444B5F31
:1051680031342E322E305F313762393438615C6524
:10517800787465726E616C5C667072696E74665C78
:105188006E72665F667072696E74662E63000000E8
:10519800433A5C6E52465C6E5246355F53444B5FF1
:1051A80031342E322E305F313762393438615C65E4
:1051B800787465726E616C5C667072696E74665C38
:1051C8006E72665F667072696E74665F666F726D26
:1051D80061742E63000000003031323334353637C5
:1051E8003839414243444546433A5C6E52465C6E08
:1051F8005246355F53444B5F31342E322E305F3187
:105208003762393438615C636F6D706F6E656E74C8
:10521800735C6C69627261726965735C65787065EC
:1052280072696D656E74616C5F6D656D6F626A5CE5
:105238006E72665F6D656D6F626A2E6300000000B6
:10524800556E6B6E6F776E206572726F7220636F2A
:10525800646500004E52465F53554343455353001F
:105268004E52465F4552524F525F5356435F484134
:105278004E444C45525F4D495353494E4700000038
:105288004E52465F4552524F525F534F4654444523
:10529800564943455F4E4F545F454E41424C454445
:1052A800000000004E52465F4552524F525F494E31
:1052B8005445524E414C00004E52465F4552524FA3
:1052C800525F4E4F5F4D454D000000004E52465F05
:1052D8004552524F525F4E4F545F464F554E440011
:1052E8004E52465F4552524F525F4E4F545F535590
:1052F80050504F52544544004E52465F4552524F0B
:10530800525F494E56414C49445F504152414D000D
:105318004E52465F4552524F525F494E56414C4994
:10532800445F5354415445004E52465F4552524FD4
:10533800525F494E56414C49445F4C454E4754488C
:10534800000000004E52465F4552524F525F494E90
:1053580056414C49445F464C414753004E52465FC4
:105368004552524F525F494E56414C49445F444161
:10537800544100004E52465F4552524F525F4441DD
:1053880054415F53495A45004E52465F4552524F69
:10539800525F54494D454F55540000004E52465FE8
:1053A8004552524F525F4E554C4C00004E52465F8C
:1053B8004552524F525F464F5242494444454E006F
:1053C8004E52465F4552524F525F494E56414C49E4
:1053D800445F4144445200004E52465F4552524F8A
:1053E800525F4255535900004E52465F4552524F44
:1053F800525F4D4F44554C455F4E4F545F494E499F
:105408005449414C5A4544004E52465F4552524F0A
:10541800525F4D555445585F494E49545F4641497E
:105428004C4544004E52465F4552524F525F4D55CF
:105438005445585F4C4F434B5F4641494C454400E7
:105448004E52465F4552524F525F4D555445585F34
:10545800554E4C4F434B5F4641494C454400000074
:105468004E52465F4552524F525F4D555445585F14
:10547800434F4E445F494E49545F4641494C454469
:10548800000000004E52465F4552524F525F4D4F4A
:1054980044554C455F414C52454144595F494E493A
:1054A8005449414C495A4544000000004E52465F59
:1054B8004552524F525F53544F524147455F4655EC
:1054C8004C4C00004E52465F4552524F525F41507D
:1054D800495F4E4F545F494D504C454D454E5445DC
:1054E800440000004E52465F4552524F525F4645B7
:1054F80041545552455F4E4F545F454E41424C45CD
:10550800440000004E52465F4552524F525F44528B
:10551800565F5457495F4552525F4F564552525550
:105528004E0000004E52465F4552524F525F445261
:10553800565F5457495F4552525F414E41434B00B5
:105548004E52465F4552524F525F4452565F54572F
:10555800495F4552525F444E41434B0000000000F2
:105568005C520000010000006852000002000000C8
:105578008852000003000000AC5200000400000044
:10558800C052000005000000D452000006000000D0
:10559800E852000007000000005300000800000067
:1055A8001853000009000000305300000A000000F2
:1055B8004C5300000B000000645300000C00000076
:1055C8007C5300000D000000905300000E00000006
:1055D800A45300000F000000B453000010000000A6
:1055E800C853000011000000E053000080000000D4
:1055F800F0530000810000001054000082000000F9
:105608002C5400008300000048540000840000006F
:1056180068540000850000008C54000086000000DB
:10562800B454000090000000CC5400009100000029
:10563800EC540000008200000C55000001820000BC
:105648002C5500000282000048550000433A5C6E69
:1056580052465C6E5246355F53444B5F31342E32AE
:105668002E305F313762393438615C636F6D706F2B
:105678006E656E74735C647269766572735F6E7260
:10568800665C636F6D6D6F6E5C6E72665F6472767A
:105698005F636F6D6D6F6E2E630000002E2E2F2ED0
:1056A8002E2F2E2E2F2E2E2F2E2E2F2E2E2F636F97
:1056B8006D706F6E656E74732F6472697665727340
:1056C8005F6E72662F68616C2F6E72665F677069B5
:1056D8006F2E680074776900433A5C6E52465C6EC0
:1056E8005246355F53444B5F31342E322E305F3192
:1056F8003762393438615C636F6D706F6E656E74D4
:10570800735C647269766572735F6E72665C7477D7
:10571800695F6D61737465725C6E72665F647276E0
:105728005F7477692E6300002E2E2F2E2E2F2E2EBB
:105738002F2E2E2F2E2E2F2E2E2F636F6D706F6E05
:10574800656E74732F647269766572735F6E7266C4
:105758002F68616C2F6E72665F6770696F2E6800C4
:105768007561727400000000433A5C6E52465C6ECC
:105778005246355F53444B5F31342E322E305F3101
:105788003762393438615C636F6D706F6E656E7443
:10579800735C647269766572735F6E72665C75615C
:1057A80072745C6E72665F6472765F756172742E75
:1057B800630000000030004000010000433A5C6EC6
:1057C80052465C6E5246355F53444B5F31342E323D
:1057D8002E305F313762393438615C6578616D70BD
:1057E8006C65735C7065726970686572616C5C7415
:1057F80077695F73656E736F725C6D61696E2E6336
:105808000000000054656D70657261747572653AC8
:105818002025642043656C7369757320646567721D
:105828006565732E000000000D0A54574920736502
:105838006E736F72206578616D706C650000000092
:1058480043000000504F53495800000020202020FA
:1058580020202020206828282828202020202020D8
:105868002020202020202020202020204810101038
:105878001010101010101010101010108484848450
:105888008484848484841010101010101081818105
:105898008181810101010101010101010101010170
:1058A8000101010101010110101010101082828203
:1058B8008282820202020202020202020202020240
:1058C8000202020202020210101010200007032038
:1058D80004170201085710408000000048580000D3
:1058E8004C590000605A000053756E004D6F6E00F1
:1058F8005475650057656400546875004672690000
:1059080053617400000000004A616E004665620041
:105918004D617200417072004D6179004A756E00E8
:105928004A756C0041756700536570004F637400D9
:105938004E6F76004465630000000000414D005042
:105948004D000000845A0000805A0000805A000070
:10595800805A0000805A0000805A0000805A0000D7
:10596800805A0000805A0000805A0000FFFFFFFFA5
:10597800FFFFFFFFFFFFFFFFFFFF0000C059000010
:10598800F0580000FC59000010590000445900006C
:10599800A4590000545A0000B0590000256D2F2565
:1059A800642F2579000000002561202562202565E7
:1059B800202554202559000053756E646179004DE7
:1059C8006F6E646179005475657364617900576519
:1059D800646E657364617900546875727364617983
:1059E8000046726964617900536174757264617903
:1059F800000000004A616E75617279004665627246
:105A080075617279004D6172636800417072696CEA
:105A1800004D6179004A756E65004A756C790041E0
:105A280075677573740053657074656D626572008F
:105A38004F63746F626572004E6F76656D62657252
:105A480000446563656D62657200000025483A256B
:105A58004D3A255300000000AD4C0000C94C000031
:105A6800D54C0000E14C0000FD4C0000094D000041
:0E5A7800154D0000234D0000000000002E0020
:105A88000020004000000000E84E00000000000078
:105A98000000000000000000D84F0000E04F0000A8
:105AA800E84F0000F04F0000F84F000000500000E1
:105AB800085000001050000018500000205000004E
:105AC8002850000030500000385000000090D003EB
