:100000000060002015020000590200005B020000A1
:100010005D0200005F0200006102000000000000BD
:10002000000000000000000000000000630200006B
:100030006502000000000000670200006902000085
:100040006D0200006F0200000933000075300000EF
:100050007502000000000000770200007902000035
:100060007B0200007D0200007F0200008102000090
:100070008302000085020000870200008902000060
:100080008B0200008D0200008F0200009102000030
:100090009302000095020000970200009902000000
:1000A0009B0200009D020000000000000000000014
:0800B0009F020000A102000004
:1000B800354936480A1A02D0072291438D463449F9
:1000C80034480A1A06D00722914381F3098802228C
:1000D80082F3148830483149314A00F044F83148F5
:1000E8003149324A00F03FF831483249324A00F08B
:1000F8003AF832483249334A00F035F83248334941
:10010800334A00F030F833483349344A00F02BF8CA
:1001180033483449344A00F026F834483449002238
:1001280000F02CF833483449002200F027F833480F
:100138003349091A082902DB002202604160314A6A
:1001480090471F481F49884205D00268043003B40D
:10015800904703BCF7E700208646EC4600200021C4
:10016800294A9047FEE7884207D0521A05D00378FB
:1001780001300B700131013AF9D17047884202D041
:1001880002700130FAE77047006000200058002034
:1001980000600020006000200047000030000020C0
:1001A8008C000020A4020000A4020000E43A000031
:1001B800004700003000002030000020343B0000E1
:1001C800343B0000343B0000343B0000343B00006B
:1001D800343B0000343B0000343B0000FE46000086
:1001E8005C4700008C0000208C0000208C00002060
:1001F800AC080020AC080020AC080020AC080020A7
:10020800AC0A0020270200007D3300000B484FF0A5
:100218000701884385460A488047FFF749BF0948D0
:1002280009490A4A884207D0521A05D00378013092
:100238000B700131013AF9D17047000000600020CD
:1002480031370000043B000000000020300000208F
:10025800FEE7FEE7FEE7FEE7FEE7FEE7FEE7FEE76E
:10026800FEE7FEE7FEE7FEE7FEE7FEE7FEE7FEE75E
:10027800FEE7FEE7FEE7FEE7FEE7FEE7FEE7FEE74E
:10028800FEE7FEE7FEE7FEE7FEE7FEE7FEE7FEE73E
:0C029800FEE7FEE7FEE7FEE7FEE700BF22
:1002A40008B503F033FA00BF08BD00B589B0039068
:1002B40002910192019B002B22D0002307930A2371
:1002C4000693029A079B1344019A1946002003F0EF
:1002D400CDF90590079A059B13440793019A059B52
:1002E400D31A0193059B002B05D1069B013B069372
:1002F400069B002B03D0019B002BE2D100E000BF42
:1003040000BF09B05DF804FB00B585B0039002910D
:10031400054B00934023054A0299039800F012F814
:1003240000BF05B05DF804FBAF0200008C000020A4
:1003340082B0019000BF02B0704782B0019000BF4C
:1003440002B0704700B5A1B00590049103920293E6
:10035400049801F0A9FE039B1593029B16930023B6
:10036400179300238DF8603000231993229B1A936E
:1003740000231F930FA91F9B0822049801F052FF2A
:1003840008231F93119B1293109B9BB2ADF84C3022
:1003940000238DF850309DF83C3003F00303DBB2AA
:1003A400012B32D10F9BC3F395231C939DF83C3052
:1003B400C3F3C203DBB28DF84E309DF83C30C3F377
:1003C4008003DBB2002B14BF01230023DBB28DF8C2
:1003D4004F30BDF83C30C3F38313DBB21B931B9B3C
:1003E4009A0009A91F9B049801F01CFF1B9B9B000A
:1003F4001F9A13441F9312AA09A915AB009313461D
:100404001B9A1C9800F066FE3BE09DF83C3003F01C
:100414000303DBB2022B34D1BDF83E30C3F389139E
:100424009BB21E939DF83C30C3F3C203DBB28DF83C
:100434004E309DF83C30C3F38003DBB2002B14BF75
:1004440001230023DBB28DF84F301E9B082B28BFFD
:1004540008231D9307A91F9B1D9A049801F0E2FE2F
:100464001F9A1D9B13441F931E9A1D9BD31A1E9300
:1004740015AB12AA07A81D9900F0CEFE1E9B002BF7
:10048400E3D1049801F01FFE00BF21B05DF804FB26
:1004940082B00190019B01225A7200BF02B07047E2
:1004A40000B583B04FF0FF330193FFF7F9FE042149
:1004B400084800F049FD0190019B002B03DA06492E
:1004C400412001F050F80348FFF7E2FF00BF03B0FA
:1004D4005DF804FB30000020403B000000B583B011
:1004E40001900091019B1B681B6800990198984733
:1004F40000BF03B05DF804FB00B583B00190019B1D
:100504001B685B680198984700BF03B05DF804FB63
:1005140082B001900B468DF80330019B9DF80320B7
:100524001A7200BF02B0704782B00190019B1B7A1F
:10053400184602B0704782B00190019B01225A72A2
:1005440000BF02B0704782B00190019B5B7A1846ED
:1005540002B0704710B487B001900091019B009ADB
:1005640053E8004F44EA020043E8000191F0000F11
:10057400F6D1059404900391049B184607B010BC6F
:10058400704710B487B001900091019B009A53E822
:10059400004F04EA020043E8000191F0000FF6D195
:1005A400059404900391059B184607B010BC70474E
:1005B40000B583B0019001210198FFF7CBFF0346FA
:1005C400184603B05DF804FB00B583B00190002128
:1005D4000198FFF7D6FF0346184603B05DF804FB05
:1005E40000B587B001901F4BFF229A601D4B00227B
:1005F4001A601C4B00225A601A4B0022C3F81824BC
:10060400184B0022C3F81424164B002283F81C2430
:10061400154801F0ADFC0490049B002B01D0049B11
:100624001CE0124A124BD31ADB08039300230593F0
:100634000FE0059A13465B0013449B001A460D4BCA
:1006440013440293059B9AB2029B1A80059B0133C3
:100654000593059A039B9A42EBD30023184607B0EF
:100664005DF804FB9C010020A43B0000043B000057
:10067400E43A000000000020024A034BD31ADB08CE
:1006840018467047043B0000E43A000000B587B008
:1006940001900B468DF803309DF80330002B23D0D6
:1006A400FFF7EAFF04900023059317E0059A134629
:1006B4005B0013449B001A460E4B13440393039BA5
:1006C4005B881A46019B1B689A4204D1019B059AD8
:1006D4001A60002309E0059B01330593059A049BE6
:1006E4009A42E3D3052300E00023184607B05DF8DF
:1006F40004FB00BF0000002000B585B001900B464C
:100704008DF803309DF8032001AB11461846FFF71E
:10071400BDFF0346002B07D1019BDB00054A1344B0
:100724000393039B1B6800E00023184605B05DF8A3
:1007340004FB00BFE43A000084B001900B468DF83E
:100744000330019BDB00174A134402939DF80330E6
:10075400013B032B1CD801A252F823F071070000BF
:1007640079070000810700008B07000002238DF841
:100774000F3011E004238DF80F300DE0029B1B793C
:100784008DF80F3008E0029B5B798DF80F3003E0A1
:1007940000238DF80F3000BF9DF80F30184604B0C9
:1007A400704700BFE43A000000B589B04148FFF744
:1007B400FFFE4148FFF7FCFE404B5B6807933F4B4D
:1007C4009B680493079A049B134002339B003B4AA3
:1007D4001344043306931BE0079B01330793069BE2
:1007E4005B88C3F389139BB21A46069B1B88C3F329
:1007F40089139BB213441A46079B13440793079A21
:10080400049B134002339B002C4A13440433069385
:10081400069B1B7803F00303DBB2002BDCD0002320
:10082400059311E0079B5A1C0792049A1340059AFA
:10083400920069460A44214902339B000B445B68D9
:100844001360059B01330593059B012BEAD99DF8A1
:100854000030C3F30103DBB2012B0CD0022B14D103
:10086400BDF80230C3F389139BB203339B08079A84
:10087400134407930FE0BDF80030C3F38313DBB2D6
:100884001A46079B1344079305E00D4940F24D10A7
:1008940000F069FE00BF0848FFF796FE0390039B33
:1008A400002B02D0054A079B536000BF09B05DF8D6
:1008B40004FB00BFB4050020B00500209C0100200B
:1008C400C83B000010B586B00390029101920093DA
:1008D400039B1B0CADF81630BDF81640FFF7CCFE99
:1008E40003469C4204D323494FF4B27000F03BFE0C
:1008F400009B5A1C089B1340BDF816201E49023366
:100904009B000B445A60009A089B134002339B00DF
:10091400194A134404330493039B1B0903F0010392
:10092400D9B2049A137861F382031370039B03F022
:100934000703D9B2049A137861F3C5031370019BBA
:1009440003F00F03D9B2049A138861F38913138057
:10095400029BC3F31501049A136861F39F23136088
:10096400049A1378012161F30103137000BF06B0E8
:1009740010BD00BFC83B00009C01002000B589B039
:1009840001900091019B02330693022305930123F6
:100994008DF81330002000F09FFD214B1A68009B56
:1009A4001A601F4B9A681E4B59681D4B1B68CB1A63
:1009B400134401330793069A059B134403930BE0F6
:1009C400FFF7F2FE164B9A68154B5968144B1B68D7
:1009D400CB1A134401330793039A079B9A42EFD827
:1009E4000F4B1A680E4B9B68134002339B000C4A52
:1009F400134404330293029A137843F003031370ED
:100A0400074B1A68069B1344054A1360002000F044
:100A140077FD9DF81330184609B05DF804FB00BF5C
:100A24009C01002000B58BB00590049103920293C1
:100A34001F4B9B68079306AB19460298FFF79EFF6E
:100A44000346002B24D0069B02330993002308930A
:100A540011E0089B9B00039A1A44099B591C0991B5
:100A640007990B401268124902339B000B445A60E9
:100A7400089B01330893089A029B9A42E9D3069A89
:100A8400079B00931346029A04990598FFF71AFFEF
:100A9400074B93F81C34002B05D000BF00F064F81A
:100AA4000346002BFAD100BF0BB05DF804FB00BF76
:100AB4009C01002000B583B0019000910023002226
:100AC40000990198FFF7AEFF00BF03B05DF804FB87
:100AD40000B587B0039002910192019B059305AA8A
:100AE400012302990398FFF79DFF00BF07B05DF84B
:100AF40004FB00B587B00390029101920093019B1F
:100B04000493009B059304AA022302990398FFF718
:100B140089FF00BF07B05DF804FB00B589B00390FE
:100B2400029101920093019B0493009B05930A9BFD
:100B340006930B9B079304AA042302990398FFF7D7
:100B440071FF00BF09B05DF804FB0000054B5A6853
:100B5400044B1B689A420CBF01230023DBB21846E6
:100B6400704700BF9C01002000B597B0FFF7EEFF6F
:100B74000346002B01D00023ABE1AB4B0022C3F8AA
:100B84001824BFF34F8F00BFA74B5B681593A64B88
:100B94009B680E93159A0E9B134002339B00A24A46
:100BA4001344043314930023139300231293002358
:100BB4000D931BE0159B01331593149B5B88C3F3C2
:100BC40089139BB21A46149B1B88C3F389139BB2E7
:100BD40013441A46159B13441593159A0E9B134000
:100BE40002339B00904A134404331493149B1B78E0
:100BF40003F00303DBB2002BDCD00023119311E0DC
:100C0400159B5A1C15920E9A1340119A920069462C
:100C14000A44854902339B000B445B681360119BB3
:100C240001331193119B012BEAD99DF8003003F095
:100C34000303DBB2022B40F09C80BDF80230C3F307
:100C440089139BB20B93BDF80230C3F389139BB293
:100C5400502B28BF50239BB20A930A9BC3F309036A
:100C64009AB2BDF8023062F38F13ADF802300A9BDA
:100C7400083309939DF80030C3F3C203DBB20D932C
:100C840009996A4801F07FF91390139B002B00F037
:100C9400DF80139801F008FA6946129B0822139822
:100CA40001F0AEFA129B08331293159BDA430E9BA4
:100CB400134001339B0008930A9A089B9A4242D935
:100CC400089B002B08D0159A0E9B134002339B00FF
:100CD400554A1344043300E0554B0693089B002BFC
:100CE40002D0089BDBB201E00A9BDBB28DF817301F
:100CF400089B002B01D04E4B00E000230493089B7B
:100D0400002B06D00A9BDAB2089BDBB2D31ADBB203
:100D140000E000238DF80F309DF81720129B0699F0
:100D2400139801F06DFA9DF81730129A1344129338
:100D3400049B002B16D09DF80F20129B0499139846
:100D440001F05EFA0EE0159A0E9B134002339B00ED
:100D5400354A134404330793129B0A9A079913984C
:100D640001F04EFA0B9B03339B08159A1344159319
:100D74006EE09DF8003003F00303DBB2012B59D180
:100D8400BDF80030C3F38313DBB2062B28BF062360
:100D9400DAB2BDF8003062F38913ADF80030BDF863
:100DA4000030C3F38313DBB202330C939DF800309D
:100DB400C3F3C203DBB20D930C9B9B0019461B4883
:100DC40001F0E1F81390139B002B41D0139801F02C
:100DD4006BF96946129B0822139801F011FA129BD1
:100DE400083312930023119314E0159B5A1C159297
:100DF4000E9A134002339B000B4A1344191D129B95
:100E04000422139801F0FCF9129B04331293119BF2
:100E140001331193BDF80030C3F38313DBB21A46D8
:100E2400119B9342E1D313E09C010020A43B0000FA
:100E3400A80100209DF8003003F00303DBB2032B6C
:100E440006D1264BD3F81834002B01D1002340E0FF
:100E5400139B002B37D0214BD3F8103410931F4B26
:100E6400D3F81834002B1AD0139801F02CF92AE087
:100E740000238DF83F301098FFF765FB0346002BE5
:100E840002D001238DF83F309DF83F30002B03D072
:100E940013991098FFF722FB109B5B681093109B2B
:100EA400002BE5D1139801F00EF9002000F014FB9B
:100EB4000A4BD3F81834002B02D1084A159B53600F
:100EC400002000F01DFBFFF741FE034683F0010301
:100ED400DBB2184617B05DF804FB00BF9C0100208C
:100EE40000B585B00023039322E0164BD3F81034E9
:100EF400029301238DF807300EE00298FFF714FBEC
:100F040003461A46039B934203D100238DF807300E
:100F140005E0029B5B680293029B002BEDD19DF8D8
:100F24000730002B01D0039B07E0039B013303939D
:100F3400039B092BD9DD4FF0FF33184605B05DF84C
:100F440004FB00BF9C01002000B585B001900B4656
:100F54008DF80330FFF7C4FF0390039BB3F1FF3F09
:100F640001D1039B1EE0039BDBB219460198FFF7F6
:100F7400CFFA0E4BD3F81034002B07D10B4A019B48
:100F8400C2F81034019B00225A600AE0074BD3F8E0
:100F940010345A68019B5A60044BD3F81034019AF8
:100FA4005A60039B184605B05DF804FB9C010020C1
:100FB40000B583B00C4BD3F8103401930A4B0122D3
:100FC40083F81C2408E00198FFF7B5FA0198FFF7AD
:100FD40093FA019B5B680193019B002BF3D100BF43
:100FE40000BF03B05DF804FB9C01002010B582B083
:100FF40001900091019BDB7983F00103DBB2002BAC
:1010040028D0019B1B7A002B12D0019B9B881A4687
:10101400019B9B7919461046FFF78EFB03461A463F
:101024000E4B53F822301A460D49009800F0CEFBBF
:10103400019B9B791A460B4B53F82240019B9B88DA
:1010440000211846FFF758FB03462246064900983C
:1010540000F0BCFB00BF02B010BD00BF5000002078
:101064008C3C00003C000020903C000000B585B0A2
:101074000390029113468DF80730039BDB7983F0CC
:101084000103DBB2002B0FD0039B1B7A002B06D08D
:101094000D4B1B681A460D49029800F097FB0C494A
:1010A400029800F093FB07E09DF80730002B03D073
:1010B4000749029800F08AFB029800F065FB00BF24
:1010C40005B05DF804FB00BF500000208C3C00001C
:1010D4009C3C000030B58BB00790069105920493B8
:1010E4000E9B1B7B8DF827300E9B00221A730E99E2
:1010F4000498FFF77BFF059B062B7FD801A252F8CB
:1011040023F000BF251100002F1100003F11000043
:10111400531100007111000099110000C911000061
:1011240007990E9800F052FB69E0069B1B681A466B
:1011340007990E9800F04AFB61E0069B1A68069B2B
:1011440004331B6807990E9800F040FB57E0069B98
:101154001A68069B04331968069B08331B680093BE
:101164000B4607990E9800F031FB48E0069B19687E
:10117400069B04331868069B08331B68069A0C32D6
:1011840012680192009303460A4607990E9800F0EC
:101194001DFB34E0069B1868069B04331C68069B01
:1011A40008331B68069A0C321268069910310968D4
:1011B4000291019200932346024607990E9800F08B
:1011C40005FB1CE0069B1C68069B04331D68069BFC
:1011D40008331B68069A0C321268069910310968A4
:1011E40006981430006803900291019200932B46F4
:1011F400224607990E9800F0E9FA00E000BF0022A9
:101204000E990498FFF732FF0E9B9DF827201A735E
:1012140000BF0BB030BD00BF00B587B00390029192
:1012240001920093029B082B5CD8009B1B7B8DF8DA
:101234001330009B00221A7300990198FFF7D6FE21
:101244000023059314E0059A029B9A4209D2039A5B
:10125400059B13441B781A462449009800F0B6FAFB
:1012640003E02349009800F0B1FA059B013305938C
:10127400059B072BE7D91F49009800F0A7FA002324
:10128400059322E0059A029B9A4217D2039A059B82
:1012940013441B788DF812309DF81230184602F072
:1012A4009FFB0346002B02D09DF8123000E02E2352
:1012B4001A461149009800F089FA03E00F49009892
:1012C40000F084FA059B01330593059B072BD9D9BC
:1012D400012200990198FFF7C9FE009B9DF8132095
:1012E4001A7300E000BF07B05DF804FBA03C0000E7
:1012F400A83C0000AC3C0000B03C0000B43C000042
:1013040000B589B0039002910192029B9BB2ADF8A3
:101314001430019B0693039B079305AB1A460021E7
:1013240044F2010000F052F800BF09B05DF804FB7C
:1013340086B003900291019201238DF817309DF835
:101344001730214A039B13601F4A029B53601E4AB5
:10135400019B9360039B44F20102934213D0039BCD
:1013640044F20202934222D1019B174AD360164BE6
:10137400DB681B881A46144B9A61134BDB685B6865
:10138400114AD36113E0019B0F4A13610E4B1B6991
:101394009B680D4A53610C4B1B691B881A460A4B08
:1013A4009A61094B1B695B68074AD36100BF72B637
:1013B40000BF00BF9DF81730DBB2002BFAD162B634
:1013C40000BF00BF06B07047BC05002030B589B02F
:1013D400059004910392FFF7EBFD00BFFFF7C4FBF8
:1013E4000346002BFAD1059B44F20102934214D028
:1013F400059B44F2020293422DD1039B0793234B96
:101404001B881B0443F00100079B5B681A46079B7B
:101414001B881F49FFF76DFB28E0039B06931B4BBA
:101424001B881B0443F00104069B9D68069B9B6874
:10143400184600F009FF03461946069B5B681A46E6
:10144400069B1B88019300920B462A4611492046AD
:10145400FFF763FB0AE00D4B1B881B0443F00103F9
:10146400049A0D491846FFF733FB00BF0B4B1B686A
:1014740003F00103002B00D0FFDE039A04990598C2
:10148400FFF756FF00BF09B030BD00BF00000020C9
:10149400B83C0000D43C0000EC3C0000F0ED00E05F
:1014A40072B600BF034B1B680133024A136000BFCE
:1014B400704700BFDC050020064B1B68013B054A52
:1014C4001360044B1B68002B01D162B600BF00BF40
:1014D400704700BFDC05002000B583B0019000F028
:1014E40025F80346012B03D00449432000F03BF8C0
:1014F400FFF7D6FF00BF03B05DF804FB043D000016
:1015040000B583B003468DF8073000F00FF80346AA
:10151400012B03D00449512000F025F8FFF7CCFF3C
:1015240000BF03B05DF804FB043D000084B0EFF39A
:1015340005830193019BC3F308030393039B002BCF
:101544000DD1EFF314830093009B0293029B03F0ED
:101554000103002B0CBF01230023DBB200E00123B5
:10156400184604B0704700B585B003460091ADF845
:101574000630BDF80630ADF80830009B039302AB8B
:101584001A46002144F20200FFF720FF00BF05B015
:101594005DF804FB00B583B001900B468DF8033071
:1015A400019B002B03D10849AF20FFF7DCFF019B0F
:1015B400DA689DF803300199098A01FB03F31344A7
:1015C400184603B05DF804FB5C3D000000B583B031
:1015D40001900091019B002B03D10849BC20FFF727
:1015E400C2FF009B019AD2689B1A019A128AB3FB2C
:1015F400F2F3DBB2184603B05DF804FB5C3D000077
:1016040000B585B00190019B002B01D10E2348E069
:10161400019B1B68002B03D12449C620FFF7A3FFBD
:10162400019B5B68002B03D12049C720FFF79BFF78
:10163400019B9B68002B03D11C49C820FFF793FF33
:10164400019BDB68002B03D11849C920FFF78BFFEE
:10165400019B1B8A002B03D11449CA20FFF783FF87
:10166400019B9A68019B5B68D31A8DF80F30019B2C
:101674001B68019A52681A6007E0019B1A68136894
:10168400591C11609DF80F201A709DF80F305A1ED6
:101694008DF80F20002BF0D1019B1B6800221A71DA
:1016A4000023184605B05DF804FB00BF5C3D000054
:1016B40000B585B00190019B002B03D11B49EC20A0
:1016C400FFF751FF002303930020FFF705FF019B61
:1016D4001B681A68019B5B689A421FD9019B1B68AF
:1016E4001A68013A1A601B681B7819460198FFF7BB
:1016F40051FF0390019B9A68019B1B681B68D31AD6
:101704008DF80B30019B1B681B799DF80B209A42C6
:1017140004D9019B1B689DF80B201A710020FFF768
:10172400EFFE039B184605B05DF804FB5C3D00002A
:1017340010B584B001900091019B002B04D1114994
:101744004FF48870FFF70FFF009B002B04D10D4965
:1017540040F21110FFF707FF009B03930020FFF7EF
:10176400BBFE019B1B681C68621C1A6003990198EC
:10177400FFF72CFF034623700020FFF7C1FE00BFD4
:1017840004B010BD5C3D000000B583B00190019B26
:10179400002B03D10C493120FFF7E5FE019B9B6828
:1017A400002B0CD0019B5B69019A1069019A1168A6
:1017B400019A92689847019B00229A6000E000BF5A
:1017C40003B05DF804FB00BFA43D00000EB400B5F7
:1017D40084B00190019B002B03D118494220FFF7EC
:1017E400C2FE019B5B69002B03D114494320FFF720
:1017F400BAFE019B1B68002B03D110494420FFF75C
:10180400B2FE019B5B68002B03D10C494520FFF716
:10181400AAFE059B002B0AD00023039306AB039377
:1018240003AB1A460599019800F0B0F900E000BF37
:1018340004B05DF804EB03B0704700BFA43D0000A2
:1018440000B583B001900B468DF80330019B1A68F4
:10185400019B9B68581C0199886013449DF80320E0
:101864001A70019B9A68019B5B689A4202D30198A3
:10187400FFF78AFF00BF03B05DF804FB00B587B033
:10188400039002910192009300230593009B03F0BF
:101894000103002B24D00BE0029B01330293059B30
:1018A400013305939DF8133019460398FFF7C8FFD9
:1018B400029B1B788DF813309DF81330002BEBD16D
:1018C40006E0019B013B019320210398FFF7B8FF39
:1018D400019A059B9A422ED9019B002BF1D12AE053
:1018E400029B002B0BD0029802F0CAF8059006E088
:1018F400019B013B019320210398FFF7A1FF019A6B
:10190400059B9A420FD9019B002BF1D10BE0029B5E
:1019140001330293059B013305939DF81330194657
:101924000398FFF78DFF029B1B788DF813309DF809
:101934001330002BEBD100BF07B05DF804FB0000AF
:1019440000B589B00390029101920093029B079322
:101954000123069307E0079A019BB2FBF3F3079375
:10196400069B01330693079A019B9A42F3D2009A8D
:10197400069B9A4201D9009B06930B9B03F001033B
:10198400002B22D10A9B002B1FD00B9B03F00203D8
:10199400002B06D0009B002B03D130238DF8173089
:1019A40002E020238DF8173008E00A9B013B0A93DC
:1019B4009DF8173019460398FFF742FF0A9B002B46
:1019C40003D0069A0A9B9A42EFD301230793009B04
:1019D400012B03D9009B013B009309E0029A079B6A
:1019E400B2FBF3F30493049A019B9A4200D205E0FC
:1019F400079B019A02FB03F30793E8E7029A079B0C
:101A0400B2FBF3F30493049B079A02FB03F3029AD9
:101A1400D31A0293154A049B13441B78194603985E
:101A2400FFF70EFF079A019BB2FBF3F30793079BA3
:101A3400002BE3D10B9B03F00103002B11D00A9B75
:101A4400002B0ED006E00A9B013B0A932021039849
:101A5400FFF7F6FE0A9B002B03D0069A0A9B9A42D4
:101A6400F1D300BF09B05DF804FB00BF2C3E0000B9
:101A740000B589B00590049103920293049B002B56
:101A8400B8BF5B4206930123079307E0039B069AC2
:101A940092FBF3F30693079B01330793039B069A88
:101AA4009A42F3DA029A079B9A4201D9029B07935E
:101AB4000A9B002B0AD0049B002B04DB0B9B03F036
:101AC4000403002B02D00A9B013B0A930B9B03F0F7
:101AD4000203002B02D0029B002B16D00B9B03F0B9
:101AE4000103002B11D10A9B002B0ED006E00A9BA8
:101AF400013B0A9320210598FFF7A2FE0A9B002BC5
:101B040003D0079A0A9B9A42F1D3049B002B07DA6D
:101B1400049B5B4204932D210598FFF791FE08E096
:101B24000B9B03F00403002B03D02B210598FFF734
:101B340087FE0B9B03F00203002B19D00B9B03F0D1
:101B44000103002B14D1029B002B11D10A9B002B03
:101B54000ED006E00A9B013B0A9330210598FFF75B
:101B64006FFE0A9B002B03D0079A0A9B9A42F1D37B
:101B740004990B9B01930A9B0093029B039A05987B
:101B8400FFF7DEFE00BF09B05DF804FB00B58FB0BF
:101B9400059004910392059B002B04D1B6494FF4A0
:101BA4009F70FFF7E0FC059B5B69002B04D1B249F1
:101BB4004FF4A070FFF7D7FC059B1B68002B04D1E2
:101BC400AD4940F24110FFF7CEFC059B5B68002B4A
:101BD40004D1A9494FF4A170FFF7C5FC049B002B65
:101BE40000F09381049B1B788DF83730049B0133FC
:101BF40004939DF83730002B00F07E819DF8373038
:101C0400252B40F06D8100230A9301230C93049B40
:101C14001B788DF837309DF83730302B0DD0302BB2
:101C24001BDC2B2B11D02D2B17D10A9B43F0010366
:101C34000A93049B0133049312E00A9B43F00203CA
:101C44000A93049B013304930AE00A9B43F00403C0
:101C54000A93049B0133049302E000230C9300BF16
:101C64000C9B002BD3D1002309939DF837302A2BEA
:101C74000CD1039B1B68191D039A11601B68099AF8
:101C840013440993049B013304931AE0049B1B78C7
:101C94008DF837309DF837302F2B12D99DF8373017
:101CA400392B0ED8049B01330493099A13469B00E5
:101CB40013445B001A469DF837301344303B0993B4
:101CC400D3E700230B93049B1B788DF837309DF8E2
:101CD40037302E2B1DD1049B01330493049B1B78B6
:101CE4008DF837309DF837302F2B12D99DF83730C7
:101CF400392B0ED8049B013304930B9A13469B0093
:101D040013445B001A469DF837301344303B0B9361
:101D1400E4E7049B1B788DF837309DF837306C2B43
:101D240003D09DF83730682B07D1049B013304930B
:101D3400049B1B788DF83730EFE79DF83730252B5F
:101D440000F0C480252BC0F2C680782B00F3C3803A
:101D5400582BC0F2C080583B202B00F2BC8001A25B
:101D640052F823F0571E0000DB1E0000DB1E0000AB
:101D7400DB1E0000DB1E0000DB1E0000DB1E00007B
:101D8400DB1E0000DB1E0000DB1E0000DB1E00006B
:101D9400ED1D00000F1E0000DB1E0000DB1E000016
:101DA400DB1E0000DB1E00000F1E0000DB1E000017
:101DB400DB1E0000DB1E0000DB1E0000DB1E00003B
:101DC400DB1E00009D1E0000DB1E0000DB1E000069
:101DD400811E0000DB1E0000331E0000DB1E00001D
:101DE400DB1E0000571E0000039B1B68191D039A8D
:101DF40011601B680C930C9B8DF81F309DF81F30ED
:101E040019460598FFF71CFD66E0039B1B68191D26
:101E1400039A11601B680C930A9B0193099B00931E
:101E24000B9B0A220C990598FFF722FE54E0039BB2
:101E34001B68191D039A11601B680C930C990A9B6B
:101E44000193099B00930B9B0A220598FFF778FDE9
:101E540042E0039B1B68191D039A11601B680C93D5
:101E64000C990A9B0193099B00930B9B10220598E4
:101E7400FFF766FD30E000BFE43D0000039B1B68F4
:101E8400191D039A11601B6808930A9B099A089903
:101E94000598FFF7F3FC1FE0039B1B68191D039AC9
:101EA40011601B680C9330210598FFF7C9FC782159
:101EB4000598FFF7C5FC0C990023019308230093B0
:101EC400082310220598FFF73BFD05E0252105981E
:101ED400FFF7B6FC00E000BF049B0133049305E068
:101EE4009DF8373019460598FFF7AAFC049B1B7828
:101EF400002B7FF477AE00E000BF059B1B7B002B1B
:101F040004D00598FFF740FC00E000BF0FB05DF877
:101F140004FB00BF10B487B001900091019B009AAC
:101F240053E8004F04EB020043E8000191F0000F76
:101F3400F6D1059404900391049B184607B010BC95
:101F4400704710B487B001900091019B009A53E848
:101F5400004FA4EB020043E8000191F0000FF6D11A
:101F6400059404900391049B184607B010BC704775
:101F740000B583B001900198FFF742FB0346184671
:101F840003B05DF804FB00B58BB001900091019B98
:101F94001B8A043B0793009A079B1344DA1C079B94
:101FA400B2FBF3F38DF81B300198FFF781FB05902A
:101FB400059B002B01D1002338E0059B00221A71F8
:101FC400059B01225A71079B9AB2059BDA80059BF7
:101FD40009939DF81B30013B0493099B019A1A60F5
:101FE400002308931DE00198FFF762FB0390039B15
:101FF400002B0ED0059B5B790133DAB2059B5A7135
:10200400099B039A1A60039B019A1A60039B099324
:1020140004E0059800F00EF8002307E0089B013364
:102024000893089A049B9A42DDD3059B18460BB08B
:102034005DF804FB00B58BB00190019B0793079BEF
:102044005B798DF81B30019B08939DF81B30013B95
:1020540005930023099305E0089B1B680893099BDB
:1020640001330993099A059B9A42F5D3089B1B688F
:102074000493019B0893002309930BE0089B1B68BE
:10208400039308990498FFF753FB039B0893099B58
:10209400013309939DF81B30099A9A42EED300BF8D
:1020A40000BF0BB05DF804FB00B585B00190019B47
:1020B4000393039B043301211846FFF72BFF00BF52
:1020C40005B05DF804FB00B587B00190019B059352
:1020D400059B043301211846FFF733FF034603939E
:1020E40003AB0493049B1B78002B02D10198FFF7E8
:1020F400A1FF00BF07B05DF804FB000000B58DB080
:102104000390029101920093039B0693069BDB8844
:102114000593039B0B93009B1A1D059BB2FBF3F3E2
:102124000A93009B0433059AB3FBF2F2059901FB71
:1021340002F29B1A0993009A019B1A44059B1344CB
:10214400DA1C059BB2FBF3F38DF81330069B5B7925
:102154009DF813209A420AD92849BA20FFF703FAB6
:1021640005E00B9B1B680B930A9B013B0A930A9B9C
:10217400002BF6D100230893059A099BD31A0793E1
:10218400079A019B934228BF134607932DE09DF8BD
:102194003830002B0BD0029A089BD0180B9A099B5D
:1021A40013440433079A194601F01FFC0AE00B9A02
:1021B400099B1344181D029A089B1344079A194655
:1021C40001F013FC002309930B9B1B680B93019AEA
:1021D400079BD31A0193089A079B13440893059A03
:1021E400019B934228BF13460793019B002BCED13A
:1021F40000BF00BF0DB05DF804FB00BF3C3E000013
:1022040000B587B0059004910392029300230093D4
:10221400029B039A04990598FFF770FF00BF07B06B
:102224005DF804FB00B587B0059004910392029316
:1022340001230093029B039A04990598FFF75EFF1C
:1022440000BF07B05DF804FB00B585B001900198AC
:1022540000F00EF80390039B002B01D0039B00E0D9
:10226400024B184605B05DF804FB00BF943E000025
:1022740086B00190164B0593164B04931FE0049A05
:10228400059BD31ADB10DA0F13445B10DB00059AAD
:1022940013440393039B1B680293029A019B9A4283
:1022A40002D9039B04930AE0029A019B9A4203D247
:1022B400039B0833059302E0039B5B6804E0059AE3
:1022C400049B9A42DBD30023184606B0704700BF34
:1022D400B0410000A042000082B003468DF80730F0
:1022E4009DF8073003F01F0205499DF907305B098B
:1022F400012000FA02F241F8232000BF02B0704727
:1023040000E100E082B003468DF807309DF8073005
:1023140003F01F0206499DF907305B09012000FA0A
:1023240002F2603341F8232000BF02B0704700BFBF
:1023340000E100E082B0034600918DF807309DF97A
:102344000730002B0CDA009BDAB20C499DF80730F9
:1023540003F00F03043B5201D2B20B441A7609E096
:10236400009BDAB206499DF907305201D2B20B4400
:1023740083F8002300BF02B0704700BF00ED00E007
:1023840000E100E000B583B003460A468DF807304B
:1023940013468DF806309DF80630072B04D90D49F5
:1023A4004FF49270FFF7DFF89DF806209DF907308F
:1023B40011461846FFF7BEFF9DF907301846FFF790
:1023C400A1FF9DF907301846FFF786FF00BF03B051
:1023D4005DF804FBA042000082B001900B468DF82A
:1023E40003309DF80330019A134401221A6000BFA0
:1023F40002B0704784B001900B46ADF80230BDF8CE
:102404000230019A134400221A60BDF80230019A86
:1024140013441B680393039B00BF04B0704782B04E
:1024240001900B46ADF80230BDF80230019A134416
:102434001B68002B14BF01230023DBB2184602B033
:10244400704782B001900091019B009AC3F8042365
:1024540000BF02B0704782B001900091019B009AC6
:10246400C3F8082300BF02B0704782B00190019BFB
:102474000622C3F8002500BF02B0704784B0039061
:1024840002910192039B029AC3F80825039B019AC7
:10249400C3F80C2500BF04B0704782B001900091CE
:1024A400019B009AC3F8242500BF02B0704784B092
:1024B4000190019BD3F8C4340393019B039AC3F89E
:1024C400C424039B184604B0704782B001900B46A5
:1024D4008DF803309DF80320019BC3F8882500BFC5
:1024E40002B0704784B00390029113468DF8073010
:1024F400029A039BC3F844259DF80720039BC3F865
:10250400482500BF04B0704784B00390029113467D
:102514008DF80730029A039BC3F834259DF80720F1
:10252400039BC3F8382500BF04B0704782B0019004
:102534000091019B009AC3F8002200BF02B07047CB
:1025440082B00190019BD3F84C35184602B0704715
:1025540082B00190019BD3F83C35184602B0704715
:1025640082B00190019B0122C3F8502500BF02B044
:10257400704782B00190019B0022C3F8502500BF30
:1025840002B0704782B00190019B0122C3F840253C
:1025940000BF02B0704782B00190019B0022C3F8D3
:1025A400402500BF02B0704784B00190019B1B0B13
:1025B4008DF80F309DF90F30184604B0704782B083
:1025C4000190019B03F06043B3F1005F0CBF012352
:1025D4000023DBB2184602B07047000000B583B098
:1025E4000190019B1B681F2B04D905494FF4E87027
:1025F400FEF7B9FF4FF0A043184603B05DF804FBA3
:10260400F042000000B585B0019001AB1846FFF719
:10261400E5FF0390019B012202FA03F31946039894
:1026240000F035F800BF05B05DF804FB00B585B0D7
:10263400019001AB1846FFF7D1FF0390019B0122E3
:1026440002FA03F31946039800F02BF800BF05B013
:102654005DF804FB00B585B0019001AB1846FFF7A7
:10266400BDFF0390039800F00AF80246019B22FA8A
:1026740003F303F00103184605B05DF804FB82B0D0
:102684000190019BD3F81035184602B0704782B010
:1026940001900091019B009AC3F8082500BF02B085
:1026A400704782B001900091019B009AC3F80C25F9
:1026B40000BF02B07047000084B00190244B039324
:1026C400019B002B40D0234B1A680399019B00BF48
:1026D40000BF00BF00BF00BF00BF00BF00BF8A42F1
:1026E4002FD000BF00BF00BF00BF00BF00BF00BFAE
:1026F40000BF00BF00BF00BF00BF00BF00BF00BFDE
:1027040000BF00BF00BF00BF00BF00BF00BF00BFCD
:1027140000BF00BF00BF00BF00BF00BF00BF00BFBD
:1027240000BF00BF00BF00BF00BF00BF00BF00BFAD
:1027340000BF00BF00BF00BF00BF00BF00BF00BF9D
:1027440000BF013BC3D1019300BF04B0704700BF79
:102754000024F4007400002084B001900323039348
:10276400019B03F00203002B02D048F201230393E0
:10277400019B03F00403002B02D048F202230393CD
:10278400039B184604B0704700B585B001904FF024
:10279400A042019B1B6803F5E07340F20C6142F810
:1027A40023104FF0A042019B5B6803F5E07340F2F5
:1027B4000C6142F82310019B1B681846FFF722FFA7
:1027C400019B5B681846FFF71DFF4FF0A042019B79
:1027D4001B6803F5E07340F20D6142F823104FF0DB
:1027E400A042019B5B6803F5E07340F20D6142F87F
:1027F40023100420FFF760FF002303931EE0019BD6
:102804005B681846FFF726FF0346002B03D0039BA3
:10281400002B17D124E0019B1B681846FFF706FF25
:102824000420FFF749FF019B1B681846FFF7EAFEE7
:102834000420FFF741FF039B01330393039B082B01
:10284400DDDD00E000BF019B5B681846FFF7EEFE8C
:102854000420FFF731FF019B5B681846FFF7D2FEA7
:1028640005B05DF804FB000000B589B00390029147
:1028740001920093029B002B03D13F49F520FEF700
:1028840072FE029B1A68029B5B689A4203D13A4922
:10289400F620FEF768FE039B1B791A4613469B003D
:1028A4001344DB00354A13440793079B93F8223003
:1028B400002B03D008230593059B59E0079B019A3D
:1028C4001A60079B009A5A60079B00229A60079B34
:1028D400002283F82520079B002283F82420029BF2
:1028E4009A7B079B83F82720029B5B7B002B02D0FB
:1028F4000298FFF749FF4FF0A042029B1B6803F5C3
:10290400E07340F20C6142F823104FF0A042029BA6
:102914005B6803F5E07340F20C6142F82310039BFB
:102924001B680693029B1968029B5B681A4606980B
:10293400FFF7A4FD029B9B6819460698FFF7ADFDBF
:10294400079B1B68002B0CD0039B1B681846FFF7E2
:102954002BFE03461A46029B1B7B19461046FFF7C3
:1029640011FD079B012283F8222000230593059B78
:10297400184609B05DF804FB2C430000E005002074
:1029840000B585B00190019B1B791A4613469B0044
:102994001344DB000D4A13440393039B93F8223042
:1029A400012B04D00A4940F27710FEF7DCFD019BAD
:1029B4001B6802930298FFF758FD039B022283F8D9
:1029C400222000BF05B05DF804FB00BFE005002035
:1029D4002C43000000B583B001900091009B03F0EC
:1029E4000103002B03D00198FFF7BAFD02E0019820
:1029F400FFF7BFFD009B03F00203002B03D00198F7
:102A0400FFF7C0FD02E00198FFF7C5FD00BF03B06A
:102A14005DF804FB00B589B0039002910192009324
:102A24000023069308238DF81F304FF48273ADF80A
:102A34001C30019B5B681846FFF7C1FD034683F019
:102A44000103DBB2002B03D010230693069B95E110
:102A54004FF0FF310298FFF7FEFC039B93F82430FC
:102A6400DBB2002B09D0039B9B6819460298FFF741
:102A7400E8FC11230693069B80E1009B03F004030A
:102A8400002B06D1009B03F01003002B01D101237E
:102A940000E0002303F00103DAB2039B83F824204F
:102AA400039B019A0C3307CA83E80700009B1B09A8
:102AB40003F00103002B14BF01230023DAB2039BAC
:102AC40083F82520019B5B7819460298FFF7FDFCEB
:102AD4004FF482710298FFF78DFC4FF492710298C3
:102AE400FFF788FC00990298FFF774FF019B1B789D
:102AF400032B00F2E88001A252F823F03F2C0000DF
:102B0400992C0000ED2B0000112B0000009B03F01A
:102B14001003002B04D09B4940F23530FEF723FD0F
:102B2400009B03F00803002B04D0964940F2363092
:102B3400FEF719FD009B03F00403002B04D0914918
:102B440040F23730FEF70FFD019B9B681846FFF7F4
:102B540036FD034683F00103DBB2002B03D01023C0
:102B64000693069B0AE14FF480710298FFF7DEFC9E
:102B7400019B5968019B9B781A460298FFF7B2FCA7
:102B84004FF4A8710298FFF735FC4FF4B071029826
:102B9400FFF730FC4FF4A4710298FFF72BFC2021BF
:102BA4000298FFF719FC08210298FFF715FC00BFF3
:102BB4004FF4A8710298FFF732FC034683F0010337
:102BC400DBB2002BF4D14FF4A8710298FFF712FC8A
:102BD400019B9968019BDB781A460298FFF782FCF7
:102BE400039B694A9A6071E0019B5968019B9B7839
:102BF4001A460298FFF776FC019B9B681846FFF77C
:102C0400DEFC034683F00103DBB2002B03D0102368
:102C14000693069BB2E0019B9968019BDB781A46F8
:102C24000298FFF771FC4FF484510298FFF77EFC81
:102C3400039B40F202229A6048E0019B5968019B81
:102C44009B781A460298FFF74DFC009B03F0200383
:102C5400002B11D04FF480710298FFF767FC039B9F
:102C6400494A9A604FF4A4710298FFF7C3FB4FF4EA
:102C7400A473ADF81C3008E04FF400710298FFF71C
:102C840055FC039B40F202229A6020210298FFF730
:102C9400A3FB1BE0019B5968019B9B781A46029891
:102CA400FFF732FC4FF480510298FFF73FFC039B7F
:102CB40040F202229A6000238DF81F3020210298EE
:102CC400FFF78AFB02E00723069300BF009B03F093
:102CD4000803002B09D1019B1B78032B05D09DF819
:102CE4001F3019460298FFF777FB039B1B68002BE4
:102CF40028D0009B03F00403002B03D0039B4FF464
:102D040000729A60039B9B6819460298FFF799FB2F
:102D140033E04FF492710298FFF781FB0346002BD6
:102D240010D04FF492710298FFF764FB20210298AF
:102D3400FFF752FB14210298FFF74EFB4FF4827306
:102D4400ADF81C30BDF81C3019460298FFF767FB3C
:102D5400034683F00103DBB2002BDAD10298FFF7BC
:102D6400A6FB0590039B002283F82420059B002BDF
:102D740003D00598FFF7F0FC0690069B184609B0AF
:102D84005DF804FB2C4300000002040000B587B08A
:102D940003900291019200230593039B1B791A4629
:102DA40013469B001344DB00144A13440493049B0E
:102DB4001B68002B08D1029B1B78022B04D11049FD
:102DC40040F2B730FEF7CFFB049B1B68002B08D101
:102DD400029B1B78032B04D109494FF46E70FEF754
:102DE400C2FB039B1968019B029A0498FFF712FE29
:102DF4000590059B184607B05DF804FBE00500202C
:102E04002C43000000B589B0039001921A460B468A
:102E14008DF80B3013468DF80A3005AB00221A608A
:102E24005A609A6001238DF814309DF80B308DF8A8
:102E340015309DF80A308DF81630019B069305ABCA
:102E4400002219460398FFF7A1FF0346184609B06C
:102E54005DF804FB00B589B001900091009B1B68EC
:102E6400002B04D1814940F23240FEF77CFB4FF441
:102E740092710198FFF7D3FA0346002B27D04FF441
:102E840092710198FFF7B6FA4FF482710198FFF737
:102E9400C6FA034683F00103DBB2002B17D0009B74
:102EA4009B6819460198FFF7D6FA009B02229A60A4
:102EB400009B9B6819460198FFF7C3FA20210198EB
:102EC400FFF78AFA14210198FFF786FACAE04FF453
:102ED40082710198FFF7A3FA0346002B55D04FF4F3
:102EE40082710198FFF786FA009A04AB0C3207CA84
:102EF40083E80700009B93F82330002B21D0009B2C
:102F04001B7B012B05D10198FFF722FB0346DBB2A3
:102F140004E00198FFF714FB0346DBB28DF812308E
:102F2400009B1B7B022B05D10198FFF711FB034685
:102F3400DBB204E00198FFF703FB0346DBB28DF834
:102F440013304FF4B0710198FFF754FA4FF4AE7197
:102F54000198FFF74FFA009B93F8253083F00103A3
:102F6400DBB2002B04D1009B93F82330002B4DD00F
:102F740000210198FFF7DAFA009B00229A604FF0D3
:102F8400FF310198FFF767FA40E04FF4A47101980C
:102F9400FFF730FA009B1B7B002B1AD1009A04AB7D
:102FA4000C3207CA83E80700009B93F8253083F0AE
:102FB4000103DBB2002B29D000210198FFF7B6FAF8
:102FC400009B00229A604FF0FF310198FFF743FA0B
:102FD4001CE04FF400710198FFF7A8FA009B40F23F
:102FE40002229A604FF0FF310198FFF734FA009BF8
:102FF4009B6819460198FFF724FA08210198FFF706
:10300400EBF920210198FFF7E7F92BE00198FFF78E
:103014004EFA0790079B03F00203002B03D0012311
:103024008DF80C300BE0079B03F00403002B03D056
:1030340002238DF80C3002E000238DF80C30009B45
:1030440093F8253083F00103DBB2002B03D0009BFF
:10305400002283F82420009B1B68009A516803AA6D
:103064001046984709B05DF804FB00BF2C430000EC
:1030740008B503490348FFF7EDFE00BF08BD00BFD4
:10308400E00500200030004084B001900B46ADF80C
:103094000230BDF80230019A134400221A60BDF8D0
:1030A4000230019A13441B680393039B00BF04B0CE
:1030B400704782B001900B46ADF80230BDF8023083
:1030C400019A13441B68002B14BF01230023DBB2B5
:1030D400184602B0704782B001900091019BD3F86A
:1030E4000022009BDB431A40019BC3F8002200BF6F
:1030F40002B0704784B00190019BD3F880340393ED
:10310400019B039AC3F88024039B184604B07047BC
:1031140082B00190019BD3F84C35184602B0704739
:1031240082B00190019BD3F83C35184602B0704739
:1031340000B589B003900B4601928DF80B30012342
:103144008DF810309DF80B308DF81830019B0593E5
:10315400039B5B68039A116804AA1046984700BF52
:1031640009B05DF804FB00B587B001900B468DF8FB
:10317400033000238DF808309DF803308DF81030AB
:10318400019B9B680393019B00229A75019B5B68DA
:10319400019A116802AA1046984700BF07B05DF86B
:1031A40004FB00B589B0019000914FF4927101982D
:1031B400FFF77FFF0346002B24D04FF49271019850
:1031C400FFF762FF02238DF808300198FFF792FFA2
:1031D400034605930198FFF7A3FF0346DBB28DF87E
:1031E4001030009BDB680393009B0022DA75009B80
:1031F40000221A76009B5B68009A116802AA1046A6
:10320400984741E04FF488710198FFF752FF034655
:10321400002B39D04FF488710198FFF735FF0198DE
:10322400FFF77EFF03468DF81F30009BDB7D9DF882
:103234001F209A4228D1009B1B7E002B19D0009B93
:10324400DB68069320210198FFF745FF009B1A7E57
:10325400009BDA75009B1A69009BDA60009B0022D0
:103264001A769DF81F30069A19460098FFF760FFFA
:103274000AE0009B0022DA75009BDA689DF81F3093
:1032840019460098FFF754FF4FF4A2710198FFF715
:1032940010FF0346002B16D04FF4A2710198FFF7DC
:1032A400F3FE009BDB7D002B0DD0009B0022DA7522
:1032B4000198FFF735FF0346D9B2009BDB681A4635
:1032C4000098FFF735FF4FF490710198FFF7F1FE76
:1032D4000346002B11D04FF490710198FFF7D4FEF0
:1032E400009B9B7D002B08D00198FFF711FF03463C
:1032F400DBB219460098FFF736FF00BF09B05DF84E
:1033040004FB000008B503490348FFF74AFF00BF68
:1033140008BD00BF080600200020004000B587B0AB
:103324006B4600221A605A609A60DA600F23009399
:10333400102301934FF0CC73029302238DF80C30C9
:103344006946002300220A48FFF78EFA0590059B80
:103354000493049B002B04D0064A58210498FDF7DB
:10336400CFFF0348FFF70CFB00BF07B05DF804FB79
:10337400084400001044000000B585B000238DF817
:103384000E300020FDF72CF90290029B002B04D094
:103394002E4A68210298FDF7B3FFFDF781F82C4B04
:1033A4001B881B0443F003032A491846FDF782FBDC
:1033B40000BFFDF7D9FB0346002BFAD1FFF7AEFFA0
:1033C40001238DF80F3026E00DF103029DF80F1054
:1033D40001232148FFF716FD0190019B002B0DD11D
:1033E40001238DF80E301A4B1B881B0443F0030392
:1033F4009DF80F2019491846FDF76AFBFDF7B4FB49
:1034040000BFFDF7B1FB0346002BFAD19DF80F3046
:1034140001338DF80F309DF90F30002BD4DA9DF86D
:103424000E3083F00103DBB2002B0ED0084B1B8857
:103434001B0443F003030A491846FDF73BFB00BF96
:10344400FDF792FB0346002BFAD1FEE7104400007F
:1034540000000020584400000844000068440000B4
:103464009044000000B583B01F4B0193019B0222DE
:103474001A61019B02225A61019B1C4A9A61019BB9
:103484001B4ADA61019B4FF400721A62019B00220D
:103494009A62019B00225A62019B0022DA62019B1C
:1034A400124A9A64019B134ADA64019B10221A653A
:1034B400019B00229A65019B00225A65019B002210
:1034C400DA65019B07330C49184600F0B7FA019BF3
:1034D4000A49184600F0B2FA019B20229A7100BFF3
:1034E40003B05DF804FB00BF24060020A8440000DC
:1034F4009C0600209C080020B4440000B84400004E
:1035040000B589B003900291019200230693039BB6
:10351400DB680593039B1B690493049A059B9A42F9
:1035240005D9049A059BD31A013B079307E0039B33
:103534009A680499059BCB1A1344013B0793039B98
:103544009A68059BD31A079A934228BF1346079398
:10355400079A019B934228BF13460793039B5A681B
:10356400059B1344079A0299184600F03EFA069AFE
:10357400079B13440693029A079B13440293019AF0
:10358400079BD31A0193059A079B13440593039B46
:103594009B68059A9A4201D100230593039B059ADF
:1035A400DA60019B002BB5D1069B184609B05DF883
:1035B40004FB00B589B0039002910192039BDB6880
:1035C4000793039B9A68079BD31A0693069A019B59
:1035D4009A420ED9039B5A68079B1344019A029995
:1035E400184600F002FA079A019B1A44039BDA601A
:1035F4001AE0069B0593039B5A68079B1344059A9C
:103604000299184600F0F1F9019A069BD31A059322
:10361400039B5868029A069B1344059A194600F0C6
:10362400E4F9039B059ADA6000BF09B05DF804FB76
:1036340086B00190019B1B690493019BDB68039393
:10364400049A039B9A4208D8019B9A68039BD21A56
:10365400049B1344013B059304E0049A039BD31A8F
:10366400013B0593059B184606B0704700B589B029
:10367400039002910192029B0693039B5A1C1346EA
:103684005B001344DB00204A13440593059B5B69EC
:10369400022B29D0022B2ED8002B02D0012B13D0C1
:1036A40029E00598FFF7C4FF0490049A019B9A420D
:1036B40002D20023079321E0019B0793019A069904
:1036C4000598FFF776FF19E00598FFF7B1FF04901E
:1036D400019A049B934228BF13460793079A0699BD
:1036E4000598FFF766FF09E0019A06990598FFF728
:1036F40007FF079002E00023079300BF079B1846CB
:1037040009B05DF804FB00BF2406002008B5FFF7EC
:10371400A9FE00BF08BD0000024B034A1A6000BFA7
:10372400704700BF740000200090D00308B500F07B
:10373400B7F80346002B06D0564B1B685B0B564A62
:1037440003F00703136000F0BDF80346002B0ED00E
:103754004FF080430022C3F80C214FF08043002235
:10376400C3F810214FF080430022C3F8382500F03D
:10377400BBF80346002B76D04FF08053474AD3F86A
:103784000434C2F820354FF08053444AD3F8083447
:10379400C2F824354FF08053404AD3F80C34C2F8B1
:1037A40028354FF080533D4AD3F81034C2F82C35F5
:1037B4004FF08053394AD3F81434C2F830354FF0FF
:1037C4008053364AD3F81834C2F834354FF0805356
:1037D400324AD3F81C34C2F840354FF080532F4A94
:1037E400D3F82034C2F844354FF080532B4AD3F831
:1037F4002434C2F848354FF08053284AD3F828348B
:10380400C2F84C354FF08053244AD3F82C34C2F814
:1038140050354FF08053214AD3F83034C2F8543530
:103824004FF080531D4AD3F83434C2F860354FF05A
:1038340080531A4AD3F83834C2F864354FF08053B1
:10384400164AD3F83C34C2F868354FF08053134A13
:10385400D3F84034C2F86C354FF080530F4AD3F894
:103864004434C2F8703500F051F80346002B0DD0F3
:103874004FF08043D3F8003403F00103002B05D04C
:103884004FF080436FF00102C3F80024FFF744FFB8
:1038940000BF08BD440200103C05004000C00040C9
:1038A400064B1B680A2B05D1054B1B68002B01D165
:1038B400012300E001231846704700BF30010010C7
:1038C40034010010064B1B680A2B05D1054B1B68FD
:1038D400002B01D1012300E001231846704700BFEB
:1038E4003001001034010010064B1B680A2B05D16F
:1038F400054B1B68002B01D1012300E0012318466E
:10390400704700BF3001001034010010064B1B68E3
:103914000A2B05D1054B1B68002B01D1012300E0C4
:1039240001231846704700BF300100103401001015
:103934007F2805D8034B185C034B5B5C1840704729
:1039440000207047CC4400004C450000A0F1610306
:10395400192B98BF20387047A0F14103192B98BF49
:10396400203070477F2805D8034B185C034B5B5C01
:103974001840704700207047CC4400004C450000BC
:10398400A0F16103192B98BF20387047A0F14103BF
:10399400192B98BF203070477F299ABF01700120EE
:1039A4006FF02E0070475AB10A787F2A0AD800B106
:1039B4000260002119605960501A18BF0120704735
:1039C400002070476FF02E007047000008B5034BCD
:1039D4005B689B681B68984708BD00BF780000209F
:1039E40008B50921FFF7F2FF08BD844640EA010348
:1039F40013F0030F18D18446202A0BD32DE9F007C6
:103A0400B1E8F807A0E8F807A2F12002202AF7D2CB
:103A1400BDE8F007042A07D351F8043B40F8043BFF
:103A2400A2F10402042AF7D2002A05D011F8013BBE
:103A340000F8013B013AF9D160467047024610F0A4
:103A4400030F16D111F0030F13D12DE9F0004FF03D
:103A540001374FF0803351F8044BA4EB070525EAF6
:103A640004051D4002D142F8044BF4E7A1F104011E
:103A7400F0BC11F8013B02F8013B002BF9D170476F
:103A840000F1010110F0030F11D010F8012B002AEE
:103A940023D010F0030F0AD010F8012B002A1CD0F9
:103AA40010F0030F03D010F8012B002A15D02DE9D4
:103AB40070004FF001324FF0803350F8044BA4EB08
:103AC400020525EA04051D4000D1F6E7A0F1040033
:103AD40070BC10F8012B002AFBD1A0EB0100704749
:103AE400C43B000000000300543D0000000000003F
:103AF4002843000000000000B44300000000000060
:103B040000000000000000000000000000000000B1
:103B140000000000000000000000000000000000A1
:103B24000000000000000000000000000000000091
:103B34000D0300003F03000035030000433A5C6EB0
:103B440052465C6E5246355F53444B5F31342E32DD
:103B54002E305F313762393438615C636F6D706F5A
:103B64006E656E74735C6C69627261726965735CB4
:103B74006578706572696D656E74616C5F6C6F6792
:103B84005C7372635C6E72665F6C6F675F646566BC
:103B940061756C745F6261636B656E64732E630040
:103BA40094010020CC000020D4000020D400002088
:103BB400180000004F766572666C6F770000000095
:103BC40061707000433A5C6E52465C6E5246355FDB
:103BD40053444B5F31342E322E305F3137623934E7
:103BE40038615C636F6D706F6E656E74735C6C6965
:103BF400627261726965735C6578706572696D651E
:103C04006E74616C5F6C6F675C7372635C6E72661A
:103C14005F6C6F675F66726F6E74656E642E6300AF
:103C24006572726F720000007761726E696E670070
:103C3400696E666F000000006465627567000000CD
:103C44001B5B306D000000001B5B313B33306D00AB
:103C54001B5B313B33316D001B5B313B33326D00F9
:103C64001B5B313B33336D001B5B313B33346D00E5
:103C74001B5B313B33356D001B5B313B33366D00D1
:103C84001B5B313B33376D00257300003C25733ECD
:103C94002025733A200000000D0A00002025303250
:103CA40078000000202020007C0000002563000034
:103CB40020000000415353455254494F4E20464181
:103CC400494C45442061742025733A257500000051
:103CD4004552524F52202575205B25735D20617437
:103CE4002025733A25750000554E4B4E4F574E20F4
:103CF4004641554C542061742030782530385800A2
:103D0400433A5C6E52465C6E5246355F53444B5F99
:103D140031342E322E305F313762393438615C638E
:103D24006F6D706F6E656E74735C6C6962726172D4
:103D34006965735C7574696C5C6170705F757469D6
:103D44006C5F706C6174666F726D2E6300000000AE
:103D540062616C6C6F630000433A5C6E52465C6E49
:103D64005246355F53444B5F31342E322E305F312F
:103D74003762393438615C636F6D706F6E656E7471
:103D8400735C6C69627261726965735C62616C6CAC
:103D94006F635C6E72665F62616C6C6F632E63004E
:103DA400433A5C6E52465C6E5246355F53444B5FF9
:103DB40031342E322E305F313762393438615C65EC
:103DC400787465726E616C5C667072696E74665C40
:103DD4006E72665F667072696E74662E63000000B0
:103DE400433A5C6E52465C6E5246355F53444B5FB9
:103DF40031342E322E305F313762393438615C65AC
:103E0400787465726E616C5C667072696E74665CFF
:103E14006E72665F667072696E74665F666F726DED
:103E240061742E630000000030313233343536378C
:103E34003839414243444546433A5C6E52465C6ECF
:103E44005246355F53444B5F31342E322E305F314E
:103E54003762393438615C636F6D706F6E656E7490
:103E6400735C6C69627261726965735C65787065B4
:103E740072696D656E74616C5F6D656D6F626A5CAD
:103E84006E72665F6D656D6F626A2E63000000007E
:103E9400556E6B6E6F776E206572726F7220636FF2
:103EA400646500004E52465F5355434345535300E7
:103EB4004E52465F4552524F525F5356435F4841FC
:103EC4004E444C45525F4D495353494E4700000000
:103ED4004E52465F4552524F525F534F46544445EB
:103EE400564943455F4E4F545F454E41424C45440D
:103EF400000000004E52465F4552524F525F494EF9
:103F04005445524E414C00004E52465F4552524F6A
:103F1400525F4E4F5F4D454D000000004E52465FCC
:103F24004552524F525F4E4F545F464F554E4400D8
:103F34004E52465F4552524F525F4E4F545F535557
:103F440050504F52544544004E52465F4552524FD2
:103F5400525F494E56414C49445F504152414D00D5
:103F64004E52465F4552524F525F494E56414C495C
:103F7400445F5354415445004E52465F4552524F9C
:103F8400525F494E56414C49445F4C454E47544854
:103F9400000000004E52465F4552524F525F494E58
:103FA40056414C49445F464C414753004E52465F8C
:103FB4004552524F525F494E56414C49445F444129
:103FC400544100004E52465F4552524F525F4441A5
:103FD40054415F53495A45004E52465F4552524F31
:103FE400525F54494D454F55540000004E52465FB0
:103FF4004552524F525F4E554C4C00004E52465F54
:104004004552524F525F464F5242494444454E0036
:104014004E52465F4552524F525F494E56414C49AB
:10402400445F4144445200004E52465F4552524F51
:10403400525F4255535900004E52465F4552524F0B
:10404400525F4D4F44554C455F4E4F545F494E4966
:104054005449414C5A4544004E52465F4552524FD2
:10406400525F4D555445585F494E49545F46414946
:104074004C4544004E52465F4552524F525F4D5597
:104084005445585F4C4F434B5F4641494C454400AF
:104094004E52465F4552524F525F4D555445585FFC
:1040A400554E4C4F434B5F4641494C45440000003C
:1040B4004E52465F4552524F525F4D555445585FDC
:1040C400434F4E445F494E49545F4641494C454431
:1040D400000000004E52465F4552524F525F4D4F12
:1040E40044554C455F414C52454144595F494E4902
:1040F4005449414C495A4544000000004E52465F21
:104104004552524F525F53544F524147455F4655B3
:104114004C4C00004E52465F4552524F525F415044
:10412400495F4E4F545F494D504C454D454E5445A3
:10413400440000004E52465F4552524F525F46457E
:1041440041545552455F4E4F545F454E41424C4594
:10415400440000004E52465F4552524F525F445253
:10416400565F5457495F4552525F4F564552525518
:104174004E0000004E52465F4552524F525F445229
:10418400565F5457495F4552525F414E41434B007D
:104194004E52465F4552524F525F4452565F5457F7
:1041A400495F4552525F444E41434B0000000000BA
:1041B400A83E000001000000B43E00000200000020
:1041C400D43E000003000000F83E0000040000009C
:1041D4000C3F000005000000203F00000600000026
:1041E400343F0000070000004C3F000008000000BE
:1041F400643F0000090000007C3F00000A0000004A
:10420400983F00000B000000B03F00000C000000CD
:10421400C83F00000D000000DC3F00000E0000005D
:10422400F03F00000F0000000040000010000000FC
:1042340014400000110000002C4000008000000029
:104244003C400000810000005C400000820000004F
:1042540078400000830000009440000084000000C7
:10426400B440000085000000D84000008600000033
:10427400004100009000000018410000910000007F
:104284003841000000820000584100000182000013
:10429400784100000282000094410000433A5C6EC1
:1042A40052465C6E5246355F53444B5F31342E3276
:1042B4002E305F313762393438615C636F6D706FF3
:1042C4006E656E74735C647269766572735F6E7228
:1042D400665C636F6D6D6F6E5C6E72665F64727642
:1042E4005F636F6D6D6F6E2E630000002E2E2F2E98
:1042F4002E2F2E2E2F2E2E2F2E2E2F2E2E2F636F5F
:104304006D706F6E656E74732F6472697665727307
:104314005F6E72662F68616C2F6E72665F6770697C
:104324006F2E680074776900433A5C6E52465C6E87
:104334005246355F53444B5F31342E322E305F3159
:104344003762393438615C636F6D706F6E656E749B
:10435400735C647269766572735F6E72665C74779F
:10436400695F6D61737465725C6E72665F647276A8
:104374005F7477692E6300002E2E2F2E2E2F2E2E83
:104384002F2E2E2F2E2E2F2E2E2F636F6D706F6ECD
:10439400656E74732F647269766572735F6E72668C
:1043A4002F68616C2F6E72665F6770696F2E68008C
:1043B4007561727400000000433A5C6E52465C6E94
:1043C4005246355F53444B5F31342E322E305F31C9
:1043D4003762393438615C636F6D706F6E656E740B
:1043E400735C647269766572735F6E72665C756124
:1043F40072745C6E72665F6472765F756172742E3D
:10440400630000000030004000010000433A5C6E8D
:1044140052465C6E5246355F53444B5F31342E3204
:104424002E305F313762393438615C6578616D7084
:104434006C65735C6D795F6578616D706C65735CD8
:104444007477695F7363616E6E65725C6D61696ECA
:104454002E630000545749207363616E6E65722E9B
:104464000000000054574920646576696365206440
:104474006574656374656420617420616464726545
:10448400737320307825782E000000004E6F20646E
:1044940065766963652077617320666F756E642E37
:1044A400000000005465726D696E616C00000000CC
:1044B40052545400534547474552000043000000FE
:1044C400504F534958000000202020202020202055
:1044D4002068282828282020202020202020202070
:1044E4002020202020202020481010101010101010
:1044F4001010101010101010848484848484848418
:104504008484101010101010108181818181810128
:104514000101010101010101010101010101010187
:104524000101011010101010108282828282820216
:104534000202020202020202020202020202020257
:1045440002020210101010200007032004170201B9
:104554000857104080000000C0440000C44500001B
:10456400D846000053756E004D6F6E00547565009B
:10457400576564005468750046726900536174009D
:10458400000000004A616E00466562004D617200E1
:10459400417072004D6179004A756E004A756C0075
:1045A40041756700536570004F6374004E6F760069
:1045B4004465630000000000414D00504D000000C0
:1045C400FC460000F8460000F8460000F8460000EB
:1045D400F8460000F8460000F8460000F8460000DF
:1045E400F8460000F8460000FFFFFFFFFFFFFFFF53
:1045F400FFFFFFFFFFFF0000384600006845000092
:104604007446000088450000BC4500001C460000BC
:10461400CC46000028460000256D2F25642F2579FF
:1046240000000000256120256220256520255420F6
:104634002559000053756E646179004D6F6E646195
:10464400790054756573646179005765646E6573A8
:1046540064617900546875727364617900467269A3
:1046640064617900536174757264617900000000BB
:104674004A616E756172790046656272756172791C
:10468400004D6172636800417072696C004D61791C
:10469400004A756E65004A756C79004175677573DB
:1046A400740053657074656D626572004F63746F56
:1046B400626572004E6F76656D6265720044656373
:1046C400656D62657200000025483A254D3A255310
:1046D4000000000035390000513900005D39000048
:1046E4006939000085390000913900009D390000C6
:0A46F400AB390000000000002E00AA
:10470000343B00000000000000000000000000003A
:10471000243C00002C3C0000343C00003C3C0000E9
:10472000443C00004C3C0000543C00005C3C000059
:10473000643C00006C3C0000743C00007C3C0000C9
:10474000843C00000090D0035C4500005C45000004
:0C4750005C4500005C4500005C4500007A
:0400000300000215E2
:00000001FF
