:020000022000DC
:103000000060002061320200153202001732020017
:10301000193202001B3202001D32020000000000C3
:103020000000000000000000000000001F3202004D
:10303000213202000000000023320200253202008B
:10304000596802002B320200757A02002F3202000A
:103050003132020000000000296D0200353202000A
:1030600037320200393202003B3202003D320200A8
:103070003F32020041320200433202004532020078
:10308000473202005D5002004B3202004D32020016
:103090009D50020051320200F1A50200553202009B
:1030A0005732020059320200000000000000000008
:0830B0005B3202005D320200F8
:1030B800354936480A1A02D0072291438D463449C9
:1030C80034480A1A06D00722914381F3098802225C
:1030D80082F3148830483149314A00F044F83148C5
:1030E8003149324A00F03FF831483249324A00F05B
:1030F8003AF832483249334A00F035F83248334911
:10310800334A00F030F833483349344A00F02BF89A
:1031180033483449344A00F026F834483449002208
:1031280000F02CF833483449002200F027F83348DF
:103138003349091A082902DB002202604160314A3A
:1031480090471F481F49884205D00268043003B4DD
:10315800904703BCF7E700208646EC460020002194
:10316800294A9047FEE7884207D0521A05D00378CB
:1031780001300B700131013AF9D17047884202D011
:1031880002700130FAE77047006000200058002004
:103198000060002000600020E4C30200F821002045
:1031A80060220020A4320200A4320200BEAB02005A
:1031B800E4C30200F8210020F8210020D0AC02006E
:1031C800D0AC0200D0AC0200D0AC0200D0AC0200FF
:1031D800D0AC0200D0AC0200D0AC0200E2C30200C6
:1031E8004CC40200602200206022002060220020DF
:1031F800A72A0020A82A0020A82A0020A82A002000
:10320800A82C00207332020065820200FEE7FEE768
:10321800FEE7FEE7FEE7FEE7FEE7FEE7FEE7FEE77E
:10322800FEE7FEE7FEE7FEE7FEE7FEE7FEE7FEE76E
:10323800FEE7FEE7FEE7FEE7FEE7FEE7FEE7FEE75E
:10324800FEE7FEE7FEE7FEE7FEE7FEE7FEE7FEE74E
:10325800FEE7FEE7FEE700BF0B484FF00701884393
:1032680085460A488047FFF723BF094809490A4AA3
:10327800884207D0521A05D0037801300B7001310B
:10328800013AF9D17047000000600020D5820200A1
:0C32980058AC020080210020F82100202A
:1032A40000B5A1B00590049103920293049802F032
:1032B4000DFE039B1593029B169300231793002383
:1032C4008DF8603000231993229B1A9300231F93D7
:1032D4000FA91F9B0822049802F0B6FE08231F932F
:1032E400119B1293109B9BB2ADF84C3000238DF8C8
:1032F40050309DF83C3003F00303DBB2012B32D194
:103304000F9BC3F395231C939DF83C30C3F3C20376
:10331400DBB28DF84E309DF83C30C3F38003DBB252
:10332400002B14BF01230023DBB28DF84F30BDF80E
:103334003C30C3F38313DBB21B931B9B9A0009A994
:103344001F9B049802F080FE1B9B9B001F9A134452
:103354001F9312AA09A915AB009313461B9A1C9834
:1033640000F032FF3BE09DF83C3003F00303DBB296
:10337400022B34D1BDF83E30C3F389139BB21E93A4
:103384009DF83C30C3F3C203DBB28DF84E309DF898
:103394003C30C3F38003DBB2002B14BF01230023B2
:1033A400DBB28DF84F301E9B082B28BF08231D93DA
:1033B40007A91F9B1D9A049802F046FE1F9A1D9BA5
:1033C40013441F931E9A1D9BD31A1E9315AB12AA66
:1033D40007A81D9900F09AFF1E9B002BE3D10498C7
:1033E40002F083FD00BF21B05DF804FB82B00190C0
:1033F4000091034B01221A7000BF02B0704700BF56
:10340400A022002030B58DB003468DF807301A4B4A
:1034140002AC1D460FCD0FC495E80F0084E80F00E1
:10342400062302934FF0FF3303934FF0FF330493CB
:103434004FF0FF3305934FF0EB7308939DF807307B
:10344400002B01D00D4A00E0002202AB19460C48C3
:1034540004F0DAF80B900B9B0A930A9B002B04D020
:10346400084A43210A9800F0C5FF074A9DF807302F
:10347400137000BF0DB030BD54AD0200F133020033
:10348400F8210020D0AC0200A122002000B583B0B6
:1034940001238DF807309DF807301846FFF7B2FF77
:1034A40000BF03B05DF804FB00B589B0039002913E
:1034B4000192019B8DF81F30124B00221A709DF867
:1034C4001F301A460299104804F078F90690069BBA
:1034D4000593059B002B04D00C4A5321059800F05A
:1034E40089FF00BF0A4B1B78002B07D0054B1B78C4
:1034F400DBB283F00103DBB2002BF3D100BF09B0D0
:103504005DF804FBA0220020F8210020D0AC0200CA
:10351400A122002000B585B003900291054B0093D1
:103524004023054A02990398FFF7BAFE00BF05B08D
:103534005DF804FBAD3402006022002082B00190EB
:1035440000BF02B07047000000B583B00190054889
:1035540004F0ACF80020FFF755FF00BF03B05DF89E
:1035640004FB00BFF821002082B00190019B0122DE
:103574005A7200BF02B0704700B583B04FF0FF33FA
:103584000193FFF783FF0421084800F057FD0190E1
:10359400019B002B03DA0649482004F09DFA0348F6
:1035A400FFF7E2FF00BF03B05DF804FB0022002038
:1035B40080AD020000B583B001900091019B1B68AF
:1035C4001B6800990198984700BF03B05DF804FB9D
:1035D40000B583B00190019B1B685B680198984714
:1035E40000BF03B05DF804FB82B001900B468DF878
:1035F4000330019B9DF803201A7200BF02B070478C
:1036040082B00190019B1B7A184602B0704782B0C9
:103614000190019B01225A7200BF02B0704782B030
:103624000190019B5B7A184602B0704710B487B0D2
:1036340001900091019B009A53E8004F44EA020074
:1036440043E8000191F0000FF6D105940490039132
:10365400049B184607B010BC704710B487B00190A3
:103664000091019B009A53E8004F04EA020043E8EA
:10367400000191F0000FF6D1059404900391059B8D
:10368400184607B010BC704700B583B00190012103
:103694000198FFF7CBFF0346184603B05DF804FB1F
:1036A40000B583B0019000210198FFF7D6FF0346CF
:1036B400184603B05DF804FB00B587B001901F4BBA
:1036C400FF229A601D4B00221A601C4B00225A6094
:1036D4001A4B0022C3F81824184B0022C3F81424F0
:1036E400164B002283F81C24154802F053FB049067
:1036F400049B002B01D0049B1CE0124A124BD31AEA
:10370400DB080393002305930FE0059A13465B003F
:1037140013449B001A460D4B13440293059B9AB223
:10372400029B1A80059B01330593059A039B9A42D9
:10373400EBD30023184607B05DF804FB7423002084
:1037440008AE020040AC0200F0AB02008021002071
:10375400024A034BD31ADB081846704740AC0200F8
:10376400F0AB020000B587B001900B468DF8033032
:103774009DF80330002B23D0FFF7EAFF04900023C9
:10378400059317E0059A13465B0013449B001A4601
:103794000E4B13440393039B5B881A46019B1B68DF
:1037A4009A4204D1019B059A1A60002309E0059B03
:1037B40001330593059A049B9A42E3D3052300E061
:1037C4000023184607B05DF804FB00BF80210020E9
:1037D40000B585B001900B468DF803309DF80320A9
:1037E40001AB11461846FFF7BDFF0346002B07D176
:1037F400019BDB00054A13440393039B1B6800E011
:103804000023184605B05DF804FB00BFF0AB0200CE
:1038140084B001900B468DF80330019BDB00174AFE
:10382400134402939DF80330013B032B1CD801A2DF
:1038340052F823F049380200513802005938020086
:103844006338020002238DF80F3011E004238DF851
:103854000F300DE0029B1B798DF80F3008E0029BBE
:103864005B798DF80F3003E000238DF80F3000BF33
:103874009DF80F30184604B0704700BFF0AB02004B
:1038840000B589B04148FFF7FFFE4148FFF7FCFE51
:10389400404B5B6807933F4B9B680493079A049BD8
:1038A400134002339B003B4A1344043306931BE04A
:1038B400079B01330793069B5B88C3F389139BB271
:1038C4001A46069B1B88C3F389139BB213441A46FA
:1038D400079B13440793079A049B134002339B00EE
:1038E4002C4A134404330693069B1B7803F003030A
:1038F400DBB2002BDCD00023059311E0079B5A1C9C
:103904000792049A1340059A920069460A44214991
:1039140002339B000B445B681360059B01330593E2
:10392400059B012BEAD99DF80030C3F30103DBB2F8
:10393400012B0CD0022B14D1BDF80230C3F3891330
:103944009BB203339B08079A134407930FE0BDF817
:103954000030C3F38313DBB21A46079B1344079367
:1039640005E00D4940F24D1004F0B6F800BF0848D8
:10397400FFF796FE0390039B002B02D0054A079B9A
:10398400536000BF09B05DF804FB00BF8C27002022
:1039940088270020742300202CAE020010B586B0C6
:1039A4000390029101920093039B1B0CADF8163017
:1039B400BDF81640FFF7CCFE03469C4204D32349CE
:1039C4004FF4B27004F088F8009B5A1C089B134013
:1039D400BDF816201E4902339B000B445A60009A1E
:1039E400089B134002339B00194A13440433049385
:1039F400039B1B0903F00103D9B2049A137861F302
:103A040082031370039B03F00703D9B2049A13785B
:103A140061F3C5031370019B03F00F03D9B2049A39
:103A2400138861F389131380029BC3F31501049A6D
:103A3400136861F39F231360049A1378012161F3DF
:103A44000103137000BF06B010BD00BF2CAE02000E
:103A54007423002000B58BB001900091019B0233C8
:103A640008930223079301238DF81B3000238DF85C
:103A74000F300DF10F03184601F040FC214B1A687A
:103A8400009B1A601F4B9A681E4B59681D4B1B689C
:103A9400CB1A134401330993089A079B13440593E3
:103AA4000BE0FFF7EDFE174B9A68164B5968154B60
:103AB4001B68CB1A134401330993059A099B9A4254
:103AC400EFD8104B1A680F4B9B68134002339B00CE
:103AD4000C4A134404330493049A137843F0030305
:103AE4001370084B1A68089B1344064A13609DF828
:103AF4000F30184601F018FC9DF81B3018460BB027
:103B04005DF804FB7423002000B58BB0059004918C
:103B1400039202931F4B9B68079306AB19460298C6
:103B2400FFF798FF0346002B24D0069B023309932A
:103B34000023089311E0089B9B00039A1A44099BF5
:103B4400591C099107990B401268124902339B00D2
:103B54000B445A60089B01330893089A029B9A42CB
:103B6400E9D3069A079B00931346029A0499059891
:103B7400FFF714FF074B93F81C34002B05D000BF4C
:103B840000F064F80346002BFAD100BF0BB05DF8D7
:103B940004FB00BF7423002000B583B001900091A2
:103BA4000023002200990198FFF7AEFF00BF03B085
:103BB4005DF804FB00B587B0039002910192019B6C
:103BC400059305AA012302990398FFF79DFF00BFFF
:103BD40007B05DF804FB00B587B003900291019231
:103BE4000093019B0493009B059304AA022302996A
:103BF4000398FFF789FF00BF07B05DF804FB00B529
:103C040089B00390029101920093019B0493009B5D
:103C140005930A9B06930B9B079304AA042302991A
:103C24000398FFF771FF00BF09B05DF804FB0000C3
:103C3400054B5A68044B1B689A420CBF01230023AE
:103C4400DBB21846704700BF7423002000B599B05A
:103C5400FFF7EEFF0346002B01D00023B3E19C4B9A
:103C64000022C3F81824BFF34F8F00BF984B5B6842
:103C74001793974B9B681093179A109B134002332A
:103C84009B00934A13440433169300231593002393
:103C9400149300230F931BE0179B01331793169B78
:103CA4005B88C3F389139BB21A46169B1B88C3F324
:103CB40089139BB213441A46179B13441793179AFC
:103CC400109B134002339B00814A13440433169320
:103CD400169B1B7803F00303DBB2002BDCD000231C
:103CE400139311E0179B5A1C1792109A1340139ABE
:103CF400920002A90A44764902339B000B445B6894
:103D04001360139B01331393139B012BEAD99DF882
:103D1400083003F00303DBB2022B40F09C80BDF8B3
:103D24000A30C3F389139BB20D93BDF80A30C3F371
:103D340089139BB2502B28BF50239BB20C930C9B2E
:103D4400C3F309039AB2BDF80A3062F38F13ADF8D6
:103D54000A300C9B08330B939DF80830C3F3C2035D
:103D6400DBB20F930B995B4802F01FF81590159B7B
:103D7400002B00F0E080159802F0A8F802A9149B2B
:103D84000822159802F04EF9149B08331493179BDC
:103D9400DA43109B134001339B000A930C9A0A9B4D
:103DA4009A4242D90A9B002B08D0179A109B1340C1
:103DB40002339B00464A1344043300E0464B089305
:103DC4000A9B002B02D00A9BDBB201E00C9BDBB206
:103DD4008DF81F300A9B002B01D03F4B00E00023DD
:103DE40006930A9B002B06D00C9BDAB20A9BDBB22B
:103DF400D31ADBB200E000238DF817309DF81F20A2
:103E0400149B0899159802F00DF99DF81F30149A27
:103E140013441493069B002B16D09DF81720149B73
:103E24000699159802F0FEF80EE0179A109B1340BD
:103E340002339B00264A134404330993149B0C9ABF
:103E44000999159802F0EEF80D9B03339B08179A15
:103E5400134417936FE09DF8083003F00303DBB2BB
:103E6400012B5AD1BDF80830C3F38313DBB2062B00
:103E740028BF0623DAB2BDF8083062F38913ADF81F
:103E84000830BDF80830C3F38313DBB202330E935A
:103E94009DF80830C3F3C203DBB20F930E9B9B0063
:103EA40019460C4801F081FF1590159B002B42D058
:103EB400159802F00BF802A9149B0822159802F039
:103EC400B1F8149B08331493002313931BE000BF31
:103ED4007423002008AE020080230020179B5A1C84
:103EE4001792109A134002339B00394A1344191D48
:103EF400149B0422159802F095F8149B0433149330
:103F0400139B01331393BDF80830C3F38313DBB25F
:103F14001A46139B9342E1D30DE09DF8083003F059
:103F24000303DBB2032B06D1294BD3F81834002B3F
:103F340001D1002347E0159B002B3ED0244BD3F83E
:103F440010341293224BD3F81834002B1AD015983E
:103F540001F0CBFF31E000238DF847301298FFF7D2
:103F64005EFB0346002B02D001238DF847309DF8F9
:103F74004730002B03D015991298FFF71BFB129BB7
:103F84005B681293129B002BE5D1159801F0ADFFED
:103F940000238DF807300DF10703184601F0AEF940
:103FA4000B4BD3F81834002B02D1094A179B5360EA
:103FB4009DF80730184601F0B7F9FFF739FE0346BC
:103FC40083F00103DBB2184619B05DF804FB00BFAF
:103FD4007423002000B585B00023039322E0164B20
:103FE400D3F81034029301238DF807300EE00298C1
:103FF400FFF706FB03461A46039B934203D10023B3
:104004008DF8073005E0029B5B680293029B002B4E
:10401400EDD19DF80730002B01D0039B07E0039BF3
:1040240001330393039B092BD9DD4FF0FF3318466B
:1040340005B05DF804FB00BF7423002000B585B013
:1040440001900B468DF80330FFF7C4FF0390039BE8
:10405400B3F1FF3F01D1039B1EE0039BDBB2194682
:104064000198FFF7C1FA0E4BD3F81034002B07D197
:104074000B4A019BC2F81034019B00225A600AE0EB
:10408400074BD3F810345A68019B5A60044BD3F899
:104094001034019A5A60039B184605B05DF804FB7E
:1040A4007423002000B583B00C4BD3F81034019373
:1040B4000A4B012283F81C2408E00198FFF7A7FAB1
:1040C4000198FFF785FA019B5B680193019B002B24
:1040D400F3D100BF00BF03B05DF804FB74230020DC
:1040E40010B582B001900091019BDB7983F001034C
:1040F400DBB2002B28D0019B1B7A002B12D0019B32
:104104009B881A46019B9B7919461046FFF780FB52
:1041140003461A460E4B53F822301A460D490098AE
:1041240001F066FA019B9B791A460B4B53F8224027
:10413400019B9B8800211846FFF74AFB0346224651
:104144000649009801F054FA00BF02B010BD00BF48
:104154002022002014AF02000C22002018AF02001D
:1041640000B585B00390029113468DF80730039B88
:10417400DB7983F00103DBB2002B0FD0039B1B7AA6
:10418400002B06D00D4B1B681A460D49029801F00E
:104194002FFA0C49029801F02BFA07E09DF807303A
:1041A400002B03D00749029801F022FA029801F08B
:1041B400FDF900BF05B05DF804FB00BF202200201C
:1041C40014AF020024AF020030B58BB00790069103
:1041D400059204930E9B1B7B8DF827300E9B0022C7
:1041E4001A730E990498FFF77BFF059B062B7FD863
:1041F40001A252F823F000BF194202002342020038
:104204003342020047420200654202008D4202002E
:10421400BD42020007990E9801F0EAF969E0069B95
:104224001B681A4607990E9801F0E2F961E0069BB3
:104234001A68069B04331B6807990E9801F0D8F995
:1042440057E0069B1A68069B04331968069B0833DB
:104254001B6800930B4607990E9801F0C9F948E0D2
:10426400069B1968069B04331868069B08331B6871
:10427400069A0C3212680192009303460A46079983
:104284000E9801F0B5F934E0069B1868069B0433D8
:104294001C68069B08331B68069A0C321268069940
:1042A400103109680291019200932346024607994E
:1042B4000E9801F09DF91CE0069B1C68069B0433D4
:1042C4001D68069B08331B68069A0C32126806990F
:1042D4001031096806981430006803900291019225
:1042E40000932B46224607990E9801F081F900E0CD
:1042F40000BF00220E990498FFF732FF0E9B9DF831
:1043040027201A7300BF0BB030BD00BF00B587B0C3
:104314000390029101920093029B082B5CD8009BAE
:104324001B7B8DF81330009B00221A7300990198AF
:10433400FFF7D6FE0023059314E0059A029B9A42E8
:1043440009D2039A059B13441B781A462449009802
:1043540001F04EF903E02349009801F049F9059B67
:1043640001330593059B072BE7D91F49009801F0FA
:104374003FF90023059322E0059A029B9A4217D243
:10438400039A059B13441B788DF812309DF8123064
:10439400184606F081FB0346002B02D09DF812302C
:1043A40000E02E231A461149009801F021F903E098
:1043B4000F49009801F01CF9059B01330593059BF7
:1043C400072BD9D9012200990198FFF7C9FE009B58
:1043D4009DF813201A7300E000BF07B05DF804FBDA
:1043E40028AF020030AF020034AF020038AF020041
:1043F4003CAF020000B589B0039002910192029B88
:104404009BB2ADF81430019B0693039B079305AB55
:104414001A46002144F2010000F052F800BF09B02E
:104424005DF804FB86B003900291019201238DF89C
:1044340017309DF81730214A039B13601F4A029BD3
:1044440053601E4A019B9360039B44F20102934212
:1044540013D0039B44F20202934222D1019B174AD8
:10446400D360164BDB681B881A46144B9A61134BB6
:10447400DB685B68114AD36113E0019B0F4A136147
:104484000E4B1B699B680D4A53610C4B1B691B88BF
:104494001A460A4B9A61094B1B695B68074AD36148
:1044A40000BF72B600BF00BF9DF81730DBB2002B0F
:1044B400FAD162B600BF00BF06B07047942700204F
:1044C40030B589B0059004910392FFF7EBFD00BF6E
:1044D400FFF7BCFB0346002BFAD1059B44F2020212
:1044E40093422BD0059B44F20202934254D8059B7D
:1044F40044F20102934231D0059B44F201029342FB
:104504004AD8059B012B05D0059B41F20102934239
:104514000AD041E02D4B1B881B0443F001032C49B6
:104524001846FFF739FB42E0284B1B881B0443F075
:10453400010328491846FFF72FFB38E0039B079334
:10454400224B1B881B0443F00100079B5B681A463F
:10455400079B1B882049FFF73EFB28E0039B06933B
:104564001A4B1B881B0443F00104069B9D68069BA1
:104574009B68184601F0D6FD03461946069B5B6806
:104584001A46069B1B88019300920B462A46134940
:104594002046FFF734FB0AE00C4B1B881B0443F056
:1045A4000103049A0E491846FFF704FB00BF0D4BA4
:1045B4001B6803F00103002B00D0FFDE039A04996B
:1045C4000598FFF72FFF00BF09B030BD8021002000
:1045D40040AF020060AF020084AF0200A0AF02004F
:1045E400B8AF0200F0ED00E082B003468DF807306A
:1045F4009DF8073003F01F0205499DF907305B0958
:10460400012000FA02F241F8232000BF02B07047F3
:1046140000E100E082B003468DF807309DF80730D2
:1046240003F01F0206499DF907305B09012000FAD7
:1046340002F2203341F8232000BF02B0704700BFCC
:1046440000E100E082B003468DF807309DF80730A2
:1046540003F01F0206499DF907305B09012000FAA7
:1046640002F2403341F8232000BF02B0704700BF7C
:1046740000E100E082B003468DF807309DF8073072
:1046840003F01F0206499DF907305B09012000FA77
:1046940002F2603341F8232000BF02B0704700BF2C
:1046A40000E100E082B0034600918DF807309DF9E7
:1046B4000730002B0CDA009BDAB20C499DF8073066
:1046C40003F00F03043B5201D2B20B441A7609E003
:1046D400009BDAB206499DF907305201D2B20B446D
:1046E40083F8002300BF02B0704700BF00ED00E074
:1046F40000E100E084B00190244B0393019B002B64
:1047040040D0234B1A680399019B00BF00BF00BF30
:1047140000BF00BF00BF00BF00BF8A422FD000BF50
:1047240000BF00BF00BF00BF00BF00BF00BF00BF8D
:1047340000BF00BF00BF00BF00BF00BF00BF00BF7D
:1047440000BF00BF00BF00BF00BF00BF00BF00BF6D
:1047540000BF00BF00BF00BF00BF00BF00BF00BF5D
:1047640000BF00BF00BF00BF00BF00BF00BF00BF4D
:1047740000BF00BF00BF00BF00BF00BF00BF013BC0
:10478400C3D1019300BF04B0704700BF0024F400FC
:104794004822002000B583B00190064A019BC2F86C
:1047A400083507211120FFF77DFF00BF03B05DF836
:1047B40004FB00BF0010014008B50D4B4FF48032DC
:1047C400C3F844230A4B4FF48032C3F80423112066
:1047D400FFF750FF1120FFF707FF054B01221A6076
:1047E4002F20FFF787FF034B01221A7000BF08BD7B
:1047F40000100140D228002008B51120FFF70AFF5D
:104804000E4B4FF48032C3F848230C4B4FF48032E4
:10481400C3F80823094B01225A602F20FFF76AFFCF
:10482400064B01229A60064B00221A602F20FFF7E4
:1048340061FF044B00221A7000BF08BD0010014044
:10484400C4280020D2280020024BD3F8043518468F
:10485400704700BF0010014082B001900091019A9E
:10486400009BD31A23F07F43184602B07047000020
:1048740082B00190034A019BC2F8403500BF02B0E8
:10488400704700BF0010014086B00190284B1B68A0
:10489400002B03D1264A019B136045E0019B1A6853
:1048A400234B1B681B689A4210D8214B1B6819685C
:1048B400019B1A681E4B1B688A1A1A601C4B1A68E3
:1048C400019BDA611A4A019B13602DE0019B1B686E
:1048D4000393174B1B680593154B1B68049309E05E
:1048E400049B1B68039AD31A0393049B0593049BAC
:1048F400DB690493049B002B04D0049B1B68039A7C
:104904009A42EDD8049B002B05D0049B1A68039BA4
:10491400D21A049B1A60019B039A1A60019B049AA1
:10492400DA61059B019ADA6100BF06B0704700BFE7
:10493400C028002000B587B001902A4B1B68039360
:10494400284B1B680593059B049308E0049A019B7C
:104954009A4208D0049B0593049BDB690493049B4F
:10496400002BF3D100E000BF049B002B01D10023F6
:1049740033E0059A049B9A4214D11A4B1B68DB69F5
:10498400184A1360174B1B68002B0BD1164B0122DE
:104994009A60164B00221A60154B01221A702F20C0
:1049A400FFF7A8FE049B1B680293049BDA69059B2E
:1049B400DA61059BDB690493049B002B05D0049BFF
:1049C4001A68029B1A44049B1A60064B1B68039ADC
:1049D4009A4214BF01230023DBB2184607B05DF8E6
:1049E40004FB00BFC028002000100140C4280020A0
:1049F400D328002008B51120FFF724FE00BF08BD0E
:104A040008B51420FFF71EFE00BF08BD00B583B033
:104A14000190019B5B69019A92691046984700BF17
:104A240003B05DF804FB000000B585B02B4B1B6898
:104A3400002B4ED000230193FFF706FF0246284BBC
:104A44001B6819461046FFF707FF0290234B1B68AB
:104A540003931DE0039B1B68029A9A421CD3039B99
:104A64001B68029AD31A0293039B1B68019A13448E
:104A74000193039B0093039BDB690393009B1B7CC3
:104A8400002B05D0009B00221A740098FFF7BEFF8C
:104A9400039B002BDED100E000BF124B1A78124BAF
:104AA4001B789A420CD1104B1B780133DAB20E4BAF
:104AB4001A700D4B1B78022B02D10B4B00221A707B
:104AC400094B1B781946094A019B42F82130FFF72C
:104AD40097FF00BF05B05DF804FB00BFC0280020AD
:104AE400C4280020D0280020D1280020C828002075
:104AF40082B00190184B1A78184B1B789A4223D035
:104B0400154B1B780133DAB2134B1A70124B1B7816
:104B1400022B02D1104B00221A700F4B1B781A463D
:104B24000F4B53F82220019B1A60019B1A680D4B0E
:104B34001B6813440B4A13600A4B1B6823F07F4322
:104B4400084A1360012303E0019B00221A6000233A
:104B5400184602B0704700BFD0280020D12800209A
:104B6400C8280020C428002088B003900291019234
:104B74000023079338E0204B1B680693069B1B68B1
:104B8400039A9A4206D2069B1A68039BD21A069B82
:104B94001A602EE0069B1B68039AD31A0393069BA4
:104BA4001B68079A13440793069B00221A60124B52
:104BB4001B680593069BDB690F4A1360069BDB6841
:104BC400002B11D0029A079B134423F07F42069BCB
:104BD4005A60069BDA68069B9A60019B1A68069BDA
:104BE400DA61019B059A1A60034B1B68002BC2D142
:104BF40000BF00BF08B07047C028002000B589B0CE
:104C0400019000238DF81F30664B1B680593AAE0C2
:104C1400019B002B05D0019B0693069BDB69019346
:104C240061E0614B1B781A4613465B001344DB00BA
:104C34005D4A1344043304935B4B1B780133DAB2AB
:104C4400594B1A70584B1A78574B9B789A4202D199
:104C5400554B00221A70049B5B680693049B1B78D7
:104C6400032B1ED0032B7EDC012B1FD0022B7AD109
:104C7400049B5B681846FFF75DFE0346002B02D0D9
:104C840001238DF81F30069B00221A746BE0454BFC
:104C94001B680393039B00221A74039BDB69414A3C
:104CA4001360404B1B68002BF1D15CE000BF069BF6
:104CB4001B7C002B00D056E0049B9A68069B5A602C
:104CC400049BDA68069B9A60049B1A69069BDA6067
:104CD400049B5A69069B9A61344B1B78002B02D0C3
:104CE400069B00225A60069B5A68314B1B68D31AF4
:104CF40023F07F432F4A93420ED8069B5B682C4ACD
:104D0400126811461846FFF7A7FD0246069B9B68EA
:104D14001A44069B1A6017E0254B1A68069B5B68C9
:104D240019461046FFF798FD0290069B9B68029A6D
:104D34009A4206D2069B9A68029BD21A069B1A6074
:104D440002E0069B00221A60069B00225A60069B22
:104D540000229A60069B01221A74069B0022DA61E3
:104D64000698FFF791FD019B002B7FF451AF0E4B8A
:104D74001A780D4B5B789A427FF44AAF9DF81F3046
:104D8400002B04D1074B1B68059A9A4201D00123DA
:104D940000E0002303F00103DBB2184609B05DF81C
:104DA40004FB00BFC0280020B4270020D328002023
:104DB400C4280020FEFF7F0010B588B00190274B67
:104DC4001B68002B44D0254B1B681B680793FFF717
:104DD4003BFD0690224B1B68059305990698FFF747
:104DE4003BFD0346033304931E4B1B7883F00103FE
:104DF400DBB2002B01D0FFF7DFFC049A079B934240
:104E040038BF1346059A13440593059B23F07F434B
:104E140005930598FFF72CFDFFF716FD03900699FF
:104E24000398FFF719FD0346DC1C06990598FFF764
:104E340013FD03469C420DD9FFF706FD03461846B1
:104E4400FFF716FD2F20FFF755FCFFF7D3FD01E018
:104E5400FFF7D2FC00BF08B010BD00BFC02800207F
:104E6400C4280020D228002000B587B00023019375
:104E740000238DF81730194B1B680493184B1B68DB
:104E840003936B461846FFF733FE03468DF80B3049
:104E94009DF80B30002B08D0009B01AA04991846FA
:104EA400FFF762FE01238DF81730019B1846FFF7C8
:104EB400A5FE0346002B02D001238DF817309DF880
:104EC4001730002B02D00398FFF776FF054B002222
:104ED4001A7000BF07B05DF804FB00BFC4280020AF
:104EE400C0280020D328002082B003468DF8073064
:104EF400034A9DF80730537000BF02B0704700BFEB
:104F0400B427002084B00190144B5B7801338DF8F2
:104F14000F30124B9B789DF80F209A4202D1002348
:104F24008DF80F300D4B1B789DF80F209A4201D15C
:104F340000230FE0019B9DF80F201A70074B5B784C
:104F44001A4613465B001344DB00044A134404333B
:104F54000293029B184604B0704700BFB427002098
:104F640000B589B003900291019200930023079346
:104F740000238DF816300DF11603184600F0BEF923
:104F84000DF117031846FFF7BDFF0690069B002B93
:104F940002D10423079318E0069B01221A70069B92
:104FA400039A5A60FFF750FC0246069B9A60069BE0
:104FB400029ADA60069B019A1A61069B009A5A616A
:104FC4009DF817301846FFF78FFF9DF816301846E6
:104FD40000F0AAF9079B002B01D1FFF711FD079BF5
:104FE400184609B05DF804FB00B587B001900B4684
:104FF4008DF803300023059300238DF80E300DF156
:105004000E03184600F07AF90DF10F031846FFF766
:1050140079FF0490049B002B02D1042305930BE039
:10502400049B9DF803201A70049B019A5A609DF812
:105034000F301846FFF758FF9DF80E30184600F061
:1050440073F9059B002B01D1FFF7DAFC059B184689
:1050540007B05DF804FB000008B50E4B0022C3F84E
:1050640040210C4B0022C3F844210A4B0022C3F810
:105074004821084B0022C3F84C21064B0022C3F8F8
:105084000021044B0022C3F80421FFF7CDFC00BF2C
:1050940008BD00BF0010014008B5FFF7E5FE00BFE2
:1050A40008BD000008B5FFF7A7FB134B00221A70D8
:1050B400114B00225A70104B0B229A700F4B002296
:1050C4001A600F4B00221A700E4B00221A70142023
:1050D400FFF7D0FA07211420FFF7E4FA1420FFF7B2
:1050E40083FA0020FFF756FBFFF7AEFB0346064AA0
:1050F40013600023184608BDB4270020C0280020F0
:10510400D0280020D1280020C428002086B0039095
:105114000B4601928DF80B30134B9B78002B01D179
:1051240008231EE0019B002B01D1072319E0039BF8
:10513400002B01D1072314E0039B1B681B7C002B6D
:1051440001D008230DE0039B1B680593059B0022F7
:105154001A74059B9DF80B205A74059B019A5A6199
:105164000023184606B07047B427002000B587B066
:10517400039002910192039B0593144B9B78002B9F
:1051840001D108231EE0039B002B01D1082319E061
:10519400029B042B01D8072314E0059B5B69002BB9
:1051A40001D108230EE0059B5B7C012B01D1029BFE
:1051B40000E000230493019B049A02990598FFF7E9
:1051C400CFFE0346184607B05DF804FBB427002061
:1051D40000B585B00190019B03930D4B9B78002B88
:1051E40001D1082310E0019B002B03D0039B5B69D2
:1051F400002B01D1082307E0039B00221A7402212B
:105204000398FFF7F1FE0346184605B05DF804FB6A
:10521400B427002082B0EFF310830093009B019326
:1052240072B600BF019B184602B0704762B600BF59
:1052340000BF704700B585B00190FFF7EBFF039006
:10524400164B9B68002B1BD1144B01229A60144B04
:10525400D3F88020134B1340104A1360104B114AAB
:10526400C3F880200E4BD3F884300C4A53600C4BA7
:105274004FF0FF32C3F88420019B00221A7002E031
:10528400019B01221A70039B002B01D1FFF7CEFF73
:105294000023184605B05DF804FB00BFD4280020A5
:1052A40000E100E0FC06FFBD00B585B003468DF8C3
:1052B4000730104B9B68002B16D09DF80730002B4D
:1052C40012D1FFF7A7FF03900B4A0A4B1B68136028
:1052D400094A084B5B685360064B00229A60039BA3
:1052E400002B01D1FFF7A2FF0023184605B05DF89B
:1052F40004FB00BFD428002000E100E000B583B027
:10530400019000F02BF80346012B03D005494320FC
:1053140002F0E2FB0198FFF78DFF00BF03B05DF8D8
:1053240004FB00BFD0AF020000B583B003468DF884
:10533400073000F013F80346012B03D0064951202F
:1053440002F0CAFB9DF807301846FFF7ADFF00BF17
:1053540003B05DF804FB00BFD0AF020084B0EFF3EC
:1053640005830193019BC3F308030393039B002B61
:105374000DD1EFF314830093009B0293029B03F07F
:105384000103002B0CBF01230023DBB200E0012347
:10539400184604B07047000000B583B001900B4676
:1053A4008DF80330019B002B03D10849AF2002F094
:1053B40093FB019BDA689DF803300199098A01FB8C
:1053C40003F31344184603B05DF804FB48B002002D
:1053D40000B583B001900091019B002B03D10849D3
:1053E400BC2002F079FB009B019AD2689B1A019AB7
:1053F400128AB3FBF2F3DBB2184603B05DF804FB88
:1054040048B0020000B585B00190019B002B01D18A
:105414000E2348E0019B1B68002B03D12449C620BE
:1054240002F05AFB019B5B68002B03D12049C72083
:1054340002F052FB019B9B68002B03D11C49C8203E
:1054440002F04AFB019BDB68002B03D11849C920F9
:1054540002F042FB019B1B8A002B03D11449CA2092
:1054640002F03AFB019B9A68019B5B68D31A8DF8A2
:105474000F30019B1B68019A52681A6007E0019B78
:105484001A681368591C11609DF80F201A709DF852
:105494000F305A1E8DF80F20002BF0D1019B1B6892
:1054A40000221A710023184605B05DF804FB00BF02
:1054B40048B0020000B585B00190019B002B03D1D8
:1054C4001F49EC2002F008FB0023039300238DF80E
:1054D4000A300DF10A031846FFF710FF019B1B6801
:1054E4001A68019B5B689A421FD9019B1B681A6862
:1054F400013A1A601B681B7819460198FFF74CFFA4
:105504000390019B9A68019B1B681B68D31A8DF852
:105514000B30019B1B681B799DF80B209A4204D920
:10552400019B1B689DF80B201A719DF80A301846E0
:10553400FFF7FAFE039B184605B05DF804FB00BFB5
:1055440048B0020010B584B001900091019B002B7B
:1055540004D115494FF4887002F0BEFA009B002B69
:1055640004D1114940F2111002F0B6FA009B0393E2
:1055740000238DF80B300DF10B031846FFF7BEFE28
:10558400019B1B681C68621C1A6003990198FFF751
:105594001FFF034623709DF80B301846FFF7C4FE27
:1055A40000BF04B010BD00BF48B0020000B583B016
:1055B4000190019B002B03D10C49312002F08CFA9D
:1055C400019B9B68002B0CD0019B5B69019A1069BD
:1055D400019A1168019A92689847019B00229A6087
:1055E40000E000BF03B05DF804FB00BFB4B00200EC
:1055F4000EB400B584B00190019B002B03D118496F
:10560400422002F069FA019B5B69002B03D1144923
:10561400432002F061FA019B1B68002B03D110495F
:10562400442002F059FA019B5B68002B03D10C491A
:10563400452002F051FA059B002B0AD00023039366
:1056440006AB039303AB1A460599019800F0B0F931
:1056540000E000BF04B05DF804EB03B0704700BF86
:10566400B4B0020000B583B001900B468DF803304E
:10567400019B1A68019B9B68581C0199886013441C
:105684009DF803201A70019B9A68019B5B689A42FB
:1056940002D30198FFF78AFF00BF03B05DF804FB53
:1056A40000B587B003900291019200930023059303
:1056B400009B03F00103002B24D00BE0029B013379
:1056C4000293059B013305939DF813301946039803
:1056D400FFF7C8FF029B1B788DF813309DF8133039
:1056E400002BEBD106E0019B013B019320210398A1
:1056F400FFF7B8FF019A059B9A422ED9019B002B14
:10570400F1D12AE0029B002B0BD0029805F025FA78
:10571400059006E0019B013B019320210398FFF7CC
:10572400A1FF019A059B9A420FD9019B002BF1D14D
:105734000BE0029B01330293059B013305939DF813
:10574400133019460398FFF78DFF029B1B788DF8E1
:1057540013309DF81330002BEBD100BF07B05DF878
:1057640004FB000000B589B00390029101920093FC
:10577400029B07930123069307E0079A019BB2FB60
:10578400F3F30793069B01330693079A019B9A420E
:10579400F3D2009A069B9A4201D9009B06930B9B75
:1057A40003F00103002B22D10A9B002B1FD00B9B7B
:1057B40003F00203002B06D0009B002B03D13023FF
:1057C4008DF8173002E020238DF8173008E00A9B8B
:1057D400013B0A939DF8173019460398FFF742FFDF
:1057E4000A9B002B03D0069A0A9B9A42EFD301230B
:1057F4000793009B012B03D9009B013B009309E015
:10580400029A079BB2FBF3F30493049A019B9A4216
:1058140000D205E0079B019A02FB03F30793E8E734
:10582400029A079BB2FBF3F30493049B079A02FBCF
:1058340003F3029AD31A0293154A049B13441B7868
:1058440019460398FFF70EFF079A019BB2FBF3F387
:105854000793079B002BE3D10B9B03F00103002B61
:1058640011D00A9B002B0ED006E00A9B013B0A9341
:1058740020210398FFF7F6FE0A9B002B03D0069A1B
:105884000A9B9A42F1D300BF09B05DF804FB00BF44
:105894007CB1020000B589B0059004910392029393
:1058A400049B002BB8BF5B4206930123079307E0D8
:1058B400039B069A92FBF3F30693079B013307932A
:1058C400039B069A9A42F3DA029A079B9A4201D9F9
:1058D400029B07930A9B002B0AD0049B002B04DB3A
:1058E4000B9B03F00403002B02D00A9B013B0A9399
:1058F4000B9B03F00203002B02D0029B002B16D05B
:105904000B9B03F00103002B11D10A9B002B0ED03B
:1059140006E00A9B013B0A9320210598FFF7A2FEAB
:105924000A9B002B03D0079A0A9B9A42F1D3049B4B
:10593400002B07DA049B5B4204932D210598FFF7A3
:1059440091FE08E00B9B03F00403002B03D02B21F2
:105954000598FFF787FE0B9B03F00203002B19D079
:105964000B9B03F00103002B14D1029B002B11D1DC
:105974000A9B002B0ED006E00A9B013B0A933021C0
:105984000598FFF76FFE0A9B002B03D0079A0A9B2A
:105994009A42F1D304990B9B01930A9B0093029BB7
:1059A400039A0598FFF7DEFE00BF09B05DF804FB1B
:1059B40000B58FB0059004910392059B002B04D190
:1059C400AD494FF49F7002F087F8059B5B69002B8B
:1059D40004D1A9494FF4A07002F07EF8059B1B681E
:1059E400002B04D1A44940F2411002F075F8059B44
:1059F4005B68002B04D1A0494FF4A17002F06CF84D
:105A0400049B002B00F09381049B1B788DF83730A6
:105A1400049B013304939DF83730002B00F07E8102
:105A24009DF83730252B40F06D8100230A93012324
:105A34000C93049B1B788DF837309DF83730302B4E
:105A44000DD0302B1BDC2B2B11D02D2B17D10A9B07
:105A540043F001030A93049B0133049312E00A9B6D
:105A640043F002030A93049B013304930AE00A9B64
:105A740043F004030A93049B0133049302E00023DC
:105A84000C9300BF0C9B002BD3D1002309939DF8EA
:105A940037302A2B0CD1039B1B68191D039A116004
:105AA4001B68099A13440993049B013304931AE075
:105AB400049B1B788DF837309DF837302F2B12D983
:105AC4009DF83730392B0ED8049B01330493099A7F
:105AD40013469B0013445B001A469DF83730134469
:105AE400303B0993D3E700230B93049B1B788DF879
:105AF40037309DF837302E2B1DD1049B013304938E
:105B0400049B1B788DF837309DF837302F2B12D932
:105B14009DF83730392B0ED8049B013304930B9A2C
:105B240013469B0013445B001A469DF83730134418
:105B3400303B0B93E4E7049B1B788DF837309DF8DA
:105B440037306C2B03D09DF83730682B07D1049B7A
:105B540001330493049B1B788DF83730EFE79DF8ED
:105B64003730252B00F0C480252BC0F2C680782B5B
:105B740000F3C380582BC0F2C080583B202B00F2A6
:105B8400BC8001A252F823F0815C0200FF5C020099
:105B9400FF5C0200FF5C0200FF5C0200FF5C02008D
:105BA400FF5C0200FF5C0200FF5C0200FF5C02007D
:105BB400FF5C0200115C0200335C0200FF5C020027
:105BC400FF5C0200FF5C0200FF5C0200335C020029
:105BD400FF5C0200FF5C0200FF5C0200FF5C02004D
:105BE400FF5C0200FF5C0200C15C0200FF5C02007B
:105BF400FF5C0200A55C0200FF5C0200575C02002F
:105C0400FF5C0200FF5C0200815C0200039B1B68D6
:105C1400191D039A11601B680C930C9B8DF81F309F
:105C24009DF81F3019460598FFF71CFD66E0039B9D
:105C34001B68191D039A11601B680C930A9B01933E
:105C4400099B00930B9B0A220C990598FFF722FEEF
:105C540054E0039B1B68191D039A11601B680C9385
:105C64000C990A9B0193099B00930B9B0A220598AC
:105C7400FFF778FD42E000BF14B10200039B1B68EC
:105C8400191D039A11601B680C930C990A9B0193CC
:105C9400099B00930B9B10220598FFF763FD2DE0F1
:105CA400039B1B68191D039A11601B6808930A9BC8
:105CB400099A08990598FFF7F3FC1FE0039B1B68FA
:105CC400191D039A11601B680C9330210598FFF786
:105CD400C9FC78210598FFF7C5FC0C9900230193B2
:105CE40008230093082310220598FFF73BFD05E0E5
:105CF40025210598FFF7B6FC00E000BF049B0133A3
:105D0400049305E09DF8373019460598FFF7AAFC7F
:105D1400049B1B78002B7FF477AE00E000BF059B4B
:105D24001B7B002B04D00598FFF740FC00E000BF6C
:105D34000FB05DF804FB00BF10B487B00190009170
:105D4400019B009A53E8004F04EB020043E8000172
:105D540091F0000FF6D1059404900391049B18462A
:105D640007B010BC704710B487B001900091019B3C
:105D7400009A53E8004FA4EB020043E8000191F0BD
:105D8400000FF6D1059404900391049B184607B0C4
:105D940010BC704700B583B001900198FFF732FB47
:105DA4000346184603B05DF804FB00B58BB00190C0
:105DB4000091019B1B8A043B0793009A079B1344A1
:105DC400DA1C079BB2FBF3F38DF81B300198FFF745
:105DD40071FB0590059B002B01D1002338E0059B46
:105DE40000221A71059B01225A71079B9AB2059BE6
:105DF400DA80059B09939DF81B30013B0493099BB2
:105E0400019A1A60002308931DE00198FFF752FBE2
:105E14000390039B002B0ED0059B5B790133DAB210
:105E2400059B5A71099B039A1A60039B019A1A6095
:105E3400039B099304E0059800F00EF8002307E0A3
:105E4400089B01330893089A049B9A42DDD3059B6F
:105E540018460BB05DF804FB00B58BB00190019BB4
:105E64000793079B5B798DF81B30019B08939DF882
:105E74001B30013B05930023099305E0089B1B6835
:105E84000893099B01330993099A059B9A42F5D318
:105E9400089B1B680493019B0893002309930BE060
:105EA400089B1B68039308990498FFF74BFB039B1B
:105EB4000893099B013309939DF81B30099A9A4270
:105EC400EED300BF00BF0BB05DF804FB00B585B096
:105ED4000190019B0393039B043301211846FFF7B0
:105EE4002BFF00BF05B05DF804FB00B587B001903F
:105EF400019B0593059B043301211846FFF733FFEB
:105F04000346039303AB0493049B1B78002B02D139
:105F14000198FFF7A1FF00BF07B05DF804FB000084
:105F240000B58DB00390029101920093039B0693F8
:105F3400069BDB880593039B0B93009B1A1D059B13
:105F4400B2FBF3F30A93009B0433059AB3FBF2F21A
:105F5400059901FB02F29B1A0993009A019B1A44CA
:105F6400059B1344DA1C059BB2FBF3F38DF8133045
:105F7400069B5B799DF813209A420AD92849BA20D6
:105F840001F0AAFD05E00B9B1B680B930A9B013BE8
:105F94000A930A9B002BF6D100230893059A099BC8
:105FA400D31A0793079A019B934228BF134607937A
:105FB4002DE09DF83830002B0BD0029A089BD018A6
:105FC4000B9A099B13440433079A194604F069FD9C
:105FD4000AE00B9A099B1344181D029A089B134468
:105FE400079A194604F05DFD002309930B9B1B6877
:105FF4000B93019A079BD31A0193089A079B1344A6
:106004000893059A019B934228BF13460793019B6B
:10601400002BCED100BF00BF0DB05DF804FB00BF64
:106024008CB1020000B587B00590049103920293ED
:1060340000230093029B039A04990598FFF770FFCD
:1060440000BF07B05DF804FB00B587B0059004916C
:106054000392029301230093029B039A04990598E7
:10606400FFF75EFF00BF07B05DF804FB00B583B027
:1060740001900091019B002B03D11049502001F0A5
:106084002BFD009B002B03D10C49512001F024FD72
:10609400019B009A1A60019B1B681A68019B5A6055
:1060A400019B5A68019B1B685B689A4202D1019B61
:1060B40000225A6000BF03B05DF804FB0CB3020079
:1060C40000B583B00190019B002B03D114496320D8
:1060D40001F002FD019B1B68002B03D110496420D1
:1060E40001F0FAFC019B5B68002B14D0019B5B68F8
:1060F4001A46019B1B689B6813441A46019B5A600D
:10610400019B5A68019B1B685B689A4204D1019BFE
:1061140000225A6000E000BF03B05DF804FB00BF3A
:106124000CB3020000B585B00190019800F00EF8A0
:106134000390039B002B01D0039B00E0024B184605
:1061440005B05DF804FB00BF90B3020086B0019077
:10615400164B0593164B04931FE0049A059BD31A20
:10616400DB10DA0F13445B10DB00059A134403932E
:10617400039B1B680293029A019B9A4202D9039BD8
:1061840004930AE0029A019B9A4203D2039B0833C8
:10619400059302E0039B5B6804E0059A049B9A4222
:1061A400DBD30023184606B0704700BFACB602002C
:1061B4009CB7020082B001900B46ADF80230019BFF
:1061C4001A68BDF80230012101FA03F31A43019B56
:1061D4001A6000BF02B0704782B001900B46ADF860
:1061E4000230019B1A68BDF80230012101FA03F361
:1061F400DB431A40019B1A6000BF02B0704782B0B3
:1062040001900B46ADF80230BDF80230012202FACB
:1062140003F31A46019B1340002B14BF01230023F0
:10622400DBB2184602B0704700B585B00190002378
:10623400ADF80E3010E0BDF80E3019460198FFF7A6
:10624400DEFF0346002B02D0BDF80E300AE0BDF895
:106254000E300133ADF80E30BDF80E301F2BEAD9E5
:106264004FF6FF73184605B05DF804FB00B587B020
:106274000590049111461A460B46ADF80E301346AC
:106284008DF80D30BDF80E209DF80D3000931346A7
:1062940001220499059800F004F800BF07B05DF8E6
:1062A40004FB00B587B0039002910192ADF802306F
:1062B400039B002B3BD0029B002B38D0019B002B6F
:1062C40035D0002305932FE0059B5B00039A13440C
:1062D4001B88BDF802209A4223D1002304931BE0BB
:1062E4009DF82030002B0AD0049B9B00029A134493
:1062F400059A92B211461846FFF75CFF09E0049B29
:106304009B00029A1344059A92B211461846FFF76D
:1063140063FF049B01330493049A019B9A42DFD3E5
:1063240005E0059B01330593059B1F2BCCD907B0D2
:106334005DF804FB00B597B003900291019200232D
:106344000493029B002B1ED00023159318E0159B89
:106354009BB219460198FFF752FF0346002B0CD05D
:10636400159B5B00029A1A44049B591C04911288E1
:106374005B0016A90B4423F8442C159B0133159399
:10638400159B1F2BE3D9039B184604AB44221946E3
:1063940004F087FB039817B05DF804FB00B583B0E5
:1063A4000190019B1B681F2B04D905494FF4E87029
:1063B40001F092FB4FF0A043184603B05DF804FBD4
:1063C4009CB7020000B585B00190084611461A46F4
:1063D40003468DF803300B468DF8023013468DF8D2
:1063E400013001AB1846FFF7D9FF03909DF8032055
:1063F4009DF802305B001A439DF801309B001A435C
:106404009DF818301B0242EA03019DF81C301B045E
:10641400019A1943039B02F5E07243F8221000BF6E
:1064240005B05DF804FB00B585B00390002301932B
:10643400002300930023012201210398FFF7C2FFE8
:1064440000BF05B05DF804FB00B585B0019001AB59
:106454001846FFF7A3FF0390019B012202FA03F3FE
:106464001946039800F02AF800BF05B05DF804FB54
:1064740000B585B0019001AB1846FFF78FFF03907C
:10648400019B012202FA03F31946039800F020F855
:1064940000BF05B05DF804FB00B583B00190009126
:1064A400009B002B03D10198FFF7E2FF02E0019863
:1064B400FFF7CAFF00BF03B05DF804FB82B0019090
:1064C4000091019B009AC3F8082500BF02B07047F1
:1064D40082B001900091019B009AC3F80C2500BF83
:1064E40002B0704700B583B00190019B022B03D921
:1064F40007493E2001F0F0FA064A019B13441B7839
:1065040000211846FFF7C8FF00BF03B05DF804FB85
:10651400D4B7020030B8020000B583B00190019BEB
:10652400022B03D90749442001F0D6FA064A019BFD
:1065340013441B7801211846FFF7AEFF00BF03B0D8
:106544005DF804FBD4B7020030B8020000B583B094
:106554000023019305E00198FFF7DEFF019B01335F
:106564000193019B022BF6D900BF00BF03B05DF875
:1065740004FB000000B583B00023019309E0094A3D
:10658400019B13441B781846FFF74DFF019B013311
:106594000193019B022BF2D9FFF7D8FF00BF03B090
:1065A4005DF804FB30B8020082B003468DF8073072
:1065B4009DF8073003F01F0206499DF907305B0977
:1065C400012000FA02F2203341F8232000BF02B078
:1065D400704700BF00E100E082B001904FF08042BC
:1065E400019BC2F8083300BF02B0704782B0034673
:1065F4008DF807309DF8073003F1804301221A60BB
:1066040000BF02B0704784B00346ADF80630BDF851
:10661400063003F1804300221A60BDF8063003F10E
:1066240080431B680393039B00BF04B0704782B090
:106634000346ADF80630BDF8063003F180431B680D
:10664400002B14BF01230023DBB2184602B07047AD
:1066540082B003468DF807309DF807304FF0804232
:1066640003F00303C2F8183500BF02B070474FF0BF
:106674008043D3F818341B0C03F00103002B14BF20
:1066840001230023DBB218467047000082B00346A2
:106694008DF807300A4A9DF907305B0952F8232028
:1066A4009DF8073003F01F03012101FA03F313409F
:1066B400002B14BF01230023DBB2184602B070473D
:1066C40000E100E008B50020FFF7E0FF034683F097
:1066D4000103DBB2002B03D00721002000F09AF95C
:1066E40000BF08BD08B503F053FF034683F0010360
:1066F400DBB2002B03D10949842001F0EDF90C2011
:10670400FFF774FF00BFFFF7B2FF0346002BFAD177
:10671400034B00229A7000BF08BD00BF3CB80200C2
:10672400E028002000B583B000230193134B1B78AD
:10673400002B02D0852301931BE0104B00229A60AA
:106744000E4B00225A600D4B00221A610B4B0022A3
:10675400DA60FFF7B7FF03F01BFF034683F0010382
:10676400DBB2002B02D00120FFF772FF034B0122A2
:106774001A70019B184603B05DF804FBE028002062
:1067840084B00190019B1B680393039B002B03D0EF
:10679400039B1A68019B1A60039B184604B0704758
:1067A40000B583B0164B1B78002B04D115494FF468
:1067B4008E7001F091F9124BDB68002B04D1114962
:1067C40040F21D1001F088F900238DF807300DF117
:1067D40007031846FEF792FD094BDB68013B084AA4
:1067E400D360074BDB68002B01D1FFF77BFF9DF8DB
:1067F40007301846FEF798FD00BF03B05DF804FBB0
:10680400E02800203CB8020000B585B003468DF8AE
:1068140007309DF80730002B02D10C4B039301E0A5
:106824000B4B03930398FFF7ABFF0290029B002BE3
:1068340006D0029B5B689DF8072010469847F1E755
:1068440000BF00BF05B05DF804FB00BFE8280020CE
:10685400F028002008B54FF48070FFF7E8FE0346E7
:10686400002B0CD04FF48070FFF7CDFE0120FFF712
:10687400B3FE0E4B01225A700020FFF7C5FF4FF400
:106884008270FFF7D4FE0346002B0CD04FF48270C5
:10689400FFF7B9FE0220FFF79FFE044B01229A7016
:1068A4000120FFF7B1FF00BF08BD00BFE0280020B2
:1068B40000B583B001900091019B002B02D1002010
:1068C400FFF7A2FF00BF03B05DF804FB00B585B07D
:1068D400034600918DF807309DF80730032B29D02B
:1068E400032B37DC002B02D0012B04D032E0002034
:1068F400FFF75AFE2FE000238DF80F300DF10F0340
:106904001846FEF7FBFC164B1B7883F00103DBB241
:10691400002B01D0FFF706FF114BDB680133104A4F
:10692400D3600F4B01229A709DF80F301846FEF782
:10693400FBFC10E00A4B1B78002B04D1094940F200
:106944005B2001F0C9F80721002000F063F8FFF78D
:1069540027FF00E000BF00BF05B05DF804FB00BFE7
:10696400E02800203CB8020082B003468DF80730CE
:106974009DF8073003F01F0205499DF907305B09B4
:10698400012000FA02F241F8232000BF02B0704750
:1069940000E100E082B003468DF807309DF807302F
:1069A40003F01F0206499DF907305B09012000FA34
:1069B40002F2603341F8232000BF02B0704700BFE9
:1069C40000E100E082B0034600918DF807309DF9A4
:1069D4000730002B0CDA009BDAB20C499DF8073023
:1069E40003F00F03043B5201D2B20B441A7609E0C0
:1069F400009BDAB206499DF907305201D2B20B442A
:106A040083F8002300BF02B0704700BF00ED00E030
:106A140000E100E000B583B003460A468DF8073074
:106A240013468DF806309DF80630012B03D99DF8E6
:106A34000630032B0CD99DF80630042B03D99DF89E
:106A44000630072B04D90D494FF4927001F044F835
:106A54009DF806209DF9073011461846FFF7B2FF4E
:106A64009DF907301846FFF795FF9DF90730184642
:106A7400FFF77AFF00BF03B05DF804FBACB8020077
:106A840000B583B00346ADF80630BDF806301846AD
:106A940000F026F803461B68012B0CBF01230023DA
:106AA400DBB2184603B05DF804FB00B585B00346BD
:106AB400ADF80630BDF80630184600F011F803466C
:106AC4001A4600231360BDF80630184600F008F893
:106AD40003461B680393039B00BF05B05DF804FBEA
:106AE40082B00346ADF80630BDF8063003F18043AA
:106AF40003F5C043184602B07047000082B001900D
:106B0400034BD3F80423019B1340184602B070478B
:106B14000060004082B00190054A019B03F5A27316
:106B240052F823301B0A03F01F03184602B07047C3
:106B34000060004082B00190064A019B03F5A273F5
:106B440052F823301B0C03F00303DBB2184602B0E7
:106B5400704700BF0060004000B583B00190019B06
:106B64001B681F2B04D905494FF4E87000F0B4FFEB
:106B74004FF0A043184603B05DF804FB1CB90200B3
:106B840000B585B001900B468DF8033001AB184673
:106B9400FFF7E2FF0390019A039B02F5E07253F8BA
:106BA4002230019A23F44031039B02F5E07243F84A
:106BB4002210019A039B02F5E07253F822309DF8EB
:106BC400032012041146019A1943039B02F5E07253
:106BD40043F8221000BF05B05DF804FB00B585B092
:106BE400019001AB1846FFF7B7FF0390019A039B8E
:106BF40002F5E07253F822301B0C03F00303DBB2FE
:106C0400184605B05DF804FB82B00190019BD3F8EF
:106C14001035184602B0704700B587B00390029152
:106C240001924FF0A0430493039A029B1344012B57
:106C340004D912494FF43A7000F04EFF039B0593B8
:106C440011E0059B9B0006AA134453F8083C184620
:106C5400FFF7DAFF0246019B1A60019B043301939C
:106C6400059B01330593039A029B1344059A9A42A8
:106C7400E7D300BF00BF07B05DF804FB1CB90200F6
:106C840084B001900091009B0393019BDB08029365
:106C9400019B03F0070301930122019B02FA03F312
:106CA4000399029A0A4412781340184604B07047B4
:106CB40084B001900091009B0393019BDB08029335
:106CC400019B03F007030193039A029B13441B786F
:106CD4005AB20121019B01FA03F35BB2134359B287
:106CE400039A029B1344CAB21A7000BF04B07047DF
:106CF40082B00190044A019B1344303393F900306D
:106D0400184602B0704700BFF428002082B00190FA
:106D1400034A019B52F82330184602B0704700BF63
:106D2400F428002000B595B00023109300230393AA
:106D34004FF48073ADF84C300123129300230F936A
:106D440021E0BDF84C301846FFF79AFE0346002BAD
:106D54000ED01298FFF7D2FE0346002B08D0BDF8E0
:106D64004C301846FFF7A1FE109A129B1343109360
:106D7400129B5B001293BDF84C300433ADF84C30D9
:106D84000F9B01330F930F9B072BDAD94FF4BE707F
:106D9400FFF776FE0346002B0DD04FF4BE70FFF7CD
:106DA40084FE109B43F00043109303AB1A46012169
:106DB4000020FFF731FF109BDBB2002B29D0012309
:106DC400129300230F9321E0129A109B1340002B7F
:106DD40016D00F98FFF79EFE0D900F98FFF7AAFEAE
:106DE40003468DF833300F98FFF790FF0B900B9B01
:106DF400002B05D09DF833200B9B11460D98984726
:106E0400129B5B0012930F9B01330F930F9B072B75
:106E1400DAD9109B002B80F2EE8000238DF84F30DE
:106E240000230293002311930AE0119B9B0014AAF0
:106E340013444FF0FF3243F84C2C119B0133119350
:106E4400119B002BF1D000238DF84F3000230F93BA
:106E540078E06B4A0F9B1344503393F900308DF85C
:106E64002B309DF82B3023F0C0030993644A0F9B09
:106E74001344503393F90030B3F1FF3F5FD001ABBB
:106E840019460998FFF7FCFE0346002B57D09DF8DE
:106E94002B309B098DF823300998FFF729FF03460F
:106EA4001846FFF733FF0790079B002B03D19DF88B
:106EB4002330032B43D19DF82330032B04D102ABA1
:106EC40019460998FFF7F4FE0998FFF787FE034671
:106ED4008DF81B3003AB19460998FFF7D1FE0590D6
:106EE400059B002B03D09DF81B30022B06D0059B7D
:106EF400002B24D19DF81B30032B20D19DF8233087
:106F0400032B13D19DF81B30022B01D1032300E086
:106F140002238DF813309DF8133019460998FFF7B2
:106F24002FFE9DF84F3001338DF84F30079B002B17
:106F340005D09DF82320079B1146099898470F9B7D
:106F440001330F930F9B032B83D99DF84F30002BF4
:106F54004CD001238DF83B306B461A4601210020AA
:106F6400FFF75AFE0023119314E0119B9B0014AA0F
:106F7400134453F8502C119B9B0014A90B4453F851
:106F8400443C9A4203D000238DF83B3005E0119B2A
:106F940001331193119B002BE7D09DF83B30002B5C
:106FA40003D000238DF84F3020E0002311931AE022
:106FB400119B9B0014AA134453F8502C119B9B0063
:106FC40014A90B4443F8442C119B9B0014AA1344AA
:106FD40053F8482C119B9B0014A90B4443F84C2CE8
:106FE400119B01331193119B002BE1D09DF84F307D
:106FF400002B7FF428AF00BF15B05DF804FB00BF81
:10700400F428002082B003468DF807309DF807303D
:1070140003F01F0206499DF907305B09012000FABD
:1070240002F2203341F8232000BF02B0704700BFB2
:1070340000E100E084B001900B46ADF80230BDF8E9
:107044000230019A134400221A60BDF80230019AFA
:1070540013441B680393039B00BF04B0704782B0C2
:1070640001900B46ADF80230BDF80230019A13448A
:107074001B68002B14BF01230023DBB2184602B0A7
:10708400704782B001900091019BD3F80022009BCD
:10709400DB431A40019BC3F8002200BF02B07047D3
:1070A40082B001900091019B009AC3F8042300BFB1
:1070B40002B0704782B001900091019B009AC3F81E
:1070C400082300BF02B0704784B00190019BD3F83D
:1070D40080340393019B039AC3F88024039B1846CE
:1070E40004B0704782B00190019B0822C3F80025C8
:1070F40000BF02B0704782B00190019B0022C3F828
:10710400002500BF02B0704784B003900291019241
:10711400039B029AC3F80C25039B019AC3F8142518
:1071240000BF04B0704700B583B001904FF0FF3248
:107134004FF0FF310198FFF7E7FF00BF03B05DF8A0
:1071440004FB82B00190019BD3F80C35184602B0C1
:10715400704782B00190019BD3F81435184602B0F1
:10716400704782B00190019BD3F80835184602B0ED
:10717400704782B00190019BD3F81035184602B0D5
:10718400704784B0039002910192039B029AC3F862
:107194000825039B019AC3F8102500BF04B070476B
:1071A40000B583B001904FF0FF324FF0FF310198EA
:1071B400FFF7E7FF00BF03B05DF804FB82B0019066
:1071C4000B468DF803309DF80330019A13440122D5
:1071D4001A6000BF02B0704782B001900B468DF870
:1071E400033013468DF802309DF803209DF80230D9
:1071F4001343DBB21A46019BC3F86C2500BF02B0EF
:10720400704782B001900091019B009AC3F8242535
:1072140000BF02B0704784B00390029113468DF80A
:107224000730029A039BC3F844259DF80720039B6B
:10723400C3F8482500BF04B0704782B00190019B99
:10724400D3F84C35184602B0704782B00190019BC8
:10725400D3F83C35184602B0704700B583B00346F6
:107264008DF807309DF907301846FFF7CBFE00BFB5
:1072740003B05DF804FB84B00190019B1B0B8DF8F7
:107284000F309DF90F30184604B0704782B001905A
:10729400019B03F06043B3F1005F0CBF01230023A3
:1072A400DBB2184602B0704700B583B00190019B71
:1072B4001B681F2B04D905494FF4E87000F00CFC3F
:1072C4004FF0A043184603B05DF804FBCCB90200AC
:1072D40000B585B00190084611461A4603468DF85C
:1072E40003300B468DF8023013468DF8013001ABA4
:1072F4001846FFF7D9FF03909DF803209DF802304C
:107304005B001A439DF801309B001A439DF8183026
:107314001B0242EA03019DF81C301B04019A194325
:10732400039B02F5E07243F8221000BF05B05DF83C
:1073340004FB00B585B00390002301930023009360
:107344000023012201210398FFF7C2FF00BF05B00B
:107354005DF804FB00B585B003900B468DF80B3047
:107364009DF80B300022019200220092002200219D
:107374000398FFF7ADFF00BF05B05DF804FB00B54F
:1073840085B003900023019300230093002301227E
:1073940000210398FFF79CFF00BF05B05DF804FBD4
:1073A40000B585B0019001AB1846FFF77DFF03904F
:1073B400019B012202FA03F31946039800F004F832
:1073C40000BF05B05DF804FB82B001900091019B01
:1073D400009AC3F8082500BF02B0704700B583B017
:1073E40001900091009B1B68B3F1FF3F09D0009B03
:1073F4001B681846FFF7D4FF009B1B681846FFF76D
:1074040098FF009B5B68B3F1FF3F05D0009B5B686E
:1074140000211846FFF79EFF019B1A68009B9B6999
:1074240019461046FFF7EDFE019B1868009B597D35
:10743400009B1B7D1A46FFF7CFFE019B1868009B3B
:107444001968009B5B681A46FFF75EFE009B1B7D74
:10745400012B22D1009B9B68B3F1FF3F05D0009B19
:107464009B6800211846FFF775FF009BDB68B3F1AA
:10747400FF3F09D0009BDB681846FFF791FF009B94
:10748400DB681846FFF755FF019B1868009BD96815
:10749400009B9B681A46FFF774FE00BF03B05DF8BB
:1074A40004FB000000B583B001900B468DF8033057
:1074B400019B1B684FF488711846FFF7BBFD019BC5
:1074C4001B684FF490711846FFF7B4FD019B1B68CD
:1074D4004FF492711846FFF7ADFD019B1B684FF402
:1074E400A2711846FFF7A6FD019B1B680A491846BE
:1074F400FFF7D6FD019B1B681846FFF7BCFE034649
:107504001A469DF8033019461046FFF783FA00BF68
:1075140003B05DF804FB00BF1003020000B583B0A4
:107524000190019B1B6808491846FFF7C3FD019BA6
:107534001B681846FFF79FFE03461846FFF78DFEAB
:1075440000BF03B05DF804FB1003020000B587B070
:107554000190019B1B681846FFF7F3FD0590019B02
:107564001B681846FFF7F5FD0490019B1B6818463D
:10757400FFF7F7FD0390019B1B681846FFF7F9FD21
:107584000290019B1B681846FFF7CDFD019B1B6809
:107594001846FFF705FE059BB3F1FF3F02D005989F
:1075A400FFF7EDFE049BB3F1FF3F02D00498FFF711
:1075B400E6FE029BB3F1FF3F02D00298FFF7DFFE25
:1075C400039BB3F1FF3F02D00398FFF7D8FE00BF3F
:1075D40007B05DF804FB00B583B00190019B1B6804
:1075E4001846FFF77FFD00BF03B05DF804FB00B54C
:1075F40083B00190019B1B681846FFF77CFD00BF18
:1076040003B05DF804FB000000B587B0039002915D
:107614000192029B002B04D122494FF4887000F0A0
:107624005BFA039B1B791A461346DB009B1A9B00EB
:107634001D4A1344059300230493059BDB7E002B12
:1076440003D008230493049B27E002990398FFF7CF
:10765400C5FE059B019A5A60029B1A69059B1A6034
:10766400059B5B68002B05D0029B1B7F1946039882
:10767400FFF718FF0398FFF7AEFF059B0022DA75AA
:10768400059B00221A76059B00229A75059B012210
:10769400DA76059B00229A76049B184607B05DF8BB
:1076A40004FB00BF0CBA02004C29002000B585B0D1
:1076B4000190019B1B791A461346DB009B1A9B0021
:1076C4000C4A134403930198FFF791FF039B5B68F3
:1076D400002B02D00198FFF721FF0198FFF736FF36
:1076E400039B0022DA76039B00225A6000BF05B098
:1076F4005DF804FB4C29002000B587B00190019B84
:107704001B791A461346DB009B1A9B002A4A134432
:10771400049300230593019B1B684FF49071184652
:10772400FFF788FC019B1B684FF4AC711846FFF708
:1077340081FC019B1868049B9968049B9B7D1A46F5
:10774400FFF769FD019B1B6808211846FFF736FD0A
:10775400049B5B68002B2AD1019B1B684FF490713A
:107764001846FFF77CFC03468DF80F30019B1B681D
:107774004FF4AC711846FFF772FC03468DF80E30D7
:107784009DF80F3083F00103DBB2002B06D09DF887
:107794000E3083F00103DBB2002BDDD19DF80E30F7
:1077A400002B01D00F230593049B00229A75059B9F
:1077B400184607B05DF804FB4C29002000B587B0DB
:1077C4000390029113468DF80730039B1B791A46E8
:1077D4001346DB009B1A9B00224A13440493049B28
:1077E400DB7E012B04D020494FF4CC7000F074F9F7
:1077F4009DF80730002B04D11B4940F2991000F08A
:107804006BF9029B002B04D117494FF4CD7000F0A3
:1078140063F90298FFF73AFD034683F00103DBB2F4
:10782400002B03D010230593059B17E0039800F069
:107834001DF80346002B03D011230593059B0DE08F
:10784400049B9DF807209A75049B029A9A60049BF6
:1078540000229A820398FFF74FFF0346184607B0A9
:107864005DF804FB4C2900200CBA020082B00190A0
:10787400019B1B791946084A0B46DB005B1A9B00E7
:10788400134416331B78002B14BF01230023DBB2EF
:10789400184602B0704700BF4C29002000B589B0DB
:1078A40003900B4601928DF80B3001238DF81030B4
:1078B4009DF80B308DF81830019B0593039B5B6892
:1078C400039A116804AA1046984700BF09B05DF8EE
:1078D40004FB00B587B001900B468DF803300023FC
:1078E4008DF808309DF803308DF81030019B9B68AB
:1078F4000393019B00229A75019B5B68019A1168AE
:1079040002AA1046984700BF07B05DF804FB00B513
:1079140089B0019000914FF492710198FFF79FFB99
:107924000346002B24D04FF492710198FFF782FB99
:1079340002238DF808300198FFF7C6FB0346059330
:107944000198FFF782FC0346DBB28DF81030009BF0
:10795400DB680393009B0022DA75009B00221A76F1
:10796400009B5B68009A116802AA1046984741E0A0
:107974004FF488710198FFF772FB0346002B39D04E
:107984004FF488710198FFF755FB0198FFF75DFCF0
:1079940003468DF81F30009BDB7D9DF81F209A4223
:1079A40028D1009B1B7E002B19D0009BDB6806931B
:1079B40020210198FFF765FB009B1A7E009BDA7576
:1079C400009B1A69009BDA60009B00221A769DF8DE
:1079D4001F30069A19460098FFF760FF0AE0009BE3
:1079E4000022DA75009BDA689DF81F30194600986A
:1079F400FFF754FF4FF4A2710198FFF730FB0346E1
:107A0400002B16D04FF4A2710198FFF713FB009BD3
:107A1400DB7D002B0DD0009B0022DA750198FFF767
:107A240014FC0346D9B2009BDB681A460098FFF7A2
:107A340035FF4FF490710198FFF711FB0346002BBB
:107A440011D04FF490710198FFF7F4FA009B9B7DDD
:107A5400002B08D00198FFF7F0FB0346DBB2194670
:107A64000098FFF736FF00BF09B05DF804FB000083
:107A740008B503490348FFF74AFF00BF08BD00BF2C
:107A84004C2900200020004073DF704700BF1846D7
:107A940076DF704700BF18467ADF704700BF18468C
:107AA4007CDF704700BF18467FDF704700BF184671
:107AB4008FDF704700BF1846A8DF704700BF184625
:107AC400A9DF704700BF184666DF704700BF18463D
:107AD4003EDF704700BF184600B583B003460091EF
:107AE400ADF80630BDF80630009A19460348FCF795
:107AF40081FC00BF03B05DF804FB00BFEFBEADDE48
:107B040008B5FEF737FD00BF08BD000000B583B01F
:107B1400FDF7C8FA0190019B0093009B002B04D051
:107B2400044A8C210098FCF765FC00BF03B05DF8A3
:107B340004FB00BF78BA020000B587B09DF800309E
:107B4400012262F303038DF800309DF80030012216
:107B540062F307138DF800301D4802F0FEFF034660
:107B64009AB26B461A491846FFF79AFF0590059B8F
:107B74000493049B002B04D0164AA0210498FCF71C
:107B840039FC01AB08220021184602F0B3FF502350
:107B9400ADF80430A023ADF806300023ADF808306A
:107BA4004FF4C873ADF80A3001AB1846FFF774FF01
:107BB4000590059B0393039B002B04D0054AAA213F
:107BC4000398FCF717FC00BF07B05DF804FB00BF87
:107BD400ECBA020078BA020000B583B0002109486B
:107BE40002F0FCF90190019B0093009B002B04D050
:107BF400054AB3210098FCF7FDFB00BF03B05DF814
:107C040004FB00BF8029002078BA020000B5A3B0AD
:107C140041F22353ADF80430194B9B7C8DF80630A8
:107C240011AB3C220021184602F064FF02238DF8B8
:107C3400443001238DF8463006238DF8473002ABDB
:107C44003C220021184602F055FF0123ADF81830FC
:107C540001AB079302AA11AB1146184601F060FB71
:107C64002190219B2093209B002B04D0054AD121F5
:107C74002098FCF7BFFB00BF23B05DF804FB00BFF6
:107C84006829002078BA020000B583B00346009149
:107C9400ADF8063013468DF805309DF80530002BFD
:107CA4000CD00220FEF71EFC0C4B1B881B0443F077
:107CB40003030B491846FBF76FFF0BE00220FEF7A6
:107CC4002BFC064B1B881B0443F003030549184691
:107CD400FBF762FF00BF03B05DF804FB80210020C6
:107CE400FCBA020010BB020000B585B00A4B019338
:107CF40001AB1946094800F05FFD0390039B029312
:107D0400029B002B04D0064AF3210298FCF772FB75
:107D140000BF05B05DF804FB8D7C020068290020DB
:107D240078BA020000B585B00190019B1B78002B46
:107D340011D10B4B1B883B211846FFF7A9FE03907A
:107D4400039B0293029B002B05D0064A40F20911C3
:107D54000298FCF74FFB00BF05B05DF804FB00BFC1
:107D64004422002078BA020000B583B00190054A8D
:107D74004FF48A710198FCF73DFB00BF03B05DF836
:107D840004FB00BF78BA020000B58BB001AB1C2223
:107D94000021184602F0AEFE002301934FF4202385
:107DA40002934FF42033039303238DF81030002300
:107DB400ADF8123000238DF814300C4B06930C4BA5
:107DC400079301AB184601F04BFC0990099B0893FB
:107DD400089B002B05D0074A40F22B110898FCF7AA
:107DE40009FB00BF0BB05DF804FB00BF297D020056
:107DF4006D7D020078BA020000B587B06B46102290
:107E04000021184602F076FE00238DF8003000238E
:107E1400019300238DF808304023ADF80A30002385
:107E2400ADF80C306B4601211846FFF72DFE059086
:107E3400059B0493049B002B05D0064A4FF4A071C4
:107E44000498FCF7D7FA0020FEF74CFB00BF07B0FC
:107E54005DF804FB78BA020010B594B0019000916B
:107E6400019B1B88212B00F38D80002B40DC70E1EB
:107E74003B3B1B2B00F26D8101A252F823F000BFA3
:107E84006F8002005781020057810200578102006F
:107E94005781020057810200578102005781020076
:107EA4005781020057810200578102005781020066
:107EB4005781020057810200578102005781020056
:107EC4005781020057810200578102005781020046
:107ED4005781020057810200E180020045800200C0
:107EE40057810200578102005781020095800200E9
:107EF400013B202B00F22D8101A252F823F000BF98
:107F0400BB800200578102005781020057810200A2
:107F140057810200578102005781020057810200F5
:107F240057810200578102005781020057810200E5
:107F3400578102005781020057810200977F020097
:107F4400BF7F020057810200E57F020057810200D3
:107F540057810200578102005781020057810200B5
:107F640057810200578102005781020057810200A5
:107F74005781020057810200578102005781020095
:107F84000F800200562B00F3E4803B2BBFF670AF4A
:107F9400DFE0794B1B881B0443F003037749184641
:107FA400FBF7FAFD0120FEF79DFA0020FEF7B4FA74
:107FB400019B9A88724B1A80DAE06F4B1B881B0472
:107FC40043F003036F491846FBF7E6FD0120FEF773
:107FD400A3FA6B4B4FF6FF721A80FFF70DFFC7E051
:107FE400674B1888002300228521FFF75DFD13905D
:107FF400139B0D930D9B002B00F0AD80624A40F261
:1080040069110D98FCF7F6F9A5E000238DF82C30E2
:1080140000238DF82D30019B9B880BAA114618462E
:10802400FFF746FD1390139B0E930E9B002B00F05D
:108034009480554A4FF4BB710E98FCF7DBF98CE041
:108044004F4B1888002300220021FFF739FD1390BD
:10805400139B1193119B002B00F081804A4A40F23C
:108064007D111198FCF7C6F979E0019B9B881321D7
:108074001846FFF70DFD1390139B0F930F9B002BD6
:108084006FD0414A40F285110F98FCF7B3F968E0CC
:10809400019B9B8813211846FFF7FAFC1390139B4E
:1080A4001293129B002B5ED0374A40F28D11129826
:1080B400FCF7A0F957E0019B9B8800211846FFF7C5
:1080C40003FD1390139B0C930C9B002B4DD02E4A55
:1080D4004FF4C9710C98FCF78DF946E0019B07AC8D
:1080E4000633186859689A68DB680FC49DF81C3019
:1080F400002B3CD09DF82430042B07D09DF824306D
:10810400062B03D09DF82430052B30D19DF81C306C
:10811400022B03D102238DF80C3002E001238DF8E9
:108124000C304FF4C173ADF81030019B9B8803AA47
:1081340011461846FFF7C0FC1390139B1093109B35
:10814400002B14D0104A40F2AD111098FCF752F9EC
:108154000DE000BF0CE000BF0AE000BF08E000BF74
:1081640006E000BF04E000BF02E000BF00E000BF83
:1081740000BF14B010BD00BF8021002024BB02004A
:108184004422002030BB020078BA020000B587B058
:1081940002F0BAF90590059B0493049B002B05D0CB
:1081A400164A4FF4E1710498FCF724F90023019373
:1081B40001AB1946012002F04FFA0590059B039389
:1081C400039B002B05D00D4A4FF4E4710398FCF790
:1081D40011F901AB184602F027FB0590059B0293A9
:1081E400029B002B05D0054A4FF4E6710298FCF778
:1081F40001F900BF07B05DF804FB00BF78BA0200C4
:1082040000B583B00020FBF757FA0190019B00935F
:10821400009B002B05D0064A40F209210098FCF788
:10822400E9F8FBF7A9F900BF03B05DF804FB00BF50
:1082340078BA020000B583B0FFF74AFC0190019BB5
:108244000093009B002B05D0044A4FF4057100985D
:10825400FCF7D0F800BF03B05DF804FB78BA020065
:1082640008B5FFF74DFCFFF751FCFFF7C9FFFFF717
:108274008DFFFFF761FCFFF7AFFCFFF735FDFFF75C
:10828400C5FCFFF781FD0B4B1B881B0443F0030364
:1082940009491846FBF780FCFFF7AEFDFBF7D6FC57
:1082A400034683F00103DBB2002BF7D0FFF7C2FFD4
:1082B400F4E700BF8021002040BB0200024B034AC8
:1082C4001A6000BF704700BF482200200090D0030E
:1082D40008B500F0B7F80346002B06D0564B1B68D0
:1082E4005B0B564A03F00703136000F0BDF8034626
:1082F400002B0ED04FF080430022C3F80C214FF026
:1083040080430022C3F810214FF080430022C3F8B9
:10831400382500F0BBF80346002B76D04FF080538D
:10832400474AD3F80434C2F820354FF08053444A06
:10833400D3F80834C2F824354FF08053404AD3F8B8
:108344000C34C2F828354FF080533D4AD3F810342A
:10835400C2F82C354FF08053394AD3F81434C2F89C
:1083640030354FF08053364AD3F81834C2F83435D8
:108374004FF08053324AD3F81C34C2F840354FF0E2
:1083840080532F4AD3F82034C2F844354FF0805339
:108394002B4AD3F82434C2F848354FF08053284A86
:1083A400D3F82834C2F84C354FF08053244AD3F81C
:1083B4002C34C2F850354FF08053214AD3F830346E
:1083C400C2F854354FF080531D4AD3F83434C2F800
:1083D40060354FF080531A4AD3F83834C2F8643504
:1083E4004FF08053164AD3F83C34C2F868354FF046
:1083F4008053134AD3F84034C2F86C354FF080539D
:108404000F4AD3F84434C2F8703500F051F80346EB
:10841400002B0DD04FF08043D3F8003403F0010358
:10842400002B05D04FF080436FF00102C3F8002405
:10843400FFF744FF00BF08BD440200103C050040A4
:1084440000C00040064B1B680A2B05D1054B1B6876
:10845400002B01D1012300E001231846704700BF1F
:108464003001001034010010064B1B680A2B05D1A3
:10847400054B1B68002B01D1012300E001231846A2
:10848400704700BF3001001034010010064B1B6818
:108494000A2B05D1054B1B68002B01D1012300E0F9
:1084A40001231846704700BF30010010340100104A
:1084B400064B1B680A2B05D1054B1B68002B01D109
:1084C400012300E001231846704700BF300100106B
:1084D40034010010A0DF704700BF1846A2DF7047C8
:1084E40000BF184662DF704700BF184600B585B06C
:1084F40001900091009B06330393039B1A88019B10
:108504005B889A420FD1039B5B89012B0BD1019BA2
:108514005B69002B07D0019B5B69009A9088039AE2
:10852400127B0199984700BF05B05DF804FB00B5C4
:1085340085B001900091009B0393019B1B88502BF5
:1085440004D101990398FFF7D1FF00E000BF00BFF9
:1085540005B05DF804FB00B591B00190009109AB42
:108564001C220021184602F0C5FA9DF8243043F07D
:1085740002038DF824309DF8243043F008038DF86D
:10858400243000230A9300230C9300230D9300232B
:108594000E9300230F93019B9B7C8DF80E3041F2C8
:1085A4002553ADF80C3002AB03220021184602F02B
:1085B400A1FA9DF80830012262F303038DF8083014
:1085C4009DF80830012262F307138DF808309DF8F6
:1085D4000930012262F303038DF809309DF8093054
:1085E400012262F307138DF809309DF80A30012245
:1085F40062F342038DF80A309DF80A306FF3C30327
:108604008DF80A309DF80A306FF304138DF80A30A0
:108614009DF80A306FF300038DF80A3004AB14227E
:108624000021184602F066FA03AB049302AB0593EB
:108634000123ADF818300023ADF81A300123ADF84A
:108644001C3000230893019B1888019B023304AA61
:1086540009A9FFF743FF0346184611B05DF804FB70
:1086640000B593B0019000910AAB03220021184693
:1086740002F040FA9DF82830012262F303038DF8DA
:1086840028309DF82830012262F307138DF8283032
:108694009DF82930012262F303038DF829309DF8F7
:1086A4002930012262F307138DF829309DF82A300E
:1086B400012262F342038DF82A300BAB1C22002105
:1086C400184602F017FA9DF82C3043F002038DF897
:1086D4002C309DF82C3043F010038DF82C300023FF
:1086E4000C9300230E9300230F930AAB10930023E3
:1086F4001193019B9B7C8DF8123041F22453ADF809
:10870400103003AB03220021184602F0F3F99DF860
:108714000C30012262F303038DF80C309DF80C3009
:10872400012262F307138DF80C309DF80D306FF3BE
:1087340003038DF80D309DF80D306FF307138DF89A
:108744000D309DF80E30012262F342038DF80E3095
:108754009DF80E306FF3C3038DF80E309DF80E3084
:108764006FF304138DF80E309DF80E306FF3000391
:108774008DF80E3005AB14220021184602F0BAF928
:1087840004AB059303AB06930123ADF81C3000231F
:10879400ADF81E300123ADF8203000230993019B6E
:1087A4001888019B0A3305AA0BA9FFF797FE034615
:1087B400184613B05DF804FB10B588B00190009121
:1087C400009B1A68019B5A611F4B02AC0FCB84E8D3
:1087D4000F00019B03F1120202AB11461846FFF78A
:1087E40081FE0790079B002B01D0079B28E0019B8B
:1087F4009B7C8DF81A3041F22353ADF81830019A5E
:1088040006AB19460120FFF765FE0790079B002B76
:1088140001D0079B14E000990198FFF721FF07900E
:10882400079B002B01D0079B0AE000990198FFF7F2
:1088340092FE0790079B002B01D0079B00E00023CA
:10884400184608B010BD00BF58BB02006DDF70476A
:1088540000BF184672DF704700BF184679DF7047C3
:1088640000BF18467DDF704700BF184664DF7047BD
:1088740000BF184682B003460091ADF80630BDF83B
:108884000630DAB2009B1A70BDF806301B0A9AB2A1
:10889400009B0133D2B21A700223184602B070470B
:1088A40000B589B0039002911346ADF80630029BDF
:1088B4001B8803F10902BDF806309A4201D90C2342
:1088C40051E005AB1846FFF7C1FF0790079B002B4B
:1088D40001D0079B47E0029B1B881A46039B134465
:1088E40008221A70029B1B8801339AB2029B1A80D9
:1088F400029B1B881A46039B13441B221A70029B7B
:108904001B8801339AB2029B1A80029B1B881A4669
:10891400039B981805AB01330622194602F0C1F8EF
:10892400029B1B8806339AB2029B1A809DF814306E
:1089340023F00103DBB2002B07D1029B1B881A46EC
:10894400039B134400221A7006E0029B1B881A46FC
:10895400039B134401221A70029B1B8801339AB2B1
:10896400029B1A800023184609B05DF804FB00B589
:1089740089B0039002910192ADF80230039B1B78F9
:10898400012B05D1039B5B78002B01D1072389E0E0
:10899400019B1B889A1CBDF802309A420ED8039B97
:1089A4001B78012B0CD1019B1B881A46039B5B7817
:1089B40013449A1CBDF802309A4201D90C2371E089
:1089C400019B1B88BDF80220D31A9BB2023BADF871
:1089D4001C30BDF81C30ADF81630019B1B880233E7
:1089E400029A13440DF1160211461846FFF73AFF96
:1089F4000690069B002B01D0069B53E0039B1B783B
:108A0400022B09D1BDF81630BDF81C209A4203D3BD
:108A140009238DF81F3017E008238DF81F30039BBE
:108A24001B78012B0CD1039B5B789BB2BDF81C20F7
:108A34009A4205D3039B5B789BB2ADF8163003E0F2
:108A4400BDF81C30ADF81630BDF81630FE2B01D938
:108A54000C2327E0BDF81630DAB2019B1B881946B7
:108A6400029B0B440132D2B21A70019B1B88013362
:108A74009AB2019B1A80019B1B881A46029B1344DD
:108A84009DF81F201A70019B1B8801339AB2019B29
:108A94001A80019B1A88BDF8163013449AB2019BC0
:108AA4001A800023184609B05DF804FB00B587B0AE
:108AB400039002911346ADF80630029B1B881A1DE1
:108AC400BDF806309A4201D90C2339E00DF11203A6
