:100000000060002015020000590200005B020000A1
:100010005D0200005F0200006102000000000000BD
:10002000000000000000000000000000630200006B
:100030006502000000000000670200006902000085
:100040006D0200006F0200007102000073020000E8
:100050007502000000000000770200007902000035
:100060007B0200007D0200007F0200008102000090
:100070008302000085020000870200008902000060
:100080008B0200008D0200008F0200009102000030
:100090009302000095020000970200009902000000
:1000A0009B0200009D020000000000000000000014
:0800B0009F020000A102000004
:1000B800354936480A1A02D0072291438D463449F9
:1000C80034480A1A06D00722914381F3098802228C
:1000D80082F3148830483149314A00F044F83148F5
:1000E8003149324A00F03FF831483249324A00F08B
:1000F8003AF832483249334A00F035F83248334941
:10010800334A00F030F833483349344A00F02BF8CA
:1001180033483449344A00F026F834483449002238
:1001280000F02CF833483449002200F027F833480F
:100138003349091A082902DB002202604160314A6A
:1001480090471F481F49884205D00268043003B40D
:10015800904703BCF7E700208646EC4600200021C4
:10016800294A9047FEE7884207D0521A05D00378FB
:1001780001300B700131013AF9D17047884202D041
:1001880002700130FAE77047006000200058002034
:100198000060002000600020300400000000002003
:1001A80004000020A4020000A402000030040000A3
:1001B800300400000000002000000020300400008F
:1001C8003004000030040000300400003004000057
:1001D8003004000030040000300400003004000047
:1001E8003404000004000020040000200400002063
:1001F8000400002004000020040000200400002067
:1002080004020020270200000D0400000B484FF0F4
:100218000701884385460A488047FFF749BF0948D0
:1002280009490A4A884207D0521A05D00378013092
:100238000B700131013AF9D17047000000600020CD
:10024800A50200003004000000000020000000208B
:10025800FEE7FEE7FEE7FEE7FEE7FEE7FEE7FEE76E
:10026800FEE7FEE7FEE7FEE7FEE7FEE7FEE7FEE75E
:10027800FEE7FEE7FEE7FEE7FEE7FEE7FEE7FEE74E
:10028800FEE7FEE7FEE7FEE7FEE7FEE7FEE7FEE73E
:0C029800FEE7FEE7FEE7FEE7FEE700BF22
:1002A400304B314A1B684FF08041C3F34233136033
:1002B4004FF080520023C1F80C31C1F81031C1F85D
:1002C40038352A4BD2F80404C3F82005D2F80804C0
:1002D400C3F82405D2F80C04C3F82805D2F8100496
:1002E400C3F82C05D2F81404C3F83005D2F8180466
:1002F400C3F83405D2F81C04C3F84005D2F820042E
:10030400C3F84405D2F82404C3F84805D2F82804F5
:10031400C3F84C05D2F82C04C3F85005D2F83004C5
:10032400C3F85405D2F83404C3F86005D2F838048D
:10033400C3F86405D2F83C04C3F86805D2F8400455
:10034400C3F86C05D2F84424C3F87025D1F80034FE
:10035400074ADB0744BF6FF00103C1F80034054BC3
:100364001A607047440200103C05004000C0004081
:100374000090D00300000020204B21491A68214B33
:1003840000BF00BF00BF00BF00BF00BF00BF00BF71
:100394008A422FD000BF00BF00BF00BF00BF00BF14
:1003A40000BF00BF00BF00BF00BF00BF00BF00BF51
:1003B40000BF00BF00BF00BF00BF00BF00BF00BF41
:1003C40000BF00BF00BF00BF00BF00BF00BF00BF31
:1003D40000BF00BF00BF00BF00BF00BF00BF00BF21
:1003E40000BF00BF00BF00BF00BF00BF00BF00BF11
:1003F40000BF00BF013BC3D1704700BF0000002015
:100404000024F40020A107004FF0A04008B54FF0ED
:1004140080440323C0F878372546C0F80855FFF711
:0C042400ABFFC0F80C45FFF7A7FFF6E7A0
:040430000090D00365
:0400000300000215E2
:00000001FF
