:10000000000001203902000091020000930200006C
:100010009502000097020000990200000000000015
:100020000000000000000000000000009B02000033
:100030009D020000000000009F020000A1020000DD
:10004000A5020000A7020000A9020000AB02000008
:10005000AD020000AF020000B1020000B3020000D8
:10006000B5020000B7020000B9020000BB020000A8
:10007000BD020000BF020000C1020000C302000078
:10008000C5020000C7020000C9020000CB02000048
:10009000CD020000CF020000D1020000D302000018
:1000A000D5020000D7020000D9020000DB020000E8
:1000B000DD020000DF020000A3020000A302000036
:1000C000E1020000E3020000E5020000E702000098
:0C00D000E9020000EB020000ED0200005D
:1000DC00354936480A1A02D0072291438D463449D5
:1000EC0034480A1A06D00722914381F30988022268
:1000FC0082F3148830483149314A00F044F83148D1
:10010C003149324A00F03FF831483249324A00F066
:10011C003AF832483249334A00F035F8324833491C
:10012C00334A00F030F833483349344A00F02BF8A6
:10013C0033483449344A00F026F834483449002214
:10014C0000F02CF833483449002200F027F83348EB
:10015C003349091A082902DB002202604160314A46
:10016C0090471F481F49884205D00268043003B4E9
:10017C00904703BCF7E700208646EC4600200021A0
:10018C00294A9047FEE7884207D0521A05D00378D7
:10019C0001300B700131013AF9D17047884202D01D
:1001AC0002700130FAE770470000012000F80020CF
:1001BC000000012000000120900D00000000002034
:1001CC0004000020F0020000F0020000160D0000F8
:1001DC00900D00000000002000000020180D000011
:1001EC00180D0000180D0000180D0000180D00006F
:1001FC00180D0000180D0000180D0000900D0000E7
:10020C00940D0000040000200400002004000020D5
:10021C0024000020240000202400002024000020C2
:10022C00240200205D0200007F0900000F484FF0FF
:10023C000701884385460E4880470E48016841F403
:10024C0070010160BFF34F8FBFF36F8FFFF740BF9B
:10025C0009480A490A4A884207D0521A05D003783D
:10026C0001300B700131013AF9D1704700000120C7
:10027C003103000088ED00E0180D000000000020A4
:10028C0000000020FEE7FEE7FEE7FEE7FEE7FEE7E4
:10029C00FEE7FEE7FEE7FEE7FEE7FEE7FEE7FEE72A
:1002AC00FEE7FEE7FEE7FEE7FEE7FEE7FEE7FEE71A
:1002BC00FEE7FEE7FEE7FEE7FEE7FEE7FEE7FEE70A
:1002CC00FEE7FEE7FEE7FEE7FEE7FEE7FEE7FEE7FA
:1002DC00FEE7FEE7FEE7FEE7FEE7FEE7FEE7FEE7EA
:0402EC00FEE700BF6A
:1002F000BFF34F8F00BF074BDB6803F4E062054993
:10030000054B1343CB60BFF34F8F00BF00BF00BF4F
:10031000FCE700BF00ED00E00400FA05024B034AD1
:100320001A6000BF704700BF000000200090D0039B
:1003300008B500F05DF90346002B06D09B4B1B6807
:100340001B0A9B4A03F01F03136000F07DF903466C
:10035000002B02D0974B984A1A6000F091F903469F
:10036000002B06D0954B1B685B0B954A03F00703E7
:10037000136000F0B1F90346002B05D0914BDB6808
:10038000904A23F08073D36000F0C2F90346002B3B
:100390000ED04FF080430022C3F80C214FF0804371
:1003A0000022C3F810214FF080430022C3F8382503
:1003B00000F0DAF90346002B02D0834B03221A60C7
:1003C00000F0EEF90346002B0BD0804B05221A609B
:1003D0007F4B01221A607F4B00221A607E4B3F2226
:1003E0001A6000F0F9F90346002B76D04FF08053E5
:1003F0007A4AD3F80434C2F820354FF08053774A54
:10040000D3F80834C2F824354FF08053734AD3F838
:100410000C34C2F828354FF08053704AD3F81034AA
:10042000C2F82C354FF080536C4AD3F81434C2F81C
:1004300030354FF08053694AD3F81834C2F8343558
:100440004FF08053654AD3F81C34C2F840354FF062
:100450008053624AD3F82034C2F844354FF08053B9
:100460005E4AD3F82434C2F848354FF080535B4AD3
:10047000D3F82834C2F84C354FF08053574AD3F89C
:100480002C34C2F850354FF08053544AD3F83034EE
:10049000C2F854354FF08053504AD3F83434C2F880
:1004A00060354FF080534D4AD3F83834C2F8643584
:1004B0004FF08053494AD3F83C34C2F868354FF0C6
:1004C0008053464AD3F84034C2F86C354FF080531D
:1004D000424AD3F84434C2F8703500F099F9034623
:1004E000002B05D03E4B1B683E4A03F04F031360C0
:1004F00000F0BAF90346002B0DD04FF08043D3F83B
:10050000003403F00103002B05D04FF080436FF05F
:100510000102C3F80024344BD3F88830324A43F444
:100520007003C2F88830BFF34F8F00BFBFF36F8FE7
:1005300000BF4FF01023D3F80032002B05DB4FF043
:100540001023D3F80432002B2BDA284B0122C3F8F6
:10055000042500BF254BD3F80034002BFAD04FF010
:1005600010231522C3F8002200BF204BD3F800341B
:10057000002BFAD04FF010231522C3F8042200BF3D
:100580001A4BD3F80034002BFAD0184B0022C3F8D2
:10059000042500BF154BD3F80034002BFAD0FFF729
:1005A000A7FEFFF7BBFE00BF08BD00BF240300107D
:1005B0004035014074C007400DF0ADBA4402001050
:1005C0003C050040F0ED00E0A00500401056004062
:1005D00088560040185600401456004000C00040A5
:1005E00058020010E40E004000ED00E000E0014081
:1005F000124B1B68DBB2062B1DD1114B1B6803F09D
:100600000F03002B17D10F4B1B6803F0F003302BA7
:1006100001D1012310E00B4B1B6803F0F003402BCA
:1006200001D1012308E0074B1B6803F0F003502BB6
:1006300001D1012300E0002318467047E00F00F0CD
:10064000E40F00F0E80F00F00A4B1B68DBB2062B4A
:100650000DD1094B1B6803F00F03002B07D1074B8B
:100660001B6803F0F003302B01D1012300E00023CD
:1006700018467047E00F00F0E40F00F0E80F00F0BC
:10068000124B1B68DBB2062B1DD1114B1B6803F00C
:100690000F03002B17D10F4B1B6803F0F003302B17
:1006A00001D1012310E00B4B1B6803F0F003402B3A
:1006B00001D1012308E0074B1B6803F0F003502B26
:1006C00001D1012300E0002318467047E00F00F03D
:1006D000E40F00F0E80F00F00A4B1B68DBB2062BBA
:1006E0000DD1094B1B6803F00F03002B07D1074BFB
:1006F0001B6803F0F003302B01D1012300E000233D
:1007000018467047E00F00F0E40F00F0E80F00F02B
:10071000124B1B68DBB2062B1DD1114B1B6803F07B
:100720000F03002B17D10F4B1B6803F0F003302B86
:1007300001D1012310E00B4B1B6803F0F003402BA9
:1007400001D1012308E0074B1B6803F0F003502B95
:1007500001D1012300E0002318467047E00F00F0AC
:10076000E40F00F0E80F00F00A4B1B68DBB2062B29
:100770000DD1094B1B6803F00F03002B07D1074B6A
:100780001B6803F0F003302B01D1012300E00023AC
:1007900018467047E00F00F0E40F00F0E80F00F09B
:1007A0000A4B1B68DBB2062B0DD1094B1B6803F00B
:1007B0000F03002B07D1074B1B6803F0F003302B0E
:1007C00001D1012300E0002318467047E00F00F03C
:1007D000E40F00F0E80F00F00A4B1B68DBB2062BB9
:1007E0000DD1094B1B6803F00F03002B07D1074BFA
:1007F0001B6803F0F003502B01D1012300E000231C
:1008000018467047E00F00F0E40F00F0E80F00F02A
:10081000124B1B68DBB2062B1DD1114B1B6803F07A
:100820000F03002B17D10F4B1B6803F0F003302B85
:1008300001D1012310E00B4B1B6803F0F003402BA8
:1008400001D1012308E0074B1B6803F0F003502B94
:1008500001D1012300E0002318467047E00F00F0AB
:10086000E40F00F0E80F00F0124B1B68DBB2062B20
:100870001DD1114B1B6803F00F03002B17D10F4B39
:100880001B6803F0F003302B01D1012310E00B4B68
:100890001B6803F0F003402B01D1012308E0074B54
:1008A0001B6803F0F003502B01D1012300E000236B
:1008B00018467047E00F00F0E40F00F0E80F00F07A
:1008C00084B00190244B0393019B002B40D0234B19
:1008D0001A680399019B00BF00BF00BF00BF00BFA3
:1008E00000BF00BF00BF8A422FD000BF00BF00BFC3
:1008F00000BF00BF00BF00BF00BF00BF00BF00BF00
:1009000000BF00BF00BF00BF00BF00BF00BF00BFEF
:1009100000BF00BF00BF00BF00BF00BF00BF00BFDF
:1009200000BF00BF00BF00BF00BF00BF00BF00BFCF
:1009300000BF00BF00BF00BF00BF00BF00BF00BFBF
:1009400000BF00BF00BF00BF00BF013BC3D1019388
:1009500000BF04B0704700BF0024F4000000002076
:1009600000B583B00190019B4FF47A7202FB03F350
:100970001846FFF7A5FF00BF03B05DF804FB00B504
:1009800083B000F021F9002301930AE0019B18468F
:1009900000F000F94FF4FA70FFF7E2FF019B01331A
:1009A0000193019B032BF1DDEDE7000000B583B05F
:1009B0000190019B1B681F2B04D905494FF4E87077
:1009C00000F092F94FF0A043184603B05DF804FB25
:1009D000180D000000B585B00190084611461A4672
:1009E00003468DF803300B468DF8023013468DF820
:1009F000013001AB1846FFF7D9FF03909DF80320A3
:100A00009DF802305B001A439DF801309B001A43A9
:100A10009DF818301B0242EA03019DF81C301B04AC
:100A2000019A1943039B02F5E07243F8221000BFBC
:100A300005B05DF804FB00B585B003900023019379
:100A4000002300930023012201210398FFF7C2FF36
:100A500000BF05B05DF804FB00B585B0019001ABA7
:100A60001846FFF7A3FF0390019B012202FA03F34C
:100A70001946039800F04CF800BF05B05DF804FB80
:100A800000B585B0019001AB1846FFF78FFF0390CA
:100A9000019B012202FA03F31946039800F042F881
:100AA00000BF05B05DF804FB00B585B0019001AB57
:100AB0001846FFF77BFF0390039BD3F8043502939E
:100AC000029BDA43019B012101FA03F31A40039BC5
:100AD000C3F80825019B01229A40029B1A40039B00
:100AE000C3F80C2500BF05B05DF804FB00B583B06A
:100AF00001900091009B002B03D10198FFF7C0FFEC
:100B000002E00198FFF7A8FF00BF03B05DF804FB07
:100B100082B001900091019B009AC3F8082500BFA4
:100B200002B0704782B001900091019B009AC3F817
:100B30000C2500BF02B0704700B583B00190019B47
:100B4000032B03D90749442000F0CEF8064A019B45
:100B500013441B7801211846FFF7C8FF00BF03B0FC
:100B60005DF804FB500D00008C0D000000B583B053
:100B70000023019305E00198FFF7DEFF019B01339D
:100B80000193019B032BF6D900BF00BF03B05DF8B2
:100B900004FB000000B583B00190019B032B03D937
:100BA00007495C2000F0A0F8064A019B13441B781B
:100BB0001846FFF779FF00BF03B05DF804FB00BFE4
:100BC000500D00008C0D000000B583B00023019390
:100BD00009E0094A019B13441B781846FFF72BFFD5
:100BE000019B01330193019B032BF2D9FFF7BEFF59
:100BF00000BF03B05DF804FB8C0D000086B00390CD
:100C00000291019201238DF817309DF81730214A87
:100C1000039B13601F4A029B53601E4A019B936013
:100C2000039B44F20102934213D0039B44F202025D
:100C3000934222D1019B174AD360164BDB681B8875
:100C40001A46144B9A61134BDB685B68114AD361F7
:100C500013E0019B0F4A13610E4B1B699B680D4A01
:100C600053610C4B1B691B881A460A4B9A61094B4E
:100C70001B695B68074AD36100BF72B600BF00BF43
:100C80009DF81730DBB2002BFAD162B600BF00BF6F
:100C900006B070470400002000B587B003900291B1
:100CA0000192039B44F20102934207D0039B44F25A
:100CB0000202934205D1019B059303E0019B04933B
:100CC00000E000BF074B1B6803F00103002B00D0BE
:100CD000FFDE019A02990398FFF790FF00BF07B06B
:100CE0005DF804FBF0ED00E000B585B0034600912F
:100CF000ADF80630BDF80630ADF80830009B039320
:100D000002AB1A46002144F20200FFF7C5FF00BF04
:060D100005B05DF804FBD4
:100D18002E2E2F2E2E2F2E2E2F2E2E2F2E2E2F2EE6
:100D28002E2F636F6D706F6E656E74732F647269AA
:100D3800766572735F6E72662F68616C2F6E72666D
:100D48005F6770696F2E6800433A5C6E52465C6E4E
:100D58005246355F53444B5F31342E322E305F316B
:100D68003762393438615C636F6D706F6E656E74AD
:100D7800735C626F617264735C626F617264732E1C
:080D88006300000011121314B6
:040D90000090D003FC
:0400000300000239BE
:00000001FF
