:020000022000DC
:1070000000000420757302005D73020045A20200B7
:1070100061730200637302006573020000000000E8
:107020000000000000000000000000006773020084
:1070300069730200000000006B7302006D730200B0
:1070400015BB02006F73020025BB02006F730200C4
:107050006F7302006F73020049B802006F73020081
:107060006F7302006F7302006F7302006F73020090
:107070006F7302006F7302006F7302006F73020080
:107080006F73020031A202006F7302006F7302007F
:107090006F7302006F73020005F902006F73020044
:1070A0006F7302006F7302006F7302006F73020050
:1070B0006F7302006F730200000000000000000008
:1070C0006F7302006F7302006F7302006F73020030
:1070D0006F7302006F7302006F730200CDD4020061
:1070E0006F7302006F7302006F73020000000000F4
:1070F000000000006F730200000000006F730200C8
:10710000000000000000000000000000000000007F
:10711000000000000000000000000000000000006F
:10712000000000000000000000000000000000005F
:10713000000000000000000000000000000000004F
:10714000000000000000000000000000000000003F
:10715000000000000000000000000000000000002F
:10716000000000000000000000000000000000001F
:10717000000000000000000000000000000000000F
:1071800000000000000000000000000000000000FF
:1071900000000000000000000000000000000000EF
:1071A00000000000000000000000000000000000DF
:1071B00000000000000000000000000000000000CF
:1071C00000000000000000000000000000000000BF
:1071D00000000000000000000000000000000000AF
:1071E000000000000000000000000000000000009F
:1071F000000000000000000000000000000000008F
:10720000354936480A1A02D0072291438D4634493F
:1072100034480A1A06D00722914381F309880222D2
:1072200082F3148830483149314A00F044F831483B
:107230003149324A00F03FF831483249324A00F0D1
:107240003AF832483249334A00F035F83248334987
:10725000334A00F030F833483349344A00F02BF811
:1072600033483449344A00F026F83448344900227F
:1072700000F02CF833483449002200F027F8334856
:107280003349091A082902DB002202604160314AB1
:1072900090471F481F49884205D00268043003B454
:1072A000904703BCF7E700208646EC46002000210B
:1072B000294A9047FEE7884207D0521A05D0037842
:1072C00001300B700131013AF9D17047884202D088
:1072D00002700130FAE770470000042000E003204C
:1072E00000000420000004200C1E0300E82A0020F7
:1072F0005C2B0020D0730200D073020084050300D1
:107300000C1E0300E82A0020E82A0020B80603002B
:10731000B8060300B8060300B8060300B806030069
:10732000B8060300B8060300B80603000B1E0300EE
:10733000801E03005C2B00205C2B00205C2B0020B7
:1073400044400020444000204440002044400020AD
:10735000446000209D730200F1E10200FEE7FEE7B9
:10736000FEE7FEE7FEE7FEE7FEE7FEE7FEE7FEE7F5
:1073700000F002B8FFF7FCBF0F484FF00701884349
:1073800085460E4880470E48016841F4700101604F
:10739000BFF34F8FBFF36F8FFFF732BF09480A4922
:1073A0000A4A884207D0521A05D0037801300B7080
:1073B0000131013AF9D170470000042059AC0200B4
:1073C00088ED00E0B8060300E82A0020E82A002043
:1073D000F0B595B01D46164608460C4603F08CFBEA
:1073E0001A9B0D93CDE9086500252B46082205A9B7
:1073F00020460A958DF82C500C9503F099FB079BBD
:107400000293069B03939DF814308DF8115003F0FE
:107410000302012A1DD1BDF81420059DC3F3C20348
:10742000C2F383168DF81030B20008230EA920464F
:1074300003F07EFBC5F3952508AB0093324602AB03
:107440000EA9284600F0C4FB204603F059FB15B0F6
:10745000F0BD022AF8D1BDF81650C3F3C203C5F33C
:1074600089158DF810300827082D2E4628BF0826CC
:107470003B4632460EA9204603F05AFBAD1B08AB33
:1074800002AA31460EA8374400F006FC002DEBD1CD
:10749000DAE70000014B01221A7070479D2B002093
:1074A0007047000070B50E4D06460FCD88B06C4693
:1074B0000FC495E80F00002E84E80F00094A0A481F
:1074C0004FF0060308BF00226946009303F07EFFD9
:1074D00008B100F0AFFD054B1E7008B070BD00BFD5
:1074E000B806030095740200E82A00205C2B0020F7
:1074F00007B5044B0093044A4023FFF769FF03B02C
:107500005DF804FB0D7502005D2B002038B50D48B9
:107510000D4C0E4D002323700378EB5CD2B263B1A7
:10752000043004F0C9FF08B100F084FD084B1A785C
:1075300012B12378002BFBD038BD0C3004F04CFD89
:10754000F1E700BFE82A00209D2B0020AC3400208A
:107550005C2B002008B50848084A0378D35C3BB18F
:10756000043004F019FFBDE808400020FFF79ABF7F
:107570000C3004F0C9FCF6E7E82A0020AC34002007
:107580000120FFF78FBF000008B5FFF7F9FF04489F
:10759000042100F087FA034B01225A7108BD00BF95
:1075A000A8060300FC2A0020037813F0040216D07A
:1075B00003F00303012B03D0022B09D001207047F5
:1075C0000A6800880232C0F3831002440A60F5E7BB
:1075D0000B684288023303EB92130B60EEE7104610
:1075E000704700002DE9F04FDFF81CA187B00F466F
:1075F00000230446861C0DF1070015468DF8073060
:1076000002F0A8FCDAF804203A60DAF8083003F552
:1076100080739B1A0AF21C470AF583690AF2144820
:10762000B3421AD30020002D69D004F00F039B0150
:1076300043F0050363F30F00DAF80430DAB20332E3
:1076400033444AF822009DF80700CAF8043002F0DB
:10765000A5FC012007B0BDE8F08F0121384602F0FB
:107660006CFF484602F08FFF404602F08CFFDAF8CC
:1076700008000290C0B203300AEB800002A9FFF7B5
:1076800093FF029B30BBDAB20AEB8202D16803910E
:107690009A1C0133DBB20AEB83030292D3F80CB0DD
:1076A00001F00303012B22D0022B15D08346404664
:1076B00002F06CFF10B1029BCAF8083059463846F8
:1076C00002F03BFFDAF80830DAF8042003F58073A3
:1076D0009B1AA5E7D8B2CEE7BDF80E30C3F38913E5
:1076E00003334FEA1B4B02EB93030293DFE7BDF832
:1076F0000C30C3F383134FEA1B4B1344F5E7A40587
:1077000044F0060098E700BF702C0020064B0748A5
:1077100010B500221A7003F0A8F9044610B9044805
:1077200003F010FA204610BD702C0020EC05030079
:107730000C07030030B50A4C71B10A4A0A49121B02
:10774000D20800239A4201D1002030BD31F82350E5
:10775000854202D00133F5E7034654F83300F4E7DD
:1077600000060300A8060300E82A0020094B01399F
:1077700003EBC000032909D8DFE801F00A02040680
:1077800004207047007970474079704700207047A7
:107790000220704700060300034BD3E90130C31AEF
:1077A00058425841704700BF702C00202DE9F0412D
:1077B00086B0FFF7F1FF0546002840F0ED80774CDA
:1077C000C4F81804BFF34F8FA3680293DBB20333EE
:1077D00004EB830002A9FFF7E7FE029B18B1D4F87F
:1077E0001824002A5AD0DAB2991C013304EB820221
:1077F000DBB204EB8303D268DB68049302F003037B
:10780000022B0392029154D1BDF80E306448C3F3A9
:107810008917502F3E4628BF502606F1080166F30F
:107820008F13C1F30901ADF80E3003F036F90546A8
:10783000002800F09C8003F05FF90023082203A9D0
:10784000284603F06BF90299CB43DBB20133C9B28E
:107850000331B6EB830F4FEA830204EB810125D994
:107860005FFA82F80823A6EB0806284603F056F9CB
:10787000F6B208F108034B4903F0FC0332462846F0
:1078800003F04CF9029B033703EB97070297D4F8F8
:107890001834002B43D1D4F8106453E062689A4244
:1078A00094D8A260284606B0BDE8F081082332468D
:1078B000E5E7012B5BD1BDF80C303948C3F38311E8
:1078C000062928BF062161F38913023101F00F0157
:1078D0008900ADF80C3003F0E0F80546002846D0EA
:1078E00003F00AF90023082203A9284603F016F939
:1078F0000026BDF80C20C2F38312B300964203F1B8
:107900000803C4D202994A1CC9B20331029204EBA3
:1079100081010422284603F001F90136E9E72846EF
:1079200003F0EEF8FFF738FF80F00100C5B2B9E7C9
:10793000F3685B7923B1336829461B683046984762
:10794000F3681E68002EF3D1284603F0D9F80DF134
:1079500007008DF8076002F0FDFAD4F818340BB96F
:10796000029BA3609DF8070002F018FBDAE7D4F849
:10797000104454B90C4B0D480D49C01AC0080004FE
:1079800040F0020000F05CF8CCE7236820469B68DA
:107990009847E3681C68ECE7002583E7702C00201B
:1079A000EC0503007C2C00200006030030060300D9
:1079B000F50603002DE9F34704460E46924601A959
:1079C000012218469946FFF70DFE1B4F10B3019D8B
:1079D0004FF00008AA1CC84508EB020123D1174844
:1079E000002102F07BFD80F31000000440EA144007
:1079F000E4006B1C04F03804DBB2EDB244F0010487
:107A000007EB8303033544EA881444EA8624D860EC
:107A100047F825403B781BB1FFF7C8FE0028FBD193
:107A200002B0BDE8F087C9B207EB81015AF82830EF
:107A3000CB6008F10108CEE7702C00208C300020CC
:107A400000231A46FFF7B6BF07B50123019201AA2A
:107A5000FFF7B0FF03B05DF804FB07B5CDE90023E5
:107A600002236A46FFF7A6FF03B05DF804FB1FB5CB
:107A7000CDE90123069B039301AA0323FFF79AFF95
:107A800005B05DF804FB1FB5CDE90023069B02930A
:107A9000079B03936A460423FFF78CFF05B05DF84C
:107AA00004FB000030B50F4CD4F81024034600202E
:107AB000114631B9D96808714AB9C4F810340A605E
:107AC00030BDC9680D79854206D00968F1E7D268F2
:107AD00014680C601360F3E701300A28E8D14FF016
:107AE000FF30EDE7702C002038B5084B0125D3F8A6
:107AF00010441D7004B938BDE3685D7123682046E9
:107B00005B689847E3681C68F4E700BF702C0020AE
:107B100030B5C38885B004460D4633B1144A00928F
:107B20001449154A284602F094FD217A05291DD0F2
:107B3000637A4BB1A088FFF719FE104B104953F838
:107B40002020284602F085FD227A0E4BA08853F8AB
:107B5000222003920021FFF7EDFD039A0A49034614
:107B6000284605B0BDE8304002F073BD05B030BD19
:107B7000380703002007030018070300A4070300C9
:107B8000C4160300C80703003D07030007B50346FA
:107B90000846197A052911D05B7A2BB1094A0A499E
:107BA000019002F056FD01980849019002F051FD44
:107BB000019803B05DF804EB02F040BD002AF8D054
:107BC000F2E700BF38070300C416030035070300BF
:107BD0002DE9F04385B01F460C9D002395F80C90CD
:107BE0002B7306460C46904629463846FFF790FF11
:107BF000B8F1060F09D8DFE808F00412181F28337F
:107C000040003146284602F024FD0022294638462D
:107C1000FFF7BCFF85F80C9005B0BDE8F083226843
:107C20003146284602F015FDEFE7D4E9002331463E
:107C3000284602F00EFDE8E7A36800933146D4E938
:107C40000023284602F005FDDFE7E3680193A368FF
:107C500000933146D4E90023284602F0FAFCD4E729
:107C600023690293E3680193A36800933146D4E942
:107C70000023284602F0EDFCC7E7636903932369FC
:107C80000293E3680193A36800933146D4E900238B
:107C9000284602F0DEFCB8E708292DE9F74F8046B8
:107CA0000E4617461C463CD8002593F80C901D73D1
:107CB00019461046FFF72CFFDFF888A0DFF888B0E0
:107CC000AE4231D918F805205946204602F0C1FCD1
:107CD0000135082DF4D11949194DDFF870A020465F
:107CE00002F0B7FC4FF0000B5E4522D918F80B20CC
:107CF0007E2A05D81046019208F072F8019A00B960
:107D00002E225146204602F0A4FC0BF1010BBBF1E0
:107D1000080FE9D1012221463846FFF737FF84F8E2
:107D20000C9003B0BDE8F08F5146204602F091FC64
:107D3000CEE72946204602F08CFCE6E75107030017
:107D40004F0703004D0703004707030053070300D5
:107D5000C30710B507D4F023054A4008145C23403C
:107D60001943115410BD0901C9B20F23F4E700BF34
:107D70005831002030B5094B1C78094B1968002395
:107D80009C4202DC0022104630BD11F8335085427F
:107D900001EBC302F7D00133F2E700BF2831002026
:107DA0007831002013B504460191FFF7E3FF38B1A5
:107DB00043682BB10199204602B0BDE81040184736
:107DC00002B010BD034B044819680022490800F0B6
:107DD0002CBA00BF2C3100203031002010B5C0B2C9
:107DE000FFF7C8FF0446007803F020FD63785A1EB1
:107DF00053425341834208D1044BD3E90023134338
:107E000003D1BDE81040FFF7DDBF10BD50310020A9
:107E100037B54308374AD35CC2074CBF1B0903F090
:107E20000F0304460D46042B25D8DFE803F0032694
:107E30002F3C4000F9B10121FFF78AFF00230DF12B
:107E400007008DF8073002F085F80120A4F1200327
:107E5000C4F12001284A20FA01F100FA03F30B4390
:107E6000A040D2E9004120430B43C2E900039DF842
:107E7000070002F093F803B030BD002918BF0221BB
:107E8000204603B0BDE83040FFF762BF49B103218F
:107E9000FFF75EFF0121204603B0BDE83040FFF749
:107EA00081BF0121ECE70029E5D10421E8E709B110
:107EB0000321E5E7FFF74CFF29462046FFF772FF55
:107EC0000DF107008DF8075002F044F80120A4F1ED
:107ED0002003C4F12001084A20FA01F100FA03F35B
:107EE0000B43A040D2E9004124EA000021EA030349
:107EF000BBE700BF58310020503100202DE9F04190
:107F0000124E134F00243378A34208DC114BD3E9FF
:107F10000023134318D0BDE8F041FFF753BF3D687D
:107F200005EBC40815F8340003F080FC98F8013024
:107F30005A1E53425341181A4142414115F8340028
:107F4000FFF766FF0134DEE7BDE8F081283100204D
:107F50007831002050310020092AF7B505460C463B
:107F600016463ED903F08AFBE8B11F4B1F481D603F
:107F70001F4B204F1C70204B002120221E6007F059
:107F800082FF1E4B00200021C3E90001013CE4B246
:107F90000326FF2C0DD11A4A1A48002103B0BDE870
:107FA000F04000F037B903F023FB0028DDD003B028
:107FB000F0BD9DF8063015F834008DF8046005EB2F
:107FC000C40223F007038DF8063001A993788DF8D9
:107FD00005303A4603F05CFB013CE4B20028D8D0FF
:107FE000E5E70720E3E700BF7831002058310020A3
:107FF00028310020DD7D02002C310020503100208E
:10800000FD7E0200E807030070B5084D084E00240D
:108010002B789C4201D3002070BD3368012113F8F6
:10802000340003F0B5FB0134F2E700BF2831002033
:10803000783100201FB50021039001AA44F201000D
:10804000CDE9011100F004F805B05DF804FB000073
:1080500038B572B6FFF748FDFFF7A8FB0028FBD143
:10806000104B114C114D1249E41AE408240444F059
:108070000100FFF7E5FCD5F8F030DB0700D500BEC6
:108080000C4944F00200FFF7DBFCBFF34F8FEA68B6
:10809000094B02F4E0621343EB60BFF34F8F00BF64
:1080A000FDE700BF000603003006030000ED00E01E
:1080B000EC070300F80703000400FA0510B5D0E947
:1080C0000243D1E90202A04272EB03032CBF01205C
:1080D000002010BD08B50A4802F093F8094AD2E919
:1080E0000031C018084BD3E9002341F10001904250
:1080F00071EB030303D210F1807041F1000108BD60
:10810000042B002080310020F831002037B50546CF
:108110000C460A4801A902F050F960B105704460AC
:1081200001A9064802F073F918B1054802F06EF88B
:10813000002003B030BD0420FBE700BFE431002085
:10814000042B002038B5184B1B78044613B90025C2
:10815000284638BD0028FAD0037F03F0FF05002B26
:10816000F5D0FFF7B7FFD4E90223904271EB030388
:1081700014D3236903B92377D4E9053098472169DB
:108180000029E4D0237F03F0FF05002BDFD0D4E9E2
:1081900002325B1842F10002C4E902320348214670
:1081A00002F0EFFCD4E700BF883100201408030080
:1081B00013B5114B11491868019008231048582233
:1081C00002F0E8F8044698B90E4A0F4801A901F0F8
:1081D00009FF044660B90C48012101F0F5FF0123B5
:1081E0000A4A0948194601F057FF094B01221A7043
:1081F000204602B010BD00BF100803008C310020E3
:10820000E431002075820200042B0020FFFF7F0074
:10821000883100203AB103685A614A1E51425141E7
:108220001961002070470720704738B5037F044666
:108230000D4683B98261FFF74DFF2369281841F18C
:108240000001C4E9020103B1256121460020BDE817
:108250003840FFF75BBF002038BD0023014603779D
:108260000120FFF753BF0000014801F0CABF00BF63
:10827000042B00202DE9F347064601F0ADFF40B185
:10828000584AD2E9003113F1807341F10001C2E98B
:1082900000310021304601F0AEFF38B1524C236866
:1082A00023B12068FFF74EFF0023236001213046F1
:1082B00001F0A1FF20B1FFF70DFF4C4BC3E9000116
:1082C0004B48494D4B4C4C4F01A902F0B0F80028E7
:1082D00042D1DFF82081444CDFF82491404602F07F
:1082E00066FC2368002872D07BB12368D0E9025273
:1082F000D3E902138D4272EB03032AD223681B7F5A
:108300001BB12168404602F03CFC404602F049FCAB
:10831000D0E9027A0546FFF7DDFE381A6AEB010A5A
:1083200001287AF1000345DBB0F5350F40D3FFF7A4
:108330009BFF324A02444FF496030021484601F065
:10834000CBFE00283ED1236813B9304601F09CFED5
:10835000256002B0BDE8F0870378012B1DD0022B09
:1083600009D14FF00008204602F01BFC002836D04F
:1083700080F81C80F7E73BB941680B7F23B90123E4
:108380000B77204602F0FDFB01A9194802F07AF8AC
:1083900001A9174802F04BF899E741682B68994208
:1083A00002D100232B60EFE7204602F003FCEBE74D
:1083B000AA68C0E70021484601F013FF2846FFF7EE
:1083C000C1FE01E00D28F9D00023236086E7002BD1
:1083D000BFD1304602B0BDE8F04701F059BE0123DD
:1083E0003B70D1E78031002000320020F8310020BE
:1083F000E43100201408030088310020FFFFB4009E
:10840000042B002043681B6818470000024B5B6880
:1084100003B11847704700BF08320020020600F081
:108420000F034CBF02480348DB001844704700BFED
:10843000143200205C32002008B5FFF7EFFF016026
:1084400009B14B681968416008BD0000024B014644
:10845000D3E90002104700BF5C32002038B5831E0C
:10846000DBB2062B98BF1A4A1A4D98BFD25C2B7804
:10847000A3F10203DBB288BF0022062B9ABF144986
:10848000CB5C00239342044603D0B2B1124802F001
:1084900043FE022C14D0A4F10800424242412B7842
:1084A000022B0FD0A3F108014B424B41934202D063
:1084B00052B104F065FD2C7038BD02F067FEE8E7AC
:1084C0000122ECE70123F1E704F050FDF3E700BFE0
:1084D00029080300D43300200C2B00200378052B3F
:1084E00073B504460BD12F4AD2F88434D2F88024D5
:1084F000D2B222B92C4ADBB2052B08BF144623782E
:108500002BBB2A4B1D68DDB98DF80450284D01A8FE
:1085100001F020FD2B6813B9264B62881A800121D7
:10852000234802F00AF89DF8040001F037FD224BC1
:108530001B6813B10121204698472B6802B070BD1B
:108540002B6860889B6898472B685D68DBE71B4851
:1085500001A901F032FF05460028EFD0236803602F
:1085600000260DF103008DF8036001F0F3FC114BC0
:108570000F481B88026801339B1AEB80314601F0DB
:10858000ADFFA8809DF8030001F008FD01A90B488C
:1085900001F03DFF084B1B680146002BCED0204662
:1085A0009847CBE70070024040080300C833002022
:1085B000D0330020A432002008320020B033002045
:1085C000FFF78CBF012805D0022805D030B9044838
:1085D000FFF784BF0348FBE70348F9E7704700BF94
:1085E00038080300340803003C0803000148FFF783
:1085F00075BF00BF440803002DE9F04F87B0002687
:108600000546884691461F4602966B6800225C68C4
:108610002946012302A8A047044638B98DF8060070
:1086200004908246564503D8052028E00136ECE741
:108630006B680DF10602D3F804B02946012304A8A3
:10864000D8476B680DF10702D3F804B0294601231F
:1086500004A8D8479DF8073043459DF8063013D14C
:108660004C450FD1109A13603B7087F801806A68FF
:10867000023B54682946BA1C04A8A047002007B052
:10868000BDE8F08F0134E4B26A68023BD2F804B06E
:108690002946002204A8D8479DF806309A44C1E72D
:1086A0002DE9F743082305462D492E484FF48472DF
:1086B00001F070FE002851D12B4804F077FC0446ED
:1086C000002847D1294B1870294B1860294B0146C7
:1086D00018604822284807F0D6FB2848482221463F
:1086E00007F0D1FB264B8DB9C3E900551D72002060
:1086F00002F0E0FD18B1852801D0FFF79BFC214F67
:10870000002697F8089007F1090810E095E807009F
:1087100083E80700EBE7A37823443946985CFFF72A
:108720008BFE01356378EAB29342F4D80136F4B295
:10873000A14504D904EB440444440025F2E70B238B
:1087400010488DF8043001A9FFF75CFE044608B11B
:1087500004F0F4FA204603B0BDE8F0830324F9E7FF
:10876000A6320020B0330020C1850200D43300209F
:10877000C0330020C4330020143200205C320020BB
:10878000083200207808030010B504F0A7FB10B9E8
:108790000823184610BD04F0A9FB04460028F7D1B1
:1087A000044802F0BBFD03460028F2D0FFF742FC6C
:1087B0002346EEE73008030004F0CABA04F014BF01
:1087C0004FF08043D3F83824920702D50348FFF7CF
:1087D00085BED3F83824D107F4D470474908030084
:1087E00007B5822301A88DF80430FFF777FE03B0A8
:1087F0005DF804FB2DE9F74300F1090190F80890BA
:10880000054600270E46FBB24B452AD291F801805F
:108810000024E3B298450AD98B780A190134D05C58
:10882000FFF7FCFD0368002BF3D0112028E001378F
:108830000331E8E7A27823442946985CFFF7FCFD62
:1088400001376278FBB29A42F4D808F101082B7A1A
:108850005FFA88F4A34216D904EB44043444002799
:10886000EFE74FF00008F2E713681A68002AFBD11F
:108870001D6001A90B2328468DF80430FFF7C2FDC7
:1088800003B0BDE8F083014BEFE700BFC033002029
:10889000024B1878003818BF01207047CC330020F5
:1088A000030710B5044604D404F0A8FC204604F0E5
:1088B00069FF2046BDE8104004F00EBF04F0DABEA8
:1088C000014B1868704700BFC0330020F0B50A4B59
:1088D0000246186878B1057A0023861DDCB2A542ED
:1088E00001D80368F5E7013303EB4307F75D9742CF
:1088F000F4D101B10C70F0BDC03300201146FFF778
:1089000081BD08B500F00F03082B07D8FFF786FDDF
:10891000006818B1BDE80840FFF774BD102008BD1D
:1089200038B5054B05461C6804B938BD29462046B4
:10893000FFF768FD2368F6E7C033002038B5074B22
:1089400005461C680CB9062038BD29462046FFF7AD
:1089500059FD0628F8D12368F3E700BFC033002093
:1089600013B50446019104F067FB50B1064B1B7828
:10897000022B06D10199204602B0BDE8104004F058
:108980006BBB082002B010BDD433002013B50446E1
:10899000019104F051FB50B1064B1B78022B06D11C
:1089A0000199204602B0BDE8104004F0CFBB08207A
:1089B00002B010BDD4330020F8B543689B6805466B
:1089C0000C46164613B92EB1072002E09847062838
:1089D000F9D0F8BD2B7AA34213D9093504EB44042E
:1089E0002C446778F3B29F4201D80020F1E7627807
:1089F0009A4208D9A219A378D05CFFF751FF01363B
:108A0000F0E77378FFDE00231B78FBE74368DB6841
:108A100070B505460C4603B198472B7AA34213D98B
:108A2000093504EB44042C4400256678EBB29E42E1
:108A300000D870BD62789A4209D96219A378D05CD7
:108A400004F018FE0135F1E700235B78FFDE002318
:108A50001B78FBE743681B6903B11847184670474A
:108A600070B5084B1C6804B970BD267A0025E9B2C0
:108A70008E4201D82368F5E700222046FFF79CFFCD
:108A80000135F4E7C033002070B5084B1C6804B909
:108A900070BD267A0025E9B28E4201D82368F5E739
:108AA0002046FFF7B3FF0135F5E700BFC0330020D4
:108AB00038B503780F2B044610D9A3F1800283F058
:108AC0008003052B00D938BD052AFCD8DFE812F059
:108AD00067002C00490073007E00E0000F2BF2D8E5
:108AE00001A252F823F000BFEF8B02001F8C02009E
:108AF0007F8C0200438C0200618C0200918C02008A
:108B0000A38C0200C78A0200CD8C0200D18C020027
:108B1000D58C0200C78A0200C78A0200C78A0200F9
:108B2000C78A02009B8C02006B48FFF78FFC6A48E3
:108B3000FFF7F6FE0D20FFF769FCFFF7A5FF00F039
:108B400024FF664B1B6853B9654B187A00F001008F
:108B500004F0A0F90120BDE83840FFF77FBC0120F8
:108B6000F4E7FFF791FF04F01DFD0020FFF776FC0E
:108B70005C48FFF7D5FE5B48FFF768FC0E20FFF767
:108B800045FC594B1B78023BDBB2062B9BD8574A5E
:108B9000D35C002B97D0BDE8384002F0F7BA524BB7
:108BA0001B78062B05D003F0FD03052B8BD102208B
:108BB000D1E70820CFE74C4B1B78032B83D104F07F
:108BC0002DFD00283FF47FAF0420C4E7464B1B78FF
:108BD000032B05D104F022FD10B10420FFF73EFC69
:108BE00004F08EF900283FF46EAF0620B3E73E4B49
:108BF0001B78032B01D0082B02D13D48FFF758FF0B
:108C00000020FFF703FC354B1D68002D3FF45BAFE0
:108C100028462146FFF7F6FB2B685D68F5E7FFF76E
:108C200033FF00F0A9FE0220FFF718FC0120FFF738
:108C3000EDFB2046FFF70AFC2046BDE83840FFF771
:108C40006FBE294B1B78082B06D10220FFF706FCCC
:108C500004F0A0F90320EAE70520FFF7FFFBF9E79E
:108C60000320FFF7D3FB2348FFF7F0FB2148FFF772
:108C700057FE1D4B1B78062B99D107206BE703206D
:108C8000FFF7ECFB0220FFF7C1FB2046FFF748FE91
:108C90002046BDE83840FFF7D9BB0F20FFF7B6FBF1
:108CA000CAE78078FFF7BAFB214643680068984717
:108CB00000283FF408AFA07802073FF404AF030791
:108CC0003FF501AFBDE8384004F08ABA0820E5E777
:108CD0000920E3E70A20E1E748080300C433002045
:108CE0000832002047080300D4330020290803007D
:108CF000460803004508030073B5244E0023019382
:108D0000336823B92249234801F091FB306034686D
:108D1000ECB1A58885B1E388B3F5006F24BF0023CB
:108D2000E380E388ADF806305A1C013DE280A5805F
:108D300001A8FFF7BDFE07E02046FFF7B9FE144982
:108D4000144801F09FFB3560012002B070BD124B4A
:108D500018680028F9D00DF103008DF8034001F0E8
:108D6000F9F80E4B0C481A88B2F5006F28BF1C802A
:108D70001A88ADF80620511C1980012101F0F5FB7D
:108D80009DF8030001F00AF9D2E700BFD8330020B4
:108D900004320020B0330020D0330020A432002061
:108DA000C36903B11847704703680022C3E91E2254
:108DB000C3E920221A845A62DA6203F134025A6744
:108DC0007047CA699A4210B543600CD38C6904603D
:108DD000086F18440867D01A1C44C86100388C61B9
:108DE00018BF012010BD01F1280202608B6700202E
:108DF000F8E710B5044658B90868037B202B09D161
:108E000000F10E010722183007F014F8204610BDBB
:108E10000320FCE70620FAE7F0B504680D7A002C81
:108E200000F08780A4F213347C2C00F222837C2C87
:108E300000F21F83DFE814F085008F009D00A90079
:108E4000B500C100CD00D9001D031D031D031D0386
:108E50001D031D03EF00FB001D031D031D031D0368
:108E60001801240132011D031D031D034501510199
:108E70007F011D031D031D031D03670173017F0196
:108E80001D031D031D031D031D031D038B011D0376
:108E90001D031D031D039F01AB01B701C301CF01DA
:108EA0001D031D03DB01E701F301FF010B021D039D
:108EB0001D031C022802340240021D031D034C0244
:108EC0005802640270027C021D031D031D031D0372
:108ED0001D031D031D031D031D031D031D031D0392
:108EE0001D031D031D031D031D031D031D039B0205
:108EF000A7021D031D031D03C0021D031D031D0347
:108F00001D03DD021D031D031D031D03DD021D03E3
:108F10001D031D031D031D031D03E902F5021D03AF
:108F20001D031D031D0313031D031D031D031D034B
:108F300013030824047123B940F2133303600120A2
:108F4000F0BD0AB1047914700B24012B04710ED802
:108F50004FF44573F2E700240AB10679165501343F
:108F60000E7D06719C4205D340F21533E6E70124DD
:108F7000F2E700240AB106791655013402269C4214
:108F8000067103D340F21633D8E700240AB10679FC
:108F90001655013402269C42067103D340F2173362
:108FA000CCE700240AB106791655013402269C420A
:108FB000067103D34FF44673C0E700240AB1067963
:108FC000165501344E7E06719C4203D340F219338C
:108FD000B4E700240AB106791655013400269C42F4
:108FE000067103D340F21A33A8E700240AB10679C8
:108FF00016559D4E0027013437709B4E3678AE4291
:1090000002D340F29A3399E70926A342067103D8A6
:1090100040F2213392E700240AB106791655013453
:1090200004269C42067103D340F2223386E70024D3
:109030000AB1067916558C4E0F7A3678DFF82CC2B5
:10904000B74204F1010440F2188201F1090706EB6E
:10905000460607EB060E9C42BE5DCCF800E00671AA
:1090600003D340F2273369E700240AB10679165585
:10907000013400269C42067103D34FF44A735DE726
:1090800000240AB106791655784E36680134767890
:1090900006719C4203D340F229334FE700240AB102
:1090A00006791655714E0F7D36683678B74204F151
:1090B00001041ED102269C42067103D340F22D33D7
:1090C0003CE700240AB106791655013402269C4279
:1090D000067103D340F22E3330E700240AB106793B
:1090E000165501344E7E06719C4225D340F22F3333
:1090F00024E78F7DB74223D10A269C42067103D311
:109100004FF44D731AE700240AB10679165501345D
:1091100000269C42067103D340F235330EE700244B
:109120000AB106791655013400269C42067103D314
:1091300040F2363302E700240AB1067916550134AD
:109140000026A342067103D840F23D33F6E6002420
:109150000AB106791655454E0F7D36683678B74206
:1091600004F1010440F0E98005269C42067103D316
:1091700040F24233E2E600240AB106791655013482
:1091800024269C42067103D340F24333D6E60024E2
:109190000AB106791655013400269C42067103D3A4
:1091A0004FF45173CAE600240AB10679165501340A
:1091B00010269C42067103D340F24533BEE60024DC
:1091C0000AB106791655013401269C42067103D373
:1091D00040F24633B2E600240AB10679165501344E
:1091E00005269C42067103D340F24933A6E60024CB
:1091F0000AB106791655013424269C42067103D320
:1092000040F24A339AE600240AB106791655013431
:1092100001269C42067103D340F24B338EE60024B4
:109220000AB106791655013403269C42067103D310
:109230004FF4537382E600240AB1067916550134BF
:109240008E7D06719C4203D340F24D3376E60024B6
:109250000AB106791655013404269C42067108D3DA
:109260004FF454736AE600BFDD330020E033002082
:1092700000240AB106791655013424269C42067151
:1092800003D340F2513359E600240AB1067916554A
:10929000013402269C42067103D340F252334DE65C
:1092A00000240AB106791655013402269C42067143
:1092B00003D340F2533341E600240AB10679165530
:1092C000013405269C42067103D340F2563335E63D
:1092D00000240AB106791655013424269C420671F1
:1092E00003D340F2573329E600240AB10679165514
:1092F000013406269C42067103D34FF456731DE6D3
:1093000000240AB10679165501340E7D06719C427F
:1093100003D340F2593311E600240AB106791655F9
:1093200001348E7D06719C4203D340F25A3305E628
:1093300000240AB1067916550134534E3668777801
:10934000524E3770524E00273770514E37784F4E7D
:109350003678B74204D34F4F3E7801363E704CE624
:109360000726A342067103D840F26E33E6E50024D7
:109370000AB106791655013405269C42067103D3BD
:1093800040F26F33DAE500240AB1067916553E4EF5
:109390003F4F36683F7896F801C0BC4504F10104A0
:1093A00070D996F802C03E449C4216F80C600671D3
:1093B00003D340F27333C1E500240AB10679165590
:1093C000314E0F7D36683678B74204F1010406D17C
:1093D00003269C4206710DD34FF45E73AEE58F7D7C
:1093E000B7420BD102269C42067103D340F27D3373
:1093F000A4E500240AB10679165501344026A3429B
:10940000067103D84FF4617398E500240AB1067918
:109410001655013400269C42067103D340F2853371
:109420008CE500240AB106791655174E0F7D366873
:109430003678B74204F1010407D10E6A9C423678AF
:1094400006710DD340F28A3378E58F7DB7420BD198
:1094500000269C42067103D340F28F336EE5002450
:109460000AB1067916550134094F3E7801363E702F
:109470006BE700230360184662E50023CCF8003058
:109480001B78FFDE0023FBE7E0330020DC33002005
:10949000DE330020DD330020037A012B08D9427B24
:1094A000012A00F10C0306D9827B134458787047D7
:1094B00000235B78FFDE00231B78FBE72DE9F047F4
:1094C0000B7888B005460E460E2B1AD8DFE813F04D
:1094D000600040016000600019000F00AB0019003F
:1094E00019003D01190060006000600060004A78CA
:1094F000D1094FEA521335D013F0030303D0012BE7
:1095000021D006241BE002F01F02012AF9D1B47811
:10951000062CF6D105A8039300F0AEFC03AB009334
:10952000F2783179034607462846FFF765F80528A3
:1095300005D0039A3946701C00F042FA04462046D2
:1095400008B0BDE8F087B378212BDAD1B6F8072050
:10955000072AD6D10168701C183108B0BDE8F04761
:1095600000F02EBA012BCCD1B3780768202B11D094
:10957000222BC6D1B6F80730002BC2D13A8CB6F8F0
:1095800003303B8402F0010203F001018A4225D13D
:109590000024D4E7B6F80730072BB2D14FF4E462C9
:1095A000BA8100240DF10B000E37CDE90573079445
:1095B0008DF80B4000F0CEFC204605A9FFF7D0F94E
:1095C000044630B9684B03A9CDE9033500F0E6F94C
:1095D00004469DF80B0000F0E1FCB0E78CB2C1F14D
:1095E0000301C9B2FFF7DCFB002CD1D12B7A012B90
:1095F00040F2B4806B7B05F10C02002B00F0B080D0
:10960000AB7BD05C03F024FF2846FFF745FF03F057
:109610001FFF07F13403C7E91E44C7E920447C62F9
:10962000FC627B678BE7037A002B00F09B80837AD8
:1096300000F10901002B00F09380C27AB3788A5CB4
:109640009A42A5D01B06F77809D527B1032F14BF7E
:109650000324002473E70121FFF7A2FB98E707F03A
:10966000FD03012B94D0002F76D10668FFF714FF7D
:109670003E4BB46A059306F10C0381460693C4B9C8
:10968000F36FB467C6E91F43F36A63B1D6E90B0110
:1096900006F1240383E80300F46205A94846FFF7B6
:1096A00075F9044600E0746200212846FFF778FB54
:1096B00045E7D6F884A0706A544528BF544606F1A1
:1096C00034082246414606F0B5FBF36F2344C6E951
:1096D0001F73AAEB0403B367F36A444474672BB3A4
:1096E00006F1240406F12C0898E8030084E803003E
:1096F000B36F706AF7621BB9736A002BCDD116E0A5
:10970000B26A716F9A4214D806F094FBB36AB26FD2
:10971000C6F88030D21AB267726F1A44726700219D
:109720002846FFF73DFBF36A002BDDD1736200246E
:10973000BAE71A4606F07EFBB26FB36AF2679B1A6D
:10974000B362736A13447362D6E70321FFF728FB01
:109750002846FFF729FB1BE70324F0E66378FFDECA
:109760001B78FCE75B78FAE7F38D0200C38D0200FB
:109770001FB503681B8CDC0714D5037A012B13D9A2
:10978000437B00F10C0493B1837BE05C9306CDE94D
:1097900001120CBF0123002301A90393FFF7E0F896
:1097A00004B010BD0820FBE700235B78FFDE1B78C8
:1097B000FCE70368D3F8800070470000F7B5046841
:1097C000238CDB070F4616463BD5656A002D32D148
:1097D000A16F91420ED3616F384606F02BFBA36F49
:1097E000C4F880609B1BA367636F3344636728469C
:1097F00003B0F0BDC4E90972FFF74EFE134B0093AE
:1098000004F10C030646019369B10A463846616FBC
:1098100006F010FBA36FA26AD21AA262626AC4E9C0
:109820001E531A44626269463046FFF7AFF80028BB
:1098300008BF9220DCE7E36A2BB9C4E90B1292203F
:10984000D6E70820D4E71120D2E700BFC38D02007D
:10985000002070472DE9F04F2DED028B4B6885B04D
:1098600080460C4601926BB90B681B681B684BB9AC
:109870008D683DB9C0E90055284605B0BDEC028BA6
:10988000BDE8F08F03F0A8FC019BE7689F4228BF6A
:109890001F4604F110034FF0000A08EE103A81460B
:1098A000564601254FB3A3686168BB429B4628BF5B
:1098B000BB4629B35A4609EB060006F0BBFA002363
:1098C0006360A268E368A2EB0B02A3EB0B03A26048
:1098D000E360A7EB0B075E440ABBBAF1000F03D0AD
:1098E0002268126812682260DBB12368DBB963600A
:1098F0001EB1019BB34288BF0025C8E90096BBE7B3
:10990000002BDED021684B6818EE100AD3F804A0B3
:1099100009EB06025B46D0474FF0010AD1E7002B66
:10992000C0D10025BEE70023029321684B680022C6
:10993000D3F804B002A80123D84708B92061B1E7E1
:10994000A3680133A360F0E7084B1A7882420CD079
:10995000052818BF064A187018BF137805481CBFA1
:1099600023F002031370FFF7A3B87047F033002011
:109970000C3400208808030008B50020FEF790FF93
:10998000BDE808408020FEF78BBF08B50020FEF739
:1099900095FFBDE808408020FEF790BF38B505462A
:1099A0000C4603F0ABFCA84205BFD4E90001034B11
:1099B0001020C3E9000108BF002038BD103400208A
:1099C0007FB5C38893421E4628BF164693420D4674
:1099D000144625D9802003F029FBB4FBF0F202FBEA
:1099E0001044B4FA84F4640900230DF103000394D5
:1099F0008DF80330CDE9015600F0ACFA01A98020C2
:109A0000FEF7AEFF044620B906498020FFF7C6FFE7
:109A100004469DF8030000F0C1FA204604B070BD72
:109A20000024E1E7BC0803002DE9F04F0B780E2B72
:109A300089B00D4613D8A3B1013B0D2B11D8DFE837
:109A400013F012001A00160010002A00FA0110008C
:109A50001000100010001A00E401E801F801852B45
:109A600013D00624E1E10320FFF76EFFF9E7A848D1
:109A700000F08CFD08B90024D7E1A64B0122DA657D
:109A8000BFF36F8FBFF34F8FF5E7A34B1B78032B0B
:109A9000E7D10420E8E70523A04D8DF814300DF13F
:109AA000150003F0BBFB00232B609DF8153003F07D
:109AB0001F07032F00F26281DFE817F00400FB00AC
:109AC00057013E0013F0600FC3F3411834D1DB0996
:109AD0009DF8161000F0A680062916D0082900F07F
:109AE000938049BB8E4C0222204606F0CCF92378A5
:109AF00043F0010222708B4A1278920744BF43F070
:109B000003032370022286490EE09DF81830022BD1
:109B100016D0032B68D0012B0ED1BDF81B30002BC3
:109B200000F07081804912220DF11500FFF748FF07
:109B30000446062C40F02A8105A8FEF7FFFE12E13C
:109B4000BDF81B60002E00F05D81092E28BF09269C
:109B5000FEF7B6FE4FF00909044674BB704C73491A
:109B60003246204606F066F92771A4F80290FEF707
:109B70008FFE18B1E37943F02003E371FEF7A0FEF6
:109B80006B4BC3E900049E60BDF81B20DA6003A89C
:109B900000238DF80C3000F0DDF966498020FEF7D7
:109BA000F5FE044620B964498020FFF7F7FE04461D
:109BB0009DF80C0000F0F2F9BBE7CDF80C804FF0F7
:109BC000000A63680022D3F804B02146012303A8E9
:109BD000D84730B9237A1F442368D1441C68FFB2A8
:109BE000BBE70AF1010AECE7BDF81B30002B00F0DF
:109BF0000981BDF819109DF8170000F08DF9014694
:109C0000002899D002788FE7434A1278052A03D1B9
:109C1000434A1370012276E7042A8DD1404B83F822
:109C20000080F7E7032910D009292CD0012983D11E
:109C3000BDF81730012B7FF47FAFFEF729FE60B12E
:109C4000384A137823F002030FE0BDF81730012BD8
:109C50007FF472AFFEF71CFE18B90F2403F044FB2B
:109C6000E3E0304A137843F0020313702B68002BB3
:109C700000F0C88003F042FB044600287FF4FBAEEE
:109C800003F0F2FAD1E0244B1B78043B012B01D9FD
:109C90000824E3E79DF817302BB9FEF7F5FE042002
:109CA000FFF752FEE2E7012B56D1FEF7D9FE052061
:109CB000F6E79DF8190003A9FEF708FE064608B965
:109CC0001024CBE79DF80C1005AAFEF717FE062816
:109CD00004465BD19DF8152012F0600FBED10E4BEB
:109CE0009DF80C1018789DF81630D2092CD02BB3A3
:109CF0000A2BB3D10528CBD130460192FEF7AAFE3C
:109D00000749019A08700DF11500FFF759FE2AE086
:109D10001834002000700240F0330020103400207E
:109D20001C3400200C340020A8080300890803001C
:109D3000F4330020C4080300BC0803000528A7D1A1
:109D40004A490B800222DEE70B2B87D105289FD1E1
:109D5000BDF81730FF2B01D907247FE79DF81720A6
:109D60003046FEF729FE044610E09DF8190007076B
:109D700006D19DF8153013F0600F0BD006246DE767
:109D800005A9FEF7BEFD06280446F2D0002C3FF4DC
:109D90006DAF63E79DF81620354B9DF819401B7891
:109DA000012A1DD0032A0CD0002AE7D1052B02D0AE
:109DB00026077FF46DAF204603F01EFA2B4908807A
:109DC000C0E72007DAD4BDF81720002AD6D1052B2A
:109DD00002D021077FF45CAF204603F001FA45E78B
:109DE0002207CBD4BDF81720002AC7D1052B02D0FB
:109DF00023077FF44DAF204603F000FA204603F01E
:109E0000C1FC33E703F066FA35E60020FFF79CFD5E
:109E100031E64FF08043D3F8384414F0010401D008
:109E20000220F3E70120FFF78FFD204609B0BDE8CF
:109E3000F08F0120EAE7C87803283FF412AE0D4EF8
:109E400033688BB10022716832609847044600285D
:109E50007FF404AF336823B1AB78002B7FF40BAEF3
:109E60000EE703F037FAE0E70E24F7E61C34002093
:109E7000F03300201034002008B140230360014873
:109E8000704700BF1C34002070B54FF0805286B080
:109E9000D2F8A830D2F8A42000926FEA83436FEA88
:109EA00093430B4A0B4E9BB20D2102A805F09DFF78
:109EB00002AD002402A806F019F8844201D306B0CE
:109EC00070BD15F8013B06F8013B0134F2E700BF15
:109ED000CC0803005C34002010B50E4B53F8204032
:109EE00023780BB9A01C10BD0020FFF7C5FF013C73
:109EF00000235A1CA15C39B9DBB201335B00DBB231
:109F000043F440730380EEE7D3B220F813101346F6
:109F1000EFE700BF28090300034608B9FFF7DCBFDD
:109F2000012807D0022805D0032803D0042801D037
:109F3000052809D1054800EB4303587820B1044BAC
:109F400053F82030002BE9D100207047400903006E
:109F50002809030070B5EFF3108672B60C4A9468B6
:109F600001239CB993600B4B0B4DD3F88010294013
:109F70001160C3F88050D3F8841051604FF0FF3265
:109F8000C3F88420047006B962B670BD0370FAE7A6
:109F90006C34002000E100E0FC06FFBD084B9A682D
:109FA00010B55AB150B9EFF3108172B6054A1C686A
:109FB00014605C685460986001B962B610BD00BF5F
:109FC0006C34002000E100E0435882B03BB1002334
:109FD000435043580193019B012002B0704718463B
:109FE000FBE70000F8B5204B4479204E43F82420CD
:109FF0001F4A204B06EBC4049B1A2279DB081B0482
:10A0000032B143F002001C49FDF71AFD0820F8BDEB
:10A0100002680C88C2F8084590F904508A780479DF
:10A020005201002DD2B219DB14494F1987F80023D1
:10A0300001226D0904F01F0402FA04F441F82540DE
:10A04000427906EBC201012446F832000C7143F05C
:10A0500003000B49FDF7F4FC0020D8E7094904F0A0
:10A060000F040A55ECE700BF80340020783400204C
:10A0700000060300400603004C09030000E100E075
:10A080006E09030014ED00E0036801221A607047B6
:10A09000036801225A60704773B501F15005AD00A5
:10A0A0000068ADB24FF480348C400026C0F80843FD
:10A0B000C0F84843465101F5A8714559019522F071
:10A0C0007F42019D40F82120C0F844430BB1C0F805
:10A0D000044302B070BD00002DE9F74F0D4622F099
:10A0E0007F4402684FF4803705F150068F40804668
:10A0F000B60002EB8500C2F84873B6B2C2F8087326
:10A10000D2F8041599464FF0000BD0F84035C0F84E
:10A11000401542F806B05B1A9259009223F07F4333
:10A12000012B009A4FEA850A0CD1264B4FF4806030
:10A1300043F001039847D8F8003043F806B09B5924
:10A140000193019BD8F80010D1F80465C1F844735D
:10A15000A31B23F07F43012B1CD11A4B05F5A875D7
:10A16000013443F0010341F825404FF480609847E3
:10A17000D8F80030D3F804359E4209D1D8F8003021
:10A180000020C3F84473C3F8047303B0BDE8F08F34
:10A190000D20FAE78A44C9F1FF13CAF84045D1F807
:10A1A0000405221A013A22F07F4203F57F439342CD
:10A1B000EED3002AE2D10134CAF84045D1F8043583
:10A1C0009842DAE78009030003680222C3F84423B7
:10A1D00009B1C3F80423704700684FF48271FFF798
:10A1E000F3BE4FF4803303FA01F10368C3F8481358
:10A1F000C3F80813704750318900006889B2FFF72F
:10A20000E3BE0368D3F804057047000090F90430FA
:10A21000002B09DB5A09012103F01F0301FA03F3A4
:10A220004032024941F82230704700BF00E100E0AF
:10A23000024B034A1B681068184700BF8034002097
:10A24000783400201EF0040F1CBFEFF309800AE0F1
:10A25000EFF308800549064A884201D8904202D8A7
:10A260008D464FF00000034B18470000000004200B
:10A2700000E003209DA20200BFF34F8F0549064B6B
:10A28000CA6802F4E0621343CB60BFF34F8F00BF94
:10A29000FDE700BF00ED00E00400FA052DE9F347FB
:10A2A0000546FDF721FCFDF781FA0028FBD12D4C76
:10A2B0002D482E4B241AE40824049F6A44F001041C
:10A2C000002D49D0AA692A492046FDF7BDFBEB685D
:10A2D0000193AB68274900932046D5E90023FDF799
:10A2E000D2FBEB6900932449D5E904232046FDF70E
:10A2F000BEFB1E4BDB6A990703D520492046FDF7BC
:10A300009FFBDFF88890DFF888A000264FF0010857
:10A3100008FA06F33B4206D059F826201AB15146F6
:10A320002046FDF791FB01361A2EF1D13A0605D5EC
:10A330000E4B13495A6B2046FDF786FB3B0405D5AF
:10A340000A4B10499A6B2046FDF77EFB2846FFF723
:10A3500093FF02B0BDE8F0870B492046FDF770FB84
:10A36000C7E700BF700603000006030000ED00E031
:10A37000860903009B090300D00903002B0A030090
:10A380007A0A03009A0A0300F8090300740F030015
:10A390006F0A030010B561B1B2FBF3F403FB1424A0
:10A3A000A4B244B9C0E9001484608281C38120460C
:10A3B00010BD0E20FCE70920FAE737B550E8013F51
:10A3C0009DB2C48925448489A54228BF2D1B0489D8
:10A3D000A54202BFBFF32F8F002207E0C5EA0305A5
:10A3E00040E80154002CE9D14FF001028DF8032020
:10A3F0000193019A0A609DF8031001F0FF0321B157
:10A40000006810FA82F003B030BD1846FBE70A88F6
:10A410004B889A4209D150E8012FC2EA024240E833
:10A420000123002BF7D1012070470020704737B57A
:10A4300050E8023F1FFAA3F5C488A54202BFBFF34C
:10A440002F8F00220DE0C48925448489A54228BFAE
:10A450002D1BC3EA054540E80254002CE8D14FF01B
:10A4600001028DF803200193019A0A609DF8031000
:10A4700001F0FF0321B1006800EB124003B030BDD2
:10A480001846FBE70A884B889A4209D150E8022F08
:10A49000C2EA224240E80223002BF7D10120704794
:10A4A0000020704701F01F024B090121914000EB91
:10A4B000830000F01EB801F01F0301229A404B09EF
:10A4C00000EB8300D14300F02CB84B0901F01F01D1
:10A4D00050F82300C84000F00100704710B5034653
:10A4E00053E8000F0A4643E8002494F0000FF7D128
:10A4F00010BD10B5034653E8002F42EA010043E8BF
:10A50000000494F0000FF6D110BD10B5034653E8D7
:10A51000000F00EA010243E8002494F0000FF6D196
:10A5200010BD10B5034653E8002F02EA010043E8CE
:10A53000000494F0000FF6D110BD10B5034653E8A7
:10A54000002F02EB010043E8000494F0000FF6D165
:10A5500010BD10B5034653E8002FA2EB010043E8FD
:10A56000000494F0000FF6D110BD10B5034653E877
:10A57000002F8A422CBF501A104643E8000494F082
:10A58000000FF4D110BD0121FFF7B3BF0021FFF789
:10A59000BCBF10B590B1D0E9012301689B1ADBB2B2
:10A5A0000A60013BDBB2FF2B026802D10020107170
:10A5B00010BD11684C1C14600B70F2E70E20F7E719
:10A5C00037B5054600240DF107008DF80740FFF769
:10A5D000C1FC2A686B68116899420ED9481E106048
:10A5E00011F8013CEC68298A01FB0344AB6811793E
:10A5F0001B1ADBB2994238BF13719DF80700FFF7B1
:10A60000CDFC204603B030BD37B5054600230DF123
:10A6100007000C468DF80730FFF79CFC2A6813688A
:10A62000591C1160E968641A298AB4FBF1F41C70A2
:10A630009DF80700FFF7B2FC03B030BD826810B58B
:10A6400004462AB143690168006998470023A36062
:10A6500010BD0EB403B5039921B104AB01AA019357
:10A6600000F076F802B05DF804EB03B070470A29F9
:10A6700038B504460D4602D10D21FFF7F8FFA36857
:10A680002268591CA160D554D4E901329A4204D3FE
:10A690002046BDE83840FFF7D1BF38BD2DE9F84F5F
:10A6A0009846DDE90A43154682460F460A464FF0B2
:10A6B0000109AA420FD2C14538BFC14613F0010BB0
:10A6C00001D16CB900240126B8F1010F1BD908F1A2
:10A6D000FF386E43F8E709F10109B2FBF5F2E8E74C
:10A6E0009B070ED5B8F1000F0CBF30262026A145E0
:10A6F000E9D2013C31465046FFF7B9FF002CF6D1B4
:10A70000E0E72026F3E7B7FBF6F39D42E1D9DFF857
:10A710003C80B7FBF6F3504618F8031006FB13779E
:10A72000FFF7A5FF3346AB42B6FBF5F6F1D2BBF11E
:10A73000000F02D00CB1A14501D3BDE8F88F202154
:10A740005046013CFFF793FFF4E700BFDC0F030026
:10A750002DE9F74F054617468846002900F03E814F
:10A7600018F8011B49B92B7B002B00F037812846D4
:10A7700003B0BDE8F04FFFF761BF252940F0B78077
:10A78000002698F800302D2B424608F1010823D00E
:10A79000302B24D02B2B25D000242A2B02F10101B1
:10A7A00023D13B681A1D1B683A601C440A46137883
:10A7B0002E2B26D101324FF0000A104610F8011B53
:10A7C000A1F1300CBCF1090F1DD80A2303FB0A13B9
:10A7D000A3F1300A0246F0E746F00106D1E746F061
:10A7E0000206CEE746F00406CBE711F8013CA3F1E0
:10A7F00030000928DBD80A2202FB0434303C0A4628
:10A80000CBE74FF0000A12F8011B01F0FB006828AB
:10A810009046F8D0782909D86F290CD8632962D0DE
:10A8200022D8252963D0582900F0888098F8003074
:10A83000002B95D197E770390829F7D801A353F871
:10A8400021F000BFB7A902002DA802002DA8020028
:10A850004DA902002DA802002BA902002DA802007C
:10A860002DA802003DA90200642901D06929DDD18B
:10A870003A68D2F80090111D89EAE9723960A2EBBA
:10A88000E9724FF0010B092A35DCD34538BFD346B6
:10A890002CB1B9F1000F01DB720700D5013CB30701
:10A8A00002D5BAF1000F03D0F00701D44CBB00244D
:10A8B000B9F1000F2DDAC9F100092D212846FFF763
:10A8C000D6FE06F00302022A04D1BAF1000F01D12C
:10A8D0001CBB0024CDE9004653460A2249462846BF
:10A8E000FFF7DCFEA2E73B681A1D19783A6028469C
:10A8F000FFF7BDFE9AE70A230BF1010BB2FBF3F25F
:10A90000C1E7A345D4D220212846013CFFF7AFFE82
:10A91000CCE77107D5D52B21D0E7A345DAD230217A
:10A920002846013CFFF7A3FED2E73968CDE900468F
:10A930000A1D3A6053460A220968D0E739680A1DA1
:10A940003A60CDE9004653461022F5E73B681A1DF0
:10A950003A6016F00106D3F8009024D1B9F1000F47
:10A9600003D0484605F0C2FA0646B4421DD809F1A4
:10A97000FF3919F8011F00293FF458AF2846FFF7A7
:10A9800076FEF6E728460136FFF771FE19F8061045
:10A990000029F7D1A642BFF449AF20212846013C47
:10A9A000FFF765FEF6E70026F0E720212846013C88
:10A9B000FFF75DFED9E73B681A1D3A603021284653
:10A9C0001C68FFF754FE78212846FFF750FE00224E
:10A9D0000823CDE900322146102280E703B0BDE80C
:10A9E000F08F00BF2DE9F84FB0F806A04579D2F8F6
:10A9F00000B09DF828900AFB05F5043D88460BEB56
:10AA00000301A94203F1040488BFA5EB030BB4FBC7
:10AA1000FAF607460AFB1644C2F800B04EB9AAEB94
:10AA200004055D4528BF5D46BBF1000F04D1BDE8BC
:10AA3000F88F3F68013EF1E7043408EB06003C4420
:10AA40002A46B9F1000F0DD02146ABEB050B05F0FE
:10AA5000F1F9DA452E443F6855464FF0000428BF0F
:10AA60005D46E1E701462046EFE7FFF792BDF8B506
:10AA700046790146721E0546002393422D6803D392
:10AA80000024A64202D8F8BD0133F6E70F68284635
:10AA9000FFF7BAFD01343946F3E72DE9F843068A9A
:10AAA000CD1C0746FFF78CFD043E35440446B5FB3C
:10AAB000F6F5F0B14FF48073EDB28380C680013DAE
:10AAC000076081464FF00008A84512D23846FFF7CC
:10AAD00077FD064648B163790133637108F10108D7
:10AAE000C9F8000007608146EEE72046FFF7BFFF88
:10AAF00034462046BDE8F88301210430FFF71DBD30
:10AB000010B5012104460430FFF723FDC0B220B97F
:10AB10002046BDE81040FFF7AABF10BD1FB5039245
:10AB20000022009203AAFFF75DFF05B05DF804FB69
:10AB30001FB503920122009203AAFFF753FF05B04D
:10AB40005DF804FB836800225A60C3E904229A601E
:10AB5000DA601A6070470B684A684360934208BF26
:10AB60000023016008BF43607047436843B1026837
:10AB7000916852680B449342436004BF00234360D2
:10AB8000704770B5446806460D46206818B1B36832
:10AB90002946984718B923682B60256070BD246842
:10ABA000F3E74368186808B102681A6070474368A1
:10ABB000186870474368186800B97047884203D125
:10ABC00002681A600120704703460068F4E700003D
:10ABD00010B50D49A1F59472914201D800200FE003
:10ABE0008C1AE30F03EBE4035B1002EBC30452F88F
:10ABF0003330834205D802D204F10802ECE76068E2
:10AC000010BD2146E8E700BFF414030008B5FFF7C4
:10AC1000DFFF024B002808BF184608BDB813030029
:10AC20004FF08053D3F83001A0F108035842584147
:10AC3000704700004FF08053D3F83021082A06D126
:10AC4000D3F83431032B02D8024AD05C704700207D
:10AC5000704700BFF414030008B5FFF7E1FF40B1EF
:10AC60004FF080430022C3F80C21C3F81021C3F831
:10AC70003825FFF7D5FF002846D04FF08052614BB2
:10AC8000D2F80414C3F82015D2F80814C3F8241518
:10AC9000D2F80C14C3F82815D2F81014C3F82C15E8
:10ACA000D2F81414C3F83015D2F81814C3F83415B8
:10ACB000D2F81C14C3F84015D2F82014C3F8441578
:10ACC000D2F82414C3F84815D2F82814C3F84C1548
:10ACD000D2F82C14C3F85015D2F83014C3F8541518
:10ACE000D2F83414C3F86015D2F83814C3F86415D8
:10ACF000D2F83C14C3F86815D2F84014C3F86C15A8
:10AD0000D2F84424C3F87025FFF794FF18B13E4BE6
:10AD10003E4AC3F88C26FFF78DFF18B13C4BFB224F
:10AD2000C3F81825FFF786FF70B14FF080414FF050
:10AD30008053D1F8E42ED3F8583222F00F0203F0FA
:10AD40000F031343C1F8E43EFFF774FF20B1314B0A
:10AD50004FF40072C3F84026FFF762FF48B14FF08E
:10AD60008043D3F80024D20744BF6FF00102C3F838
:10AD70000024294AD2F8883043F47003C2F888309E
:10AD8000BFF34F8FBFF36F8F4FF01023D3F8002224
:10AD9000002A03DBD3F80432002B2EDA1F4B0122EA
:10ADA000C3F80425D3F80024002AFBD04FF010226A
:10ADB0001221C2F80012D3F80024002AFBD04FF071
:10ADC00010231222C3F80422144BD3F80024002AC3
:10ADD000FBD00022C3F80425D3F80024002AFBD0BE
:10ADE000BFF34F8F0C490E4BCA6802F4E062134365
:10ADF000CB60BFF34F8F00BFFDE70A4B0A4A1A60D2
:10AE000008BD00BF00C00040005000404881030062
:10AE100000F000400090024000ED00E000E0014042
:10AE20000400FA05142B00200090D003074B1B5C94
:10AE30001F2B8ABF064A4FF0A04203F01F03D2F82F
:10AE40000405D840C04300F001007047F814030027
:10AE500000030050074B1B5C1F2B86BF064903F005
:10AE60001F034FF0A041012202FA03F3C1F80C3591
:10AE7000704700BFF814030000030050074B1B5C31
:10AE80001F2B86BF064903F01F034FF0A04101228C
:10AE900002FA03F3C1F80835704700BFF814030045
:10AEA0000003005008B50020FFF7E8FF0120FFF77E
:10AEB000E5FF0220FFF7E2FFBDE808400320FFF7AF
:10AEC000DDBF08B50020FFF7C5FF0120FFF7C2FF77
:10AED0000220FFF7BFFFBDE808400320FFF7BABF1D
:10AEE0000A4B185C1F288ABF094B4FF0A04300F0A3
:10AEF0001F00D3F804250121814021EA02000A4005
:10AF0000C3F80805C3F80C25704700BFF814030008
:10AF100000030050263818BF4FF0FF30704726203E
:10AF200070470000C10710B5044642D54FF080437A
:10AF3000D3F84036DA072ED54FF01023D3F8043378
:10AF400003F00703072B26D11D4A0123C2F804355D
:10AF5000D2F80034002BFBD04FF01021D1F804338D
:10AF600023F0070343F00403C1F804330023C2F8BD
:10AF70000435134AD2F80034002BFBD0BFF34F8FB7
:10AF80001049114BCA6802F4E0621343CB60BFF36F
:10AF90004F8F00BFFDE74FF0A0420C490323C2F8DA
:10AFA0001837C2F82037C1F82437C2F83037FFF716
:10AFB00079FFA30742BF054B0C22C3F8182710BD29
:10AFC00000E0014000ED00E00400FA05000300503D
:10AFD00042DF704743DF704738B5074C051E04F168
:10AFE000080318BF1C4623682BB11A6822605B68EF
:10AFF00028469847F7E738BD8C34002020B9054B28
:10B0000001225A70FFF7E8BF012802D1014A90706F
:10B01000F8E770478434002020B9034B01225A70AE
:10B02000FFF7DABF704700BF8434002038B50E4CFC
:10B030002378B3B90D486360A3602361E36000F037
:10B0400019FA054604F044FC08B900F01FFA012380
:10B050002370074BD3F800340BB10123A3702846AB
:10B0600038BD8525F5E700BF84340020FDAF020020
:10B070000000014037B50D4C00230DF107008DF89D
:10B080000730FEF767FFE368013BE360E36833B92D
:10B09000074BD3F8005415B900F00EFAA5709DF8CF
:10B0A0000700FEF77BFF03B030BD00BF84340020F3
:10B0B00000000140012813B50CD0032820D038B976
:10B0C000134B0122C3F88020BFF34F8FBFF36F8F64
:10B0D00002B010BD0F4C00230DF107008DF80730B2
:10B0E000FEF738FF23780BB9FFF7A0FFE3689DF860
:10B0F00007000133E3600123A370FEF74FFFE7E78A
:10B1000000F0C4F902B0BDE81040FFF7B3BF00BFC4
:10B1100000E100E08434002037B51B4C637805461D
:10B1200003F0FF029BB110B1436800209847002351
:10B130000DF107008DF80730FEF70CFF63689DF8EE
:10B14000070001336360FEF729FF03B030BD0DF146
:10B1500007008DF80720FEF7FDFE25B1A268134613
:10B1600053B92A60A5606368002BE7D104F0B0FBF7
:10B1700030B1FFF72DFFE1E79D42F4D01B68EFE708
:10B1800000F0ABF9DAE700BF8434002073B50F4C50
:10B1900000230DF107008DF80730FEF7DBFE636832
:10B1A000013B6360666836B904F092FB054640B126
:10B1B000FFF710FF66709DF80700FEF7EFFE02B084
:10B1C00070BD00F097F96570F5E700BF843400208A
:10B1D00036DF70474DDF70474EDF70474FDF7047F7
:10B1E00050DF704710B50446FFF7F6FF40B9204620
:10B1F000FFF7F0FF20B92046BDE81040FFF7EEBF93
:10B2000010BD012810B5044602D100F0EBFB8047C9
:10B2100000F0EEFB034668B10A2C07D00B2C07D0D8
:10B22000092C07D10220BDE8104018470020FAE79A
:10B230000120F8E710BD0000012813B5044603D033
:10B2400003281CD002B010BD00230DF107008DF8BB
:10B250000730FEF77FFE00F0C5FB10B12046FFF778
:10B26000B7FF9DF80700FEF799FE00F0C1FB00282C
:10B27000E8D0012002B0BDE81040FFF7B3BF0C4B8F
:10B28000C02283F8002301221A6000F0ABFB20B13A
:10B290004FF080430422C3F8042300F0A9FB0028E8
:10B2A000D0D04FF080434FF46072C3F80423C9E755
:10B2B00000E100E038B50A4D2B78044663B904F08C
:10B2C00007FB58B90748002C18BF204600F096FB32
:10B2D00008B901232B7038BD8520FCE70820FAE768
:10B2E000983400200215030013B500240DF1070067
:10B2F0008DF80740FEF72EFE04F0EAFA58B120461A
:10B30000FFF770FF9DF80700FEF748FE02B0BDE8AA
:10B31000104000F0A9BB00F0A0FBF3E71FB50190BF
:10B32000FFF7E2FF019800F08BFB04F0D1FA04462E
:10B33000A0B10120FFF756FF044660B903A8FFF74C
:10B340004FFF044638B9039BDB0704D500F050FBE0
:10B35000034620469847204604B010BD00F076FB17
:10B36000F9E700001FB503788DF8003043680193BA
:10B3700083688DF80830C368054A0393054B684617
:10B3800053F8213052F82110984705B05DF804FBBE
:10B390009C340020A43400201FB503788DF80030C1
:10B3A0004368019383688DF80830C368054A0393A6
:10B3B000054B684653F8213052F82110984705B0E4
:10B3C0005DF804FB9C340020A4340020F0B5194B38
:10B3D00090F800C0DFF86CE043F82C20164B1646BE
:10B3E0000A6943F82C204B7F0EF80C300C460746B8
:10B3F0000FCC89B06D460FC594E80F0085E80F00AB
:10B400003B78CDF810C01EF803304BB1002E0B4A2C
:10B41000694608BF3246381D00F0E2FE09B0F0BDB3
:10B42000002E074A694608BF324607F10C0000F0BB
:10B430009BFCF3E7A43400209C34002065B3020099
:10B4400099B30200AC34002010B5034653E8000F56
:10B4500000EA010243E8002494F0000FF6D110BD89
:10B4600000F18040002382B0036003680193019BD8
:10B4700002B07047044A137923B90121106091800A
:10B480001846704785207047B0340020084B1A6872
:10B49000D20704D4C02283F8002301221A604FF09F
:10B4A00080420123C2F81835024A1370704700BF6A
:10B4B00000E100E0B83400204FF0804208B50223DC
:10B4C000C2F808334FF48270FFF7CAFF0123D3603C
:10B4D000D2F81834DB03FBD408BD08B54FF48070F4
:10B4E000FFF7BEFF4FF080430122C3F804231A6028
:10B4F00008BD00004FF08042012108B54FF4807074
:10B50000C2F80813FFF7ACFF5160D2F80C3403F017
:10B510000113B3F1011FF8D0014B00225A7108BD8D
:10B52000B03400204FF0804110B5D1F8003163B144
:10B530004FF48070FFF794FF0D4B58790122C1F84A
:10B54000082310B95A711B6898474FF08042D2F80F
:10B55000043163B14FF48270FFF782FF0223C2F817
:10B560000833034BBDE810401B680120184710BD8D
:10B57000B034002000F1804000F5C040002382B0CC
:10B58000036003680193019B02B0704703681F2B9F
:10B5900083BF03F01F03036001484FF0A0407047D2
:10B5A0000003005007B5019001A8FFF7EFFF019BD2
:10B5B00000EB8300D0F8003723F44033C0F80037A5
:10B5C000D0F8003743EA0141C0F8001703B05DF836
:10B5D00004FB0000054B4FF0FF32072843F8202002
:10B5E00084BFC01880F85820704700BFBC340020CA
:10B5F00038B51E4C94F86A30ABBB4FF6FF71FF2094
:10B600005A09012A0CBF0A464FF0FF3203F01F050A
:10B61000EA40D20748BFE21803F1010348BF82F8AD
:10B620003000302BECD10021C8B20131FFF7D2FF3E
:10B630000C29F9D1062200210D4804F024FC0D4B01
:10B64000C02283F8062340221A604FF4BE70FFF731
:10B6500091FF094B4FF00042C3F80423012384F803
:10B660006A30002038BD0820FCE700BFBC34002051
:10B670002035002000E100E000600040034B93F81B
:10B680006A00003818BF0120704700BFBC3400209A
:10B69000F7B53D4F3B18044693F93030002B71DA73
:10B6A0008B78C3F34003002B0BBF082500250C202B
:10B6B0000820854202D1042003B0F0BD57F8256070
:10B6C000013647D138196EB247F8252080F830602E
:10B6D00013B97B1983F858408B785A071AD4D807C6
:10B6E0003AD501A80194FFF751FF019B00EB8300BD
:10B6F000D0F8003723F00203C0F800372348E208EF
:10B7000004F0070C012303FA0CF310F802C043EA1B
:10B710000C03835488780B7810F0020028D0AD0019
:10B7200005F1804505F5C0452402D5F8102522F421
:10B730004F3222F44072C5F810251B04D5F81025AD
:10B7400004F47C5403F440331C431443C5F81045FF
:10B750000020B1E70135ACE701A84A780194FFF772
:10B7600015FF019B03F5E073920040F82320C5E725
:10B77000083E47FA86F797F8604044EA831387F853
:10B78000603099E7082097E7BC340020203500207E
:10B7900073B5244D2E18044696F93020072A1DDD76
:10B7A000083A45FA82F595F860309B09032B10D1D1
:10B7B000019001A8FFF7EAFE019BD0F81015D940CF
:10B7C00001F001010231204602B0BDE87040FFF7F0
:10B7D000E9BE012B0CBF02210321F4E7D3B2072BF2
:10B7E0001DD8930003F1804303F5C043D3F810053F
:10B7F00040F00100C3F8100502F1400040B28000A3
:10B8000080B2FFF7B7FE51B196F9303055F82330CA
:10B810002BB1012303FA02F2034BC3F8042302B055
:10B8200070BD00BFBC3400200060004007B501902F
:10B8300001A8FFF7ABFE019BD0F81005D84000F03F
:10B84000010003B05DF804FB2DE9FF470024CDE9BA
:10B850000244584D4FF48072012102F1804303F5F8
:10B86000C04390B21B68012B06D1D5F804330B42BC
:10B8700002D0FFF77FFE0C430432B2F5907F4FEA0F
:10B880004101EAD14B4BD3F87C31012B11D14FF45C
:10B89000BE70FFF76FFE4FF0A04344F00044D3F8B2
:10B8A00020250292C3F82025D3F820280392C3F85C
:10B8B0002028E3B2D3B1404F00250126344210D0F6
:10B8C000AB0003F1804303F5C043D3F81005D3F870
:10B8D000101557F8253023B1C1F30141C0F30520FD
:10B8E00098470135082D4FEA4606E7D1002C59DA72
:10B8F000314D324C324E4FF00008012716F9013B12
:10B900005A1C3CD0C3F3C20104A801445FFA83F976
:10B9100011F8081C03F03F0203F0070307FA03F3D2
:10B9200019422CD001A80192FFF730FE019B03F5CC
:10B93000E07350F82330C3F3014ABAF1020F0CBF91
:10B94000032102211046FFF72DFE01A80192FFF707
:10B950001DFE019B07FA03F3C0F82035AB1893F9DD
:10B96000303055F8233053B14FEA9911032904D0F0
:10B97000BAF1020F19D1012901D11046984708F1F7
:10B980000108B8F1040FB9D14FF0A043D3F8202536
:10B990000292C3F82025D4F820350393C4F820354B
:10B9A0001343A7D104B0BDE8F087BAF1030FE6D185
:10B9B0000229E1E700600040BC3400200003005091
:10B9C0001C35002000F1804382B01A68002A14BFA1
:10B9D0000120002004D000221A601B680193019B03
:10B9E00002B07047014B1868704700BF283500202F
:10B9F000014B1868704700BF303500200E4A13789D
:10BA0000C3B903784FF08041C3F34003C1F88035D8
:10BA1000037803F00103C1F87835084B1968C907AA
:10BA200004D4C02183F8001301211960012313708D
:10BA300000207047852070473435002000E100E089
:10BA4000014B02681A607047303500204FF0804388
:10BA50004FF46072C3F8042370474FF080434FF4F3
:10BA60006072C3F808237047014B00221A607047C8
:10BA7000303500204FF0804310B5D3F804436207FF
:10BA800007D54FF48470FFF79DFF10B11E4B1B6864
:10BA90009847A30608D54FF48A70FFF793FF18B1B3
:10BAA0001A4B00201B689847600608D54FF48C702D
:10BAB000FFF788FF18B1154B01201B689847210636
:10BAC00008D54FF48E70FFF77DFF18B1104B0020A2
:10BAD0001B689847E20508D54FF49070FFF772FF96
:10BAE00018B10B4B01201B689847A3050AD54FF4EA
:10BAF0009270FFF767FF28B1054BBDE810401B6847
:10BB00000220184710BD00BF283500202C3500202A
:10BB10003035002008B5FFF7ADFFBDE80840FFF75E
:10BB200001BD0000014B1B68184700BF38350020DD
:10BB30000E4B984237B50C4602D0002003B030BD02
:10BB400000230DF107008DF80730FEF703FA084BCC
:10BB50001D7915B901221C601A719DF80700FEF7C6
:10BB60001DFA002DE9D01120E8E700BF00200040B9
:10BB700038350020034B984201BF034B00221A6066
:10BB80001A717047002000403835002000234350D0
:10BB900082B043580193019B02B070470A4610B52A
:10BBA0004FF48E71FFF7F2FF136A9168C95C136A54
:10BBB00001331362C0F81C1510BD8B690A4610B51D
:10BBC0004FF4847123B9FFF7E1FFD0F8183510BDA9
:10BBD000FFF7DCFF536AD168D0F81805C854536AE0
:10BBE00001335362F3E700001FB501238DF80030E5
:10BBF000044BCDE90110D3E900126846904705B027
:10BC00005DF804FB4035002030B54D4DD5F80433C8
:10BC10009A0585B051D5D5F82431002B4DD04FF47D
:10BC200092712846FFF7B2FF4FF40173C5F808334D
:10BC3000444B93F829200AB901226A604049022244
:10BC40008DF80020D1F88024C1F8802403929A69ED
:10BC50000292DA6801920022C3E906226846D3E91B
:10BC6000001290473648D0F81C315BB1354A516913
:10BC7000136A99424DD992F82830002B49D11146C8
:10BC8000FFF78CFF2E48D0F84431002B56D04FF4EC
:10BC9000A271FFF77BFF2B4B93F829200AB10122F9
:10BCA00002609A69002A49D0586AD96800229A61CC
:10BCB00005B0BDE83040FFF797BFD5F804335B0708
:10BCC000D0D5D5F80831002BCCD01E4C1C482146CD
:10BCD000FFF773FF636AA2699A42C3D1E369E1681F
:10BCE0004BB1A3612369E3600023606AE36163628F
:10BCF000FFF77AFFB6E794F829300BB901236B60A0
:10BD00000F4B4FF40172C3F808230023606AA3614C
:10BD1000EEE70B484FF48E71FFF738FF5369002BA5
:10BD2000B0D051690291002391688DF800300191E3
:10BD300053616846D2E900139847A3E705B030BDC8
:10BD400000200040403500201F2886BF00F01F0063
:10BD5000044B4FF0A04300F5E070022243F820208E
:10BD6000704700BF000300502DE9F843604D90F884
:10BD700004802C2303FB0853064693F82A300C4614
:10BD80009146002B40F0AF805A490068FFF7D0FE83
:10BD90000746002840F0A9802268531C10D01F2AB3
:10BDA00087BF554902F01F0313464FF0A041012001
:10BDB000984003F5E073C1F80805032041F823001B
:10BDC0006168481C0DD01F298BBF01F01F030B4673
:10BDD00049484FF0A04003F5E0734FF0000C40F8E5
:10BDE00023C03068A369C0F8243594F814C0637D7B
:10BDF000BCF1010F4CEA0303C0F86C35C0F8141510
:10BE0000C0F80C252BD1A368591C0DD01F2B8BBF5C
:10BE100003F01F021A4638494FF0A04102F5E072C4
:10BE20004FF0000C41F822C0E1684A1C13D01F29D2
:10BE300087BF314A01F01F0C8C464FF0A0424FF0F3
:10BE4000010E0EFA0CFE0CF5E07CC2F808E54FF08E
:10BE5000030E42F82CE0C0F80815C0F810352C226B
:10BE600002FB08F2AB18C3F804902369AB50B9F198
:10BE7000000F20D04FF48E71247FFFF787FE4FF420
:10BE8000A2713068FFF782FE32681C4BC2F804339F
:10BE9000130B42F307326101002AC9B21EDB1848B6
:10BEA000841884F800130121520903F01F0301FADA
:10BEB00003F340F8223033680422C3F800252C2312
:10BEC00003FB08530022C3E9062283F829205A61A4
:10BED000012283F82A203846BDE8F883094A03F096
:10BEE0000F03D154E7E70827F5E71127F3E700BF71
:10BEF0004035002009BC0200000300508000020011
:10BF000000E100E014ED00E02DE9F041036805795F
:10BF1000284C0022C3F800252C2202FB05420146D2
:10BF20005268A2B1244AC3F808231A0B43F307331B
:10BF3000002B0CDB02F01F005B0901228240203342
:10BF40001E4840F82320BFF34F8FBFF36F8F0B685D
:10BF5000D3F80C05D3F81485D3F80865D3F8107519
:10BF60004FF0FF329042C3F81425C3F80C25C3F8F4
:10BF70000825C3F8102501D0FFF7E6FEB8F1FF3F12
:10BF800002D04046FFF7E0FE7A1C02D03846FFF7A9
:10BF9000DBFE731C02D03046FFF7D6FE0868FFF7C1
:10BFA000E9FD2C2303FB0544002384F82A30636059
:10BFB000BDE8F081403500208402020000E100E08D
:10BFC0000279044B2C2101FB02335869003818BF59
:10BFD00001207047403500202DE9F84F064690F8C3
:10BFE000048089469246FFF7EBFF044600283CD1C7
:10BFF000204F2C2508FB057B4FF48E71CBF814A045
:10C00000CBF80890CBF820008BF828003068FFF7B9
:10C01000BDFD3068012383605946FFF7BFFDDBF8A3
:10C0200004305D461BBB3068DBF814402B6A9C4231
:10C0300011D83368D3F81C21002AFBD00122DA6022
:10C0400000202C2303FB087700237B61BDE8F88FD9
:10C0500095F828303BB9D0F81C31002BF8D0594660
:10C06000FFF79CFDE2E70F20EBE71120EEE720460B
:10C07000ECE700BF403500200023435082B0435816
:10C080000193019B02B070471FB501238DF800306A
:10C09000044BCDE90110D3E900126846904705B082
:10C0A0005DF804FB6C3500207FB5434AD2F824616B
:10C0B000002E60D010464FF49271FFF7DDFF02238F
:10C0C0008DF80030D2F88034C2F880340393D2F86F
:10C0D0003C350293394BDA6801920022C3E906220B
:10C0E0006846D3E9001290473348D0F8443173B121
:10C0F0004FF4A271FFF7C0FF304B9A693AB10022AA
:10C10000C3E90622D968D0F83C05FFF7BDFF2A48ED
:10C11000D0F82031ABB14FF49071FFF7ADFF0123A0
:10C12000C360264B5A6962B1D0F84C1502910022C7
:10C1300099688DF8002001915A616846D3E9001290
:10C1400090471D48D0F858319BB14FF4AC71FFF7C0
:10C1500093FF1A4B5A6962B1D0F84C150291002234
:10C1600099688DF8002001915A616846D3E9001260
:10C17000904704B070BDD2F81031002BB4D04FF40A
:10C1800088711046FFF778FF0C4BD2F83C0599698F
:10C190008842A9D1DC69D96864B1D2F8005225F08F
:10C1A0002005C2F800521A699C61DA60DE61FFF76F
:10C1B0006BFF99E79C61FAE7002000406C35002096
:10C1C0001F2886BF00F01F00044B4FF0A04300F56E
:10C1D000E070022243F82020704700BF00030050A7
:10C1E0002DE9F843664E90F80480242303FB08638E
:10C1F000044693F820300D469146002B40F0BC8059
:10C2000060490068FFF794FC0746002840F0B680BC
:10C2100029684B1C10D01F2987BF5B4A01F01F0300
:10C220000B464FF0A0420120984003F5E073C2F89E
:10C230000805032042F823006A68501C0DD01F2A0D
:10C240008BBF02F01F0313464F484FF0A04003F589
:10C25000E0734FF0000C40F823C02068AB69C0F8D1
:10C26000243595F814C06B7DBCF1010F4CEA030333
:10C27000C0F86C35C0F80C15C0F814252BD1AB688C
:10C28000591C0DD01F2B8BBF03F01F021A463E49CD
:10C290004FF0A04102F5E0724FF0000C41F822C0CF
:10C2A000E9684A1C13D01F2987BF374A01F01F0CC9
:10C2B0008C464FF0A0424FF0010E0EFA0CFE0CF52A
:10C2C000E07CC2F808E54FF0030E42F82CE0C0F81D
:10C2D0000815C0F81035242202FB08F2B318C3F881
:10C2E00004902B69B350B9F1000F2FD04FF488712F
:10C2F0002A7FFFF7C1FE20684FF49071FFF7BCFE64
:10C3000020684FF49271FFF7B7FE20684FF4A271D6
:10C31000FFF7B2FE4FF4AC712068FFF7ADFE236863
:10C320001A49C3F80413190B43F307335201002BC6
:10C33000D2B21CDB1648C51885F8002301225B0920
:10C3400001F01F0102FA01F140F8231023680822CE
:10C35000C3F80025242303FB08660023C6E906333F
:10C360007361012386F820303846BDE8F883094B15
:10C3700001F00F015A54E9E70827F5E71127F3E721
:10C380006C350020A9C002000003005010034200D9
:10C3900000E100E014ED00E02DE9F0413D4D0679AB
:10C3A0000468242303FB065302465B68ABB13A4B97
:10C3B000C4F8083344F30733002B4FEA14310CDB85
:10C3C00001F01F005B09012181402033334840F810
:10C3D0002310BFF34F8FBFF36F8FD4F8003223F0D9
:10C3E0002003C4F80032242303FB06539B6933B1B6
:10C3F0004FF4A2712046FFF73FFE012363604FF424
:10C40000AC712046FFF738FE0123E360242303FBD1
:10C410000653D4F858110029FBD0996919B1D4F802
:10C4200044110029F5D00023C4F800351368D3F86F
:10C430000C05D3F81485D3F80815D3F810754FF010
:10C44000FF329042C3F80C25C3F81425C3F8082521
:10C45000C3F8102501D0FFF7B3FEB8F1FF3F02D0BB
:10C460004046FFF7ADFE7A1C02D03846FFF7A8FE23
:10C470004B1C02D00846FFF7A3FE2046FFF77AFBCD
:10C48000242303FB0655002385F820306B60BDE8AC
:10C49000F08100BF6C3500201003420000E100E095
:10C4A0000279044B242101FB02335869003818BF7C
:10C4B000012070476C35002001F06043B3F1005F4C
:10C4C0002DE9F0470646884692463BD190F8049005
:10C4D000FFF7E6FF0446002836D11D4F30682425BB
:10C4E00005FB09754FF49071C5F814A0C5F80880D4
:10C4F000FFF7C2FD4FF4AC713068FFF7BDFD336844
:10C500006A69A968C3F84415C3F8482501229A60EE
:10C510006A68DAB9D3F82021D3F858011AB900288B
:10C52000F8D00F2007E00028FBD10122DA60D3F811
:10C530005821002AFBD0242303FB097700237B61C9
:10C54000BDE8F0871020FBE71120F9E72046F7E768
:10C550006C350020020713D400F00F0310F0800F99
:10C56000084A0BBF03F5887303F5847302EB83035A
:10C5700052F8230008BF5868431E5842584170477C
:10C58000002070470070024010F0080F074B06D0E3
:10C59000D3F8C00410F4803F18BF0020704700F0AB
:10C5A0000F0000F5947053F82000704700700240AF
:10C5B0004FF08053D3F83001A0F10803584258419E
:10C5C000704700004FF08053D3F83021082A06D17D
:10C5D000D3F83431032B04D8034AD05C70470020D1
:10C5E00070470120704700BF1F15030030B54C682D
:10C5F0000D689C4229BFC0E900530021E41AED18E0
:10C6000032BFC0E900514C600D60934203D1201E3F
:10C6100018BF012030BD0020FCE74B6810B59A42DE
:10C620000C6828BF1A46C0E90042981A0B68486097
:10C630001A4400380A6018BF012010BD30B54C689C
:10C640000B68A24228BF2246002A14BF1D460025BF
:10C65000C0E90052A4EB02041A444C600A6014BF03
:10C660000120002030BD0000054B10F0800FA3F129
:10C67000900208BF134600F00F0003EB0010704754
:10C680000437002010F0800F14BF0023102300F0A7
:10C690000F0018447047000008B5FFF789FF18B174
:10C6A000034B0022C3F81C2C024B00221A7008BD59
:10C6B000007002409135002007B5094A002313702D
:10C6C000084AADF8053013708DF8073001238DF856
:10C6D0000430054B01A81B68984703B05DF804FBC4
:10C6E00090350020983700209437002070470000D4
:10C6F000F8B54B680B4F93420C4628BF13460646CD
:10C700001A46096838461D4603F094FB60682268A3
:10C71000401BC6E900752A4460600038226018BFDB
:10C720000120F8BD9C370020F8B54B68934228BF24
:10C73000134606460D461C468BB10A4F09681A4639
:10C74000384603F077FB37606B6874601B1B6B60C7
:10C750002B68201E23442B6018BF0120F8BD036006
:10C76000F2E700BF9C37002007B500230DF107005A
:10C770008DF80730FDF7EEFB0B4BD3F8001C0322BE
:10C7800071B949F27531C3F8001CC3F8142DC3F810
:10C79000001C9DF80700FDF701FC03B05DF804FBE9
:10C7A000C3F8142DF5E700BF00E0064013B50024E0
:10C7B0000DF107008DF80740FDF7CCFB0A4BD3F8CD
:10C7C000001C69B949F27532C3F8002CC3F8141D76
:10C7D000C3F8002C9DF80700FDF7E0FB02B010BD88
:10C7E000C3F8144DF6E700BF00E0064008B5014667
:10C7F000FFF752FF0846FFF737FF827B032A0AD173
:10C800000846FFF73FFF01218140BDE8084004488A
:10C81000C943FEF719BE0368002BF1D008BD00BF65
:10C82000003600208720FFF7E1BF8620FFF7DEBF3C
:10C830008520FFF7DBBF8420FFF7D8BF8320FFF7F9
:10C84000D5BF8220FFF7D2BF8120FFF7CFBF000006
:10C8500008B5FFF721FF084B93F89E20032A06D165
:10C86000BDE8084005486FF00101FEF7EDBDD3F8C3
:10C870009030002BF4D008BD743600200036002024
:10C88000012273B502FA01F51E491F4E0B6810F024
:10C89000800F43EA050304460B6027D000F00F0227
:10C8A0001A4B33F8123003F1804303F51C331A6836
:10C8B0004AB100221A60BFF36F8FBFF34F8F8028F9
:10C8C00011D0FFF793FF316829400AD106238DF874
:10C8D00004308DF806408DF807100D4B01A81B6839
:10C8E000984702B070BDFFF7B3FFECE733681D4215
:10C8F000F7D106238DF804308DF806008DF8072057
:10C90000EBE700BF70360020003600202C15030036
:10C910009437002008B5054B1A781046FFF7B2FE91
:10C92000BDE8084001461046FFF7AABF983700202F
:10C93000FFF78EBF07B500238DF804300B4BD3F8FB
:10C940002025ADF80620D3F8C034094A002B13681F
:10C950000CBF4FF480714FF001210B431360054B66
:10C9600001A81B68984703B05DF804FB0070024003
:10C97000703600209437002007B5FFF78DFE0D4B71
:10C9800093F88E20032A11D0D3F8803073B90A4867
:10C990006FF08071FEF758FD06238DF804300823F0
:10C9A000ADF80630054B01A81B68984703B05DF849
:10C9B00004FB00BF743600200036002094370020AE
:10C9C00007B5FFF769FE114B93F81E21032A07D123
:10C9D0000F486FF4807103B05DF804EBFEF734BDCF
:10C9E000D3F8103173B90A486FF48071FEF72CFD4B
:10C9F00006238DF804308823ADF80630054B01A8D6
:10CA00001B68984703B05DF804FB00BF7436002034
:10CA100000360020943700202DE9F04F5D4E33782A
:10CA200085B0002B6DD15C4C5C4B196823681940B4
:10CA300067D011F0012367D093FAA3F1002966D0E3
:10CA4000B1FA81F10F2964D9A1F110085FFA88F8D1
:10CA50004046FFF709FE4FF0010B4FFA88FA0BFA38
:10CA600001F1BAF1000F81466FEA010B54DA036855
:10CA70008289416802A8984708B9C9F80000FFF701
:10CA800097FD18B1464B8222C3F81C2C0123216864
:10CA9000039A3370D9F8083001EA0B011344BAF154
:10CAA000000F2160C9F8083008F0080002993C4BDB
:10CAB00008F00F085EDA002854D0C3F8A016C3F8B7
:10CAC000A426042303EB880303F1804303F51C33FE
:10CAD00001221A60BFF36F8FBFF34F8F314B324A81
