:100000000060002015020000590200005B020000A1
:100010005D0200005F0200006102000000000000BD
:10002000000000000000000000000000630200006B
:100030006502000000000000670200006902000085
:100040006D0200006F0200007102000073020000E8
:100050007502000000000000770200007902000035
:100060007B0200007D0200007F0200008102000090
:100070008302000085020000870200008902000060
:100080008B0200008D0200008F0200009102000030
:100090009302000095020000970200009902000000
:1000A0009B0200009D020000000000000000000014
:0800B0009F020000A102000004
:1000B800354936480A1A02D0072291438D463449F9
:1000C80034480A1A06D00722914381F3098802228C
:1000D80082F3148830483149314A00F044F83148F5
:1000E8003149324A00F03FF831483249324A00F08B
:1000F8003AF832483249334A00F035F83248334941
:10010800334A00F030F833483349344A00F02BF8CA
:1001180033483449344A00F026F834483449002238
:1001280000F02CF833483449002200F027F833480F
:100138003349091A082902DB002202604160314A6A
:1001480090471F481F49884205D00268043003B40D
:10015800904703BCF7E700208646EC4600200021C4
:10016800294A9047FEE7884207D0521A05D00378FB
:1001780001300B700131013AF9D17047884202D041
:1001880002700130FAE77047006000200058002034
:1001980000600020006000201C0800000000002013
:1001A80004000020A4020000A4020000E2070000EE
:1001B8001C0800000000002000000020E4070000E8
:1001C800E4070000E4070000E4070000E40700007B
:1001D800E4070000E4070000E40700001C08000032
:1001E8002008000004000020040000200400002073
:1001F80024000020240000202400002024000020E7
:100208002402002027020000A10600000B484FF03E
:100218000701884385460A488047FFF749BF0948D0
:1002280009490A4A884207D0521A05D00378013092
:100238000B700131013AF9D17047000000600020CD
:10024800B9020000E40700000000002000000020C0
:10025800FEE7FEE7FEE7FEE7FEE7FEE7FEE7FEE76E
:10026800FEE7FEE7FEE7FEE7FEE7FEE7FEE7FEE75E
:10027800FEE7FEE7FEE7FEE7FEE7FEE7FEE7FEE74E
:10028800FEE7FEE7FEE7FEE7FEE7FEE7FEE7FEE73E
:0C029800FEE7FEE7FEE7FEE7FEE700BF22
:1002A400024B034A1A6000BF704700BF00000020E1
:1002B4000090D00308B500F0B7F80346002B06D031
:1002C400564B1B685B0B564A03F00703136000F0A0
:1002D400BDF80346002B0ED04FF080430022C3F834
:1002E4000C214FF080430022C3F810214FF08043CB
:1002F4000022C3F8382500F0BBF80346002B76D063
:100304004FF08053474AD3F80434C2F820354FF0F5
:100314008053444AD3F80834C2F824354FF080534C
:10032400404AD3F80C34C2F828354FF080533D4A84
:10033400D3F81034C2F82C354FF08053394AD3F82F
:100344001434C2F830354FF08053364AD3F8183499
:10035400C2F834354FF08053324AD3F81C34C2F813
:1003640040354FF080532F4AD3F82034C2F8443537
:100374004FF080532B4AD3F82434C2F848354FF059
:100384008053284AD3F82834C2F84C354FF08053B0
:10039400244AD3F82C34C2F850354FF08053214A04
:1003A400D3F83034C2F854354FF080531D4AD3F893
:1003B4003434C2F860354FF080531A4AD3F83834D5
:1003C400C2F864354FF08053164AD3F83C34C2F86F
:1003D40068354FF08053134AD3F84034C2F86C3573
:1003E4004FF080530F4AD3F84434C2F8703500F00C
:1003F40051F80346002B0DD04FF08043D3F800345E
:1004040003F00103002B05D04FF080436FF001028D
:10041400C3F80024FFF744FF00BF08BD44020010E6
:100424003C05004000C00040064B1B680A2B05D168
:10043400054B1B68002B01D1012300E00123184662
:10044400704700BF3001001034010010064B1B68D8
:100454000A2B05D1054B1B68002B01D1012300E0B9
:1004640001231846704700BF30010010340100100A
:10047400064B1B680A2B05D1054B1B68002B01D1C9
:10048400012300E001231846704700BF300100102B
:1004940034010010064B1B680A2B05D1054B1B6861
:1004A400002B01D1012300E001231846704700BF4F
:1004B400300100103401001084B00190244B0393E8
:1004C400019B002B40D0234B1A680399019B00BF6A
:1004D40000BF00BF00BF00BF00BF00BF00BF8A4213
:1004E4002FD000BF00BF00BF00BF00BF00BF00BFD0
:1004F40000BF00BF00BF00BF00BF00BF00BF00BF00
:1005040000BF00BF00BF00BF00BF00BF00BF00BFEF
:1005140000BF00BF00BF00BF00BF00BF00BF00BFDF
:1005240000BF00BF00BF00BF00BF00BF00BF00BFCF
:1005340000BF00BF00BF00BF00BF00BF00BF00BFBF
:1005440000BF013BC3D1019300BF04B0704700BF9B
:100554000024F4000000002000B583B00190019B4A
:100564004FF47A7202FB03F31846FFF7A5FF00BFAE
:1005740003B05DF804FB000000B583B00190019B5B
:100584001B681F2B04D905494FF4E87000F010F9DB
:100594004FF0A043184603B05DF804FBE4070000E5
:1005A40000B585B00190084611461A4603468DF8F9
:1005B40003300B468DF8023013468DF8013001AB41
:1005C4001846FFF7D9FF03909DF803209DF80230E9
:1005D4005B001A439DF801309B001A439DF81830C4
:1005E4001B0242EA03019DF81C301B04019A1943C3
:1005F400039B02F5E07243F8221000BF05B05DF8DA
:1006040004FB00B585B003900023019300230093FD
:100614000023012201210398FFF7C2FF00BF05B0A8
:100624005DF804FB00B585B0019001AB1846FFF7F7
:10063400A3FF0390019B012202FA03F319460398D6
:1006440000F018F800BF05B05DF804FB00B585B0F4
:10065400019001AB1846FFF78FFF0390019B012225
:1006640002FA03F31946039800F00EF800BF05B030
:100674005DF804FB82B001900091019B009AC3F8DD
:10068400082500BF02B0704782B001900091019B21
:10069400009AC3F80C2500BF02B0704708B51920B2
:1006A400FFF7AFFF1920FFF7BDFF4FF4FA70FFF714
:1006B40053FF1920FFF7CAFF4FF4FA70FFF74CFFFE
:1006C400F0E7000086B003900291019201238DF8B7
:1006D40017309DF81730214A039B13601F4A029B71
:1006E40053601E4A019B9360039B44F201029342B0
:1006F40013D0039B44F20202934222D1019B174A76
:10070400D360164BDB681B881A46144B9A61134B53
:10071400DB685B68114AD36113E0019B0F4A1361E4
:100724000E4B1B699B680D4A53610C4B1B691B885C
:100734001A460A4B9A61094B1B695B68074AD361E5
:1007440000BF72B600BF00BF9DF81730DBB2002BAC
:10075400FAD162B600BF00BF06B0704704000020A3
:1007640000B587B0039002910192039B44F2010209
:10077400934207D0039B44F20202934205D1019BAA
:10078400059303E0019B049300E000BF074B1B6843
:1007940003F00103002B00D0FFDE019A02990398B5
:1007A400FFF790FF00BF07B05DF804FBF0ED00E039
:1007B40000B585B003460091ADF80630BDF80630AB
:1007C400ADF80830009B039302AB1A46002144F2B3
:0E07D4000200FFF7C5FF00BF05B05DF804FB93
:1007E4002E2E2F2E2E2F2E2E2F2E2E2F2E2E2F2E20
:1007F4002E2F636F6D706F6E656E74732F647269E4
:10080400766572735F6E72662F68616C2F6E7266A6
:080814005F6770696F2E680038
:04081C000090D00375
:0400000300000215E2
:00000001FF
