:020000022000DC
:10700000000004205D730200457302004773020014
:10701000497302004B7302004D7302000000000030
:107020000000000000000000000000004F7302009C
:1070300051730200000000005373020055730200F8
:107040006596020057730200059B02005773020009
:1070500057730200577302008999020057730200A8
:1070600057730200577302005773020057730200F0
:1070700057730200577302005773020057730200E0
:1070800057730200A1860200577302005773020073
:107090005773020057730200ADBF0200577302001E
:1070A00057730200577302005773020057730200B0
:1070B0005773020057730200000000000000000038
:1070C0005773020057730200577302005773020090
:1070D0005773020057730200577302005773020080
:1070E000577302005773020057730200000000003C
:1070F00000000000577302000000000057730200F8
:10710000000000000000000000000000000000007F
:10711000000000000000000000000000000000006F
:10712000000000000000000000000000000000005F
:10713000000000000000000000000000000000004F
:10714000000000000000000000000000000000003F
:10715000000000000000000000000000000000002F
:10716000000000000000000000000000000000001F
:10717000000000000000000000000000000000000F
:1071800000000000000000000000000000000000FF
:1071900000000000000000000000000000000000EF
:1071A00000000000000000000000000000000000DF
:1071B00000000000000000000000000000000000CF
:1071C00000000000000000000000000000000000BF
:1071D00000000000000000000000000000000000AF
:1071E000000000000000000000000000000000009F
:1071F000000000000000000000000000000000008F
:10720000314932480A1A02D0072291438D4630494B
:1072100030480A1A06D00722914381F309880222D6
:1072200082F314882C482D492D4A00F03CF82D4853
:107230002D492E4A00F037F82D482E492E4A00F0ED
:1072400032F82E482E492F4A00F02DF82E482F49AB
:107250002F4A00F028F82F482F49304A00F023F831
:107260002F483049304A00F01EF83048304900229B
:1072700000F024F82F483049002200F01FF82F4A70
:1072800090471F481F49884205D00268043003B464
:10729000904703BCF7E700208646EC46002000211B
:1072A000274A9047FEE7884207D0521A05D0037854
:1072B00001300B700131013AF9D17047884202D098
:1072C00002700130FAE770470000042000E003205C
:1072D0000000042000000420ECD50200C81D00209E
:1072E000F4230020B8730200B8730200E2C4020065
:1072F000ECD50200C81D0020C81D002028C60200D1
:1073000028C6020028C6020028C6020028C60200BD
:1073100028C6020028C6020028C60200EAD50200DC
:1073200018DC0200F4230020F4230020F4230020C2
:10733000942E0020942E0020942E002085730200AD
:107340004DA80200FEE7FEE7FEE7FEE7FEE7FEE7E8
:10735000FEE7FEE7FEE7FEE700F002B8FFF7FCBF3E
:107360000F484FF00701884385460E4880470E4876
:10737000016841F470010160BFF34F8FBFF36F8F5D
:10738000FFF73EBF09480A490A4A884207D0521A05
:1073900005D0037801300B700131013AF9D1704703
:1073A000000004204D91020088ED00E028C6020094
:0873B000C81D0020C81D0020CB
:1073B800F0B595B01D46164608460C4601F01AFD74
:1073C8001A9B0D93CDE9086500252B46082205A9CF
:1073D80020460A958DF82C500C9501F027FD079B47
:1073E8000293069B03939DF814308DF8115003F017
:1073F8000302012A1DD1BDF81420059DC3F3C20361
:10740800C2F383168DF81030B20008230EA9204667
:1074180001F00CFDC5F3952508AB0093324602AB8D
:107428000EA9284600F0B6FB204601F0E7FC15B08F
:10743800F0BD022AF8D1BDF81650C3F3C203C5F354
:1074480089158DF810300827082D2E4628BF0826E4
:107458003B4632460EA9204601F0E8FCAD1B08ABBE
:1074680002AA31460EA8374400F0F8FB002DEBD1F4
:10747800DAE70000014B01221A707047352400201A
:107488007047000070B50E4D06460FCD88B06C46AB
:107498000FC495E80F00002E84E80F00094A0A4837
:1074A8004FF0060308BF00226946009302F05EF819
:1074B80008B100F0A1FD054B1E7008B070BD00BFFB
:1074C80028C602007D740200C81D0020F423002095
:1074D80007B5044B0093044A4023FFF769FF03B044
:1074E8005DF804FBF5740200F523002038B50D485B
:1074F8000D4C0E4D002323700378EB5CD2B263B1C0
:10750800043002F0C5FF08B100F076FD084B1A7888
:1075180012B12378002BFBD038BD0C3002F048FDA7
:10752800F1E700BFC81D002035240020E82A00200C
:10753800F423002008B50848084A0378D35C3BB117
:10754800043002F015FFBDE808400020FFF79ABF9D
:107558000C3002F0C5FCF6E7C81D0020E82A002020
:107568000120FFF78FBF000008B5FFF7F9FF0448B7
:10757800042100F079FA034B01225A7108BD00BFBB
:1075880018C60200DC1D0020037813F0040216D090
:1075980003F00303012B03D0022B09D0012070470D
:1075A8000A6800880232C0F3831002440A60F5E7D3
:1075B8000B684288023303EB92130B60EEE7104628
:1075C800704700002DE9F04FDFF81CA187B00F4687
:1075D80000230446861C0DF1070015468DF8073078
:1075E80000F0ECFEDAF804203A60DAF8083003F527
:1075F80080739B1A0AF21C470AF583690AF2144839
:10760800B3421AD30020002D69D004F00F039B0168
:1076180043F0050363F30F00DAF80430DAB20332FB
:1076280033444AF822009DF80700CAF8043000F0F5
:10763800E9FE012007B0BDE8F08F0121384601F0CE
:1076480008F9484601F01DF9404601F01AF9DAF840
:1076580008000290C0B203300AEB800002A9FFF7CD
:1076680093FF029B30BBDAB20AEB8202D168039126
:107678009A1C0133DBB20AEB83030292D3F80CB0F5
:1076880001F00303012B22D0022B15D0834640467C
:1076980001F0FAF810B1029BCAF80830594638468A
:1076A80001F0D7F8DAF80830DAF8042003F5807327
:1076B8009B1AA5E7D8B2CEE7BDF80E30C3F38913FD
:1076C80003334FEA1B4B02EB93030293DFE7BDF84A
:1076D8000C30C3F383134FEA1B4B1344F5E7A4059F
:1076E80044F0060098E700BF08250020064B07482D
:1076F80010B500221A7001F036FB044610B9044890
:1077080001F097FC204610BD08250020C4C50200E2
:107718007CC6020030B50A4C71B10A4A0A49121BEC
:10772800D20800239A4201D1002030BD31F82350FD
:10773800854202D00133F5E7034654F83300F4E7F5
:107748002CC50200C4C50200C81D0020094B013920
:1077580003EBC000032909D8DFE801F00A02040698
:1077680004207047007970474079704700207047BF
:10777800022070472CC50200034BD3E90130C31A1D
:1077880058425841704700BF082500202DE9F041B4
:1077980086B0FFF7F1FF0546002840F0ED80774CF2
:1077A800C4F81804BFF34F8FA3680293DBB2033306
:1077B80004EB830002A9FFF7E7FE029B18B1D4F897
:1077C8001824002A5AD0DAB2991C013304EB820239
:1077D800DBB204EB8303D268DB68049302F0030393
:1077E800022B0392029154D1BDF80E306448C3F3C2
:1077F8008917502F3E4628BF502606F1080166F328
:107808008F13C1F30901ADF80E3001F0C4FA054633
:10781800002800F09C8001F0EDFA0023082203A95B
:10782800284601F0F9FA0299CB43DBB20133C9B219
:107838000331B6EB830F4FEA830204EB810125D9AC
:107848005FFA82F80823A6EB0806284601F0E4FA56
:10785800F6B208F108034B4903F0FC033246284608
:1078680001F0DAFA029B033703EB97070297D4F883
:107878001834002B43D1D4F8106453E062689A425C
:1078880094D8A260284606B0BDE8F08108233246A5
:10789800E5E7012B5BD1BDF80C303948C3F3831100
:1078A800062928BF062161F38913023101F00F016F
:1078B8008900ADF80C3001F06EFA0546002846D074
:1078C80001F098FA0023082203A9284601F0A4FA37
:1078D8000026BDF80C20C2F38312B300964203F1D0
:1078E8000803C4D202994A1CC9B20331029204EBBC
:1078F80081010422284601F08FFA0136E9E728467B
:1079080001F07CFAFFF738FF80F00100C5B2B9E753
:10791800F3685B7923B1336829461B68304698477A
:10792800F3681E68002EF3D1284601F067FA0DF1BE
:1079380007008DF8076000F041FDD4F818340BB942
:10794800029BA3609DF8070000F05CFDDAE7D4F81D
:10795800104454B90C4B0D480D49C01AC008000416
:1079680040F0020000F05CF8CCE7236820469B68F2
:107978009847E3681C68ECE7002583E708250020A2
:10798800C4C50200142500202CC5020054C50200FD
:1079980065C602002DE9F34704460E46924601A942
:1079A800012218469946FFF70DFE1B4F10B3019DA3
:1079B8004FF00008AA1CC84508EB020123D117485C
:1079C800002100F017FF80F31000000440EA144083
:1079D800E4006B1C04F03804DBB2EDB244F001049F
:1079E80007EB8303033544EA881444EA8624D86005
:1079F80047F825403B781BB1FFF7C8FE0028FBD1AC
:107A080002B0BDE8F087C9B207EB81015AF8283007
:107A1800CB6008F10108CEE70825002024290020C2
:107A280000231A46FFF7B6BF07B50123019201AA42
:107A3800FFF7B0FF03B05DF804FB07B5CDE90023FD
:107A480002236A46FFF7A6FF03B05DF804FB1FB5E3
:107A5800CDE90123069B039301AA0323FFF79AFFAD
:107A680005B05DF804FB000030B50F4CD4F81024C5
:107A780003460020114631B9D96808714AB9C4F8DB
:107A880010340A6030BDC9680D79854206D009688E
:107A9800F1E7D26814680C601360F3E701300A2834
:107AA800E8D14FF0FF30EDE70825002038B5084B46
:107AB8000125D3F810441D7004B938BDE3685D7121
:107AC800236820465B689847E3681C68F4E700BFB2
:107AD8000825002030B5C38885B004460D4633B16B
:107AE800144A00921449154A284600F030FF217ABA
:107AF80005291DD0637A4BB1A088FFF727FE104BEC
:107B0800104953F82020284600F021FF227A0E4B16
:107B1800A08853F8222003920021FFF7FBFD039A67
:107B28000A490346284605B0BDE8304000F00FBFBB
:107B380005B030BDA8C6020090C6020088C6020083
:107B480014C70200ADC6020038C70200B0C6020062
:107B580007B503460846197A052911D05B7A2BB177
:107B6800094A0A49019000F0F2FE0198084901907B
:107B780000F0EDFE019803B05DF804EB00F0DCBE08
:107B8800002AF8D0F2E700BFA8C60200ADC602007E
:107B9800A5C602002DE9F04385B01F460C9D0023C1
:107BA80095F80C902B7306460C46904629463846A5
:107BB800FFF790FFB8F1060F09D8DFE808F00412C4
:107BC800181F283340003146284600F0C0FE002226
:107BD80029463846FFF7BCFF85F80C9005B0BDE88C
:107BE800F08322683146284600F0B1FEEFE7D4E979
:107BF80000233146284600F0AAFEE8E7A368009370
:107C08003146D4E90023284600F0A1FEDFE7E36807
:107C18000193A36800933146D4E90023284600F075
:107C280096FED4E723690293E3680193A36800935F
:107C38003146D4E90023284600F089FEC7E7636986
:107C4800039323690293E3680193A3680093314681
:107C5800D4E90023284600F07AFEB8E708292DE980
:107C6800F74F80460E4617461C463CD8002593F829
:107C78000C901D7319461046FFF72CFFDFF888A0FB
:107C8800DFF888B0AE4231D918F8052059462046A9
:107C980000F05DFE0135082DF4D11949194DDFF8C2
:107CA80070A0204600F053FE4FF0000B5E4522D92D
:107CB80018F80B207E2A05D81046019204F01EFB06
:107CC800019A00B92E225146204600F040FE0BF1E1
:107CD800010BBBF1080FE9D1012221463846FFF715
:107CE80037FF84F80C9003B0BDE8F08F514620466A
:107CF80000F02DFECEE72946204600F028FEE6E7F4
:107D0800C4C60200C2C60200C0C60200BAC602004B
:107D1800C6C60200C30710B507D4F023054A4008B9
:107D2800145C23401943115410BD0901C9B20F2333
:107D3800F4E700BFF029002030B5094B1C78094B47
:107D4800196800239C4202DC0022104630BD11F85D
:107D58003350854201EBC302F7D00133F2E700BF8D
:107D6800C0290020102A002013B504460191FFF70E
:107D7800E3FF38B143682BB10199204602B0BDE852
:107D88001040184702B010BD034B04481968002280
:107D9800490800F02CBA00BFC4290020C8290020D7
:107DA80010B5C0B2FFF7C8FF0446007801F0DAFD4D
:107DB80063785A1E53425341834208D1044BD3E996
:107DC8000023134303D1BDE81040FFF7DDBF10BD0A
:107DD800E829002037B54308374AD35CC2074CBFAF
:107DE8001B0903F00F0304460D46042B25D8DFE8D2
:107DF80003F003262F3C4000F9B10121FFF78AFF69
:107E080000230DF107008DF8073000F0D7FA0120A4
:107E1800A4F12003C4F12001284A20FA01F100FA54
:107E280003F30B43A040D2E9004120430B43C2E9CE
:107E380000039DF8070000F0E5FA03B030BD002903
:107E480018BF0221204603B0BDE83040FFF762BFEB
:107E580049B10321FFF75EFF0121204603B0BDE8C9
:107E68003040FFF781BF0121ECE70029E5D104216B
:107E7800E8E709B10321E5E7FFF74CFF294620466B
:107E8800FFF772FF0DF107008DF8075000F096FA22
:107E98000120A4F12003C4F12001084A20FA01F1CD
:107EA80000FA03F30B43A040D2E9004124EA0000A2
:107EB80021EA0303BBE700BFF0290020E8290020DE
:107EC8002DE9F041124E134F00243378A34208DC09
:107ED800114BD3E90023134318D0BDE8F041FFF755
:107EE80053BF3D6805EBC40815F8340001F03AFDAE
:107EF80098F801305A1E53425341181A41424141E1
:107F080015F83400FFF766FF0134DEE7BDE8F081BD
:107F1800C0290020102A0020E8290020092AF7B5E6
:107F280005460C4616463ED901F044FCE8B11F4B05
:107F38001F481D601F4B204F1C70204B0021202222
:107F48001E6004F040FA1E4B00200021C3E9000126
:107F5800013CE4B20326FF2C0DD11A4A1A4800212D
:107F680003B0BDE8F04000F037B901F0DDFB0028B0
:107F7800DDD003B0F0BD9DF8063015F834008DF85B
:107F8800046005EBC40223F007038DF8063001A94D
:107F980093788DF805303A4601F016FC013CE4B2BE
:107FA8000028D8D0E5E70720E3E700BF102A002023
:107FB800F0290020C0290020A97D0200C429002042
:107FC800E8290020C97E020058C7020070B5084D94
:107FD800084E00242B789C4201D3002070BD3368E2
:107FE800012113F8340001F06FFC0134F2E700BFFF
:107FF800C0290020102A00201FB50021039001AAE3
:1080080044F20100CDE9011100F004F805B05DF873
:1080180004FB000038B572B6FFF748FDFFF7B6FB62
:108028000028FBD1104B114C114D1249E41AE408F9
:10803800240444F00100FFF7F3FCD5F8F030DB0727
:1080480000D500BE0C4944F00200FFF7E9FCBFF37D
:108058004F8FEA68094B02F4E0621343EB60BFF309
:108068004F8F00BFFDE700BF2CC5020054C50200BA
:1080780000ED00E05CC7020068C702000400FA05D2
:1080880010B5D0E90243D1E90202A04272EB030322
:108098002CBF0120002010BD08B50A4800F0E5FA01
:1080A800094AD2E90031C018084BD3E9002341F14D
:1080B8000001904271EB030303D210F1807041F18B
:1080C800000108BDE41D0020182A0020902A002085
:1080D80037B505460C460A4801A900F0FAFA60B11E
:1080E8000570446001A9064800F01DFB18B1054859
:1080F80000F0C0FA002003B030BD0420FBE700BF49
:108108007C2A0020E41D002038B5184B1B78044653
:1081180013B90025284638BD0028FAD0037F03F09C
:10812800FF05002BF5D0FFF7B7FFD4E902239042F3
:1081380071EB030314D3236903B92377D4E905301A
:10814800984721690029E4D0237F03F0FF05002B1D
:10815800DFD0D4E902325B1842F10002C4E90232EE
:108168000348214600F084FFD4E700BF202A0020FE
:1081780084C7020013B5114B1149186801900823F0
:108188001048582200F092FA044698B90E4A0F484F
:1081980001A900F05BF9044660B90C48012100F020
:1081A80047FA01230A4A0948194600F0A9F9094B78
:1081B80001221A70204602B010BD00BF80C702001D
:1081C800242A00207C2A002035820200E41D002099
:1081D800FFFF7F00202A00203AB103685A614A1E37
:1081E800514251411961002070470720704738B546
:1081F800037F04460D4683B98261FFF74DFF23696B
:10820800281841F10001C4E9020103B125612146A2
:108218000020BDE83840FFF75BBF002038BD0000F4
:10822800014800F022BA00BFE41D00202DE9F34701
:10823800064600F005FA40B1584AD2E9003113F178
:10824800807341F10001C2E900310021304600F09D
:1082580006FA38B1524C236823B12068FFF754FF5F
:10826800002323600121304600F0F9F920B1FFF71F
:1082780013FF4C4BC3E900014B48494D4B4C4C4F45
:1082880001A900F060FA002842D1DFF82081444CAF
:10829800DFF82491404600F001FF2368002872D0DF
:1082A8007BB12368D0E90252D3E902138D4272EB05
:1082B80003032AD223681B7F1BB12168404600F0C4
:1082C800D7FE404600F0E4FED0E9027A0546FFF703
:1082D800E3FE381A6AEB010A01287AF1000345DB4C
:1082E800B0F5350F40D3FFF79BFF324A02444FF4F5
:1082F80096030021484600F023F900283ED1236860
:1083080013B9304600F0F4F8256002B0BDE8F087F4
:108318000378012B1DD0022B09D14FF0000820460D
:1083280000F0B6FE002836D080F81C80F7E73BB98D
:1083380041680B7F23B901230B77204600F098FE94
:1083480001A9194800F02AFA01A9174800F0FBF919
:1083580099E741682B68994202D100232B60EFE727
:10836800204600F09EFEEBE7AA68C0E700214846D9
:1083780000F06BF92846FFF7C7FE01E00D28F9D099
:108388000023236086E7002BBFD1304602B0BDE84A
:10839800F04700F0B1B801233B70D1E7182A00205C
:1083A800982A0020902A00207C2A002084C70200F6
:1083B800202A0020FFFFB400E41D002070B5EFF371
:1083C800108672B60C4A946801239CB993600B4BD3
:1083D8000B4DD3F8801029401160C3F88050D3F8B2
:1083E800841051604FF0FF32C3F88420047006B93E
:1083F80062B670BD0370FAE79C2A002000E100E035
:10840800FC06FFBD084B9A6810B55AB150B9EFF396
:10841800108172B6054A1C6814605C6854609860E4
:1084280001B962B610BD00BF9C2A002000E100E03F
:10843800435882B03BB10023435043580193019BFA
:10844800012002B070471846FBE70000F8B5204B42
:108458004479204E43F824201F4A204B06EBC404DD
:108468009B1A2279DB081B0432B143F002001C4935
:10847800FFF7D6FA0820F8BD02680C88C2F808454C
:1084880090F904508A7804795201002DD2B219DB90
:1084980014494F1987F8002301226D0904F01F04BD
:1084A80002FA04F441F82540427906EBC20101249E
:1084B80046F832000C7143F003000B49FFF7B0FA9D
:1084C8000020D8E7094904F00F040A55ECE700BF7B
:1084D800B02A0020A82A00202CC5020064C502008A
:1084E80090C7020000E100E0B2C7020014ED00E00E
:1084F800036801221A607047036801225A607047B6
:1085080073B501F15005AD000068ADB24FF4803489
:108518008C400026C0F80843C0F84843465101F58E
:10852800A8714559019522F07F42019D40F821200C
:10853800C0F844430BB1C0F8044302B070BD00005A
:108548002DE9F74F0D4622F07F4402684FF480373B
:1085580005F150068F408046B60002EB8500C2F850
:108568004873B6B2C2F80873D2F8041599464FF0AA
:10857800000BD0F84035C0F8401542F806B05B1A39
:108588009259009223F07F43012B009A4FEA850A03
:108598000CD1264B4FF4806043F001039847D8F87C
:1085A800003043F806B09B590193019BD8F800109E
:1085B800D1F80465C1F84473A31B23F07F43012B52
:1085C8001CD11A4B05F5A875013443F0010341F895
:1085D80025404FF480609847D8F80030D3F8043528
:1085E8009E4209D1D8F800300020C3F84473C3F87C
:1085F800047303B0BDE8F08F0D20FAE78A44C9F18F
:10860800FF13CAF84045D1F80405221A013A22F0AE
:108618007F4203F57F439342EED3002AE2D101342F
:10862800CAF84045D1F804359842DAE7D0C70200C5
:1086380003680222C3F8442309B1C3F8042370472E
:1086480000684FF48271FFF7F3BE4FF4803303FAEA
:1086580001F10368C3F84813C3F808137047503191
:108668008900006889B2FFF7E3BE0368D3F8040500
:108678007047000090F90430002B09DB5A090121EA
:1086880003F01F0301FA03F34032024941F8223094
:10869800704700BF00E100E0024B034A1B68106806
:1086A800184700BFB02A0020A82A002010B561B1E1
:1086B800B2FBF3F403FB1424A4B244B9C0E90014D8
:1086C80084608281C381204610BD0E20FCE709200A
:1086D800FAE737B550E8013F9DB2C489254484893B
:1086E800A54228BF2D1B0489A54202BFBFF32F8FC7
:1086F800002207E0C5EA030540E80154002CE9D14F
:108708004FF001028DF803200193019A0A609DF849
:10871800031001F0FF0321B1006810FA82F003B0E2
:1087280030BD1846FBE70A884B889A4209D150E8C1
:10873800012FC2EA024240E80123002BF7D10120B1
:1087480070470020704737B550E8023F1FFAA3F57D
:10875800C488A54202BFBFF32F8F00220DE0C48951
:1087680025448489A54228BF2D1BC3EA054540E856
:108778000254002CE8D14FF001028DF80320019338
:10878800019A0A609DF8031001F0FF0321B1006807
:1087980000EB124003B030BD1846FBE70A884B884F
:1087A8009A4209D150E8022FC2EA224240E8022345
:1087B800002BF7D1012070470020704701F01F02FD
:1087C8004B090121914000EB830000F01EB801F035
:1087D8001F0301229A404B0900EB8300D14300F0AC
:1087E8002CB84B0901F01F0150F82300C84000F0D5
:1087F8000100704710B5034653E8000F0A4643E8E6
:10880800002494F0000FF7D110BD10B5034653E8CB
:10881800002F42EA010043E8000494F0000FF6D16B
:1088280010BD10B5034653E8000F00EA010243E803
:10883800002494F0000FF6D110BD10B5034653E89C
:10884800002F02EA010043E8000494F0000FF6D17B
:1088580010BD10B5034653E8002F02EB010043E8B2
:10886800000494F0000FF6D110BD10B5034653E88C
:10887800002FA2EB010043E8000494F0000FF6D1AA
:1088880010BD0121FFF7C1BF0021FFF7CABF10B516
:1088980090B1D0E9012301689B1ADBB20A60013B61
:1088A800DBB2FF2B026802D10020107110BD1168E5
:1088B8004C1C14600B70F2E70E20F7E737B505463D
:1088C80000240DF107008DF80740FFF777FD2A68AF
:1088D8006B68116899420ED9481E106011F8013C66
:1088E800EC68298A01FB0344AB6811791B1ADBB2D7
:1088F800994238BF13719DF80700FFF783FD2046A2
:1089080003B030BD37B5054600230DF107000C460E
:108918008DF80730FFF752FD2A681368591C11605B
:10892800E968641A298AB4FBF1F41C709DF8070001
:10893800FFF768FD03B030BD826810B504462AB160
:1089480043690168006998470023A36010BD0EB40D
:1089580003B5039921B104AB01AA019300F076F89D
:1089680002B05DF804EB03B070470A2938B5044635
:108978000D4602D10D21FFF7F8FFA3682268591CA4
:10898800A160D554D4E901329A4204D32046BDE807
:108998003840FFF7D1BF38BD2DE9F84F9846DDE9DB
:1089A8000A43154682460F460A464FF00109AA4275
:1089B8000FD2C14538BFC14613F0010B01D16CB9C4
:1089C80000240126B8F1010F1BD908F1FF386E43C6
:1089D800F8E709F10109B2FBF5F2E8E79B070ED5C4
:1089E800B8F1000F0CBF30262026A145E9D2013C82
:1089F80031465046FFF7B9FF002CF6D1E0E72026B4
:108A0800F3E7B7FBF6F39D42E1D9DFF83C80B7FB0B
:108A1800F6F3504618F8031006FB1377FFF7A5FF87
:108A28003346AB42B6FBF5F6F1D2BBF1000F02D0EC
:108A38000CB1A14501D3BDE8F88F20215046013C77
:108A4800FFF793FFF4E700BFD6C702002DE9F74F01
:108A5800054617468846002900F03E8118F8011B94
:108A680049B92B7B002B00F03781284603B0BDE8BD
:108A7800F04FFFF761BF252940F0B780002698F82E
:108A880000302D2B424608F1010823D0302B24D08A
:108A98002B2B25D000242A2B02F1010123D13B687E
:108AA8001A1D1B683A601C440A4613782E2B26D1DF
:108AB80001324FF0000A104610F8011BA1F1300CEA
:108AC800BCF1090F1DD80A2303FB0A13A3F1300ACE
:108AD8000246F0E746F00106D1E746F00206CEE787
:108AE80046F00406CBE711F8013CA3F13000092851
:108AF800DBD80A2202FB0434303C0A46CBE74FF0AD
:108B0800000A12F8011B01F0FB0068289046F8D013
:108B1800782909D86F290CD8632962D022D8252949
:108B280063D0582900F0888098F80030002B95D140
:108B380097E770390829F7D801A353F821F000BF47
:108B4800BB8C0200318B0200318B0200518C020079
:108B5800318B02002F8C0200318B0200318B020016
:108B6800418C0200642901D06929DDD13A68D2F824
:108B78000090111D89EAE9723960A2EBE9724FF0A1
:108B8800010B092A35DCD34538BFD3462CB1B9F1DE
:108B9800000F01DB720700D5013CB30702D5BAF11B
:108BA800000F03D0F00701D44CBB0024B9F1000F2B
:108BB8002DDAC9F100092D212846FFF7D6FE06F067
:108BC8000302022A04D1BAF1000F01D11CBB002410
:108BD800CDE9004653460A2249462846FFF7DCFEFF
:108BE800A2E73B681A1D19783A602846FFF7BDFED0
:108BF8009AE70A230BF1010BB2FBF3F2C1E7A34595
:108C0800D4D220212846013CFFF7AFFECCE77107FC
:108C1800D5D52B21D0E7A345DAD230212846013C0F
:108C2800FFF7A3FED2E73968CDE900460A1D3A608E
:108C380053460A220968D0E739680A1D3A60CDE927
:108C4800004653461022F5E73B681A1D3A6016F0B5
:108C58000106D3F8009024D1B9F1000F03D048469B
:108C680003F00BFC0646B4421DD809F1FF3919F888
:108C7800011F00293FF458AF2846FFF776FEF6E7B4
:108C880028460136FFF771FE19F806100029F7D1BA
:108C9800A642BFF449AF20212846013CFFF765FEF4
:108CA800F6E70026F0E720212846013CFFF75DFEA5
:108CB800D9E73B681A1D3A60302128461C68FFF73F
:108CC80054FE78212846FFF750FE00220823CDE9FC
:108CD80000322146102280E703B0BDE8F08F00BFC4
:108CE8002DE9F84FB0F806A04579D2F800B09DF804
:108CF80028900AFB05F5043D88460BEB0301A942C1
:108D080003F1040488BFA5EB030BB4FBFAF607468E
:108D18000AFB1644C2F800B04EB9AAEB04055D453B
:108D280028BF5D46BBF1000F04D1BDE8F88F3F684E
:108D3800013EF1E7043408EB06003C442A46B9F149
:108D4800000F0DD02146ABEB050B03F013FBDA4502
:108D58002E443F6855464FF0000428BF5D46E1E7C2
:108D680001462046EFE7FFF792BDF8B54679014680
:108D7800721E0546002393422D6803D30024A642A1
:108D880002D8F8BD0133F6E70F682846FFF7BAFDA9
:108D980001343946F3E72DE9F843068ACD1C074626
:108DA800FFF78CFD043E35440446B5FBF6F5F0B1FB
:108DB8004FF48073EDB28380C680013D0760814621
:108DC8004FF00008A84512D23846FFF777FD06464F
:108DD80048B163790133637108F10108C9F80000EB
:108DE80007608146EEE72046FFF7BFFF344620467E
:108DF800BDE8F88301210430FFF72BBD10B5012130
:108E080004460430FFF731FDC0B220B92046BDE862
:108E18001040FFF7AABF10BD1FB5039200220092B1
:108E280003AAFFF75DFF05B05DF804FB1FB50392C9
:108E38000122009203AAFFF753FF05B05DF804FB77
:108E480041DF7047064B10B500241C70054B1C60B1
:108E5800BFF35F8F0449054800F0F4F8204610BDC1
:108E6800BC2A0020C02A0020F0C70200B42A002033
:108E780007B500230DF107008DF80730FFF79EFABC
:108E8800F1EE103A23F09F03E1EE103ABFF35F8F43
:108E98000A4B4022C3F884219DF80700FFF7B2FA75
:108EA80003F066F820B103B05DF804EBFFF7C8BF24
:108EB80020BF40BF20BF03B05DF804FB00E100E025
:108EC800026813685268934291BFD01A80680130D3
:108ED800801888BFC01A7047036881681A685B6881
:108EE8008B4234BF01330023D31A5842584170478C
:108EF80073B5002304460DF107000D468DF80730C1
:108F0800FFF75CFA2046FFF7E7FF10B1237C002B40
:108F18003BD12368A1685E685A688A4234BF01322F
:108F280000225A6028B11A688A4234BF01320022EE
:108F38001A60E2686368511E072920D8DFE801F04B
:108F480004101F141F1F1F182A789A552046FFF770
:108F5800B7FF23689A68824200D29860002415E01F
:108F68002A8823F81620F1E72A6843F82620EDE737
:108F7800D5E9000103EBC603C3E90001E6E729468A
:108F880002FB063003F0F6F9E0E704249DF8070039
:108F9800FFF738FA204602B070BD036818685B68AE
:108FA800C31A58425841704773B5002305460DF15E
:108FB80007000C4616468DF80730FFF7FFF92846DC
:108FC800FFF7EBFF002832D12B6819682EB91A6811
:108FD800A868824238BF561C1E60EA686B68501E3B
:108FE80007281ED8DFE800F0040E1D121D1D1D16EF
:108FF8005B5C237000249DF80700FFF703FA204606
:1090080002B070BD33F811302380F3E753F82130F4
:109018002360EFE703EBC103D3E90023C4E900238E
:10902800E8E701FB0231204603F0A4F9E2E7052452
:10903800E1E7836800225A60C3E904229A60DA6093
:109048001A6070470B684A684360934208BF002360
:10905800016008BF43607047436843B10268916884
:1090680052680B449342436004BF00234360704737
:1090780070B5446806460D46206818B1B36829469D
:10908800984718B923682B60256070BD2468F3E7FA
:109098004368186808B102681A607047436818681E
:1090A80070474368186800B97047884203D102685E
:1090B8001A600120704703460068F4E710B50D49AF
:1090C800A1F59472914201D800200FE08C1AE30FA9
:1090D80003EBE4035B1002EBC30452F83330834222
:1090E80005D802D204F10802ECE7606810BD2146F9
:1090F800E8E700BFFCCC020008B5FFF7DFFF024B32
:10910800002808BF184608BDBFCB02004FF08053A7
:10911800D3F83001A0F108035842584170470000C5
:109128004FF08053D3F83021082A06D1D3F83431D0
:10913800032B02D8024AD05C70470020704700BF5A
:10914800FCCC020008B5FFF7E1FF40B14FF08043C7
:109158000022C3F80C21C3F81021C3F83825FFF703
:10916800D5FF002846D04FF08052614BD2F8041446
:10917800C3F82015D2F80814C3F82415D2F80C1433
:10918800C3F82815D2F81014C3F82C15D2F8141403
:10919800C3F83015D2F81814C3F83415D2F81C14D3
:1091A800C3F84015D2F82014C3F84415D2F8241493
:1091B800C3F84815D2F82814C3F84C15D2F82C1463
:1091C800C3F85015D2F83014C3F85415D2F8341433
:1091D800C3F86015D2F83814C3F86415D2F83C14F3
:1091E800C3F86815D2F84014C3F86C15D2F84424B3
:1091F800C3F87025FFF794FF18B13E4B3E4AC3F8F9
:109208008C26FFF78DFF18B13C4BFB22C3F81825BD
:10921800FFF786FF70B14FF080414FF08053D1F8CF
:10922800E42ED3F8583222F00F0203F00F03134351
:10923800C1F8E43EFFF774FF20B1314B4FF40072E0
:10924800C3F84026FFF762FF48B14FF08043D3F8D8
:109258000024D20744BF6FF00102C3F80024294A52
:10926800D2F8883043F47003C2F88830BFF34F8FC8
:10927800BFF36F8F4FF01023D3F80022002A03DBCF
:10928800D3F80432002B2EDA1F4B0122C3F8042531
:10929800D3F80024002AFBD04FF010221221C2F884
:1092A8000012D3F80024002AFBD04FF0102312221A
:1092B800C3F80422144BD3F80024002AFBD0002260
:1092C800C3F80425D3F80024002AFBD0BFF34F8F3E
:1092D8000C490E4BCA6802F4E0621343CB60BFF33B
:1092E8004F8F00BFFDE70A4B0A4A1A6008BD00BF4E
:1092F80000C00040005000404881030000F00040DA
:109308000090024000ED00E000E001400400FA0592
:10931800EC1D00200090D003074B1B5C1F2B86BF61
:10932800064903F01F034FF0A041012202FA03F39C
:10933800C1F80C35704700BF00CD02000003005093
:10934800074B1B5C1F2B86BF064903F01F034FF01A
:10935800A041012202FA03F3C1F80835704700BFA3
:1093680000CD02000003005008B50020FFF7E8FF19
:109378000120FFF7E5FF0220FFF7E2FFBDE8084004
:109388000320FFF7DDBFC20710B504460CD54FF028
:10939800A0430322C3F83427C3F83827C3F83C276F
:1093A800C3F84027FFF7E0FFA3070AD54FF0A04313
:1093B8000C22C3F82C27C3F83027C3F86027C3F85A
:1093C800642710BD38B5074C051E04F1080318BF03
:1093D8001C4623682BB11A6822605B6828469847A8
:1093E800F7E738BDCC2A002020B9054B01225A7076
:1093F800FFF7E8BF012802D1014A9070F8E77047EB
:10940800C42A002020B9034B01225A70FFF7DABFA3
:10941800704700BFC42A002038B50E4C2378B3B972
:109428000D486360A3602361E36000F0E7F8054638
:1094380002F09EFD08B900F0EDF801232370074BF8
:10944800D3F800340BB10123A370284638BD852515
:10945800F5E700BFC42A0020F19302000000014094
:1094680037B50D4C00230DF107008DF80730FEF7D6
:10947800A5FFE368013BE360E36833B9074BD3F822
:10948800005415B900F0D8F8A5709DF80700FEF74C
:10949800B9FF03B030BD00BFC42A0020000001405E
:1094A800012813B50CD0032820D038B9134B01225A
:1094B800C3F88020BFF34F8FBFF36F8F02B010BD8A
:1094C8000F4C00230DF107008DF80730FEF776FFEB
:1094D80023780BB9FFF7A0FFE3689DF80700013375
:1094E800E3600123A370FEF78DFFE7E700F092F831
:1094F80002B0BDE81040FFF7B3BF00BF00E100E0D5
:10950800C42A00201FB503788DF800304368019302
:1095180083688DF80830C368054A0393054B68468D
:1095280053F8213052F82110984705B05DF804FB34
:10953800D82A0020E02A00201FB503788DF80030D3
:109548004368019383688DF80830C368054A03931C
:10955800054B684653F8213052F82110984705B05A
:109568005DF804FBD82A0020E02A0020F0B5194B4A
:1095780090F800C0DFF86CE043F82C20164B164634
:109588000A6943F82C204B7F0EF80C300C4607462E
:109598000FCC89B06D460FC594E80F0085E80F0021
:1095A8003B78CDF810C01EF803304BB1002E0B4AA3
:1095B800694608BF3246381D00F0FEFD09B0F0BD0F
:1095C800002E074A694608BF324607F10C0000F032
:1095D800B7FBF3E7E02A0020D82A00200D95020007
:1095E80041950200E82A002000F18040002382B063
:1095F800036003680193019B02B07047044A137922
:1096080023B9012110609180184670478520704762
:10961800EC2A0020074B1A68D20704D4C02283F82A
:10962800002301221A604FF080430122C3F8182555
:10963800704700BF00E100E04FF0804208B5022308
:10964800C2F808334FF48270FFF7CEFF0123D360CE
:10965800D2F81834DB03FBD408BD00004FF080417A
:1096680010B5D1F8003163B14FF48070FFF7BCFF3B
:109678000D4B58790122C1F8082310B95A711B689B
:1096880098474FF08042D2F8043163B14FF48270AA
:10969800FFF7AAFF0223C2F80833034BBDE81040C6
:1096A8001B680120184710BDEC2A002000F18040FB
:1096B80000F5C040002382B0036003680193019B5A
:1096C80002B0704703681F2B83BF03F01F030360BA
:1096D80001484FF0A04070470003005007B50190C3
:1096E80001A8FFF7EFFF019B00EB8300D0F80037DC
:1096F80023F44033C0F80037D0F8003743EA01417B
:10970800C0F8001703B05DF804FB0000054B4FF0EC
:10971800FF32072843F8202084BFC01880F858205B
:10972800704700BFF42A002038B51E4C94F86A3000
:10973800ABBB4FF6FF71FF205A09012A0CBF0A463E
:109748004FF0FF3203F01F05EA40D20748BFE21886
:1097580003F1010348BF82F83000302BECD100211F
:10976800C8B20131FFF7D2FF0C29F9D10622002136
:109778000D4802F028FE0D4BC02283F80623402234
:109788001A604FF4BE70FFF791FF094B4FF000428B
:10979800C3F80423012384F86A30002038BD082068
:1097A800FCE700BFF42A0020582B002000E100E06D
:1097B80000600040034B93F86A00003818BF01208E
:1097C800704700BFF42A0020F7B53D4F3B18044608
:1097D80093F93030002B71DA8B78C3F34003002BF8
:1097E8000BBF082500250C200820854202D1042043
:1097F80003B0F0BD57F82560013647D138196EB26D
:1098080047F8252080F8306013B97B1983F8584051
:109818008B785A071AD4D8073AD501A80194FFF7CC
:1098280051FF019B00EB8300D0F8003723F00203BF
:10983800C0F800372348E20804F0070C012303FAB4
:109848000CF310F802C043EA0C03835488780B78B1
:1098580010F0020028D0AD0005F1804505F5C0459F
:109868002402D5F8102522F44F3222F44072C5F8AC
:1098780010251B04D5F8102504F47C5403F4403358
:109888001C431443C5F810450020B1E70135ACE787
:1098980001A84A780194FFF715FF019B03F5E073CF
:1098A800920040F82320C5E7083E47FA86F797F864
:1098B800604044EA831387F8603099E7082097E707
:1098C800F42A0020582B002073B5244D2E18044686
:1098D80096F93020072A1DDD083A45FA82F595F8F1
:1098E80060309B09032B10D1019001A8FFF7EAFE15
:1098F800019BD0F81015D94001F001010231204632
:1099080002B0BDE87040FFF7E9BE012B0CBF022191
:109918000321F4E7D3B2072B1DD8930003F180434A
:1099280003F5C043D3F8100540F00100C3F8100553
:1099380002F1400040B2800080B2FFF7B7FE51B19B
:1099480096F9303055F823302BB1012303FA02F28F
:10995800034BC3F8042302B070BD00BFF42A0020F3
:109968000060004007B5019001A8FFF7ABFE019B1E
:10997800D0F81005D84000F0010003B05DF804FBF2
:109988002DE9FF470024CDE90244584D4FF4807279
:10999800012102F1804303F5C04390B21B68012BFB
:1099A80006D1D5F804330B4202D0FFF77FFE0C43F3
:1099B8000432B2F5907F4FEA4101EAD14B4BD3F81C
:1099C8007C31012B11D14FF4BE70FFF76FFE4FF0C1
:1099D800A04344F00044D3F820250292C3F8202580
:1099E800D3F820280392C3F82028E3B2D3B1404F1C
:1099F80000250126344210D0AB0003F1804303F563
:109A0800C043D3F81005D3F8101557F8253023B103
:109A1800C1F30141C0F3052098470135082D4FEAED
:109A28004606E7D1002C59DA314D324C324E4FF010
:109A38000008012716F9013B5A1C3CD0C3F3C201A8
:109A480004A801445FFA83F911F8081C03F03F02E7
:109A580003F0070307FA03F319422CD001A8019277
:109A6800FFF730FE019B03F5E07350F82330C3F392
:109A7800014ABAF1020F0CBF032102211046FFF779
:109A88002DFE01A80192FFF71DFE019B07FA03F3C3
:109A9800C0F82035AB1893F9303055F8233053B15E
:109AA8004FEA9911032904D0BAF1020F19D10129FB
:109AB80001D11046984708F10108B8F1040FB9D14F
:109AC8004FF0A043D3F820250292C3F82025D4F8FC
:109AD80020350393C4F820351343A7D104B0BDE85B
:109AE800F087BAF1030FE6D10229E1E700600040F0
:109AF800F42A002000030050542B0020014B1B685F
:109B0800184700BF602B00200E4B984237B50C4613
:109B180002D0002003B030BD00230DF107008DF8FE
:109B28000730FEF74BFC084B1D7915B901221C6064
:109B38001A719DF80700FEF765FC002DE9D0112089
:109B4800E8E700BF00200040602B0020034B98424C
:109B580001BF034B00221A601A71704700200040B1
:109B6800602B00200023435082B043580193019B8F
:109B780002B070470A4610B54FF48E71FFF7F2FF36
:109B8800136A9168C95C136A01331362C0F81C1523
:109B980010BD8B690A4610B54FF4847123B9FFF7DD
:109BA800E1FFD0F8183510BDFFF7DCFF536AD16824
:109BB800D0F81805C854536A01335362F3E700001C
:109BC8001FB501238DF80030044BCDE90110D3E90E
:109BD80000126846904705B05DF804FB682B00202A
:109BE80030B54D4DD5F804339A0585B051D5D5F823
:109BF8002431002B4DD04FF492712846FFF7B2FF65
:109C08004FF40173C5F80833444B93F829200AB977
:109C180001226A60404902228DF80020D1F8802490
:109C2800C1F8802403929A690292DA6801920022AC
:109C3800C3E906226846D3E9001290473648D0F8AF
:109C48001C315BB1354A5169136A99424DD992F872
:109C58002830002B49D11146FFF78CFF2E48D0F849
:109C68004431002B56D04FF4A271FFF77BFF2B4BEA
:109C780093F829200AB1012202609A69002A49D082
:109C8800586AD96800229A6105B0BDE83040FFF7EC
:109C980097BFD5F804335B07D0D5D5F80831002B2A
:109CA800CCD01E4C1C482146FFF773FF636AA2699B
:109CB8009A42C3D1E369E1684BB1A3612369E360C8
:109CC8000023606AE3616362FFF77AFFB6E794F8FE
:109CD80029300BB901236B600F4B4FF40172C3F8A5
:109CE80008230023606AA361EEE70B484FF48E71E6
:109CF800FFF738FF5369002BB0D051690291002358
:109D080091688DF80030019153616846D2E90013DB
:109D18009847A3E705B030BD00200040682B00201D
:109D28001F2886BF00F01F00044B4FF0A04300F52A
:109D3800E070022243F82020704700BF0003005063
:109D48002DE9F843604D90F804802C2303FB085359
:109D5800064693F82A300C469146002B40F0AF8017
:109D68005A490068FFF7D0FE0746002840F0A9804E
:109D78002268531C10D01F2A87BF554902F01F03C1
:109D880013464FF0A0410120984003F5E073C1F855
:109D98000805032041F823006168481C0DD01F29DD
:109DA8008BBF01F01F030B4649484FF0A04003F555
:109DB800E0734FF0000C40F823C03068A369C0F886
:109DC800243594F814C0637DBCF1010F4CEA0303F9
:109DD800C0F86C35C0F81415C0F80C252BD1A36851
:109DE800591C0DD01F2B8BBF03F01F021A46384990
:109DF8004FF0A04102F5E0724FF0000C41F822C08C
:109E0800E1684A1C13D01F2987BF314A01F01F0C93
:109E18008C464FF0A0424FF0010E0EFA0CFE0CF5E6
:109E2800E07CC2F808E54FF0030E42F82CE0C0F8D9
:109E38000815C0F810352C2202FB08F2AB18C3F83D
:109E480004902369AB50B9F1000F20D04FF48E7104
:109E5800247FFFF787FE4FF4A2713068FFF782FE78
:109E680032681C4BC2F80433130B42F3073261010A
:109E7800002AC9B21EDB1848841884F8001301218F
:109E8800520903F01F0301FA03F340F82230336844
:109E98000422C3F800252C2303FB08530022C3E93E
:109EA800062283F829205A61012283F82A2038469D
:109EB800BDE8F883094A03F00F03D154E7E7082700
:109EC800F5E71127F3E700BF682B0020E99B0200A4
:109ED800000300508000020000E100E014ED00E003
:109EE8002DE9F04103680579284C0022C3F80025C4
:109EF8002C2202FB054201465268A2B1244AC3F84B
:109F080008231A0B43F30733002B0CDB02F01F0066
:109F18005B090122824020331E4840F82320BFF30A
:109F28004F8FBFF36F8F0B68D3F80C05D3F81485E8
:109F3800D3F80865D3F810754FF0FF329042C3F894
:109F48001425C3F80C25C3F80825C3F8102501D03B
:109F5800FFF7E6FEB8F1FF3F02D04046FFF7E0FE0C
:109F68007A1C02D03846FFF7DBFE731C02D030465D
:109F7800FFF7D6FE0868FFF7E9FD2C2303FB05442D
:109F8800002384F82A306360BDE8F081682B002044
:109F98008402020000E100E00279044B2C2101FB5D
:109FA80002335869003818BF01207047682B002019
:109FB8002DE9F84F064690F8048089469246FFF747
:109FC800EBFF044600283CD1204F2C2508FB057BDD
:109FD8004FF48E71CBF814A0CBF80890CBF8200082
:109FE8008BF828003068FFF7BDFD306801238360D7
:109FF8005946FFF7BFFDDBF804305D461BBB3068F0
:10A00800DBF814402B6A9C4211D83368D3F81C2122
:10A01800002AFBD00122DA6000202C2303FB0877FA
:10A0280000237B61BDE8F88F95F828303BB9D0F85C
:10A038001C31002BF8D05946FFF79CFDE2E70F20B2
:10A04800EBE71120EEE72046ECE700BF682B002085
:10A058000023435082B043580193019B02B07047DC
:10A068001FB501238DF80030044BCDE90110D3E969
:10A0780000126846904705B05DF804FB942B002059
:10A088007FB5434AD2F82461002E60D010464FF4C1
:10A098009271FFF7DDFF02238DF80030D2F880348B
:10A0A800C2F880340393D2F83C350293394BDA680E
:10A0B80001920022C3E906226846D3E900129047BC
:10A0C8003348D0F8443173B14FF4A271FFF7C0FFA1
:10A0D800304B9A693AB10022C3E90622D968D0F810
:10A0E8003C05FFF7BDFF2A48D0F82031ABB14FF44B
:10A0F8009071FFF7ADFF0123C360264B5A6962B127
:10A10800D0F84C150291002299688DF80020019131
:10A118005A616846D3E9001290471D48D0F8583173
:10A128009BB14FF4AC71FFF793FF1A4B5A6962B1B8
:10A13800D0F84C150291002299688DF80020019101
:10A148005A616846D3E90012904704B070BDD2F84E
:10A158001031002BB4D04FF488711046FFF778FF08
:10A168000C4BD2F83C0599698842A9D1DC69D968B9
:10A1780064B1D2F8005225F02005C2F800521A69DD
:10A188009C61DA60DE61FFF76BFF99E79C61FAE793
:10A1980000200040942B00201F2886BF00F01F00DD
:10A1A800044B4FF0A04300F5E070022243F8202052
:10A1B800704700BF000300502DE9F843664E90F841
:10A1C8000480242303FB0863044693F820300D46DB
:10A1D8009146002B40F0BC8060490068FFF794FC72
:10A1E8000746002840F0B68029684B1C10D01F296C
:10A1F80087BF5B4A01F01F030B464FF0A0420120C6
:10A20800984003F5E073C2F80805032042F82300DC
:10A218006A68501C0DD01F2A8BBF02F01F0313461B
:10A228004F484FF0A04003F5E0734FF0000C40F8A2
:10A2380023C02068AB69C0F8243595F814C06B7D3D
:10A24800BCF1010F4CEA0303C0F86C35C0F80C15DB
:10A25800C0F814252BD1AB68591C0DD01F2B8BBF10
:10A2680003F01F021A463E494FF0A04102F5E07282
:10A278004FF0000C41F822C0E9684A1C13D01F298E
:10A2880087BF374A01F01F0C8C464FF0A0424FF0B1
:10A29800010E0EFA0CFE0CF5E07CC2F808E54FF052
:10A2A800030E42F82CE0C0F80815C0F81035242237
:10A2B80002FB08F2B318C3F804902B69B350B9F144
:10A2C800000F2FD04FF488712A7FFFF7C1FE206856
:10A2D8004FF49071FFF7BCFE20684FF49271FFF7BE
:10A2E800B7FE20684FF4A271FFF7B2FE4FF4AC71CD
:10A2F8002068FFF7ADFE23681A49C3F80413190B49
:10A3080043F307335201002BD2B21CDB1648C518A1
:10A3180085F8002301225B0901F01F0102FA01F10F
:10A3280040F8231023680822C3F80025242303FBE0
:10A3380008660023C6E906337361012386F82030D6
:10A348003846BDE8F883094B01F00F015A54E9E794
:10A358000827F5E71127F3E7942B002089A00200CE
:10A36800000300501003420000E100E014ED00E09B
:10A378002DE9F0413D4D06790468242303FB06537B
:10A3880002465B68ABB13A4BC4F8083344F3073371
:10A39800002B4FEA14310CDB01F01F005B0901218F
:10A3A80081402033334840F82310BFF34F8FBFF369
:10A3B8006F8FD4F8003223F02003C4F8003224232E
:10A3C80003FB06539B6933B14FF4A2712046FFF794
:10A3D8003FFE012363604FF4AC712046FFF738FE5F
:10A3E8000123E360242303FB0653D4F85811002902
:10A3F800FBD0996919B1D4F844110029F5D000238C
:10A40800C4F800351368D3F80C05D3F81485D3F8CD
:10A418000815D3F810754FF0FF329042C3F80C2599
:10A42800C3F81425C3F80825C3F8102501D0FFF791
:10A43800B3FEB8F1FF3F02D04046FFF7ADFE7A1CED
:10A4480002D03846FFF7A8FE4B1C02D00846FFF79B
:10A45800A3FE2046FFF77AFB242303FB06550023BF
:10A4680085F820306B60BDE8F08100BF942B002098
:10A478001003420000E100E00279044B242101FBB3
:10A4880002335869003818BF01207047942B002008
:10A4980001F06043B3F1005F2DE9F04706468846B6
:10A4A80092463BD190F80490FFF7E6FF0446002857
:10A4B80036D11D4F3068242505FB09754FF490717E
:10A4C800C5F814A0C5F80880FFF7C2FD4FF4AC71B9
:10A4D8003068FFF7BDFD33686A69A968C3F8441599
:10A4E800C3F8482501229A606A68DAB9D3F82021AE
:10A4F800D3F858011AB90028F8D00F2007E000282F
:10A50800FBD10122DA60D3F85821002AFBD024239A
:10A5180003FB097700237B61BDE8F0871020FBE788
:10A528001120F9E72046F7E7942B0020032811D8DB
:10A53800012A0AD101290FD100F10E02D2B20D4B26
:10A5480000EB40001A54002070470129F7D0022977
:10A5580004D049B1072070470022F8E7054B00EB0B
:10A56800400018444270EEE7024B00EB40001844EC
:10A578008270E8E7B82B002008B5012202210020EC
:10A58800FFF7D4FF08B1072810D1072202210120C4
:10A59800FFF7CCFF08B1072808D100210A22084696
:10A5A800FFF7C4FF10B1072808BF002008BD00004E
:10A5B8000388102B10B502D0112B1ED010BD1A4CD9
:10A5C8002168B1B901220846FFF7B0FF08B1072892
:10A5D80024D1072202210120FFF7A8FF08B107288C
:10A5E8001CD1042202210020FFF7A0FF08B1072890
:10A5F80014D1236801332360E0E70B4A1368013B59
:10A608001360002BDAD1FFF7B7FF0028D6D0074B2D
:10A618001B68002BD2D0BDE810401847034B1B68BD
:10A62800002BE6D09847E4E7C82B0020C42B002075
:10A6380075DF704776DF70478FDF7047FDF7DCBC4A
:10A648000146014801F0EFBA582D002070B50D7889
:10A65800012D06460C4602D0022D1ED070BD0A1DE3
:10A668001948498801F0EEFB1848194B62881949C6
:10A678001B1ADB081B0443F00300FDF7D5F9FDF7AF
:10A68800A5FC08B1FDF7B8FC304601F081FB0028B5
:10A69800E4D0BDE87040FDF7AFBC0C4B0C480A791C
:10A6A8000D49C01AC008000440F00300FDF7BCF9CA
:10A6B800237928461BB1BDE87040FEF72DBEBDE8E2
:10A6C8007040FEF73DBE00BF582D00202CC502008B
:10A6D80054C5020026CD020059CD020008B507482E
:10A6E80001F0CCF908B1FDF787FC0120FEF728FE40
:10A6F800BDE808400020FEF70FBE00BF842D0020F3
:10A708000388212B13B504464ED007D8112B30D01F
:10A718001F2B3DD0102B0AD002B010BD3B2B01D00F
:10A72800562BF9D1A0881321FFF784FF35E0254B7C
:10A7380025482649C01AC008000440F00300FDF768
:10A748006FF9A1882248002201F07CFB08B1FDF7CF
:10A7580053FCA1881F4800F0E1FB08B1FDF74CFC51
:10A768000120FEF7D9FD002002B0BDE81040FEF739
:10A77800E7BD144B14481849C01AC008000440F03B
:10A788000300FDF74DF902B0BDE81040FFF7A6BF82
:10A7980000F108018088FFF74BFF0028BCD002B009
:10A7A800BDE81040FDF728BC002380888DF80430F0
:10A7B80001A98DF80530FFF73FFF0028ACD0FDF761
:10A7C8001BFCA9E72CC5020054C502007FCD02007E
:10A7D800582D0020101E00208ACD02000B2807B536
:10A7E8000BD11048019101F0FDFA019A50B143F2E2
:10A7F8000202904213D0082811D003B05DF804EB90
:10A80800FDF7FABB084B09480949C01AC0080004FB
:10A8180040F0030003B05DF804EBFDF705B903B0A1
:10A828005DF804FB582D00202CC5020054C5020019
:10A8380098CD02000378052B03D1406808B1FDF7D5
:10A84800DBBB70471FB54FF480410020FCF74EFF7B
:10A8580008B1FDF7D1FBFCF787FEFDF78BFC08B1CB
:10A86800FDF7CAFB0120FEF78EFD3E4840F2333269
:10A878000121FDF753FB08B1FDF7BEFBFEF7E2FA35
:10A8880008B1FDF7B9FB01F035FB08B1FDF7B4FBE2
:10A89800002369460120009301F0B8FB08B1FDF7D9
:10A8A800ABFB684601F064FC08B1FDF7A5FB10227C
:10A8B8000021684601F087FD01232B4A2B488DF8BB
:10A8C800043069468DF80C3001F088F808B1FDF7BE
:10A8D80093FB26480022012101F068F808B1FDF732
:10A8E8008BFB234A2148002101F032F808B1FDF71B
:10A8F80083FB2048002100F0EFFC08B1FDF77CFB4A
:10A9080008220021684601F05EFD1B4C1B4B00939A
:10A918006846019400F0C4FA08B1FDF76DFB184BC6
:10A928001848CDE900346946174B029301F0CEF977
:10A9380008B1FDF761FB154B15481649C01AC00848
:10A94800000440F00300FDF76BF8FFF7C7FE002096
:10A95800FEF7E2FCFCF71AFF0028FBD1FEF788FAA5
:10A96800F8E700BFF01D00203DA80200842D00205C
:10A97800E4CD0200702D0020F81D002049A6020039
:10A9880055A60200582D002045A602002CC502003D
:10A9980054C50200AFCD020030B5C8B1F2B10024F1
:10A9A800651C8D4206DA1588A54212D805196D78FE
:10A9B8009D420ED1A14211D9005D48B1013880B243
:10A9C80030B10234A3B210FA84F4A14206DB13803A
:10A9D80030BD055D01352C44A4B2E1E70020F7E75E
:10A9E800F7B500230646ADF80630144612B9002024
:10A9F80003B0F0BD09230DF10602FFF7CDFFBDF846
:10AA080006700546002FF2D00028F0D0204601F04D
:10AA180034FDA8420246EAD1F119204601F073FC40
:10AA2800B0FA80F04009E3E70AB1FDF7C7BEFDF7C9
:10AA3800CEBE73B50191019C06466CB100252C462B
:10AA4800294601A8FDF7CDFE18B106EB44030134F1
:10AA58009D800135142DF3D13046346002B070BDAD
:10AA68002DE9F04703888488103B8CB005460A2BF3
:10AA780021D8DFE803F00640202020202020206590
:10AA88004700DFF8E880D8F80830DB430093D8F8AF
:10AA980004106846FDF7D1FE009901A8FFF7C9FF29
:10AAA8000DF108090027019B9F4207D3132C12D9E7
:10AAB8000420FDF7A1FA0CB0BDE8F08739F802AB25
:10AAC80000260136514608EB8600FDF780FE1E2E53
:10AAD800F7D10137E7E71F482146FDF76FFE1E480B
:10AAE8002146FDF76BFEEB7B022BE4D11B48214688
:10AAF800FDF764FEDFE7174821460CB0BDE8F047D4
:10AB0800FDF765BE027A16483F2A4FEA121521461C
:10AB180094BF00220122FFF787FF022D94BF002275
:10AB2800012210482146FFF77FFF012D0E4894BFF0
:10AB38000022012221460CB0BDE8F047FFF774BFA0
:10AB4800037A002BB7D1427A0548C2F3C0022146E6
:10AB5800F1E700BFF42D0020F02D0020F82D002093
:10AB6800042E0020002E0020FC2D0020EC2D0020BB
:10AB780030B50B4B19680B4B0022914201D10020D4
:10AB880009E09D788478A54206D11D880488A542ED
:10AB980002D1054B186830BD01320433EDE700BF20
:10ABA800702E0020742E0020682E00202DE9F84F0A
:10ABB80090F8C6A24FF0760B04460AFB0B008846B5
:10ABC8009146FFF7D5FF074668B3D4F8CC52052D58
:10ABD80029D804EBC5165A46A6F8D2920BFB0A41AF
:10ABE80006F5357001F0C6FBB8F1000FC6F84C73D6
:10ABF8000E4F14BF0023022386F8D0323B6801357C
:10AC08009D42C4F8CC520ED104F534750026EB6F82
:10AC1800284698473B6801369E4205F18005F6D3E1
:10AC28000023C4F8CC32BDE8F88F00BF702E002096
:10AC380030B5A1B004460D467C22002101A801F0E0
:10AC4800C2FB03238DF80430044BADF806501B6893
:10AC580002940BB101A8984721B030BD682E00209E
:10AC68002DE9F041074691F8C60276234FF0000817
:10AC7800A0B081F8C88200FB03100C461546FFF708
:10AC880077FF064660B17C22414601A801F09BFB94
:10AC980001238DF80430ADF80650029701A8B0479B
:10ACA8002946204620B0BDE8F041FFF7C1BF0000AB
:10ACB80030B58BB0044620220D4602A8002101F0D1
:10ACC80082FB042200210DEB020001F07CFB94F8CA
:10ACD800C53294F8C61213B3013BDAB276234B435C
:10ACE800122000FB023323445B8A01339BB2ADF888
:10ACF8000430762303FB01412A460B89ADF8063060
:10AD080003238DF80830019BCDE90543064B0493D6
:10AD1800064B02A9186800F0EDFC0BB030BD762395
:10AD280003FB0143DB88E2E769AC02008C2E0020BC
:10AD3800F0B5044689B020220D466846002101F08E
:10AD480042FB94F8C7321E4A01331268DBB29342C1
:10AD580084F8C7324FF000022AD294F8C632194F4D
:10AD680084F8C5220133DBB2762113FB01F057F8D2
:10AD7800237084F8C632261827504B433271E358A3
:10AD8800CDF81230104B02930222104B8DF80020A0
:10AD98000122ADF81020186803942A46694600F08D
:10ADA800A9FC18B12A462146FFF75AFF09B0F0BDA1
:10ADB80084F8C82229462046FFF73AFFF6E700BF85
:10ADC800702E0020742E002069AC02008C2E00200A
:10ADD8002DE9F047044688B00D461646002120228A
:10ADE800684601F0F0FA94F8C6C294F8C5127623C2
:10ADF8001CFB03F2A0184FF0120E07791EFB01236B
:10AE080001F1010C0A33BC4523441CD004F11C0C8D
:10AE180000F1220807F1FF399444CAB2974216D9C3
:10AE280089451B8919D00EFB01FA013338F80A202D
:10AE380093422AD10CEB0A0394F8C522013284F814
:10AE4800C5220131E9E71B890289934208D1012310
:10AE58002B70002008B0BDE8F0870289934218D013
:10AE680001339BB2ADF810300B4B029300210B4B12
:10AE7800297004218DF80010ADF812201868039489
:10AE88003246694600F036FCE4E7013A9BB292B2DA
:10AE9800E8E70023D0E700BF69AC02008C2E002051
:10AEA80010B570B1026862B1436853B10649002019
:10AEB8000860064901240C7005490A60054A1360B8
:10AEC80010BD0E20FCE700BF702E00206C2E002065
:10AED800682E00208C2E002010B5044680B10C4B43
:10AEE8001B787BB1FFF744FE70B90A4A1368052B3B
:10AEF8000CD80949246841F823400133136010BD78
:10AF08000E20FCE70820FAE70020F8E70420F6E71F
:10AF18006C2E0020702E0020742E0020F0B50D46F7
:10AF28008BB0044600283BD0204B1B78002B39D02F
:10AF38001F4B1B68002B35D090F8C812002933D15D
:10AF48004FF4BA621B4F019101F03DFA019920229A
:10AF580002A801F038FA3868294600F06BFCE8B915
:10AF6800154BC4F8CC0284F8C502A4F8C6021868C8
:10AF7800206002238DF808300126104BCDF81A0006
:10AF8800A4F8CA523868ADF818602A4602A9059490
:10AF9800049300F0AFFB08B984F8C8620BB0F0BDA9
:10AFA8000E20FBE70820F9E71120F7E76C2E0020B8
:10AFB800702E00208C2E0020742E002069AC020018
:10AFC8002DE9FF410C46054660B159B1974B1B78F6
:10AFD80043B10388322B67D007D8112B00F01881B2
:10AFE800302B1FD004B0BDE8F081332BFAD1828812
:10AFF800B1F8CA329342F5D1C08891F8C6C291F827
:10B00800C562002800F0C080762101FB0C410023B6
:10B0180009798DF80F30731C8B4200F0E68084F8B4
:10B02800C532A5E08388B1F8CA229A42DAD1C3882A
:10B038007BBB91F8C632762202FB03130269C3F880
:10B04800062091F8C432827A1344062B0EDC81F86C
:10B05800C432A9882046FFF72BFE0028C2D0AA8850
:10B06800214604B0BDE8F041FFF7FABD062381F898
:10B07800C4326F486F4B7049C01AC008000440F0D2
:10B0880002000190FCF7CCFC6C490198FCF7C8FC65
:10B09800DFE720460021FFF789FDA988204604B094
:10B0A800BDE8F041FFF744BE8288B1F8CA329A423F
:10B0B80098D1C388002B57D191F8C672762317FB15
:10B0C80003F701EB0708837A98F804603344062BEA
:10B0D80025DC88F80430122212FB0672334605F18B
:10B0E8000C012244002098F80460B34201F10A01DF
:10B0F80002F1120227D31222013B02FB034394F808
:10B10800C62276213B4401FB0242598A138999429F
:10B118002AD2062E28D0A98884F8C5629AE7062381
:10B1280088F804304248434BCA5B4549C01AC008F6
:10B13800000440F002000190FCF776FC41490198B8
:10B14800FCF76EFCC7E751F80A6C42F8086C51F836
:10B15800066C42F8046C31F8026C168050809080BE
:10B16800D08010810133BEE7002384F8C532AA8855
:10B178000DF10F012046FFF72BFE002842D0AA88C8
:10B188002146FFF76DFD2DE7762303FB0CF312270D
:10B1980007FB0633B5F80AE0294623447045BFF497
:10B1A80033AFCF89A7F52457082F08D8DFE807F071
:10B1B80014170507070707071A008F899F829F8AB8
:10B1C8003FB1DF8A2FB11F8B1FB15F8B002F7FF438
:10B1D8001BAF01300631E1E78F89DF82EFE78F8906
:10B1E8001F83ECE78F895F83E9E701238DF80F3030
:10B1F8002046AA880121FFF7D9FCA9882046FFF735
:10B2080097FDEFE69DF80F30002B3FF4EBAEEFE72C
:10B21800B1F8CA3282889A4201BF002381F8C83245
:10B228004FF6FF73A1F8CA32DCE600BF6C2E00208F
:10B238006CC502002CC50200F4CD020013CE02003A
:10B2480058CE02009ECE020090DF7047A5DF7047FF
:10B25800B5DF70477FB50023ADF80810ADF80A10C8
:10B268006A4602A90646ADF80C30ADF80E300093D8
:10B27800ADF80430FFF7E8FF054600B3114B124C58
:10B28800E41AE408FDF738FF240444F001040346F7
:10B298000E4932462046FCF7D0FBBDF80020BDF829
:10B2A800023052EA030103D009492046FCF7C5FBE6
:10B2B800BDF804201AB107492046FCF7B5FB28461B
:10B2C80004B070BD2CC502008CC5020004CF02007A
:10B2D8004ECF02008DCF020078B14FF017130360F4
:10B2E8001B2303711723C380038141F61B320023FC
:10B2F800016143818281184670470E207047000023
:10B3080013B5034680880C46B8B91A88242A00F079
:10B318009B8014D8112A74D0232A00F0A680102A02
:10B328003ED0A37A4BB1E1880020FFF78FFF0028B9
:10B3380040F0A1804FF48073638102B010BD3A2AB7
:10B3480067D0552AEDD1DB88C988A072172B38BF82
:10B3580017238B4228BF0B462381FFF779FF60B183
:10B36800FDF7CAFE4D4B4E4902464E481B1ADB08F4
:10B378001B0443F00100FCF757FBE27A002AD0D106
:10B388002369002BCDD040F67721ADF80220228921
:10B39800ADF80010ADF80420694620469847C0E78C
:10B3A800DB7B0A790A73012B13D0022B14D0E188B6
:10B3B80023898B4205D20020FFF748FF70B901238B
:10B3C800E372217B637B8B42ABD20020FFF742FF05
:10B3D800A7E70B88E380EAE74B88FBE7112802D14F
:10B3E8000123A372EDE7FDF787FE2C4B2E49024699
:10B3F8002C481B1ADB081B0443F00100FCF714FB64
:10B40800DFE71723CB800B8141F61B3348818B8103
:10B4180087E75B89CA88934228BF1346172B0A69B6
:10B4280038BF17230B8162B1C97A51B140F6772131
:10B43800ADF80010ADF80200ADF8043069462046BA
:10B448009047002363816CE71A7A0B694A73002BD3
:10B458003FF467AF4DF67A218DF80500ADF800107E
:10B46800ADF802008DF8042096E7197A237B9942FB
:10B4780028BF1946AAE711283FF45FAFFDF73CFE45
:10B48800064B0949024607481B1ADB081B0443F010
:10B49800010002B0BDE81040FCF7C6BA8CC5020036
:10B4A80014D002002CC50200E3CF02009BDF7047D6
:10B4B8009DDF70479EDF7047A1DF7047A3DF7047AD
:10B4C800AEDF704730B5048800239AB2944206D99B
:10B4D800456835F813508D4203F10103F5D1104644
:10B4E80030BD8B6910B50C461988102913D8023164
:10B4F80089B2FDF750FC606078B1A169002302228F
:10B50800FDF78AFCA26960681288E1690223FDF7E9
:10B5180083FC002010BD0920FCE70420FAE710B5E1
:10B528000C46C98A10290AD8FDF735FC606040B17D
:10B53800E28AA1690023FDF76FFC002010BD0920F5
:10B54800FCE70420FAE70000F0B58BB004460022BF
:10B55800C068124E0DF10601FDF726FD142508B14D
:10B568000BB0F0BDBDF80630A76805FB03770022D5
:10B5780002A93846FDF718FD30B1E06800220DF148
:10B588000601FDF711FDEAE79DF8083056F823306B
:10B59800002BECD00398FDF7E8FBE8E7C0D00200E9
:10B5A800F7B505460C4C0D480092241AE40824040B
:10B5B8000B460F4616460A492A7844F00100FCF764
:10B5C80046FAAB6833B1E9683A46304603B0BDE89D
:10B5D800F040184703B0F0BD94C502002CC5020026
:10B5E80050D00200F0B58FB00D46012206A90646DC
:10B5F800FDF7DAFC044690B99DF81830052B65D89C
:10B60800DFE803F0030F1C24292EBDF82A20BDF81B
:10B6180028102846FFF750FF0446112C40D10FB0E0
:10B62800F0BD02A90798BDF82E200C910023FDF764
:10B63800FDFB0AA92846FFF741FFEDE7BDF82810F2
:10B648000DF12A022846FFF731FFE5E70AA9284647
:10B65800FFF72EFFE0E70AA92846FFF72BFFDBE7F5
:10B668000DF1060402AB214607980D930222002330
:10B67800FDF7DCFBBDF806200D9907980C94022312
:10B68800FDF7D4FB0AA92846BDF80670FFF718FF96
:10B6980004460028C1D1BDF80630BB4218BF0C24AF
:10B6A8009DF818200F4B53F8223013B10798FDF777
:10B6B8005CFB002206A93046FDF776FC002CAED0D4
:10B6C8002246294606A8FFF76BFFA8E70648074B5E
:10B6D80007491B1ADB081B0443F00200FCF7A0F91A
:10B6E800DEE700BFC0D002002CC5020094C50200EE
:10B6F8009AD002002DE9F8430F461446054620B9B2
:10B708004FF00E084046BDE8F8830029F8D0FFF74F
:10B718001BFF3B78052B6AD821462846FFF7D2FE47
:10B728002B88834263D014264643A8683044FDF72B
:10B7380034FC002860D03B78052B3BD8DFE803F0C9
:10B748000311171E242A7A8A398A2046FFF7B4FE85
:10B75800112851D058B3024621463846FFF720FF3A
:10B7680025E007F110012046FFF7A8FEF0E7398A27
:10B7780007F112022046FFF799FEE9E707F11001E9
:10B788002046FFF795FEE3E707F110012046FFF793
:10B7980091FEDDE7BB6907F110012046B3F8008090
:10B7A800FFF78EFE30BBBB691B8843450DD14FF0B8
:10B7B8000008A7E71B4B1C481C49C01AC008000416
:10B7C80040F00200FCF72CF9F1E70C20C3E72869E8
:10B7D800002895D0394698478046A0B192E73B7833
:10B7E80059F82330BBB17868FDF7BFFA13E04FF082
:10B7F800070887E71128AED1DFF834903B7859F86D
:10B808002330002BE3D1A86839463044FDF770FB9C
:10B8180080460028E3D1A86821463044FFF7E2FEBD
:10B8280070E700BF2CC5020094C502009AD0020040
:10B83800C0D00200F8B50D46044678B3FFF784FE81
:10B8480029462046FFF73EFE2288824211D000207A
:10B85800F8BD616831F81310814203F101030BD080
:10B86800208800234FF6FF769AB282420BD3042039
:10B87800EEE700234FF6FF7099B28A42E9D82069B3
:10B88800FDF771FAECE761685A0001EB43078A5A41
:10B89800B24203F10103E7D13D80D8E70E20D7E794
:10B8A80037B50C4608B301B30588112D15D1818829
:10B8B8002046FFF707FE2388ADF80600834214D020
:10B8C800112D14D163684FF6FF7223F810200DF183
:10B8D8000601E068FDF70CFB07E0A5F130031F2B1C
:10B8E800E5D9A5F150031F2BE1D903B030BDA368FA
:10B8F800142202FB0030FFF775FEF6E78ADF704777
:10B908008BDF70478CDF704730B590F8233089B0F3
:10B9180004460D46D3B190F82C300193FFF7F0FFA1
:10B928001422002103A800F04EFD019B04F124021B
:10B9380004F12E01A81CFFF7E5FF05238DF80C3054
:10B94800049018B1E36B0BB103A8984709B030BD58
:10B9580070B51546044618B312B319BB104600F06B
:10B968008CFD0138C0B21F281ED894F820600EB193
:10B97800042014E02946204600F058FD78B194F8D8
:10B988002000431C84F8203004EB4014284600F0C3
:10B9980074FD29460246204600F0ECFC304670BD96
:10B9A8000E20FCE70720FAE70C20F8E768B1CB0681
:10B9B8000DD011F0010116BF012380F8211080F885
:10B9C800213080F82220002070470E207047072081
:10B9D800704790F82E00C0F3C000704738B50D4688
:10B9E8000446002843D0C2630021232200F0EBFC68
:10B9F80065B32B7984F823302B7B84F82C302B68A3
:10BA0800D3B104F12E0203F10C0153F8040B42F8F0
:10BA1800040B8B42F9D11B881380AA680AB31068FB
:10BA2800516804F1240303C304F1400323661F2370
:10BA3800A4F86430002038BDE28DA38602F0E3024A
:10BA480042F48272E2850B4A2263E6E7E38DA5861B
:10BA580003F0E30343F48273E385064B236384F81E
:10BA68002350054A4FF0C873C4E90923DCE70E20C8
:10BA7800E1E700BFA00050000600180010B504461A
:10BA880086B048B31422002101A800F09CFCFFF7FF
:10BA980037FF2046FFF79DFF30B1E36B23B101224A
:10BAA8008DF8042001A8984704F1600104F12E00E4
:10BAB800FFF724FF044630F008000BD00748084B76
:10BAC80008491B1ADB081B0443F001002246FBF758
:10BAD800ABFF204606B010BD0E20FBE72CC50200C8
:10BAE8007CC50200D8D002002DE9F04F054687B08A
:10BAF80035F8083B1B2B06460C4678D01D2B14D076
:10BB0800102B2FD11422002101A800F05CFC062381
:10BB18008DF80430B388ADF80C3004F12E0305938A
:10BB2800E36B0295F3B101A875E01422002101A886
:10BB380000F049FC04F12E0320460593FFF749FF66
:10BB480004F1600888B102238DF8043001A8E36B82
:10BB58000295984741460020FFF7D0FE2946204627
:10BB6800FFF7D2FE07B0BDE8F08F94F8210094F8F3
:10BB7800229088B394F820A0B6F824B0274604EBA6
:10BB88004A1A574518D10020034601220295B9F1F7
:10BB9800000F24D09A4226D100238DF8043029467C
:10BBA8002046FFF7B1FEE36B0BB101A89847414669
:10BBB8000020FFF7A3FED5E73A46306A5946FEF75C
:10BBC8000FFF20370028DCD09DF80C3043F001032C
:10BBD8008DF80C300123D8E703460246D6E710B1AA
:10BBE8008DF80490DBE703238DF80430DBE714229B
:10BBF800002101A800F0E7FB327A012AB2D1E36BF9
:10BC0800002BAFD004212E348DF8041005948DF844
:10BC180008200DEB01009847A4E762DF7047CB6866
:10BC280003B1184770472DE9F0430A7885B00346F9
:10BC3800002A39D18C8841F22350844234D18C793E
:10BC4800187C844230D101208DF8040091F808E076
:10BC58004888BDF80C60BDF80A50BDF80840ADF83A
:10BC680006001746104641F2245841F225598645E8
:10BC78001DD80FB1ADF80C601AB1ADF80A50ADF887
:10BC8800084019884FF6FF72914209D05A683AB9AC
:10BC98005A882AB90298BDF80C20C3F80200DA8045
:10BCA8009A6801A91846904705B0BDE8F083B1F835
:10BCB8000EC0C44506D0CC4501D1CE8A012701303B
:10BCC8001231D4E7CD8A0C8B0122F8E7F0B5194A76
:10BCD80087B002AD04460B4602F1100C2F461068DF
:10BCE80051682E4603C6083262453546F7D1FCB185
:10BCF800F3B11968E1B15A68D2B100209B68A1601C
:10BD08004FF6FF75C4E900506261E36004F1100169
:10BD18003846FFF782FF48B9237C8DF8063001A822
:10BD280041F22353ADF80430FFF7D6F807B0F0BD61
:10BD38000E20FBE70FD102001FB503460846D9B114
:10BD4800D3B11A88112A19D0392A15D109889A88A5
:10BD58008A4211D15C8981888C420DD1D989012907
:10BD68000AD11B7C8DF8083002218DF804108368F5
:10BD7800ADF8062001A9984704B010BD9A880B8831
:10BD88009A4202BF4FF6FF720023C1E90023F3E78E
:10BD980000B58BB000B302884FF6FF739A421DD0EE
:10BDA80000218DF805100E49CDE904104188ADF841
:10BDB8001A104FF40031079101A901230891406935
:10BDC8008DF8043002A98DF808308DF81830FFF787
:10BDD80091FC0BB05DF804FB0E20FAE70820F8E7A9
:10BDE80027BC020010B58AB004468DF8071010B3BE
:10BDF80002884FF6FF739A421FD02022002102A822
:10BE080000F0E1FA01238DF808300D4B22886069B3
:10BE1800CDE90434E388ADF81A300DF1070308932F
:10BE28004FF48033079302A902238DF81830FFF7E7
:10BE380061FC0AB010BD0E20FBE70820F9E700BF3F
:10BE480027BC020048B1018022B11368C0F8023053
:10BE58009388C3804069FFF7EDBC0E20704710DF60
:10BE68007047000013B5044609496846FDF7EAF82B
:10BE7800019808B902B010BDD0E9002120469047CA
:10BE880018B16846FDF7E8F8F2E71120F2E700BFBD
:10BE98002CD1020013B5044607496846FDF7D2F8CD
:10BEA800019B0BB902B010BD2046D3E90021904791
:10BEB8006846FDF7D1F8F3E744D102000B4991F841
:10BEC80016335A09EC231341DB0706D5084B9A6849
:10BED8003AB94FF480030B60704742F20200FCF756
:10BEE8008BB81A6842F480021A60704700E100E0DB
:10BEF8009C2A0020F7B5194F3C7864BB184E0125E1
:10BF080020463570FFF7AEFF112821D02046FFF7F5
:10BF1800C1FF144B8DF80340186801900DF1030020
:10BF2800FCF74CFA104901A8FFF799FF0446B0FA4C
:10BF380080F0400938709DF80300FCF763FA3CB9BB
:10BF48000A4B34701C70FFF7B9FF2846FFF7A2FFB1
:10BF5800204603B0F0BD0824FAE700BF912E002068
:10BF6800902E002027D102001D800200922E002072
:10BF7800014B1878704700BF912E002007B508497B
:10BF88006846FDF75FF8019B13B903B05DF804FB41
:10BF9800D3E9002090476846FDF75EF8F3E700BF55
:10BFA80038D10200FFF7EABF60DF704769DF7047EA
:10BFB80061DF704730B5134B1B7891B0FBB1124D60
:10BFC80034240DF1020103A8ADF80240FFF7F0FF99
:10BFD80070B9294601A8FDF735F8029B002BF0D06F
:10BFE80003A8D3E90021904701A8FDF735F8F4E745
:10BFF800052804D011B0BDE83040FBF7FDBF11B0F3
:10C0080030BD00BF932E002088D3020030B505460E
:10C0180085B00C46002900F099804D4B0B600C222E
:10C02800002101A800F0CFF901238DF8063022681D
:10C038008DF80450062301A92020ADF80830FFF739
:10C04800B5FF60B1FDF758F8424B434902464348F3
:10C058001B1ADB081B0443F00100FBF7E5FC0C226C
:10C06800002101A800F0AFF900238DF805302268FF
:10C0780040F2011301A94020ADF80630FFF796FF02
:10C0880060B1FDF739F8334B3549024633481B1A7E
:10C09800DB081B0443F00100FBF7C6FC0C2200215F
:10C0A80001A800F090F90A2322688DF8043001A94C
:10C0B8000120FFF77BFF60B1FDF71EF8254B2949EA
:10C0C800024626481B1ADB081B0443F00100FBF755
:10C0D800ABFC0C22002101A800F075F9F8232268B6
:10C0E800019301A9A120FFF761FF60B1FDF704F8F2
:10C0F800184B1D49024619481B1ADB081B0443F05C
:10C108000100FBF791FC0C22002101A800F05BF96B
:10C118009DF8043022686FF3000301A9A0208DF870
:10C128000430FFF743FF034668B1FCF7E5FF094B0E
:10C138000E49024609481B1ADB081B0443F001009C
:10C14800FBF772FC0023184605B030BD0E23FAE752
:10C15800C81D0020A4C5020050D102002CC5020051
:10C1680096D10200E2D102002ED202007FD2020054
:10C1780073B505460668FFF717FF2B68B3420446F8
:10C188001DD91A481A4B1B491B1ADB081B0443F01C
:10C1980002000190FBF744FC2B68174901983246CE
:10C1A800FBF74BFC4FF080532A68D3F80C31134946
:10C1B80001989B0203F100539A1AFBF735FC2CB93E
:10C1C8000F4B01221A70204602B070BD2046FCF7C2
:10C1D80093FF074B0B49024604481B1ADB081B0454
:10C1E80043F00100FBF720FCEDE700BF2CC502007F
:10C1F800A4C50200D2D2020001D3020032D3020049
:10C20800932E00205CD302004BDF70471FB50E4C05
:10C2180001A8FFF7F9FF70B9214602A8FCF712FF41
:10C22800039B002BF4D00198D3E90021904702A882
:10C23800FCF712FFF4E7052804D004B0BDE810406D
:10C24800FBF7DABE04B010BDA0D302007F2805D8E2
:10C25800034B185C034B5B5C184070470020704729
:10C26800B8D3020038D40200A0F16103192B98BF9B
:10C2780020387047A0F14103192B98BF2030704730
:10C288007F2805D8034B185C034B5B5C184070474C
:10C2980000207047B8D3020038D40200A0F161032F
:10C2A800192B98BF20387047A0F14103192B98BF6C
:10C2B800203070477F299ABF017001206FF02E004F
:10C2C80070475AB10A787F2A0AD800B10260002163
:10C2D80019605960501A18BF012070470020704734
:10C2E8006FF02E007047000008B5034B5B689B6831
:10C2F8001B68984708BD00BFE023002008B5092146
:10C30800FFF7F2FF08BD9AB330B594460F2A18D943
:10C3180002460B4640EA010414F0030F02D00CF168
:10C32800FF3C11E019461046043204330C680568D6
:10C33800A54206D110461946ACF1040CBCF1040F15
:10C34800F0D8BCF1010C0FD00A46034684441146CC
:10C35800184601330132047891F800E0744503D19E
:10C36800184611466345F2D100780B78C01A30BDE3
:10C3780000207047844640EA010313F0030F18D1E8
:10C388008446202A0BD32DE9F007B1E8F807A0E886
:10C39800F807A2F12002202AF7D2BDE8F007042A04
:10C3A80007D351F8043B40F8043BA2F10402042AE5
:10C3B800F7D2002A05D011F8013B00F8013B013AF9
:10C3C800F9D1604670478446002A2DD010F0030F3B
:10C3D80004D000F8011B013A26D0F7E7C9B241EAB8
:10C3E800012141EA0141202A12D3A2F120022DE9BC
:10C3F800F0030B460C460D460E460F468846894606
:10C40800A0E8FA03203AFBD2BDE8F00320320BD0B3
:10C41800042A05D340F8041B043A05D0042AF9D2AB
:10C4280000F8011B013AFBD16046704710F0030F7A
:10C4380019D111F0030F16D12DE970004FF0013614
:10C448004FF0803350F8044B51F8045BAC4205D1EF
:10C45800A4EB060525EA04051D40F3D0A0F104006D
:10C46800A1F1040170BC10F8012B11F8013BD21A9C
:10C4780001D1002BF7D11046704700F1010110F0EF
:10C48800030F11D010F8012B002A23D010F0030F4E
:10C498000AD010F8012B002A1CD010F0030F03D08B
:10C4A80010F8012B002A15D02DE970004FF0013249
:10C4B8004FF0803350F8044BA4EB020525EA04053D
:10C4C8001D4000D1F6E7A0F1040070BC10F8012B64
:0AC4D800002AFBD1A0EB0100704721
:08C4E4000D94020000000000AD
:10C4EC0069AA020000000000B9A5020000000000CB
:10C4FC00A9B80200F81D0020C9AF0200101E0020D0
:10C50C0009B30200702D0020F1BA0200842D002026
:10C51C0041BD0200582D002009A7020000000000B8
:10C52C000ACD02000000000010CD02000000000047
:10C53C0017CD0200000000001BCD0200000000001F
:10C54C0020CD02000000000076C6020000000303AC
:10C55C004CC702000000000075C70200000000007C
:10C56C00F8CE02000000030305D102000000030313
:10C57C00FCD002000000030304CD02000000000008
:10C58C0043D0020000000303B5D0020000000303F7
:10C59C001FD102000000030379D302000000030343
:10C5AC0094D3020000000303E6C702000000000061
:08C5BC00FCC7020000000000B2
:10C5C40038240020002500200825002040240020D5
:10C5D40018000000CC2B0020942C00209C2C002060
:08C5E400D42B00201800000018
:10C5EC00A02C00209C2C0020010000000200000068
:04C5FC00010000003A
:08C60000A994020000000000F3
:10C60800BDBF02000000000015C2020000000000CB
:10C6180048C602000000000054C60200DC1D0020CD
:10C62800FFFFFFFFFFFFFFFFFFFFFFFFFFFFFFFF12
:10C6380000000000000000000000D6010601000014
:10C64800D97402003D750200897402007561727424
:10C658005F6C6F675F6261636B656E640042616304
:10C668006B656E647320666C7573686564006170D1
:10C6780070000000282900207F000000A829002061
:10C688001B5B313B33316D0025734C6F677320643E
:10C69800726F70706564202825642925730D0A005F
:10C6A8001B5B306D002573003C25733E2025733AD3
:10C6B8002000202530327800202020007C002563CF
:10C6C800001B5B313B33306D001B5B313B33326DFC
:10C6D800001B5B313B33336D001B5B313B33346DE7
:10C6E800001B5B313B33356D001B5B313B33366DD3
:10C6F800001B5B313B33376D007761726E696E6783
:10C7080000696E666F00646562756700A8C60200FE
:10C71800C9C6020088C60200D1C60200D9C60200F6
:10C72800E1C60200E9C60200F1C60200F9C602002D
:10C738000000000062C7020001C7020009C702002A
:10C748000EC702006170705F627574746F6E0000CE
:10C75800C8290020466174616C206572726F72008E
:10C7680053797374656D20726573657400617070B8
:10C778005F74696D6572000001000600000000002A
:10C78800142A00208980020052544320696E737471
:10C79800616E636520616C726561647920696E6998
:10C7A8007469616C697A65642E005254433A206951
:10C7B8006E697469616C697A65642E000000000016
:10C7C80000000000000000000338FDD87047303139
:10C7D8003233343536373839414243444546707729
:10C7E800725F6D676D7400002CC502002CC50200D5
:10C7F80004000000736F72746C697374004E5246C3
:10C808005F53554343455353004E52465F4552527A
:10C818004F525F5356435F48414E444C45525F4D1B
:10C82800495353494E47004E52465F4552524F5264
:10C838005F534F46544445564943455F4E4F545FF6
:10C84800454E41424C4544004E52465F4552524F78
:10C85800525F494E5445524E414C004E52465F4538
:10C8680052524F525F4E4F5F4D454D004E52465FFC
:10C878004552524F525F4E4F545F464F554E4400FB
:10C888004E52465F4552524F525F4E4F545F53557A
:10C8980050504F52544544004E52465F4552524FF5
:10C8A800525F494E56414C49445F504152414D00F8
:10C8B8004E52465F4552524F525F494E56414C497F
:10C8C800445F5354415445004E52465F4552524FBF
:10C8D800525F494E56414C49445F4C454E47544877
:10C8E800004E52465F4552524F525F494E56414C98
:10C8F80049445F464C414753004E52465F455252A9
:10C908004F525F494E56414C49445F44415441009F
:10C918004E52465F4552524F525F444154415F5315
:10C92800495A45004E52465F4552524F525F54494C
:10C938004D454F5554004E52465F4552524F525F37
:10C948004E554C4C004E52465F4552524F525F4630
:10C958004F5242494444454E004E52465F4552525A
:10C968004F525F494E56414C49445F41444452003E
:10C978004E52465F4552524F525F42555359004EF0
:10C9880052465F4552524F525F434F4E4E5F434FA0
:10C99800554E54004E52465F4552524F525F5245D3
:10C9A800534F5552434553004E52465F4552524FDE
:10C9B800525F4D4F44554C455F4E4F545F494E4969
:10C9C8005449414C495A4544004E52465F455252DB
:10C9D8004F525F4D555445585F494E49545F464143
:10C9E800494C4544004E52465F4552524F525F4DA6
:10C9F800555445585F4C4F434B5F4641494C45445D
:10CA0800004E52465F4552524F525F4D555445585D
:10CA18005F554E4C4F434B5F4641494C4544004E91
:10CA280052465F4552524F525F4D555445585F43E9
:10CA38004F4E445F494E49545F4641494C45440076
:10CA48004E52465F4552524F525F4D4F44554C45EA
:10CA58005F414C52454144595F494E495449414C04
:10CA6800495A4544004E52465F4552524F525F5311
:10CA7800544F524147455F46554C4C004E52465F15
:10CA88004552524F525F4150495F4E4F545F494D96
:10CA9800504C454D454E544544004E52465F455214
:10CAA800524F525F464541545552455F4E4F545F71
:10CAB800454E41424C4544004E52465F4552524F06
