:020000022000DC
:10300000005A002015320200593202005B320200E1
:103010005D3202005F3202006132020000000000F7
:103020000000000000000000000000006332020009
:1030300065320200000000006732020069320200BF
:10304000B94A02006F320200C54F0200733202001B
:1030500075320200000000009D4B02007932020030
:103060007B3202007D3202007F3202008132020098
:103070008332020085320200873202008932020068
:103080008B320200493D02008F3202009132020071
:10309000E53D0200953202001D62020099320200F5
:1030A0009B3202009D320200000000000000000080
:0830B0009F320200A132020070
:1030B800354936480A1A02D0072291438D463449C9
:1030C80034480A1A06D00722914381F3098802225C
:1030D80082F3148830483149314A00F044F83148C5
:1030E8003149324A00F03FF831483249324A00F05B
:1030F8003AF832483249334A00F035F83248334911
:10310800334A00F030F833483349344A00F02BF89A
:1031180033483449344A00F026F834483449002208
:1031280000F02CF833483449002200F027F83348DF
:103138003349091A082902DB002202604160314A3A
:1031480090471F481F49884205D00268043003B4DD
:10315800904703BCF7E700208646EC460020002194
:10316800294A9047FEE7884207D0521A05D00378CB
:1031780001300B700131013AF9D17047884202D011
:1031880002700130FAE77047005A00200052002010
:1031980000600020005A0020C8720200F8210020B8
:1031A80028220020A4320200A43202005266020043
:1031B800C8720200F8210020F8210020646702008C
:1031C80064670200646702006467020064670200C3
:1031D800646702006467020064670200C672020046
:1031E800F87202002822002028220020282200202D
:1031F800532A0020542A0020542A0020542A002050
:10320800542C002027320200755202000B484FF060
:103218000701884385460A488047FFF749BF0948A0
:1032280009490A4A884207D0521A05D00378013062
:103238000B700131013AF9D170470000006000209D
:10324800555E0200EC66020080210020F821002073
:10325800FEE7FEE7FEE7FEE7FEE7FEE7FEE7FEE73E
:10326800FEE7FEE7FEE7FEE7FEE7FEE7FEE7FEE72E
:10327800FEE7FEE7FEE7FEE7FEE7FEE7FEE7FEE71E
:10328800FEE7FEE7FEE7FEE7FEE7FEE7FEE7FEE70E
:0C329800FEE7FEE7FEE7FEE7FEE700BFF2
:1032A400F0B595B01D46164608460C4601F03FFAA7
:1032B4001A9B0D93CDE9086500252B46082205A924
:1032C40020460A958DF82C500C9501F07AFA079B4C
:1032D4000293069BADF80C309DF814308DF8105015
:1032E40003F00302012A21D1C3F3C2028DF80E2098
:1032F400BDF81420059DC3F38003C2F383168DF833
:103304000F30B20008230EA9204601F05AFAC5F383
:10331400952508AB0093324602AB0EA9284600F06F
:1033240067FB204601F010FA15B0F0BD022AF8D16F
:10333400BDF81650C3F3C202C3F38003C5F3891565
:103344008DF80E208DF80F300827082D2E4628BF43
:1033540008263B4632460EA9204601F032FAAD1B40
:1033640008AB02AA31460EA8374400F0A7FB002D93
:10337400EBD1D6E7014B01221A7070476922002075
:103384007047000070B5124D06460FCD88B06C46EC
:103394000FC495E80F00002E84E80F004FF0FF33B0
:1033A4004FF00602CDE90023CDE90233094A0A4869
:1033B4004FF0EB7308BF00226946069301F0C8FC86
:1033C40008B100F0D7FB054B1E7008B070BD00BFFC
:1033D4006467020079330200F821002028220020CB
:1033E40008B5044801F04AFDBDE808400020FFF795
:1033F400C9BF00BFF821002007B5044B0093044A5D
:103404004023FFF74DFF03B05DF804FB19340200BD
:103414002922002010B5084C08480023D2B223709A
:1034240001F08AFD08B100F0A5FB054B1A7812B132
:103434002378002BFBD010BD69220020F821002046
:10344400282200200120FFF79DBF000010B5054C85
:10345400FFF7F8FF0421204600F04EFA01236372BF
:1034640010BD00BF002200202DE9F04F85B00546B5
:1034740000270DF103000E468DF8037000F0B0FE36
:103484003F4B1C683460D3E901210A440132A01C7B
:10349400121B05F1040803F5836E012603F2144C94
:1034A400424511D30C400334284413F8242042F03D
:1034B400030203F8242018609DF8030000F0B4FE12
:1034C400012005B0BDE8F08F5EE8002F42EA06094E
:1034D4004EE8009A9AF0000FF6D15CE8002F42EA19
:1034E40006094CE8009A9AF0000FF6D15A6801EAEE
:1034F400020909F1030903EB890999F800A01AF0FC
:10350400030F2AD001EA020903EB89090232D9F830
:103514000C90CDF8049009F00309B9F1010F28D0FB
:10352400B9F1020F07D1BDF80690C9F3891909F161
:10353400030902EB99025CE8009F09EA070A4CE8D8
:1035440000AB9BF0000FF6D1B9F1000F00D05A6028
:103554005A680A440132121BA2E7B9F802A0B9F86A
:103564000090C9F3891909EB9A1909F101094A4430
:10357400BDE7BDF80490C9F383194A44DBE700BFF3
:103584006C22002038B50F4B0F48FF229A600022AE
:10359400C3F81824C3E90022C3F8142483F81C24B4
:1035A40001F07EF840B9094A094B0A4C9B1ADB0822
:1035B40002460C219A4200D138BD01FB02F52A5380
:1035C4000132F7E76C22002094670200846602004F
:1035D400D46602008021002030B50B4C79B10B4A2F
:1035E4000B49121BD20800239A4201D1002030BD9E
:1035F4004D88854201F10C0102D00133F4E7034602
:1036040054F83300F3E700BF84660200D466020076
:1036140080210020094B013903EBC000032909D89C
:10362400DFE801F00A0204060420704700797047BD
:10363400407970470020704702207047846602007A
:10364400034BD3E90030C31A58425841704700BFB6
:103654006C2200202DE9FF47FFF7F2FF002840F01D
:10366400E780744DC5F81804BFF34F8FD5E90134D2
:1036740004EA0302033205EB8202117889075ED063
:1036840004EA03029F1C013305EB8202234005EB8D
:103694008303D268DB68029302F00303022B0192D6
:1036A40062D1BDF806306448C3F38918B8F1500FED
:1036B400C14628BF4FF0500969F38F1309F108017F
:1036C400ADF8063001F004F80646002800F08D80BD
:1036D40001F02DF800233046082201A901F048F832
:1036E40024EA07030133B9EB830F4FEA830033D98C
:1036F4005FFA89F960B304EA0701C4B2A9EB0409CB
:1037040003315FFA89FAA1464C4C05EB8101082389
:103714004A46304601F02CF834B109F10803524608
:103724002146304601F024F808F1030807EB980815
:10373400D5F81834002B55D1D5F8104463E05188DE
:103744001288C2F3891202EB9112013213448FE7FB
:103754003A4904468246DAE704EA070103310823BA
:103764004A4605EB8101DCE7012B33D1BDF8043077
:103774003148C3F38311062928BF062161F3891355
:1037840002318900ADF8043000F0A2FF064660B3B0
:1037940000F0CDFF0023082201A9304600F0E8FF25
:1037A4004FF00009BDF80420C2F383124FEA8903E5
:1037B400914503F1080309EB0708B9D204EA0801AB
:1037C4000331042205EB8101304600F0D1FF09F1F9
:1037D4000109E7E7032B08D1D5F818342BB904B055
:1037E400BDE8F087304600F0AFFFFFF729FF80F017
:1037F4000100C0B2F3E7637A23B1236831461B6842
:10380400204698476468002CF5D1304600F09CFFB0
:103814000DF103008DF8034000F0E2FCD5F81834F4
:103824000BB9C5F804809DF8030000F0FDFCDCE74B
:103834000020D4E76C220020946702007822002044
:103844002DE9F3471F4D04460E46184601A9D5F845
:10385400088091469A46FFF707FEF8B101980021C7
:10386400831C514501EB030722D1431C03EA0803DF
:1038740005EB8303220CDA60A30803F00403E400DD
:1038840043F0010304F0380400EA08002343C21C97
:1038940043EA811343EA862345F8223095F81C3421
:1038A4001BB1FFF7D7FE0028FBD102B0BDE8F087BB
:1038B40007EA080705EB870759F82120FA60013168
:1038C400CFE700BF6C22002000231A46FFF7B8BFE1
:1038D40007B50123019201AAFFF7B2FF03B05DF817
:1038E40004FB07B5CDE9002302236A46FFF7A8FFCE
:1038F40003B05DF804FB00000F4930B5D1F8104463
:103904000346002022463AB91872D1F8104444B94B
:10391400C1F810345A6030BD157A854205D052681A
:10392400F1E762685A606360F5E701300A28E9D17B
:103934004FF0FF30EFE700BF6C220020084A38B593
:103944000123D2F8104482F81C341D4604B938BD52
:103954002368657220465B6898476468F6E700BF91
:103964006C220020C37910B50C467BB9037A23B1CD
:10397400084A0949204600F0CDFC0849204600F0D9
:10398400C9FC2046BDE8104000F0B9BC002AF8D0BC
:10399400F3E700BFA8670200AD670200B06702004A
:1039A40070B5037A04460D4653B181798088FFF7D8
:1039B40031FE0B4B0B4953F82020284600F0AAFC9B
:1039C400A279094BA08853F822600021FFF704FE76
:1039D4003246034605492846BDE8704000F09ABCCB
:1039E40020680200AD67020044680200B367020069
:1039F4002DE9F04385B01F460C9D002395F80C90EB
:103A04002B73FB7906460C4690461BB9294638466B
:103A1400FFF7C6FFB8F1060F09D8DFE808F0041273
:103A2400181F283340003146284600F073FC00225A
:103A340029463846FFF796FF85F80C9005B0BDE897
:103A4400F08322683146284600F064FCEFE7D4E9AD
:103A540000233146284600F05DFCE8E7A3680093A4
:103A64003146D4E90023284600F054FCDFE7E3683C
:103A74000193A36800933146D4E90023284600F05B
:103A840049FCD4E723690293E3680193A368009394
:103A94003146D4E90023284600F03CFCC7E76369BB
:103AA400039323690293E3680193A3680093314667
:103AB400D4E90023284600F02DFCB8E708292DE9B5
:103AC400F74F80460F4615461C463CD893F80C9099
:103AD40000232373D3791BB921461046FFF760FFF7
:103AE400DFF880A0DFF880B00026B7422ED918F89E
:103AF40006205946204600F00DFC0136082EF4D16C
:103B04001749DFF868A0DFF868B0204600F002FC2F
:103B14000026B7421FD918F806200192104602F079
:103B240005FD0028019A594608BF2E22204600F0C0
:103B3400F1FB0136082EECD1012221462846FFF77D
:103B440011FF84F80C9003B0BDE8F08F5146204675
:103B540000F0E0FBD1E75146204600F0DBFBE8E74C
:103B6400C7670200C3670200BD670200C5670200A1
:103B7400C96702001FB50021CDE9021001AA44F271
:103B84000100ADF8041000F003F805B05DF804FB83
:103B940010B5FFF7D3FEFFF75DFD0028FBD1104CF5
:103BA40010492088000440F00100FFF78DFE0E4B01
:103BB4001B68DB0700D5FFDE20880C49000440F0B9
:103BC4000200FFF781FEBFF34F8F0949094BCA6812
:103BD40002F4E0621343CB60BFF34F8F00BFFDE7F5
:103BE4008021002058680200F0ED00E064680200C3
:103BF40000ED00E00400FA05094A53789178013396
:103C0400DBB2994208BF0023117899421FBF0370A9
:103C14005078182303FB002014BF043000207047A1
:103C24005C27002073B5054600240DF107000E46FD
:103C34008DF8074000F0D4FA0DF10600FFF7DCFF21
:103C440090B10670094B9DF8062045605A709DF8A6
:103C5400070000F0E9FA24B9054B4FF48012C3F8C9
:103C64000021204602B070BD0424F0E75C27002048
:103C740000E100E0204B21491A682F2300BF00BF58
:103C840000BF00BF00BF00BF00BF00BF8A422FD0EB
:103C940000BF00BF00BF00BF00BF00BF00BF00BF28
:103CA40000BF00BF00BF00BF00BF00BF00BF00BF18
:103CB40000BF00BF00BF00BF00BF00BF00BF00BF08
:103CC40000BF00BF00BF00BF00BF00BF00BF00BFF8
:103CD40000BF00BF00BF00BF00BF00BF00BF00BFE8
:103CE40000BF00BF00BF00BF00BF00BF00BF00BFD8
:103CF400013BC3D1704700BF102200200024F40010
:103D04000C4B0D484FF4003210B5C3F88020012449
:103D14004FF48033C0F84833C0F808334460FFF7E9
:103D2400A9FF064B846000201860FFF7A3FF044B33
:103D3400187010BD00E100E0001001407828002058
:103D440069280020F8B51F4B1F491B680025C1F8DE
:103D54004051C1F84451C1F84851C1F84C51C1F81F
:103D64000051C1F804514BB3D1F80445174909680F
:103D7400641A24F07F442F461A68A24209D8A41A70
:103D840015441A7CDE691AB1D3E905201F749047E3
:103D9400AEB90F4A0F4B11781B788B4205D1013312
:103DA400DBB2022B08BF0023137012780A4B43F8CE
:103DB40022500A4B4FF48012C3F80021F8BD334659
:103DC400DAE700BF7C28002000100140782800209A
:103DD40075280020742800206C28002000E100E0F1
:103DE4002DE9F74FA64AA74913780978A64C9942BA
:103DF4003BD00133DBB2022B08BF00231370A3496D
:103E04001278A34B0F6853F822003B1823F07F432A
:103E140000220B60236815461646944613B942B136
:103E2400236006E0196881420DD902B12360091AA2
:103E3400196001262368DFF8609200930027BDB95A
:103E4400DFF860A264E0401A0E44D968D3F81CE09D
:103E5400C3F800C031B1BA1922F07F42C3E901218D
:103E6400DD611D4673460122D8E700252E46E1E7B1
:103E74002846ED69854A43681268DFF82CE2D0F8D9
:103E840008C0991A21F07F41714500F2AA8061446B
:103E940001600122027422680023C0E90133C36176
:103EA400002A40F0A8802060C9E75A1C9AF8021042
:103EB400D4F800B0D2B291428AF8002004BF0022A4
:103EC4008AF80020182202FB03A31A799868022AB0
:103ED40074D0032A00F08280012A19D1027CBAB975
:103EE400D3E903C1816059699B698361694BC160EE
:103EF4001B78002B0CBF634613464360BAE790421D
:103F040000F09E809046D269002AF8D10023037401
:103F14009AF800309AF801209A42C6D1236827B94A
:103F2400009A9A4201D1002E42D0002B00F08580E5
:103F3400D3F80090584C554BD4F804651868574F83
:103F4400351A3B7825F07F4503359BB94FF4803310
:103F5400C4F84433C4F80433514B4FF400324FF0E7
:103F64000108C3F880211A60C4F80080FFF782FEBC
:103F740087F80080A9452CBF4844401920F07F40B1
:103F8400C4F84005D4F804359B1B23F07F43801B01
:103F9400033320F07F4083420AD9D4F80435C4F8AF
:103FA4004035FFF767FE3E4B4FF40032C3F8002163
:103FB400384B00221A7003B0BDE8F08F5A46D84639
:103FC400A2E78BF81020DBF81CB00123BBF1000F33
:103FD400F7D1002B9CD0C4F800B099E700231A460F
:103FE400F4E7D31A23F07F43634534BFACEB0303F8
:103FF400002303604DE70168136899421BD8591ADE
:104004001160C2614FE7A1EB0C01D3F81CC01A4642
:10401400BCF1000F0AD06346D3F800C08C45F2D33C
:10402400ACEB010CC3F800C09C4613460160C0F819
:104034001CC0D86103E71346EEE7FFF761FEB7E75C
:10404400404510D1DBF81C30236063B9DFF83CE055
:1040540001920121C9F80810CEF800300D4B1970F7
:10406400FFF708FE019A1368D269C8F81C2012B140
:1040740011680B44136023685B4518BF012745E7AB
:1040840074280020752800207C280020782800202F
:104094006C280020682800200010014069280020B6
:1040A40000E100E05C270020FEFF7F0008B5FFF779
:1040B40027FE104B00200B2218809A700E4B1860BC
:1040C4000E4B18700E4B18700E4B4FF48012E021FB
:1040D400C3F8802183F814131A6002F18042A2F518
:1040E4006F22C2F8080583F81113074BD2F8042590
:1040F4001A6008BD5C2700207C280020742800205A
:104104007528002000E100E078280020074B9B7808
:104114004BB132B128B10368187C20B959745A6183
:104124007047072070470820704700BF5C270020B5
:104134002DE9F743DFF8848098F8023005460E46EF
:104144001746ABB3A0B3042930D9436983B3437C86
:104154000024012B0DF107000CBF8946A1468DF800
:10416400074000F03DF80DF10600FFF745FDD8B11A
:10417400012303700F4B4560D3F80435C0E904975D
:10418400C0E902369DF8063088F801309DF8070032
:1041940000F04AF824B9084B4FF48012C3F8002108
:1041A400204603B0BDE8F0830424EFE70724F7E7D3
:1041B4000824F5E70010014000E100E05C2700203E
:1041C400064A92783AB130B1426922B100220274AF
:1041D4000221FFF727BD0820704700BF5C2700209D
:1041E40070B5EFF3108672B60C4A946801239CB93B
:1041F40093600B4B0B4DD3F8801029401160C3F82A
:104204008050D3F8841051604FF0FF32C3F88420FB
:10421400047006B962B670BD0370FAE78028002006
:1042240000E100E0FC06FFBD084B9A6810B55AB1E6
:1042340050B9EFF3108172B6054A1C6814605C68CB
:104244005460986001B962B610BD00BF8028002098
:1042540000E100E010B590B1D0E9012301689B1A98
:10426400DBB20A60013BDBB2FF2B026802D1002003
:10427400107110BD11684C1C14600B70F2E70E2015
:10428400F7E737B5054600240DF107008DF8074020
:10429400FFF7A6FF2A686B68116899420ED9481E79
:1042A400106011F8014CEB68298A01FB0434AB68F7
:1042B40011791B1ADBB2994238BF13719DF80700BC
:1042C400FFF7B2FF204603B030BD37B505460023E3
:1042D4000DF107000C468DF80730FFF781FF2A68BF
:1042E4001368591C1160E968641A298AB4FBF1F453
:1042F4001C709DF80700FFF797FF03B030BD82687C
:1043040010B504462AB1436901680069984700233F
:10431400A36010BD0EB403B5039921B104AB01AA87
:10432400019300F06FF802B05DF804EB03B070473E
:10433400826830B40468551C8560A154D0E9013208
:104344009A4202D330BCFFF7DABF30BC704700009A
:104354002DE9F84F9846DDE90A43154682460F4693
:104364000A464FF00109AA420FD2C14538BFC146DF
:1043740013F0010B01D16CB900240126B8F1010F2F
:104384001BD908F1FF386E43F8E709F10109B2FBC4
:10439400F5F2E8E79B070ED5B8F1000F0CBF302605
:1043A4002026A145E9D2013C31465046FFF7C0FF23
:1043B400002CF6D1E0E72026F3E7B7FBF6F39D42A5
:1043C400E1D9DFF83C80B7FBF6F3504618F8031048
:1043D40006FB1377FFF7ACFF3346AB42B6FBF5F6AB
:1043E400F1D2BBF1000F02D00CB1A14501D3BDE85D
:1043F400F88F20215046013CFFF79AFFF4E700BFF5
:10440400786802002DE9F74F0546174688460029CB
:1044140000F0428118F8011B49B92B7B002B00F0F6
:104424003B81284603B0BDE8F04FFFF768BF25295C
:1044340040F0B780002698F800302D2B424608F152
:10444400010823D0302B24D02B2B25D000242A2B59
:1044540002F1010123D13B681A1D1B683A601C4418
:104464000A4613782E2B26D101324FF0000A10464B
:1044740010F8011BA1F1300CBCF1090F1DD80A235F
:1044840003FB0A13A3F1300A0246F0E746F00106E3
:10449400D1E746F00206CEE746F00406CBE711F872
:1044A400013CA3F130000928DBD80A2202FB0434C2
:1044B400303C0A46CBE74FF0000A12F8011B01F02A
:1044C400FB0068289046F8D0782909D86F290CD8C1
:1044D400632962D022D8252963D0582900F0888026
:1044E40098F80030002B95D197E770390829F7D850
:1044F40001A353F821F000BF77460200E54402000F
:10450400E544020005460200E5440200E3450200DA
:10451400E5440200E5440200F5450200642901D0A7
:104524006929DDD13A68D2F80090111D89EAE9724F
:104534003960A2EBE9724FF0010B092A35DCD3454F
:1045440038BFD3462CB1B9F1000F01DB720700D597
:10455400013CB30702D5BAF1000F03D0F00701D430
:104564004CBB0024B9F1000F2DDAC9F100092D214B
:104574002846FFF7DDFE06F00302022A04D1BAF151
:10458400000F01D11CBB0024CDE9004653460A228A
:1045940049462846FFF7DCFEA2E73B681A1D197856
:1045A4003A602846FFF7C4FE9AE70A230BF1010B91
:1045B400B2FBF3F2C1E7A345D4D220212846013C43
:1045C400FFF7B6FECCE77107D5D52B21D0E7A3457D
:1045D400DAD230212846013CFFF7AAFED2E7396837
:1045E400CDE900460A1D3A6053460A220968D0E71D
:1045F40039680A1D3A60CDE9004653461022F5E7B2
:104604003B681A1D3A6016F00106D3F8009028D1D1
:10461400B9F1000F03D0484601F0E9FF0646B44261
:1046240000D904BB09F1FF3919F8011F00293FF42F
:1046340057AF2846FFF77CFEF6E728460136FFF71A
:1046440077FE19F806100029F7D1A642BFF448AF47
:10465400002C3FF445AF20212846013CFFF768FEBB
:10466400F3E70026EDE720212846013CFFF760FE32
:10467400D5E73B681A1D3A60302128461C68FFF7CD
:1046840057FE78212846FFF753FE00220823CDE980
:104694000032214610227CE703B0BDE8F08F00BF52
:1046A400FFF7D8BDF8B546790146721E05460023CA
:1046B40093422D6803D30024A64202D8F8BD0133E7
:1046C400F6E70F682846FFF700FE01343946F3E7A2
:1046D4002DE9F843068ACD1C0746FFF7D2FD043EB8
:1046E40035440446B5FBF6F5F0B14FF48073EDB2F2
:1046F4008380C680013D076081464FF00008A845CD
:1047040012D23846FFF7BDFD064648B1637901333E
:10471400637108F10108C9F8000007608146EEE7FB
:104724002046FFF7BFFF34462046BDE8F88310B5A6
:104734000430012350E8002F02EB030140E8001489
:1047440094F0000FF6D110BD30B4031D012253E8DC
:10475400004FA4EB020143E8001595F0000FF6D1D9
:1047640011F0FF0F02D130BCFFF79CBF30BC704783
:104774002DE9F843B0F8068004330546B3FBF8F49A
:104784000F46164608FB14333CB9A8EB0309B145A0
:1047940028BFB14626B9BDE8F8832D68013CF3E78C
:1047A4000433E818A6EB09064A46391901F0C3FE9A
:1047B400B0454C442D68C1464FF0000328BFB146B4
:1047C400E8E72DE9F843B0F8068004330546B3FB67
:1047D400F8F40F46164608FB14333CB9A8EB03095A
:1047E400B14528BFB14626B9BDE8F8832D68013C20
:1047F400F3E70433E918A6EB09064A46381901F031
:104804009AFEB0454C442D68C1464FF0000328BFC2
:10481400B146E8E70B684A684360934208BF002347
:10482400016008BF43607047436843B10268916800
:1048340052680B449342436004BF002343607047B3
:1048440010B50D49A1F1F002914201D800200FE00A
:104854008C1AE30F03EBE4035B1002EBC30452F87E
:104864003330834205D802D204F10802ECE76068D1
:1048740010BD2146E8E700BF7C6C020008B5FFF7D5
:10488400DFFF024B002808BF184608BD786B020002
:1048940010B502460023012101FA03F4144298B230
:1048A40004D10133202BF7D14FF6FF7010BD70B542
:1048B4009DF81050A0B199B192B1002430F8146061
:1048C4009E4210D1012303FA04F4E643002351F875
:1048D400230035B1204341F8230001339A42F6D135
:1048E40070BD3040F7E70134202CE7D1F8E707B575
:1048F400009313460122FFF7DAFF03B05DF804FBCF
:10490400F0B599B100231C46012505FA04F61642B8
:104914001EBF00EB430631F81470B78004F10104A4
:1049240018BF0133202CF0D10360F0BD0B46FBE728
:10493400044B1A5C012393404FF0A042C2F80C359B
:10494400704700BF7C6C0200044B1A5C0123934047
:104954004FF0A042C2F80835704700BF7C6C0200DB
:1049640008B50020FFF7F0FF0120FFF7EDFFBDE8D9
:1049740008400220FFF7E8BF4FF0A0430322C3F82A
:104984007027C3F86427C3F87027FFF7E9BF000056
:10499400064B01221A604FF08041D1F81834C3F35A
:1049A4000042DB03F9D4024B9A7070470C000040BC
:1049B4008C28002038B5074C051E04F1080318BFE5
:1049C4001C4623682BB11A6822605B682846984706
:1049D400F7E738BD9428002008B9FFF7EBBF70470C
:1049E40010B50E4C2378BBB96360A360E360236108
:1049F4000B4B186810F0010002D1072100F08AF86F
:104A040001F0F0FB20B94FF080430122C3F81825D0
:104A140001232370002010BD8520FCE78C28002092
:104A240000E100E007B500230DF107008DF8073021
:104A3400FFF7D6FB074BDA68013ADA60DB680BB99B
:104A4400FFF7A6FF9DF80700FFF7EEFB03B05DF844
:104A540004FB00BF8C280020012813B508D00328CC
:104A64001CD018B9114B0122C3F8802002B010BD2C
:104A74000F4C00230DF107008DF80730FFF7B0FB52
:104A840023780BB9FFF7ACFFE3689DF80700013307
:104A9400E3600123A370FFF7C7FBE7E707210020CA
:104AA40000F038F8FFF7BEFFE0E700BF00E100E0E8
:104AB4008C280020144B07B51A686AB100201860CE
:104AC4001B6800934FF08042009B0123C2F8083317
:104AD4000E4A5370FFF76EFF0D4B1A688AB100221D
:104AE4001A601B680193019B4FF080430222C3F8B4
:104AF4000823064B0120987003B05DF804EBFFF720
:104B040059BF03B05DF804FB000100408C2800206D
:104B140004010040002810B5C3B2A8BF00F16042F0
:104B24004FEA5010BABF0D4A03F00F0402F5614278
:104B34004FEA41114FEA8000C9B200F16040B4BFAE
:104B4400115582F8001300F5614003F01F020123A0
:104B54009340C0F88031036010BD00BF14ED00E045
:104B640000F1804000F5C040002382B00360036878
:104B74000193019B02B07047800000F1A040D0F87F
:104B8400002722F44032C0F80027D0F8003743EA67
:104B94000143C0F8003770472DE9F04F87B0002477
:104BA4005A4D03944FF48072012102F1804303F5BE
:104BB400C04390B21B68012B06D1D5F804330B42D5
:104BC40002D0FFF7CDFF0C430432B2F5907F4FEAD9
:104BD4004101EAD14E4B1B68012B0AD14FF4BE7040
:104BE400FFF7BEFF4FF0A04344F00044D3F8103564
:104BF400039314F0FF0F1AD0464F002501263442C8
:104C040010D0AB0003F1804303F5C043D3F8100583
:104C1400D3F8101557F8253023B1C1F30141C0F37F
:104C2400042098470135082D4FEA4606E7D1002CA9
:104C340065DA00214FF0FF33CDE90413354D012728
:104C44004FF0000A344ED1464FF0A04816F9013B0C
:104C54005A1C45D0C3F3C20106AA5018DCB210F89E
:104C6400042C03F03F0B03F0070307FA03F31A4283
:104C740036D005EB0B02A40992F9302055F8222016
:104C840052B9032C2CD10DF1100E1EF801C04CEAC0
:104C9400030C0EF801C001E0032CF4D00BF5E07115
:104CA40010F80C0C58F821101842C1F3014105D03A
:104CB400022915D1032C0FD1214604E003290FD179
:104CC400032C09D102215846019209F10109FFF789
:104CD40053FF019A5FFA89F912B121465846904769
:104CE4000AF1010ABAF1040FB0D1B9F1000F06D0EC
:104CF4004FF0A043039AD3F81035934202D107B082
:104D0400BDE8F08F0393049B059399E7006000408E
:104D14007C610040A0280020F0280020002343509C
:104D240082B043580193019B02B070471FB5012321
:104D34008DF80030054B8DF8080001916846D3E9E1
:104D44000012904705B05DF804FB00BFF82800206E
:104D54002DE9F041474E05791C2303FB0563044606
:104D6400DB7E002B40F0838003680868471C0BD06F
:104D74004FF0A04C01278740CCF8087500F5E07788
:104D84004FF0030E4CF827E0D1F804C0BCF1FF3F0C
:104D94001FBF0CF5E0774FF0A04E4FF000084EF81F
:104DA40027808F69C3F8247591F814E04F7DBEF114
:104DB400010F4EEA0707C3F86C75C3F80C05C3F876
:104DC40014C520D18F68781C1FBF07F5E0704FF021
:104DD400A04C4FF0000E4CF820E0C868B0F1FF3F43
:104DE4000DD04FF0A04E4FF0010C0CFA00FCCEF8A1
:104DF40008C500F5E07C4FF003084EF82C80C3F89A
:104E04000805C3F810751C236B43F0184260086949
:104E1400F050EAB10A7F20684FF48871FFF77EFFF3
:104E240020684FF49071FFF779FF20684FF4927176
:104E3400FFF774FF20684FF4A271FFF76FFF20683B
:104E44000D4BC0F80433114640F30730FFF762FE00
:104E540023680822C3F800251C2303FB05650020F2
:104E64004FF480732876E8826B83BDE8F0810820D4
:104E7400FBE700BFF828002010030200F0B5036828
:104E840002792A480021C3F800151C2101FB020104
:104E9400496869B12649C3F8081343F30731C3F3DA
:104EA400043549090124AC402031224D45F8214004
:104EB400D3F80C65D3F81455D3F80815D3F8104576
:104EC4004FF0FF37BE42C3F80C7518BF06F5E07605
:104ED400C3F81475C3F80875C3F810751EBF4FF0F6
:104EE400A043022743F826706E1C1FBF4FF0A04357
:104EF40005F5E075022643F82560651C1FBF04F51F
:104F0400E0744FF0A043022543F824504B1C1FBF0C
:104F14004FF0A04301F5E071022443F821401C2323
:104F240003FB02030022DA765A60F0BDF828002061
:104F34001003020000E100E001F06043B3F1005F00
:104F44002DE9F041064632D11C4B07791C2505FB9F
:104F540007359846AC7D64BBAA750068A960AC822D
:104F64004FF49071FFF7DAFE4FF4AC713068FFF73D
:104F7400D5FE3368AA7DA968C3F84415C3F848254B
:104F840001229A606A68B2B9D3F82021D3F8580193
:104F94004AB90028F8D00F201C2303FB07870023FD
:104FA400BB75BDE8F081002818BF0F20F4E710207E
:104FB400F7E71120F5E72046F3E700BFF8280020C3
:104FC4007FB5384AD2F82461002E48D010464FF4F9
:104FD4009271FFF7A3FE02238DF80030D2F88034DB
:104FE400C2F880340393D2F83C358DF808302E4B48
:104FF400DA6801920022DA751A766846D3E900125B
:1050040090472848D0F8443173B14FF4A271FFF7A8
:1050140085FE254BDA7D3AB10022DA75D0F83C05DD
:10502400D968C0B2FFF782FE1E48D0F82031A3B180
:105034004FF49071FFF772FE1B4B9A7D6AB1D0F862
:105044004C158DF80810002299688DF80020019104
:105054009A756846D3E90012904704B070BDD2F83F
:105064001031002BCDD04FF488711046FFF756FE57
:105074000D4BD2F83C15D87DC9B28842C1D11C7EF3
:10508400D96864B1D2F8005225F02005C2F8005264
:105094001A69DC75DA601E76FFF748FEB1E7DC7545
:1050A400FAE700BF00200040F828002073DF7047B3
:1050B40076DF70477ADF70477CDF70477FDF7047A9
:1050C4008FDF7047A8DF7047A9DF704766DF70473E
:1050D4003EDF7047FEF74EBD1FB510220021684623
:1050E40001F052FA00234022012168468DF8003075
:1050F40001938DF80830ADF80A20ADF80C30FFF7B5
:10510400D5FF08B1FEF736FD0020FFF711FC05B00E
:105114005DF804FB1FB50388212B04465ED016D826
:10512400112B49D005D8012B68D0102B32D004B0F4
:1051340010BD132BFBD13448002300881A46852167
:10514400FFF7BCFF0028F2D0FEF714FDEFE7522B67
:105154004CD018D83B2B18D0512BE8D18379002B95
:10516400E5D0827B043A022AE1D8022B18BF01233E
:105174008DF8003069464FF4C1738088ADF804306F
:10518400FFF7A0FFDEE7562BD1D1A0881321FFF74C
:105194008FFFD7E71D4B1E491888000440F0030019
:1051A400FEF792FB0120FFF7C3FB0020FFF7CCFBC7
:1051B400154BA2881A80BAE7144B164918880004C4
:1051C40040F00300FEF780FB0120FFF7BDFB0E4B10
:1051D4004FF6FF721A80FFF77FFFA8E700236946A6
:1051E4008088ADF80030FFF76BFFABE7064800237B
:1051F4001A4619460088FFF767FFA3E70021808855
:10520400FFF764FF9EE700BF0C22002080210020EE
:10521400916C02009B6C020008B503784BB9054BF6
:105224003B211888FFF744FF18B1BDE80840FEF79A
:10523400A1BC08BD0C22002010B50220094C52B1BB
:10524400FFF776FB208808490004BDE8104040F0D1
:105254000300FEF739BBFFF777FB208803490004FE
:10526400F3E700BF80210020A86C0200B96C0200A3
:1052740000B5A1B0FFF780FBFEF718FF08B1FEF7F9
:1052840079FC0020FEF77EF908B1FEF773FCFEF707
:10529400DDF800F06FFF08B1FEF76CFC002311A9E4
:1052A4000120119300F0E4FF08B1FEF763FC11A89C
:1052B40001F08AF808B1FEF75DFC112342488DF82D
:1052C400083001F094F9404982B202A8FFF7F4FED5
:1052D40008B1FEF74FFC0822002111A801F054F98F
:1052E4003A4A4FF0C87311A8CDE91123FFF7E2FE43
:1052F40008B1FEF73FFC3648002100F0A9FC08B1D4
:10530400FEF738FC334B3448119311A900F026FE04
:1053140008B1FEF72FFC41F22353ADF804302E4BB5
:105324003C229B7C8DF80630002102A801F02CF968
:1053340002238DF80830002140F201633C2211A8B9
:10534400ADF80A3001F020F90123ADF8543011A969
:1053540001AB02A8169300F085FA08B1FEF70AFC27
:105364001C22002111A801F00FF900234FF4202280
:10537400CDE91132ADF852304FF420328DF854306B
:10538400164B139216930322154B8DF8502011A837
:10539400179300F099FB08B1FEF7ECFB114B12498F
:1053A4001888000440F00300FEF78EFAFFF794FE1D
:1053B400FEF750F90028FBD1FFF78AFE0028F7D04A
:1053C400FEF7D8FBF4E700BFCB6C02005000A0004E
:1053D400142900203D520200282900201D520200F9
:1053E400D950020080210020D96C02006DDF704783
:1053F40072DF704779DF70477DDF704764DF704785
:105404002DE9F04F85B000250E9CBDF83CB0B4F8F2
:1054140000A00191074690461E46A9463A884A458F
:105424000DDC45B12388013BA3EB0A039BB2FF2BA0
:105434003AD806F80A30002005B0BDE8F08F7A6843
:1054440052F82900039000220DF10B0103A8FFF785
:10545400D5FF0028F0D19DF80B20424521D12288A8
:10546400002D14BF0020022002EB0801014459451D
:105474001ADC3DB9013292B2019B2280B3542288D6
:105484000132228022880DF10B01324403A8FFF778
:10549400B5FF0028D0D121889DF80B200A44228032
:1054A400012509F10109B9E70C20C5E72DE9F3410C
:1054B400089FBDF824801546CDE9007802220446F1
:1054C4001E46FFF79DFF50B9334610222946204659
:1054D400CDE9087802B0BDE8F041FFF791BF02B012
:1054E400BDE8F0812DE9F04F00231788138090F870
:1054F4002D3085B006460D46144653B3082F01D807
:105504000C2007E102A8FFF771FF002840F0028198
:1055140023880822EA54238801339BB21B22238068
:10552400EA542088013080B2208006220DF109015E
:10553400284401F000F823889DF8082006339BB224
:1055440012F0FE0218BF01222380EA54238801339B
:105554002380B378FBB123880433BB42D0D802A89C
:10556400FFF748FF002840F0D58023880322EA543F
:10557400238801339BB219222380EA542388BDF87F
:10558400082001339BB2E9182380EA54120A4A70B6
:10559400238802332380F2789AB12388D91CB94234
:1055A400AED80221E954238801339BB20121238020
:1055B400E95423880B449BB22380EA5423880B4488
:1055C40023807268AAB12388D91CB94298D80221D1
:1055D40092F90020E954238801339BB20A212380E5
:1055E400E954238801339BB22380EA54238801338E
:1055F40023803389002B40F08180338A53B1CDE975
:1056040000472B460722032106F11000FFF74EFF47
:1056140000287FD1338B53B1CDE900472B461522A7
:10562400142106F11800FFF741FF002872D1326AF5
:10563400002A72D1D6F82480B8F1000F30D0B8F81F
:1056440004302188981C8A1C0244BA423FF658AFA1
:10565400FE283FF655AF03336B54238801339BB2C6
:10566400FF222380EA54238801339BB22380B8F8B5
:105674000020EA54E918120A4A702088023080B2E5
:105684002080B8F804205AB1D8F8081000294ED068
:10569400284400F050FF2388B8F8042013442380E2
:1056A40096F82C30002B7DD1307898B33388012BB9
:1056B4003DD0228802F1020CBC453FF621AF0128FF
:1056C40005D17378023313449F42FFF419AF023FAC
:1056D400BF1ABFB202A905EB0C00ADF80870FFF7C2
:1056E4008BFEB8B93378022B40F09F80BDF80830A8
:1056F400BB4240F2B580ADF808709FE0CDE90047A9
:105704002B460622022106F10800FFF7CFFE0028EF
:105714003FF473AF05B0BDE8F08FB4F800C00CF1EE
:105724000603BB423FF6ECAE1188052901D80720D9
:10573400F0E76FF4486E01EB0E039BB24FF27D3E2F
:105744007345F4D95388052BF1D96FF448601818C0
:1057540080B27045EBD94FF6FF70814203D083428B
:1057640001D09942E3D8052305F80C30238801338E
:105774009BB212212380E954238801339BB22380F6
:105784001188E954E818090A4170238802339BB24E
:1057940023805288EA54E918120A4A702388023393
:1057A400238047E7B36A002BC1D04FF000094FF0C4
:1057B4000C0A4FF0160B96F82C305FFA89F29342DC
:1057C4007FF672AFB16A0AFB02F201EB0208B8F885
:1057D4000430981CFE283FF693AE208803332B54E4
:1057E400238801339BB2238005F803B02388013357
:1057F4009BB223808A5AEA54E918120A4A70208814
:10580400023080B22080B8F804205AB1D8F80810C9
:1058140000298CD0284400F08EFE2388B8F8042098
:105824001344238009F10109C5E7012B7FF463AF19
:1058340073789F42FFF45FAFADF808300821BDF8DC
:105844000830FE2B3FF65CAE22880133AB5422882D
:10585400013292B22280A95422881344238059E74A
:105864000921ECE730B593B01F230D46ADF80430A1
:10587400ADF80630044610B3C3785B0702D40720A2
:1058840013B030BD01AA02A9FFF72CFE0028F7D1FE
:1058940002ACBDB1EB78002BF1D10DF106020AA9DF
:1058A4002846FFF71FFE0028EAD10AAD9DF806300E
:1058B4009DF804102A462046FFF79AFDE0E7ADF86C
:1058C4000400E6E7ADF80650F0E775DF704776DFD1
:1058D40070477ADF70477BDF70470000034B1A88FC
:1058E40082420CBF18460020704700BF5C2900208C
:1058F400024B9B6903B11847704700BF4029002041
:1059040073B585B22846FFF7E9FF044670B1164E19
:10591400027A337B9A420BD200F10A012846FFF740
:10592400D4FFE8B1112801D0FFF7E2FF02B070BD47
:1059340000230372337C43B13B212846FFF7C7FFA2
:1059440030F0080301D0FFF7D3FF7369002BEDD0CB
:1059540000228DF80420ADF8065001A89847E5E729
:10596400237A01332372E1E74029002013B50B4663
:10597400497A02460E4869B9D0E901101C7A002C14
:1059840018BF01465868FEF7D3FB08B1FFF7B0FF14
:1059940002B010BD002119724369002BF8D0012117
:1059A4008DF80410ADF8062001A89847F0E700BF71
:1059B400402900204B8802889A4213D842889A4290
:1059C40010D380888A8840F2F313984294BF031A54
:1059D400C31A934206D800F2F310904234BF002059
:1059E40001207047002070470388122B70B50146D0
:1059F40059D004D8102B1ED0112B44D070BD502B7D
:105A0400FCD12F4BC288DB899A42F7D1038A022B3F
:105A1400F4D186883046FFF761FF05460028EDD0B3
:105A240001F1120000F00AF938BB6868FEF7C8FB00
:105A34000028E3D009E0C37B012BDFD14FF6FF70D0
:105A4400FFF74CFF054620B90420BDE87040FFF77E
:105A54004FBF1C4A8E880680002303721368C0F867
:105A64000A305368C0F80E3010310A30FFF7A2FF35
:105A7400134B6872DB89002BC0D129463046BDE840
:105A84007040FFF773BF8088FFF728FF04460028A3
:105A9400B4D04068FEF794FB08B1FFF729FF4FF636
:105AA400FF732380AAE786883046FFF717FF054671
:105AB4000028A3D008310A30FFF77CFF6872DCE7C6
:105AC4004029002070290020F8B5064648B3054651
:105AD4000FCD154F3C460FC495E8070084E8070036
:105AE4003068124C3C60B0B1FFF7F3FEC0B93268C5
:105AF40013682360536863600D480E4A4FF6FF73C2
:105B040003800D4B40F8043F0021FEF7FFFA002804
:105B140018BF032004E02046FFF7DDFE0028EBD089
:105B2400F8BD0E20FCE700BF4029002070290020AA
:105B34005C29002005590200782900202DE9F04352
:105B44000388112B95B004464CD01A2B50D0102B3F
:105B540063D1334ED6E91132311D23EA020203A880
:105B6400FEF7CEFE002504AFA84606F14409039BC8
:105B74009D420ED3706CA588C043FEF789FE4FF694
:105B8400FF73984210D1042015B0BDE8F043FDF72F
:105B9400F1BFCDF8008037F8023B22481D22494668
:105BA400FEF785FE0135E2E71F4906EB40000123BD
:105BB40085802A46A1F14400FEF799FE1B49012382
:105BC400A1F140002A46FEF792FEE37B18499A1E93
:105BD40053425341A288A1F1480015B0BDE8F043F7
:105BE400FEF785BE104982880023A1F14400F4E742
:105BF400037A104982881F2B94BF00230123A1F14B
:105C04004C00FEF774FE237A0B49A2882F2B94BF15
:105C140000230123A1F15000DFE715B0BDE8F083B4
:105C2400982900209C290020E0290020DC2900205C
:105C3400E4290020E8290020EC290020007800F065
:105C44000100704790DF70479EDF7047ADDF7047FB
:105C540078B14FF0171303601B2303711723C3801C
:105C6400038141F61B32002301614381828118467E
:105C740070470E207047000037B582880C46CAB9B9
:105C84000188242900F0A58016D8112900F081800C
:105C9400232900F0AC80102939D0A37A53B1E188CC
:105CA4000020FFF7D1FF0246002840F0BB804FF4EC
:105CB4008073638103B030BD3A2972D05529ECD189
:105CC400C388E188A272172B38BF17238B4228BFE1
:105CD4000B4610462381FFF7B9FF024638B1574BF4
:105CE40057491888000440F00100FDF7F1FDE37AFC
:105CF400002BD2D12369002BCFD040F6772200921B
:105D04002289ADF80420694620469847C5E7C37B3D
:105D140022792273012B29D0022B2AD0E1882389EE
:105D24008B4206D20020FFF78FFF024618BB0123E7
:105D3400E372237B627B9A42AFD200259BB22A4650
:105D440069462846ADF80030ADF802300195FFF7FA
:105D540079FF03460028A0D0384A3A491088000445
:105D64002A4640F00100FDF7BCFD96E72388E38056
:105D7400D4E76388FBE7112802D10123A372D8E793
:105D84002E4B31491888000440F00100FDF7A0FDB6
:105D9400CFE71723E380238141F61B336281A3817C
:105DA4007BE74389E288934228BF1346172B226975
:105DB40038BF172323814AB1E17A39B140F67721FC
:105DC4000091ADF804306946204690470023638172
:105DD40063E72369017A6173002B3FF45EAF8DF8AA
:105DE40005204DF67A2200928DF804108BE7037A91
:105DF400217B01928B4228BF0B4610466946ADF8C1
:105E04000030ADF80230FFF71DFF024600283FF4D2
:105E140044AF0A4B0D491888000440F00100FDF717
:105E240057FD3AE711283FF445AF044B064918885B
:105E3400000440F00100FDF74BFD3BE798210020F2
:105E4400926D0200356D0200F16C0200D46D020007
:105E5400304B314A1B684FF08041C3F34233136027
:105E64004FF080520023C1F80C31C1F81031C1F851
:105E740038352A4BD2F80404C3F82005D2F80804B4
:105E8400C3F82405D2F80C04C3F82805D2F810048A
:105E9400C3F82C05D2F81404C3F83005D2F818045A
:105EA400C3F83405D2F81C04C3F84005D2F8200422
:105EB400C3F84405D2F82404C3F84805D2F82804EA
:105EC400C3F84C05D2F82C04C3F85005D2F83004BA
:105ED400C3F85405D2F83404C3F86005D2F8380482
:105EE400C3F86405D2F83C04C3F86805D2F840044A
:105EF400C3F86C05D2F84424C3F87025D1F80034F3
:105F0400074ADB0744BF6FF00103C1F80034054BB7
:105F14001A607047440200103C05004000C0004075
:105F24000090D00310220020A0DF7047A2DF70474A
:105F340062DF70470288502A10B40CD1C4884A88A2
:105F4400944208D1028A012A05D14B691BB1827C93
:105F540010BC8088184710BC704700002DE9F04140
:105F64000B68436194B05C4B04AA054603F1100727
:105F7400164618685968144603C40833BB422246BF
:105F8400F7D105F112013046FFF7D2FF044600288D
:105F940040F09D80AB7C8DF80A302A4641F22353B1
:105FA40002A90120ADF80830FFF7BEFF044600281F
:105FB40040F08D8001460322684600F0E5FA9DF822
:105FC4000230012666F3420321461C2241F21118D5
:105FD4000DA88DF80230ADF8008000F0D5FA9DF8D8
:105FE40034300E9423F0120343F012038DF834304E
:105FF400AB7C8DF80E30214641F22453032201A8D4
:10600400CDE910441394ADF80C30CDF848D000F02D
:10601400BBFA1123ADF804309DF8063023F01F03BA
:1060240043F002032146142208A88DF8063000F03C
:10603400ABFA01ABCDE909362B4603AF33F80A0BB3
:106044000C9408AA0DA90897ADF82C60FFF76EFF11
:10605400044600283BD101461C220DA800F094FA06
:106064009DF834300E9423F00A0343F00A038DF8AC
:106074003430AB7C8DF80E30214641F22553032297
:1060840001A8CDE91044CDE91244ADF80C3000F07C
:106094007BFA9DF80630ADF8048023F01F0343F02B
:1060A40002032146142208A88DF8063000F06CFA89
:1060B40001ABCDE909362B4608AA33F8020B0C9440
:1060C4000DA90897ADF82C60FFF730FF0446204671
:1060D40014B0BDE8F08100BF256E020010DF7047E8
:1060E40013B5044609496846FEF794FB019808B9BC
:1060F40002B010BDD0E900312046984718B1684677
:10610400FEF792FBF2E71120F2E700BF446E0200B3
:1061140013B5044607496846FEF77CFB019B0BB99F
:1061240002B010BD2046D3E9002190476846FEF72F
:106134007BFBF3E75C6E02000C4A92F816333F2BAC
:106144004FEA53110DD904290BD0094B996821B199
:106154001A6842F480021A6070474FF48003136097
:10616400704742F20200FDF705BD00BF00E100E008
:1061740080280020F7B5154F3C782CBB144E012520
:1061840020463570FFF7ACFF11281AD02046FFF7E0
:10619400BFFF104B10491868019001A8FFF79EFF3C
:1061A400044670B90D4B307018700D4B3D70E022F1
:1061B40083F8162383F81523FFF7BEFF2846FFF75D
:1061C400A7FF204603B0F0BD0824FAE7512A0020B7
:1061D400502A00203D6E0200953B0200522A002006
:1061E40000E100E0014B1878704700BF512A0020FD
:1061F40007B508496846FEF70DFB019B13B903B0C8
:106204005DF804FBD3E9002090476846FEF70CFBD9
:10621400F3E700BF506E0200FFF7EABF60DF70478C
:1062240069DF704761DF704730B5104D93B0382493
:106234000DF1060104A8ADF80640FFF7F3FF70B9AD
:10624400294602A8FEF7E6FA039B002BF0D004A827
:10625400D3E90021904702A8FEF7E6FAF4E70528FF
:1062640001D0FDF787FC13B030BD00BF647002009D
:1062740030B5054685B00C46002900F094804B4BA0
:106284000B600C22002101A800F07EF901238DF897
:10629400063022688DF80450032301A92020ADF8AC
:1062A4000830FFF7BDFF58B1414B1D88FEF7E6FAF1
:1062B4002D0445F0010502463E492846FDF708FB3A
:1062C4000C22002101A800F05FF90123ADF804308D
:1062D4002268002301A940208DF80630FFF7A0FFB3
:1062E40058B1334B1D88FEF7C9FA2D0445F001055A
:1062F400024631492846FDF7EBFA0C22002101A899
:1063040000F042F90A2322688DF8043001A9012023
:10631400FFF786FF58B1264B1D88FEF7AFFA2D0410
:1063240045F00105024625492846FDF7D1FA0C221D
:10633400002101A800F028F94FF4B063226801930A
:1063440001A9A120FFF76CFF58B1194B1D88FEF776
:1063540095FA2D0445F00105024619492846FDF732
:10636400B7FA0C22002101A800F00EF99DF80430C0
:1063740022686FF3000301A9A0208DF80430FFF711
:106384004FFF034660B10A4B1C88FEF777FA2404DA
:1063940044F0010402460B492046FDF799FA002314
:1063A400184605B030BD0E23FAE700BF8021002057
:1063B400C8210020686E0200AE6E0200FA6E020070
:1063C400466F0200976F0200F8B505460768FFF7AD
:1063D40025FF2B689F42044618D0144E1449308878
:1063E40000043A4640F00200FDF77BFA4FF0805378
:1063F4003088D3F80C312A680E499B0203F100530C
:1064040000049A1A40F00200FDF762FA64B1074BE7
:1064140020461D88FEF732FA2D0445F00105024698
:1064240005492846FDF754FA2046F8BDC821002046
:10643400EA6F0200177002003970020048DF7047EB
:106444001FB50D4C01A8FFF7F9FF70B9214602A84A
:10645400FEF7E0F9039B002BF4D00198D3E9002167
:10646400904702A8FEF7E0F9F4E7052801D0FDF70C
:1064740081FB04B010BD00BF7C7002007F2805D8EA
:10648400034B185C034B5B5C18407047002070475B
:106494009470020014710200A0F16103192B98BFDB
:1064A40020387047A0F14103192B98BF2030704762
:1064B4007F2805D8034B185C034B5B5C184070477E
:1064C400002070479470020014710200A0F161036F
:1064D400192B98BF20387047A0F14103192B98BF9E
:1064E400203070477F299ABF017001206FF02E0081
:1064F40070475AB10A787F2A0AD800B10260002195
:1065040019605960501A18BF012070470020704765
:106514006FF02E007047000008B5034B5B689B6862
:106524001B68984708BD00BF1422002008B5092144
:10653400FFF7F2FF08BD844640EA010313F0030F9E
:1065440018D18446202A0BD32DE9F007B1E8F807C7
:10655400A0E8F807A2F12002202AF7D2BDE8F0074C
:10656400042A07D351F8043B40F8043BA2F1040287
:10657400042AF7D2002A05D011F8013B00F8013BA8
:10658400013AF9D1604670478446002A2DD010F0B4
:10659400030F04D000F8011B013A26D0F7E7C9B273
:1065A40041EA012141EA0141202A12D3A2F1200249
:1065B4002DE9F0030B460C460D460E460F46884661
:1065C4008946A0E8FA03203AFBD2BDE8F003203262
:1065D4000BD0042A05D340F8041B043A05D0042A3E
:1065E400F9D200F8011B013AFBD16046704700F173
:1065F400010110F0030F11D010F8012B002A23D051
:1066040010F0030F0AD010F8012B002A1CD010F050
:10661400030F03D010F8012B002A15D02DE97000C8
:106624004FF001324FF0803350F8044BA4EB0205D5
:1066340025EA04051D4000D1F6E7A0F1040070BC72
:0E66440010F8012B002AFBD1A0EB01007047DB
:08665400DD4902000000000016
:10665C00415B0200000000007D5C02001429002058
:10666C00ED59020000000000395F020028290020CB
:08667C001951020000000000AA
:10668400906702000000030071680200000000002F
:106694001C6E0200000003007F6C0200000000007A
:1066A400856C020000000000356E0200000003004B
:1066B4005670020000000300707002000000030026
:1066C40088680200000000008C6C020000000000DA
:0866D4005D4A02000000000015
:1066DC002D62020000000000456402000000000072
:1066EC00000000000000000000000000000000009E
:1066FC00000000000000000000000000000000008E
:10670C00000000000000000000000000000000007D
:10671C00000000000000000000000000000000006D
:10672C00000000000000000000000000000000005D
:10673C00000000000000000000000000000000004D
:10674C00000000000000000000000000000000003D
:08675C00000000000000000035
:10676400FFFFFFFFFFFFFFFFFFFFFFFFFFFFFFFF35
:1067740000000000000000000000D6010701000036
:10678400FD330200E53302008533020061707000BE
:106794008C260020542700205C270020942600200B
:1067A400180000001B5B306D002573000D0A003CCF
:1067B40025733E2025733A200020253032780020AE
:1067C4002020007C002563001B5B313B33306D00CF
:1067D4001B5B313B33316D001B5B313B33326D004E
:1067E4001B5B313B33336D001B5B313B33346D003A
:1067F4001B5B313B33356D001B5B313B33366D0026
:106804001B5B313B33376D007761726E696E6700D5
:10681400696E666F0064656275670000A8670200B0
:10682400CC670200D4670200DC670200E467020060
:10683400EC670200F4670200FC67020004680200CF
:10684400000000005E6802000C6802001468020088
:1068540019680200466174616C206572726F72007F
:1068640053797374656D2072657365740062616C2D
:106874006C6F630030313233343536373839414246
:10688400434445467077725F6D676D74004E52469F
:106894005F53554343455353004E52465F4552524E
:1068A4004F525F5356435F48414E444C45525F4DEF
:1068B400495353494E47004E52465F4552524F5238
:1068C4005F534F46544445564943455F4E4F545FCA
:1068D400454E41424C4544004E52465F4552524F4C
:1068E400525F494E5445524E414C004E52465F450C
:1068F40052524F525F4E4F5F4D454D004E52465FD0
:106904004552524F525F4E4F545F464F554E4400CE
:106914004E52465F4552524F525F4E4F545F53554D
:1069240050504F52544544004E52465F4552524FC8
:10693400525F494E56414C49445F504152414D00CB
:106944004E52465F4552524F525F494E56414C4952
:10695400445F5354415445004E52465F4552524F92
:10696400525F494E56414C49445F4C454E4754484A
:10697400004E52465F4552524F525F494E56414C6B
:1069840049445F464C414753004E52465F4552527C
:106994004F525F494E56414C49445F444154410073
:1069A4004E52465F4552524F525F444154415F53E9
:1069B400495A45004E52465F4552524F525F544920
:1069C4004D454F5554004E52465F4552524F525F0B
:1069D4004E554C4C004E52465F4552524F525F4604
:1069E4004F5242494444454E004E52465F4552522E
:1069F4004F525F494E56414C49445F414444520012
:106A04004E52465F4552524F525F42555359004EC3
:106A140052465F4552524F525F4D4F44554C455F6D
:106A24004E4F545F494E495449414C5A4544004ED7
:106A340052465F4552524F525F4D555445585F4937
:106A44004E49545F4641494C4544004E52465F45C9
:106A540052524F525F4D555445585F4C4F434B5F14
:106A64004641494C4544004E52465F4552524F52AE
:106A74005F4D555445585F554E4C4F434B5F46410F
:106A8400494C4544004E52465F4552524F525F4D69
:106A9400555445585F434F4E445F494E49545F46F1
:106AA40041494C4544004E52465F4552524F525F55
:106AB4004D4F44554C455F414C52454144595F4903
:106AC4004E495449414C495A4544004E52465F454B
:106AD40052524F525F53544F524147455F46554CB3
:106AE4004C004E52465F4552524F525F4150495FEF
:106AF4004E4F545F494D504C454D454E544544000E
:106B04004E52465F4552524F525F4645415455528C
:106B1400455F4E4F545F454E41424C4544004E52F2
:106B2400465F4552524F525F4452565F5457495F35
:106B34004552525F4F56455252554E004E52465F93
:106B44004552524F525F4452565F5457495F455223
:106B5400525F414E41434B004E52465F4552524FA5
:106B6400525F4452565F5457495F4552525F444EF8
:106B740041434B00556E6B6E6F776E206572726F7A
:106B84007220636F646500000000000091680200D9
:106B9400010000009D68020002000000BB680200C2
:106BA40003000000DC68020004000000EF6802003B
:106BB40005000000006902000600000014690200DC
:106BC400070000002C69020008000000446902006C
:106BD400090000005C6902000A00000075690200F7
:106BE4000B0000008D6902000C000000A469020083
:106BF4000D000000B86902000E000000CA6902001E
:106C04000F000000D969020010000000ED690200C5
:106C140011000000046A020080000000136A0200F0
:106C240081000000336A0200820000004F6A020003
:106C3400830000006B6A020084000000896A02007D
:106C440085000000AA6A020086000000CF6A0200E4
:106C540090000000E66A020091000000046B02004C
:106C640000820000226B020001820000406B0200DF
:106C7400028200005C6B02001C191C636C6F636B66
:106C8400006770696F7465007561727400436F6E9C
:106C94006E656374656400446973636F6E6E6563E7
:106CA400746564005265636569766564204C454487
:106CB400204F4E21005265636569766564204C451A
:106CC40044204F464621004E6F726469635F426CF4
:106CD400696E6B7900426C696E6B79206578616DC1
:106CE400706C6520737461727465642E0073645FE4
:106CF400626C655F67617474635F65786368616E15
:106D040067655F6D74755F72657175657374282945
:106D14002072657475726E656420756E6578706531
:106D2400637465642076616C756520307825782EEF
:106D34000073645F626C655F6761705F6461746156
:106D44005F6C656E6774685F75706461746528292B
:106D540020287265717565737429206F6E20636FC6
:106D64006E6E656374696F6E203078257820726565
:106D74007475726E656420756E657870656374658C
:106D8400642076616C756520307825782E007364F4
:106D94005F626C655F67617474735F657863686173
:106DA4006E67655F6D74755F7265706C79282920F4
:106DB40072657475726E656420756E65787065634E
:106DC4007465642076616C756520307825782E00B2
:106DD40073645F626C655F6761705F646174615F57
:106DE4006C656E6774685F757064617465282920CA
:106DF400287265706C79292072657475726E656489
:106E040020756E65787065637465642076616C7551
:106E14006520307825782E00626C655F6761747434
:106E24000023D1BCEA5F782315DEEF1212000000C4
:106E3400006E72665F736468000100000600000063
:106E4400D4660200D466020008000000DC6602007A
:106E5400EC66020008000000D4660200DC66020052
:106E64000800000073645F626C655F6366675F734C
:106E7400657428292072657475726E6564202573A3
:106E8400207768656E20617474656D7074696E67CF
:106E940020746F2073657420424C455F434F4E4EFF
:106EA4005F4346475F4741502E0073645F626C65E1
:106EB4005F6366675F7365742829207265747572F1
:106EC4006E6564202573207768656E20617474652F
:106ED4006D7074696E6720746F2073657420424C02
:106EE400455F4741505F4346475F524F4C455F43C0
:106EF4004F554E542E0073645F626C655F63666722
:106F04005F73657428292072657475726E656420D8
:106F14002573207768656E20617474656D7074697B
:106F24006E6720746F2073657420424C455F434F35
:106F34004D4D4F4E5F4346475F56535F5555494449
:106F44002E0073645F626C655F6366675F7365746C
:106F540028292072657475726E6564202573207704
:106F640068656E20617474656D7074696E672074F1
:106F74006F2073657420424C455F47415454535FFE
:106F84004346475F415454525F5441425F53495A08
:106F9400452E0073645F626C655F6366675F73654B
:106FA4007428292072657475726E656420257320B7
:106FB4007768656E20617474656D7074696E67209E
:106FC400746F2073657420424C455F474154545399
:106FD4005F4346475F534552564943455F434841E3
:106FE4004E4745442E0052414D20737461727473B0
:106FF40020617420307825782C2063616E206265CE
:107004002061646A757374656420746F2030782518
:10701400782E0052414D2073697A652063616E2099
:1070240062652061646A757374656420746F2030CE
:107034007825782E0073645F626C655F656E6162AB
:107044006C6528292072657475726E6564202573D9
:107054002E006E72665F7364685F626C6500000088
:107064005C66020084660200080000006E72665FBF
:107074007364685F736F6300546602005C660200A9
:107084000800000043000000504F5349580000001E
:107094002020202020202020206828282828202084
:1070A40020202020202020202020202020202020DC
:1070B4004810101010101010101010101010101094
:1070C4008484848484848484848410101010101034
:1070D400108181818181810101010101010101018D
:1070E4000101010101010101010101101010101041
:1070F400108282828282820202020202020202025E
:107104000202020202020202020202101010102005
:1071140000070320041702010857104080000000F4
:10712400887002008C710200A072020053756E0018
:107134004D6F6E00547565005765640054687500A2
:107144004672690053617400000000004A616E00D9
:10715400466562004D617200417072004D617900B4
:107164004A756E004A756C0041756700536570007E
:107174004F6374004E6F76004465630000000000A6
:10718400414D00504D000000C4720200C072020064
:10719400C0720200C0720200C0720200C07202001B
:1071A400C0720200C0720200C0720200C07202000B
:1071B400FFFFFFFFFFFFFFFFFFFFFFFFFFFF0000D9
:1071C40000720200307102003C7202005071020031
:1071D40084710200E471020094720200F0710200F2
:1071E400256D2F25642F25790000000025612025B9
:1071F40062202565202554202559000053756E64AE
:107204006179004D6F6E64617900547565736461D2
:1072140079005765646E65736461790054687572AA
:1072240073646179004672696461790053617475AD
:1072340072646179000000004A616E7561727900C0
:107244004665627275617279004D617263680041CE
:107254007072696C004D6179004A756E65004A75FB
:107264006C79004175677573740053657074656D4E
:10727400626572004F63746F626572004E6F76656B
:107284006D62657200446563656D6265720000003D
:1072940025483A254D3A2553000000008164020038
:1072A4009D640200A9640200B5640200D164020076
:1072B400DD640200E9640200F764020000000000DB
:0272C4002E009A
:1072C8000020004000000000846702000000000069
:1072D80000000000FFFF00000090D00324710200AE
:1072E800247102002471020024710200247102003A
:040000032000321592
:00000001FF
