:020000022000DC
:1030000000000120393202009132020093320200A6
:10301000953202009732020099320200000000004F
:103020000000000000000000000000009B320200D1
:103030009D320200000000009F320200A132020017
:10304000A5320200A7320200A9320200AB32020010
:10305000AD320200AF320200B1320200B3320200E0
:10306000B5320200B7320200B9320200BB320200B0
:10307000BD320200BF320200C1320200C332020080
:10308000C5320200C7320200C9320200CB32020050
:10309000CD320200CF320200D1320200D332020020
:1030A000D5320200D7320200D9320200DB320200F0
:1030B000DD320200DF320200A3320200A33202003E
:1030C000E1320200E3320200E5320200E7320200A0
:0C30D000E9320200EB320200ED32020097
:1030DC00354936480A1A02D0072291438D463449A5
:1030EC0034480A1A06D00722914381F30988022238
:1030FC0082F3148830483149314A00F044F83148A1
:10310C003149324A00F03FF831483249324A00F036
:10311C003AF832483249334A00F035F832483349EC
:10312C00334A00F030F833483349344A00F02BF876
:10313C0033483449344A00F026F8344834490022E4
:10314C0000F02CF833483449002200F027F83348BB
:10315C003349091A082902DB002202604160314A16
:10316C0090471F481F49884205D00268043003B4B9
:10317C00904703BCF7E700208646EC460020002170
:10318C00294A9047FEE7884207D0521A05D00378A7
:10319C0001300B700131013AF9D17047884202D0ED
:1031AC0002700130FAE770470000012000F800209F
:1031BC00000001200000012020440200685600207D
:1031CC006C560020F0320200F0320200A4430200E0
:1031DC00204402006856002068560020A4430200D8
:1031EC00A4430200A4430200A4430200A44302002F
:1031FC00A4430200A4430200A44302001F440200A3
:10320C00244402006C5600206C5600206C560020A2
:10321C00985600209856002098560020985600206A
:10322C00985800205D320200A93A02000F484FF076
:10323C000701884385460E4880470E48016841F4D3
:10324C0070010160BFF34F8FBFF36F8FFFF740BF6B
:10325C0009480A490A4A884207D0521A05D003780D
:10326C0001300B700131013AF9D170470000012097
:10327C003533020088ED00E0A443020068560020BC
:10328C0068560020FEE7FEE7FEE7FEE7FEE7FEE7F6
:10329C00FEE7FEE7FEE7FEE7FEE7FEE7FEE7FEE7FA
:1032AC00FEE7FEE7FEE7FEE7FEE7FEE7FEE7FEE7EA
:1032BC00FEE7FEE7FEE7FEE7FEE7FEE7FEE7FEE7DA
:1032CC00FEE7FEE7FEE7FEE7FEE7FEE7FEE7FEE7CA
:1032DC00FEE7FEE7FEE7FEE7FEE7FEE7FEE7FEE7BA
:0432EC00FEE700BF3A
:1032F00000F017BDBFF34F8F00BF074BDB6803F42F
:10330000E0620549054B1343CB60BFF34F8F00BF0D
:1033100000BF00BFFCE700BF00ED00E00400FA05BD
:10332000024B034A1A6000BF704700BF6856002076
:103330000090D00308B500F05DF90346002B06D0DD
:103340009B4B1B681B0A9B4A03F01F03136000F092
:103350007DF90346002B02D0974B984A1A6000F083
:1033600091F90346002B06D0954B1B685B0B954AE1
:1033700003F00703136000F0B1F90346002B05D0FA
:10338000914BDB68904A23F08073D36000F0C2F960
:103390000346002B0ED04FF080430022C3F80C21CF
:1033A0004FF080430022C3F810214FF080430022E9
:1033B000C3F8382500F0DAF90346002B02D0834B1E
:1033C00003221A6000F0EEF90346002B0BD0804B6D
:1033D00005221A607F4B01221A607F4B00221A607F
:1033E0007E4B3F221A6000F0F9F90346002B76D09D
:1033F0004FF080537A4AD3F80434C2F820354FF0A6
:103400008053774AD3F80834C2F824354FF08053FC
:10341000734AD3F80C34C2F828354FF08053704A01
:10342000D3F81034C2F82C354FF080536C4AD3F8DF
:103430001434C2F830354FF08053694AD3F8183449
:10344000C2F834354FF08053654AD3F81C34C2F8C3
:1034500040354FF08053624AD3F82034C2F84435E7
:103460004FF080535E4AD3F82434C2F848354FF009
:1034700080535B4AD3F82834C2F84C354FF0805360
:10348000574AD3F82C34C2F850354FF08053544A81
:10349000D3F83034C2F854354FF08053504AD3F843
:1034A0003434C2F860354FF080534D4AD3F8383485
:1034B000C2F864354FF08053494AD3F83C34C2F81F
:1034C00068354FF08053464AD3F84034C2F86C3523
:1034D0004FF08053424AD3F84434C2F8703500F0BC
:1034E00099F90346002B05D03E4B1B683E4A03F07A
:1034F0004F03136000F0BAF90346002B0DD04FF0D4
:103500008043D3F8003403F00103002B05D04FF0C3
:1035100080436FF00102C3F80024344BD3F88830A5
:10352000324A43F47003C2F88830BFF34F8F00BFB4
:10353000BFF36F8F00BF4FF01023D3F80032002B82
:1035400005DB4FF01023D3F80432002B2BDA284B85
:103550000122C3F8042500BF254BD3F80034002B0B
:10356000FAD04FF010231522C3F8002200BF204BE1
:10357000D3F80034002BFAD04FF010231522C3F8F3
:10358000042200BF1A4BD3F80034002BFAD0184B9A
:103590000022C3F8042500BF154BD3F80034002BDC
:1035A000FAD0FFF7A7FEFFF7BBFE00BF08BD00BFC4
:1035B000240300104035014074C007400DF0ADBA3F
:1035C000440200103C050040F0ED00E0A005004082
:1035D00010560040885600401856004014560040CF
:1035E00000C0004058020010E40E004000ED00E072
:1035F00000E00140124B1B68DBB2062B1DD1114BC2
:103600001B6803F00F03002B17D10F4B1B6803F04F
:10361000F003302B01D1012310E00B4B1B6803F0AA
:10362000F003402B01D1012308E0074B1B6803F096
:10363000F003502B01D1012300E00023184670470E
:10364000E00F00F0E40F00F0E80F00F00A4B1B68F9
:10365000DBB2062B0DD1094B1B6803F00F03002BC7
:1036600007D1074B1B6803F0F003302B01D1012376
:1036700000E0002318467047E00F00F0E40F00F070
:10368000E80F00F0124B1B68DBB2062B1DD1114B6B
:103690001B6803F00F03002B17D10F4B1B6803F0BF
:1036A000F003302B01D1012310E00B4B1B6803F01A
:1036B000F003402B01D1012308E0074B1B6803F006
:1036C000F003502B01D1012300E00023184670477E
:1036D000E00F00F0E40F00F0E80F00F00A4B1B6869
:1036E000DBB2062B0DD1094B1B6803F00F03002B37
:1036F00007D1074B1B6803F0F003302B01D10123E6
:1037000000E0002318467047E00F00F0E40F00F0DF
:10371000E80F00F0124B1B68DBB2062B1DD1114BDA
:103720001B6803F00F03002B17D10F4B1B6803F02E
:10373000F003302B01D1012310E00B4B1B6803F089
:10374000F003402B01D1012308E0074B1B6803F075
:10375000F003502B01D1012300E0002318467047ED
:10376000E00F00F0E40F00F0E80F00F00A4B1B68D8
:10377000DBB2062B0DD1094B1B6803F00F03002BA6
:1037800007D1074B1B6803F0F003302B01D1012355
:1037900000E0002318467047E00F00F0E40F00F04F
:1037A000E80F00F00A4B1B68DBB2062B0DD1094B6A
:1037B0001B6803F00F03002B07D1074B1B6803F0B6
:1037C000F003302B01D1012300E00023184670479D
:1037D000E00F00F0E40F00F0E80F00F00A4B1B6868
:1037E000DBB2062B0DD1094B1B6803F00F03002B36
:1037F00007D1074B1B6803F0F003502B01D10123C5
:1038000000E0002318467047E00F00F0E40F00F0DE
:10381000E80F00F0124B1B68DBB2062B1DD1114BD9
:103820001B6803F00F03002B17D10F4B1B6803F02D
:10383000F003302B01D1012310E00B4B1B6803F088
:10384000F003402B01D1012308E0074B1B6803F074
:10385000F003502B01D1012300E0002318467047EC
:10386000E00F00F0E40F00F0E80F00F0124B1B68CF
:10387000DBB2062B1DD1114B1B6803F00F03002B8D
:1038800017D10F4B1B6803F0F003302B01D101233C
:1038900010E00B4B1B6803F0F003402B01D1012318
:1038A00008E0074B1B6803F0F003502B01D1012304
:1038B00000E0002318467047E00F00F0E40F00F02E
:1038C000E80F00F084B00190244B0393019B002B80
:1038D00040D0234B1A680399019B00BF00BF00BF73
:1038E00000BF00BF00BF00BF00BF8A422FD000BF93
:1038F00000BF00BF00BF00BF00BF00BF00BF00BFD0
:1039000000BF00BF00BF00BF00BF00BF00BF00BFBF
:1039100000BF00BF00BF00BF00BF00BF00BF00BFAF
:1039200000BF00BF00BF00BF00BF00BF00BF00BF9F
:1039300000BF00BF00BF00BF00BF00BF00BF00BF8F
:1039400000BF00BF00BF00BF00BF00BF00BF013B02
:10395000C3D1019300BF04B0704700BF0024F4003E
:103960006856002000B583B00190019B4FF47A7235
:1039700002FB03F31846FFF7A5FF00BF03B05DF895
:1039800004FB000000B583B00190019B1B681F2B56
:1039900004D905494FF4E87000F014F94FF0A04342
:1039A000184603B05DF804FBA443020000B585B0DF
:1039B0000190084611461A4603468DF803300B461F
:1039C0008DF8023013468DF8013001AB1846FFF731
:1039D000D9FF03909DF803209DF802305B001A4345
:1039E0009DF801309B001A439DF818301B0242EAF3
:1039F00003019DF81C301B04019A1943039B02F537
:103A0000E07243F8221000BF05B05DF804FB00B57A
:103A100085B003900023019300230093002301222B
:103A200001210398FFF7C2FF00BF05B05DF804FB5A
:103A300000B585B0019001AB1846FFF7A3FF0390D6
:103A4000019B012202FA03F31946039800F018F8CB
:103A500000BF05B05DF804FB00B585B0019001AB77
:103A60001846FFF78FFF0390019B012202FA03F330
:103A70001946039800F00EF800BF05B05DF804FB8E
:103A800082B001900091019B009AC3F8082500BF05
:103A900002B0704782B001900091019B009AC3F878
:103AA0000C2500BF02B0704708B50A4800F0D6F8F0
:103AB0001E20FFF7ACFF1E20FFF7BAFF4FF4FA708D
:103AC000FFF750FF1E20FFF7C7FF4FF4FA70FFF714
:103AD00049FFF0E7DC43020086B0039002910192B7
:103AE00001238DF817309DF81730214A039B13608E
:103AF0001F4A029B53601E4A019B9360039B44F242
:103B00000102934213D0039B44F20202934222D15A
:103B1000019B174AD360164BDB681B881A46144B6F
:103B20009A61134BDB685B68114AD36113E0019B18
:103B30000F4A13610E4B1B699B680D4A53610C4B76
:103B40001B691B881A460A4B9A61094B1B695B6803
:103B5000074AD36100BF72B600BF00BF9DF817309F
:103B6000DBB2002BFAD162B600BF00BF06B07047CF
:103B70006C56002000B587B0039002910192039B20
:103B800044F20102934207D0039B44F202029342A3
:103B900005D1019B059303E0019B049300E000BF66
:103BA000074B1B6803F00103002B00D0FFDE019AD6
:103BB00002990398FFF790FF00BF07B05DF804FB80
:103BC000F0ED00E000B585B003460091ADF8063099
:103BD000BDF80630ADF80830009B039302AB1A46DF
:103BE000002144F20200FFF7C5FF00BF05B05DF8F9
:103BF00004FB38B504460846A26842B123686168F0
:103C00005D1C8D4208BF00208B4208D2D054E3686F
:103C10002BB121686268914201D2214698472368FE
:103C20000133236038BD70B54C1E09D41646C5B2A9
:103C300029463046FFF7DDFF013CB4F1FF3FF7D1E5
:103C400070BD10F0100F08D108B510F4007F14BF3C
:103C500030202020FFF7E7FF08BD70470FB410B5F4
:103C600086B008AB53F8044B0593002303936FF021
:103C700000430293084B049300F051F8059A214643
:103C800001A800F05DF8044600F04AF8204606B0AE
:103C9000BDE8104004B07047F1320200037853B120
:103CA00059B10144034613F8012F12B18B42FAD1E6
:103CB0000B46181A70470346FBE70346F9E700F185
:103CC000010110F0030F11D010F8012B002A23D0AE
:103CD00010F0030F0AD010F8012B002A1CD010F0AE
:103CE000030F03D010F8012B002A15D02DE9700026
:103CF0004FF001324FF0803350F8044BA4EB020533
:103D000025EA04051D4000D1F6E7A0F1040070BCCF
:103D100010F8012B002AFBD1A0EB0100704770477F
:103D2000704710B504460146172000F023FB002819
:103D30000CBF20464FF0FF3010BD704770470000A9
:103D40002DE9F04F89B007460392002303600C462B
:103D500014F8011B002900F0FA82DFF814B5E9E23B
:103D6000002507E05E2868D145F4805501E045F064
:103D700040051C46234613F8010B3028F2D81F28B3
:103D800037D9A0F12002102A33D801A151F822F02E
:103D90006F3D0200F33D0200F33D0200D53D0200FD
:103DA000F33D0200F33D0200F33D0200DB3D020063
:103DB000F33D0200F33D0200F33D0200E13D02004D
:103DC000F33D0200E73D0200F33D0200F33D020037
:103DD000ED3D020045F08005CBE745F40045C8E71E
:103DE00045F02005C5E745F01005C2E745F400752C
:103DF000BFE72A2821D1039A111D0391D2F800A010
:103E0000BAF1000FBCBFCAF1000A45F010051878DE
:103E1000A31C2AEAEA7A2E2826D00021742847D04B
:103E20007A2845D06C2800F0A8804C2800F0AB80A0
:103E3000682800F0B8801C463DE0A0F13002D2B204
:103E4000092A88BF4FF0000AE3D84FF0000A0AEBB6
:103E50008A0A303800EB4A0A13F8010BA0F130024D
:103E6000D2B2092AF3D9D4E718782A280AD1039ABA
:103E7000111D03911168587802330029CEDB45F4F7
:103E80008075CBE70133A0F13002D2B2092A88BF96
:103E90000021F4D8002101EB8101303800EB410111
:103EA00013F8010BA0F13002D2B2092AF3D9E4E7EA
:103EB0001C4614F8010B002800F05582A0F12503E0
:103EC000DBB2532B62D8A0F12503532B5ED8DFE879
:103ED00013F076005D005D005D005D005D005D003B
:103EE0005D005D005D005D005D005D005D005D00EA
:103EF0005D005D005D005D005D005D005D005D00DA
:103F00005D005D005D005D005D005D005D005D00C9
:103F10005D005D005D005D005D005D005D005D00B9
:103F20005D005D005D005D005D005D005D005D00A9
:103F30005D005D005D005D00EB005D005D005D000B
:103F40005D005D005D005D005D005D005D007B006B
:103F500020015D005D005D005D0020015D005D00F1
:103F60005D005D0095000E01D1005D005D00A600C2
:103F70005D0019015D005D00ED001C4614F8010BA9
:103F800045F0010597E745F001051C46B44B1E6856
:103F9000002E00F0CC8103AB0193009153462A46DA
:103FA0003946B047C3E11878682803D05C1C45F057
:103FB000040580E745F008059C1C58787BE725211F
:103FC0003846FFF716FEB2E1039B1A1D03921E78D6
:103FD0000AF1FF3A3A4651462846FFF732FE31468B
:103FE0003846FFF706FEA94619F0100F00F09F8132
:103FF0003A4651462020FFF716FE98E115F0080FCB
:1040000006D03A68039B191D03911B681A708EE154
:10401000039B1A1D03921B683A681A6087E1039B91
:104020001A1D0392D3F800808E4BB8F1000F08BF21
:104030009846464625F4007915F4807F15D0404611
:10404000FFF72CFE0546AAEB050A3A4651464846BC
:10405000FFF7F7FD002DC7D0454416F8011B384681
:10406000FFF7C7FDB542F8D1BEE74046FFF727FE90
:104070000546E8E7039B1A1D03921B6815F0800FA5
:104080000CBF0026232645F4807508211A46002B14
:1040900000F0298105AB4FF0000805F4005CA6464E
:1040A00060468C460146D1E045F4005515F0800F7E
:1040B0001BD043F2780643F25803782818BF1E46F7
:1040C00015F4807F01D025F4007515F4804F32D0AF
:1040D000039B1A1D03921B6815F0040F1FD01BB21F
:1040E000002B20DA5B422D262DE00026E8E715F0B4
:1040F000800F0CBF0026302615F4807FE5D025F414
:104100000075E2E715F4807F07D025F400750026DE
:10411000DBE745F480450026D7E70026D5E715F014
:10412000080FDDD0DBB215F0200F60D115F0400F85
:1041300018BF202607E0039B1A1D03921B6815F089
:10414000040F4FD09BB215F4807F14BF25F4007587
:1041500001215838202800F2AE8001A252F820F048
:104160008D400200B7420200B7420200B74202008F
:10417000B7420200B7420200B7420200B742020053
:10418000B7420200B7420200B7420200B742020043
:104190001B420200B7420200B7420200B7420200CF
:1041A000B74202001B420200B7420200B7420200BF
:1041B000B7420200B7420200B7420200F3410200D8
:1041C0008D400200B7420200B7420200B74202002F
:1041D000B74202001B420200B7420200B74202008F
:1041E0008D40020015F0080FADD0DBB2ABE72B26F7
:1041F000A9E71A464FF00008002B5ED005A84FF043
:10420000000803F00703303300F8013B08F1010810
:10421000D2081346002AF4D14FE018464FF00008A8
:10422000002B4AD04FF0000805F4004E4FF02C0947
:1042300073468E4619462FE002F00F000A4C205CB0
:1042400003F8010B08F10108120906D00029F3D088
:1042500002F00F00054C205CF2E7744661462CE04A
:104260008C56002018440200F84302000844020063
:10427000CDCCCCCC08AB03EB080CABFB0032D208A6
:1042800002EB8203A0EB430330330CF80C3C08F143
:10429000010809280DD910460029EBD008F00303C6
:1042A000032BE7D108AB434403F80C9C08F1010849
:1042B000E0E7714601E04FF00008A1EB080121EAB8
:1042C000E179AAEB090AAAEB080AFF2E0ED9AAF196
:1042D000020AC6F307213846FFF78BFCF1B23846D5
:1042E000FFF787FC04E04FF00008E6E7002E3DD121
:1042F0003A4651462846FFF7A4FC3A464946302044
:10430000FFF791FCB8F1000F0EDD0DF1140908F173
:10431000FF38C84498F8001046463846FFF769FC55
:10432000C14508F1FF38F5D115F0100F09D114F887
:10433000011B61B125293FF413AD3846FFF759FC45
:10434000F5E73A4651462020FFF76DFCEFE7BB68E2
:104350002BB13A6879688A423CBF00219954386889
:1043600009B0BDE8F08F4FF0FF30F9E70AF1FF3AEE
:10437000B4E700BF38B504460D46FFF7DEFC074B37
:104380001D6044F08004064B1C601A461368002B25
:10439000FCD1FFF7D3FC014B186838BD94560020C0
:0443A0009056002013
:1043A4002E2E2F2E2E2F2E2E2F2E2E2F2E2E2F2E24
:1043B4002E2F636F6D706F6E656E74732F647269E8
:1043C400766572735F6E72662F68616C2F6E7266AB
:1043D4005F6770696F2E68004D61696E204170706F
:1043E40069636174696F6E205374617274656420CB
:1043F4000D0A0000303132333435363738396162D2
:104404006364656630313233343536373839414286
:0B44140043444546286E756C6C29007F
:044420000090D00335
:04000003200032396E
:00000001FF
