:020000022000DC
:103000000060002015320200593202005B320200DB
:103010005D3202005F3202006132020000000000F7
:103020000000000000000000000000006332020009
:1030300065320200000000006732020069320200BF
:10304000014F02006F32020045520200733202004B
:103050007532020000000000E54F020079320200E4
:103060007B3202007D3202007F3202008132020098
:103070008332020085320200873202008932020068
:103080008B320200753E02008F3202009132020044
:10309000113F0200953202006D7002009932020069
:1030A0009B3202009D320200000000000000000080
:0830B0009F320200A132020070
:1030B800354936480A1A02D0072291438D463449C9
:1030C80034480A1A06D00722914381F3098802225C
:1030D80082F3148830483149314A00F044F83148C5
:1030E8003149324A00F03FF831483249324A00F05B
:1030F8003AF832483249334A00F035F83248334911
:10310800334A00F030F833483349344A00F02BF89A
:1031180033483449344A00F026F834483449002208
:1031280000F02CF833483449002200F027F83348DF
:103138003349091A082902DB002202604160314A3A
:1031480090471F481F49884205D00268043003B4DD
:10315800904703BCF7E700208646EC460020002194
:10316800294A9047FEE7884207D0521A05D00378CB
:1031780001300B700131013AF9D17047884202D011
:1031880002700130FAE77047006000200058002004
:1031980000600020006000208C8A0200E02A0020E5
:1031A800142B0020A4320200A4320200547D020035
:1031B8008C8A0200E02A0020E02A0020947E020087
:1031C800947E0200947E0200947E0200947E0200A7
:1031D800947E0200947E0200947E02008B8A020094
:1031E800C08A0200142B0020142B0020142B00206E
:1031F800E0370020E0370020E0370020E0370020EB
:10320800E039002027320200CD5902000B484FF068
:103218000701884385460A488047FFF749BF0948A0
:1032280009490A4A884207D0521A05D00378013062
:103238000B700131013AF9D170470000006000209D
:10324800956B02001C7E0200682A0020E02A0020FC
:10325800FEE7FEE7FEE7FEE7FEE7FEE7FEE7FEE73E
:10326800FEE7FEE7FEE7FEE7FEE7FEE7FEE7FEE72E
:10327800FEE7FEE7FEE7FEE7FEE7FEE7FEE7FEE71E
:10328800FEE7FEE7FEE7FEE7FEE7FEE7FEE7FEE70E
:0C329800FEE7FEE7FEE7FEE7FEE700BFF2
:1032A40004F030BD7047000007B5044B0093044A96
:1032B400402300F01DF803B05DF804FBC93202009E
:1032C400142B0020F8B50F4614466AB10A260025CF
:1032D40022467919002002F0EDFC0544241A08B9AD
:1032E400013E01D0002CF3D1F8BD704702F012BDAD
:1032F400F0B595B01D46164608460C4601F00FFC85
:103304001A9B0D93CDE9086500252B46082205A9D3
:1033140020460A958DF82C500C9501F049FC079B2A
:103324000293069BADF80C309DF814308DF81050C4
:1033340003F00302012A21D1C3F3C2028DF80E2047
:10334400BDF81420059DC3F38003C2F383168DF8E2
:103354000F30B20008230EA9204601F029FCC5F362
:10336400952508AB0093324602AB0EA9284600F01F
:10337400F9FA204601F0E0FB15B0F0BD022AF8D1BD
:10338400BDF81650C3F3C202C3F38003C5F3891515
:103394008DF80E208DF80F300827082D2E4628BFF3
:1033A40008263B4632460EA9204601F001FCAD1B1F
:1033B40008AB02AA31460EA8374400F039FB002DB1
:1033C400EBD1D6E710B5054CFFF790FF042120465A
:1033D40000F050FA0123637210BD00BFE02A002000
:1033E4002DE9F04F85B0054600260DF1030088460F
:1033F4008DF8036000F0AEFF3F4B1C68C8F8004036
:10340400D3E901210A440132A71C121B05F1040867
:1034140003F5836E012003F2144C424511D30C4092
:1034240003349DF8030013F8242042F0030203F848
:1034340024203D441D6000F0B1FF012005B0BDE82B
:10344400F08F5EE8002F42EA00094EE8009A9AF0F5
:10345400000FF6D15CE8002F42EA00094CE8009A1C
:103464009AF0000FF6D15A6801EA020909F103093A
:1034740003EB890999F800A01AF0030F2AD001EA96
:10348400020903EB89090232D9F80C90CDF80490B3
:1034940009F00309B9F1010F28D0B9F1020F07D1DE
:1034A400BDF80690C9F3891909F1030902EB9902E1
:1034B4005CE8009F09EA060A4CE800AB9BF0000FA9
:1034C400F6D1B9F1000F00D05A605A680A440132AB
:1034D400121BA2E7B9F802A0B9F80090C9F3891940
:1034E40009EB9A1909F101094A44BDE7BDF80490B2
:1034F400C9F383194A44DBE7542B002038B50F4B3A
:103504000F48FF229A600022C3F81824C3E900225E
:10351400C3F8142483F81C2401F0BAFA40B9094A08
:10352400094B0A4C9B1ADB0802460C219A4200D133
:1035340038BD01FB02F52A530132F7E7542B002072
:10354400A47E0200A47D0200F47D0200682A00200B
:1035540030B50B4C79B10B4A0B49121BD20800232E
:103564009A4201D1002030BD4D88854201F10C0101
:1035740002D00133F4E7034654F83300F3E700BF05
:10358400A47D0200F47D0200682A0020094B013961
:1035940003EBC000032909D8DFE801F00A0204069E
:1035A40004207047007970474079704700207047C5
:1035B40002207047A47D0200034BD3E90030C31AF4
:1035C40058425841704700BF542B00202DE9FF4753
:1035D400FFF7F2FF002840F0E880754EC6F81804A3
:1035E400BFF34F8FD6E9013404EA0302033206EB3A
:1035F4008202117889075ED004EA030203F102080B
:10360400013306EB8202234006EB8303D268DB68B6
:10361400029302F00303022B019261D1BDF806303C
:103624006448C3F389194F46502F28BF502707F128
:10363400080167F38F13C1F30901ADF8063001F0F7
:103644003FFA0546002800F08E8001F068FA002356
:10365400082201A9284601F082FA24EA080201326C
:10366400B7EB820F4FEA820332D9FFB263B304EAA5
:103674000801DCB23F1B03315FFA87FA27464E4C40
:1036840006EB810108233A46284601F068FA3CB16A
:1036940007F10803DBB252462146284601F05FFADF
:1036A40009F1030708EB9707D6F81834002B57D114
:1036B400D6F8104465E051881288C2F3891202EBEF
:1036C4009112013213448FE73B491C469A46D9E7CD
:1036D40004EA0801033108233A4606EB8101DCE7DA
:1036E400012B35D1BDF804303248C3F383110629C8
:1036F40028BF062161F38913023101F00F0189000B
:10370400ADF8043001F0DCF9054660B301F007FAC6
:103714000023082201A9284601F021FA4FF00009EC
:10372400BDF80420C2F383124FEA8903914503F1E3
:10373400080309EB0807B7D204EA0701033104229E
:1037440006EB8101284601F00AFA09F10109E7E7CD
:10375400032B08D1D6F818342BB904B0BDE8F08790
:10376400284601F0E9F9FFF727FF80F00100C0B215
:10377400F3E7637A23B1236829461B6820469847F8
:103784006468002CF5D1284601F0D6F90DF1030048
:103794008DF8034000F0DEFDD6F8183403B97760E5
:1037A4009DF8030000F0FAFDDDE70020D5E700BF37
:1037B400542B0020A47E0200602B00202DE9F34747
:1037C4001F4F04460E46184601A9D7F808809146B3
:1037D4009A46FFF705FEF8B1019D0021AB1C514547
:1037E40001EB030C22D16B1C03EA080307EB8303F0
:1037F400220CDA60A30803F00403E40043F001039D
:1038040004F0380405EA08052343033543EA811329
:1038140043EA862347F8253097F81C341BB1FFF799
:10382400D5FE0028FBD102B0BDE8F0870CEA080CF5
:1038340007EB8C0C59F82120CCF80C200131CEE791
:10384400542B002000231A46FFF7B8BF07B5012305
:10385400019201AAFFF7B2FF03B05DF804FB07B5BC
:10386400CDE9002302236A46FFF7A8FF03B05DF801
:1038740004FB000030B50E4CD4F81024034600209D
:10388400114629B9187242B9C4F810345A6030BDCF
:103894000D7A854205D04968F3E751685960536051
:1038A400F5E701300A28EBD14FF0FF30EFE700BF16
:1038B400542B002038B5074B0125D3F8104483F866
:1038C4001C5404B938BD2368657220465B68984768
:1038D4006468F6E7542B0020C37910B50C467BB915
:1038E400037A23B1084A0949204600F008FE084932
:1038F400204600F004FE2046BDE8104000F0F4BD70
:10390400002AF8D0F3E700BFB87E0200BD7E0200B3
:103914001F84020070B5037A04460D4653B18179C1
:103924008088FFF733FE0B4B0B4953F820202846C1
:1039340000F0E5FDA279094BA08853F8226000212C
:10394400FFF706FE3246034605492846BDE87040A7
:1039540000F0D5BD2C7F0200BD7E0200507F020026
:10396400C07E02002DE9F04385B01F460C9D002364
:1039740095F80C902B73FB7906460C4690461BB9C0
:1039840029463846FFF7C6FFB8F1060F09D8DFE825
:1039940008F00412181F283340003146284600F06E
:1039A400AEFD002229463846FFF796FF85F80C90B5
:1039B40005B0BDE8F08322683146284600F09FFD3B
:1039C400EFE7D4E900233146284600F098FDE8E704
:1039D400A36800933146D4E90023284600F08FFD04
:1039E400DFE7E3680193A36800933146D4E9002339
:1039F400284600F084FDD4E723690293E368019329
:103A0400A36800933146D4E90023284600F077FDEB
:103A1400C7E76369039323690293E3680193A36887
:103A240000933146D4E90023284600F068FDB8E746
:103A340008292DE9F74F80460F4615461C463CD809
:103A440093F80C9000232373D3791BB921461046B5
:103A5400FFF760FFDFF87CA0DFF87CB00026B742F8
:103A64002ED918F806205946204600F048FD0136A4
:103A7400082EF4D11949DFF868A0DFF868B02046B1
:103A840000F03DFD0026B7421FD918F80620019228
:103A9400104603F033FD0028019A594608BF2E2230
:103AA400204600F02CFD0136082EECD101222146DF
:103AB4002846FFF711FF84F80C9003B0BDE8F08F9F
:103AC4005146204600F01BFDD1E75146204600F048
:103AD40016FDE8E7D07E0200CA7E0200D47E020012
:103AE400D27E0200D67E02001FB50021CDE902106D
:103AF40001AA44F20100ADF8041000F003F805B087
:103B04005DF804FB38B5FFF7D5FEFFF75FFD00282D
:103B1400FBD1104D104C28881049000440F00100DE
:103B2400FFF790FED4F8F030DB0700D5FFDE2888DD
:103B34000B49000440F00200FFF784FEBFF34F8FEF
:103B4400E268084B02F4E0621343E360BFF34F8F73
:103B540000BFFDE7682A002000ED00E0647F02005A
:103B6400707F02000400FA0510B58468C268838877
:103B7400121B934208D3C26813400268D154C3682D
:103B84000133C360002010BD0420FCE78268C368D1
:103B94009A420AD08268838813400268D35C0B700F
:103BA400836801338360002070470520704700005C
:103BB4004B1C30B5DB00044612F003009BB20DD160
:103BC400074D2A601A44074B1A60074B1870074BBD
:103BD4001870074B1C80074B198030BD0720FCE789
:103BE4004C30002048300020443000205430002065
:103BF40050300020523000202DE9F347DFF8B08028
:103C0400B8F800308B4206460D4617464CD30024C4
:103C14000DF107008DF8074000F09CFB254B264A68
:103C240026481B78008892F800C084455FFA8CF11E
:103C340038BF4C1CDBB238BFE4B2A3422ED0147898
:103C44001178CBB2884286BF0133DBB200231370F4
:103C54009DF8070000F0A2FB4FF6FF739C4225D0AD
:103C6400DFF85C90D9F800204FEAC40A42F83470B7
:103C740002EBC403AEB1A5B1124BB8F800001B6847
:103C84002A4604FB0030314603F06FFCD9F80030BB
:103C9400534400209D8002B0BDE8F0874FF6FF74C6
:103CA400D6E700209880F6E70920F4E70420F2E73D
:103CB4005030002054300020443000205230002086
:103CC4004C3000204830002070B5104C104D227844
:103CD4002B789A4200D170BD0E480F4A237812689F
:103CE40006880E4802EBC301006852F83320898825
:103CF40003FB060090470A4922780988D3B291420F
:103D040086BF0133DBB200232370E0E75430002088
:103D140044300020503000204C3000204830002037
:103D240052300020094B5A7899780132D2B291422C
:103D340008BF0022197891421FBF027058781822D8
:103D440002FB003014BF04300020704758300020BC
:103D540073B5054600240DF107000E468DF80740A3
:103D640000F0F8FA0DF10600FFF7DCFF90B10670E1
:103D7400094B9DF8062045605A709DF8070000F035
:103D84000DFB24B9054B4FF48012C3F800212046E3
:103D940002B070BD0424F0E75830002000E100E0D8
:103DA400204B21491A682F2300BF00BF00BF00BF6A
:103DB40000BF00BF00BF00BF8A422FD000BF00BFBA
:103DC40000BF00BF00BF00BF00BF00BF00BF00BFF7
:103DD40000BF00BF00BF00BF00BF00BF00BF00BFE7
:103DE40000BF00BF00BF00BF00BF00BF00BF00BFD7
:103DF40000BF00BF00BF00BF00BF00BF00BF00BFC7
:103E040000BF00BF00BF00BF00BF00BF00BF00BFB6
:103E140000BF00BF00BF00BF00BF00BF013BC3D154
:103E2400704700BFFC2A00200024F4000C4B0D480E
:103E34004FF4003210B5C3F8802001244FF48033CE
:103E4400C0F84833C0F808334460FFF7A9FF064BB5
:103E5400846000201860FFF7A3FF044B187010BDA6
:103E640000E100E0001001407431002065310020C1
:103E7400F8B51F4B1F491B680025C1F84051C1F814
:103E84004451C1F84851C1F84C51C1F80051C1F82E
:103E940004514BB3D1F8044517490968641A24F056
:103EA4007F442F461A68A24209D8A41A15441A7CE2
:103EB400DE691AB1D3E905201F749047AEB90F4AE1
:103EC4000F4B11781B788B4205D10133DBB2022BE7
:103ED40008BF0023137012780A4B43F822500A4B90
:103EE4004FF48012C3F80021F8BD3346DAE700BF6F
:103EF400783100200010014074310020713100201D
:103F0400703100206831002000E100E02DE9F74F16
:103F1400A84AA94913780978A84C99423BD001339F
:103F2400DBB2022B08BF00231370A5491278A54BFE
:103F34000F6853F822003B1823F07F4300220B60E4
:103F4400236815461646944613B942B1236006E029
:103F5400196881420DD902B12360091A196001263A
:103F64002368DFF8649200930027BDB9DFF85CA2F0
:103F740067E0401A0E44D968D3F81CE0C3F800C0C7
:103F840031B1BA1922F07F42C3E90121DD611D4636
:103F940073460122D8E700252E46E1E72846ED695D
:103FA400874BD0F804C01B68DFF824E28168ACEBCF
:103FB400030222F07F42724500F2AC800A440260A0
:103FC4000122027422680023C0E90133C361002A7C
:103FD40040F0AA802060C8E75A1C9AF80210D4F86E
:103FE40000B0D2B291428AF8002004BF00228AF8BD
:103FF4000020182202FB03A31A799868022A76D0BB
:10400400032A00F08480012A1BD190F810C0BCF16F
:10401400000F16D1D3E9031282605A69C2609A690B
:104024006C4B82611A78002A18BF61464160B7E779
:10403400904200F09E809046D269002AF8D1002375
:1040440003749AF800309AF801209A42C4D1236884
:1040540027B9009A9A4201D1002E42D0002B00F0D9
:104064008580D3F80090584C554BD4F804651868F3
:10407400594F351A3B7825F07F4503359BB94FF4EA
:104084008033C4F84433C4F80433544B4FF400323F
:104094004FF00108C3F880211A60C4F80080FFF7CC
:1040A4007FFE87F80080A9452CBF4844401920F0C2
:1040B4007F40C4F84005D4F804359B1B23F07F43AC
:1040C400801B033320F07F4083420AD9D4F804359F
:1040D400C4F84035FFF764FE404B4FF40032C3F898
:1040E40000213C4B00221A7003B0BDE8F08F5A4601
:1040F400D846A2E78BF81020DBF81CB00123BBF1F3
:10410400000FF7D1002B9CD0C4F800B099E700232E
:104114001A46F4E7A3EB0C0323F07F438B4234BF2E
:10412400CB1A002303604BE70168136899421BD83C
:104134005B1A1360C2614DE7A1EB0C01D3F81CC0FC
:104144001A46BCF1000F0AD06346D3F800C08C4570
:10415400F2D3ACEB010CC3F800C09C4613460160DB
:10416400C0F81CC0D86100E71346EEE7FFF75EFE17
:10417400B7E7404510D1DBF81C30236063B9DFF8A2
:1041840040E001920121C9F80810CEF80030114B2B
:104194001970FFF705FE019A1368D269C8F81C204C
:1041A40012B111680B44136023685B4518BF0127E3
:1041B40045E700BF703100207131002078310020C4
:1041C4007431002068310020001001405830002074
:1041D400FEFF7F00643100206531002000E100E033
:1041E40008B5FFF723FE104B00200B2218809A70AD
:1041F4000E4B18600E4B18700E4B18700E4B4FF48C
:104204008012E021C3F8802183F814131A6002F1AC
:104214008042A2F56F22C2F8080583F81113074BF8
:10422400D2F804251A6008BD5830002078310020E7
:10423400703100207131002000E100E07431002071
:10424400074B9B784BB132B128B10368187C20B975
:1042540059745A617047072070470820704700BF9F
:10426400583000202DE9F743DFF87C8098F80230BD
:1042740005460E461746ABB3A0B3042930D94369AB
:1042840083B3437C0024012B0DF107000CBF894646
:10429400A1468DF8074000F05DF80DF10600FFF728
:1042A40041FDD8B101230370104B4560D3F80435A8
:1042B400C0E90497C0E902369DF8063088F8013059
:1042C4009DF8070000F06AF824B9094B4FF48012F6
:1042D400C3F80021204603B0BDE8F0830424EFE7CF
:1042E4000724F7E70824F5E75830002000100140C0
:1042F40000E100E0064A92783AB130B1426922B155
:10430400002202740221FFF723BD0820704700BF7A
:104314005830002010B501460B48FFF725FC044631
:1043240078B90A4800F036FF58B909490648FFF73A
:104334002DFC30B9BDE8104005490448012200F0C5
:1043440035BF204610BD00BF7C310020EC2A002080
:104354008C31002070B5EFF3108672B60C4A946865
:1043640001239CB993600B4B0B4DD3F8801029406B
:104374001160C3F88050D3F8841051604FF0FF32BD
:10438400C3F88420047006B962B670BD0370FAE7FE
:104394009031002000E100E0FC06FFBD084B9A6864
:1043A40010B55AB150B9EFF3108172B6054A1C68C2
:1043B40014605C685460986001B962B610BD00BFB7
:1043C4009031002000E100E037B550E8023F1FFAC9
:1043D400A3F5C488A54202BFBFF32F8F00220DE0CE
:1043E400C48925448489A54228BF2D1BC3EA0545F9
:1043F40040E80254002CE8D14FF001028DF803206C
:104404000193019A0A609DF8031001F0FF0321B1A2
:10441400006800EB124003B030BD1846FBE70A8881
:104424004B889A4209D150E8022FC2EA224240E85E
:104434000223002BF7D1012070470020704710B5EC
:1044440090B1D0E9012301689B1ADBB20A60013BF9
:10445400DBB2FF2B026802D10020107110BD11687D
:104464004C1C14600B70F2E70E20F7E737B50546D5
:1044740000240DF107008DF80740FFF76BFF2A6851
:104484006B68116899420ED9481E106011F8013CFE
:10449400EC68298A01FB0344AB6811791B1ADBB26F
:1044A400994238BF13719DF80700FFF777FF204644
:1044B40003B030BD37B5054600230DF107000C46A7
:1044C4008DF80730FFF746FF2A681368591C1160FE
:1044D400E968641A298AB4FBF1F41C709DF807009A
:1044E400FFF75CFF03B030BD826810B504462AB103
:1044F40043690168006998470023A36010BD0EB4A6
:1045040003B5039921B104AB01AA019300F06EF83D
:1045140002B05DF804EB03B07047826830B40468FD
:10452400551C8560A154D0E901329A4202D330BCB3
:10453400FFF7DABF30BC70472DE9F84F9846DDE944
:104544000A43154682460F460A464FF00109AA421D
:104554000FD2C14538BFC14613F0010B01D16CB96C
:1045640000240126B8F1010F1BD908F1FF386E436E
:10457400F8E709F10109B2FBF5F2E8E79B070ED56C
:10458400B8F1000F0CBF30262026A145E9D2013C2A
:1045940031465046FFF7C1FF002CF6D1E0E7202654
:1045A400F3E7B7FBF6F39D42E1D9DFF83C80B7FBB4
:1045B400F6F3504618F8031006FB1377FFF7ADFF28
:1045C4003346AB42B6FBF5F6F1D2BBF1000F02D095
:1045D4000CB1A14501D3BDE8F88F20215046013C20
:1045E400FFF79BFFF4E700BF847F02002DE9F74F3C
:1045F400054617468846002900F03E8118F8011B3D
:1046040049B92B7B002B00F03781284603B0BDE865
:10461400F04FFFF769BF252940F0B780002698F8CE
:1046240000302D2B424608F1010823D0302B24D032
:104634002B2B25D000242A2B02F1010123D13B6826
:104644001A1D1B683A601C440A4613782E2B26D187
:1046540001324FF0000A104610F8011BA1F1300C92
:10466400BCF1090F1DD80A2303FB0A13A3F1300A76
:104674000246F0E746F00106D1E746F00206CEE72F
:1046840046F00406CBE711F8013CA3F130000928F9
:10469400DBD80A2202FB0434303C0A46CBE74FF055
:1046A400000A12F8011B01F0FB0068289046F8D0BC
:1046B400782909D86F290CD8632962D022D82529F2
:1046C40063D0582900F0888098F80030002B95D1E9
:1046D40097E770390829F7D801A353F821F000BFF0
:1046E40057480200CD460200CD460200ED470200C5
:1046F400CD460200CB470200CD460200CD46020063
:10470400DD470200642901D06929DDD13A68D2F875
:104714000090111D89EAE9723960A2EBE9724FF049
:10472400010B092A35DCD34538BFD3462CB1B9F186
:10473400000F01DB720700D5013CB30702D5BAF1C3
:10474400000F03D0F00701D44CBB0024B9F1000FD3
:104754002DDAC9F100092D212846FFF7DEFE06F007
:104764000302022A04D1BAF1000F01D11CBB0024B8
:10477400CDE9004653460A2249462846FFF7DCFEA7
:10478400A2E73B681A1D19783A602846FFF7C5FE70
:104794009AE70A230BF1010BB2FBF3F2C1E7A3453D
:1047A400D4D220212846013CFFF7B7FECCE771079D
:1047B400D5D52B21D0E7A345DAD230212846013CB8
:1047C400FFF7ABFED2E73968CDE900460A1D3A602F
:1047D40053460A220968D0E739680A1D3A60CDE9D0
:1047E400004653461022F5E73B681A1D3A6016F05E
:1047F4000106D3F8009024D1B9F1000F03D0484644
:1048040002F031FF0646B4421DD809F1FF3919F808
:10481400011F00293FF458AF2846FFF77EFEF6E754
:1048240028460136FFF779FE19F806100029F7D15A
:10483400A642BFF449AF20212846013CFFF76DFE94
:10484400F6E70026F0E720212846013CFFF765FE45
:10485400D9E73B681A1D3A60302128461C68FFF7E7
:104864005CFE78212846FFF758FE00220823CDE994
:1048740000322146102280E703B0BDE8F08F00BF6C
:1048840070B550B90E4D0F4C0026641B1423B4FBB5
:10489400F3F4B44208D1002010E00368002BF1D0F7
:1048A400BDE87040DB6918472B6813B9013614352D
:1048B400EFE7DB69284698470028F7D070BD00BFB2
:1048C400E02A0020E02A002029DF704728DF704713
:1048D40070B503689E6886B004460D466EB110221A
:1048E400002101A802F06AFEA368059323790295CA
:1048F4002BB1012B0BD001A8B04706B070BD01232A
:104904008DF804302369039363690493F3E7022366
:104914008DF80430E3681B03F5E70000034B187AB5
:104924000122B0FA80F05A7440097047AC3100207B
:1049340038B5254C237A012B05D0022B42D102280D
:1049440008D0032831D0637C002B37D1BDE8384030
:1049540000F042B81D4B00221B68E2601A793AB19C
:10496400012AF0D11A6901321A615B699A420AE09C
:10497400D3E905128D1AB5F5805F94BF521902F57B
:1049840080529A619142DED102284FF0000308BFA1
:10499400194623720D4B18BF0D211868FFF798FFB5
:1049A4000B490C48FFF73BFDCDE7E3680133082BC7
:1049B40001D8E360C7E70023E360E5E7BDE83840DA
:1049C40002F028BB38BD00BFAC310020C431002048
:1049D400C03100209C31002038B5214D214C2B7A68
:1049E4003BB921492148FFF7EFFC206008B9686012
:1049F40038BD022324682B7223794BB1012B20D0BC
:104A040003212046FFF764FF00232B726B60EFE75E
:104A1400D4E90523D21AB2F5805FD4E9031028BF84
:104A24004FF480529208012A38BF012219441844D5
:104A3400FFF74AFF014650B11128E1D101232B723F
:104A4400D6E7D4E903031844FFF740FFF2E72B7CD1
:104A5400002BCDD1BDE838400220FFF769BF00BF6D
:104A6400AC310020C4310020C03100209C31002032
:104A740000F0FD03012B08D1044B00225A74421E9E
:104A8400504250411874FFF7A7BF7047AC31002063
:104A9400FFF7D5BCF8B546790146721E05460023DA
:104AA40093422D6803D30024A64202D8F8BD0133F3
:104AB400F6E70F682846FFF7FDFC01343946F3E7B3
:104AC4002DE9F843068ACD1C0746FFF7CFFC043EC8
:104AD40035440446B5FBF6F5F0B14FF48073EDB2FE
:104AE4008380C680013D076081464FF00008A845D9
:104AF40012D23846FFF7BAFC064648B1637901334F
:104B0400637108F10108C9F8000007608146EEE707
:104B14002046FFF7BFFF34462046BDE8F88310B5B2
:104B24000430012350E8002F02EB030140E8001495
:104B340094F0000FF6D110BD30B4031D012153E8E9
:104B4400004FA4EB010243E8002595F0000FF6D1D5
:104B5400D2B212B930BCFFF79DBF30BC70472DE90B
:104B6400F843B0F8068004330546B3FBF8F40F4667
:104B7400164608FB14333CB9A8EB0309B14528BF1A
:104B8400B14626B9BDE8F8832D68013CF3E7043348
:104B9400E818A6EB09064A46391902F0E6FCB045C6
:104BA4004C442D68C1464FF0000328BFB146E8E7E6
:104BB4002DE9F843B0F8068004330546B3FBF8F456
:104BC4000F46164608FB14333CB9A8EB0309B1455C
:104BD40028BFB14626B9BDE8F8832D68013CF3E748
:104BE4000433E918A6EB09064A46381902F0BDFC5D
:104BF400B0454C442D68C1464FF0000328BFB14670
:104C0400E8E70B684A684360934208BF00230160E9
:104C140008BF43607047436843B1026891685268B3
:104C24000B449342436004BF002343607047000079
:104C340010B50D49A1F1F002914201D800200FE016
:104C44008C1AE30F03EBE4035B1002EBC30452F88A
:104C54003330834205D802D204F10802ECE76068DD
:104C640010BD2146E8E700BF8883020008B5FFF7BE
:104C7400DFFF024B002808BF184608BD84820200EB
:104C840010B502460023012101FA03F4144298B23C
:104C940004D10133202BF7D14FF6FF7010BD70B54E
:104CA4009DF81050A0B199B192B1002430F814606D
:104CB4009E4210D1012303FA04F4E04301EB820283
:104CC40051F8043B2DB123438A4241F8043CF7D107
:104CD40070BD0340F8E70134202CE7D1F8E707B5AD
:104CE400009313460122FFF7DAFF03B05DF804FBDB
:104CF400F0B599B100231C46012505FA04F61642C5
:104D04001EBF00EB430631F81470B78004F10104B0
:104D140018BF0133202CF0D10360F0BD0B46FBE734
:104D2400054A4FF0A043105CD3F8043523FA00F091
:104D3400C04300F00100704788830200044B1A5CF2
:104D4400012393404FF0A042C2F80C35704700BFD6
:104D540088830200044B1A5C012393404FF0A04265
:104D6400C2F80835704700BF8883020008B50020E8
:104D7400FFF7F0FF0120FFF7EDFFBDE80840022038
:104D8400FFF7E8BF08B50020FFF7D8FF0120FFF7C1
:104D9400D5FFBDE808400220FFF7D0BF074A4FF017
:104DA400A041105CD1F804350122824022EA0300BC
:104DB4001340C1F80805C1F80C3570478883020018
:104DC4004FF0A0430322C3F87027C3F86427C3F845
:104DD4007027FFF7CBBF00004FF080420123D36060
:104DE400D2F81834C3F30041DB03F9D4014B9970B2
:104DF400704700BFC831002038B5074C051E04F1C8
:104E0400080318BF1C4623682BB11A6822605B682C
:104E140028469847F7E738BDD031002008B9FFF796
:104E2400EBBF704710B50E4C2378BBB96360A36029
:104E3400E36023610B4B186810F0010002D10721D5
:104E440000F08CF802F0F6F820B94FF0804301220C
:104E5400C3F8182501232370002010BD8520FCE72A
:104E6400C831002000E100E007B500230DF1070080
:104E74008DF80730FFF76EFA074BDA68013ADA600B
:104E8400DB680BB9FFF7A8FF9DF80700FFF786FA68
:104E940003B05DF804FB00BFC8310020012813B53E
:104EA40008D003281CD018B9124B0122C3F8802063
:104EB40002B010BD104C00230DF107008DF807302F
:104EC400FFF748FA23780BB9FFF7ACFFE3689DF8C6
:104ED40007000133E3600123A370FFF75FFAE7E7FC
:104EE4000721002000F03AF802B0BDE81040FFF7B7
:104EF400BBBF00BF00E100E0C83100204FF0804399
:104F040007B5D3F800216AB10020C3F80001D3F833
:104F140000210092009A0122C3F808230E4B5A7014
:104F2400FFF76AFF4FF08043D3F804218AB10022CF
:104F3400C3F80421D3F804210192019A0222C3F890
:104F44000823054B0120987003B05DF804EBFFF7CC
:104F540053BF03B05DF804FBC8310020002810B52E
:104F6400C3B2A8BF00F160424FEA5010BABF0D4A65
:104F740003F00F0402F561424FEA41114FEA800049
:104F8400C9B200F16040B4BF115582F8001300F5B6
:104F9400614003F01F0201239340C0F88031036095
:104FA40010BD00BF14ED00E000F1804000F5C040EA
:104FB400002382B0036003680193019B02B0704731
:104FC400800000F1A040D0F8002722F44032C0F85D
:104FD4000027D0F8003743EA0143C0F80037704790
:104FE4002DE9F04F87B000245A4D03944FF480729A
:104FF400012102F1804303F5C04390B21B68012BE9
:1050040006D1D5F804330B4202D0FFF7CDFF0C4391
:105014000432B2F5907F4FEA4101EAD14D4BD3F807
:105024007C31012B0AD14FF4BE70FFF7BDFF4FF066
:10503400A04344F00044D3F810350393E3B2D3B152
:10504400454F00250126344210D0AB0003F18043C4
:1050540003F5C043D3F81005D3F8101557F82530DD
:1050640023B1C1F30141C0F3042098470135082D51
:105074004FEA4606E7D1002C65DA00214FF0FF33F2
:10508400CDE90413344D01274FF0000A334ED146C5
:105094004FF0A04816F9013B5A1C45D0C3F3C20196
:1050A40006AA5018DCB210F8042C03F03F0B03F0EE
:1050B400070307FA03F31A4236D005EB0B02A409DF
:1050C40092F9302055F8222052B9032C2CD10DF13D
:1050D400100E1EF801C04CEA030C0EF801C001E0EA
:1050E400032CF4D00BF5E07110F80C0C58F82110D7
:1050F4001842C1F3014105D0022915D1032C0FD167
:10510400214604E003290FD1032C09D1022158467A
:10511400019209F10109FFF753FF019A5FFA89F936
:1051240012B12146584690470AF1010ABAF1040F18
:10513400B0D1B9F1000F06D04FF0A043039AD3F8D1
:105144001035934202D107B0BDE8F08F0393049B5E
:10515400059399E700600040DC3100202C320020E8
:105164000023435082B043580193019B02B070471F
:105174001FB501238DF80030054B8DF8080001910F
:105184006846D3E90012904705B05DF804FB00BF00
:10519400343200200279044B1C2101FB0233987D38
:1051A400003818BF01207047343200202DE9F8433D
:1051B40001F06043B3F1005F06468846914636D15C
:1051C400FFF7E8FF0446002833D132791B4F1C2532
:1051D40005FB02754FF49071A88285F8169030682B
:1051E400C5F80880FFF7BCFF30684FF4AC71FFF7D7
:1051F400B7FF3368A97DA868C3F84405C3F8481508
:10520400012199606968B1B9D3F82011D3F8580124
:1052140049B90028F8D00F201C2303FB0277002390
:10522400BB75BDE8F883002818BF0F20F4E71020F1
:10523400F7E71120F5E72046F3E700BF34320020FA
:105244007FB5384AD2F82461002E48D010464FF476
:105254009271FFF785FF02238DF80030D2F8803475
:10526400C2F880340393D2F83C358DF808302E4BC5
:10527400DA6801920022DA751A766846D3E90012D8
:1052840090472848D0F8443173B14FF4A271FFF726
:1052940067FF254BDA7D3AB10022DA75D0F83C0578
:1052A400D968C0B2FFF764FF1E48D0F82031A3B11B
:1052B4004FF49071FFF754FF1B4B9A7D6AB1D0F8FD
:1052C4004C158DF80810002299688DF80020019182
:1052D4009A756846D3E90012904704B070BDD2F8BD
:1052E4001031002BCDD04FF488711046FFF738FFF2
:1052F4000D4BD2F83C15D87DC9B28842C1D11C7E71
:10530400D96864B1D2F8005225F02005C2F80052E1
:105314001A69DC75DA601E76FFF72AFFB1E7DC75DF
:10532400FAE700BF00200040343200200220FFF7DB
:1053340035BD000008B5074B1B783BB10020FFF7D3
:1053440009FDBDE808400120FFF704BDBDE80840A1
:10535400FFF70CBD50320020F8B5784C2378054691
:105364001BB100232370FFF7E5FF172D00F28380A4
:10537400DFE805F00C13133E4F60717B838883884C
:10538400909595959595BFC4CCD4DFDFFFF7D2FFF8
:105394006B4B00241C702046F8BD0020FFF7C0FCB6
:1053A400F0B10020FFF7D6FC022D0CBF4FF4E164EE
:1053B4004FF47A64624B1D7000254FF400464FF49D
:1053C400FA7029464FF47A720023E4FB060101F0D7
:1053D4009FFF2A460146BDE8F8405A48FEF742BFFF
:1053E400FFF7ACFC022D0CBFC8244FF4C874E1E7EE
:1053F4000020FFF795FC40B10020FFF7ABFC4FF411
:1054040048744F4B03221A70D6E7FFF797FCC82461
:10541400F7E70020FFF784FC38B10020FFF79AFC7F
:105424004FF47A64464B0422EDE7FFF787FC4FF410
:10543400C874F7E70020FFF773FC48B10020FFF7BA
:1054440089FC3F4B05221A7041F69A110022C2E7EB
:10545400FFF774FCF5E70020FFF7A0FC384B0622A9
:105464001A70002240F6CD41B5E70020FFF766FC34
:10547400334B07221A7000248DE701202070FFF7B8
:105484008DFCEEE701202070FFF788FC00224FF42A
:105494008041A0E7FFF776FC294B0C22EAE72A4873
:1054A4002A4EFEF727FFD5F1110504461CD0D8B9C2
:1054B400012D13D0C820454321464FF400474FF433
:1054C400FA704FF47A720023C5FB070101F020FF44
:1054D400224601461C48FEF7C5FE04460220FFF79B
:1054E4002DFC0123337056E70220FFF733FC002321
:1054F400F8E7FFF71FFF124B1222BBE7FFF71AFF73
:105504000020FFF71BFC0E4B1322B3E7FFF712FF3B
:105514000120FFF713FC0A4B1422ABE7FFF70AFF45
:105524000020FFF70BFC0120FFF708FC044B1522B9
:10553400A0E7FFF727FC024B1D709CE778320020A0
:105544009C3200207C320020543200205032002053
:10555400044B1B68DB0703D5034B1878FFF7FCBE2D
:10556400704700BF743200209C320020044B1B683B
:1055740013F0010301D0FFF7EFBE1846704700BFD8
:105584007432002008B50A4B1860C30701D5FFF731
:1055940017FC084A08480021FEF752FE30B9BDE85E
:1055A4000840064A06480121FEF74ABE08BD00BF6E
:1055B4007432002055550200A483020031530200C6
:1055C400A0830200072070470620704708B5012217
:1055D40002210020FFF7F6FF08B1072810D10722A7
:1055E40002210020FFF7EEFF08B1072808D10021AF
:1055F4000A220846FFF7E6FF10B1072808BF00207B
:1056040008BD00000388102B10B502D0112B1ED04A
:1056140010BD1A4C2168B1B901220846FFF7D2FF28
:1056240008B1072824D1072202210020FFF7CAFF6E
:1056340008B107281CD1042202210020FFF7C2FF71
:1056440008B1072814D1236801332360E0E70B4A2B
:105654001368013B1360002BDAD1FFF7B7FF002872
:10566400D6D0074B1B68002BD2D0BDE8104018479A
:10567400034B1B68002BE6D09847E4E7A4320020D4
:10568400A032002008B50020FFF79EFF08B10628CD
:1056940006D10020FFF798FF10B1062808BF0020AC
:1056A40008BD76DF70477ADF70477CDF70477FDFA5
:1056B40070478FDF704790DF7047A8DF7047A9DF1E
:1056C400704766DF704732DF70473EDF7047FEF792
:1056D4000BBA08B50020FFF749FF08B1FEF704FA3A
:1056E400FFF7D0FF08B1FEF7FFF9FFF7ECFF18B1A1
:1056F400BDE80840FEF7F8B908BD00000021024AE1
:105704000846FEF779BA00BF355902001FB5038871
:10571400232B044670D01AD8112B50D005D8012B56
:105724007DD0102B36D004B010BD132B56D0212BB6
:10573400F9D1002380888DF8003069468DF8013056
:10574400FFF7B7FF0028EED0FEF7CEF9EBE7522BB8
:105754005DD018D83B2B18D0512BE4D18379002B82
:10576400E1D0827B043A022ADDD8022B18BF012340
:105774008DF8003069464FF4C1738088ADF8043069
:10578400FFF79BFFDEE7562BCDD1A0881321FFF74F
:1057940088FF2AE0244B25491888000440F00300C0
:1057A400FEF750F8224B012207201A70FFF7DEFEA5
:1057B40008B1FEF799F9A2881E4B1A80B3E71A4B79
:1057C4001D491888000440F00300FEF73BF8184B0D
:1057D40000221A70174B4FF6FF72EEE715480023AC
:1057E40000881A468521FFF762FF00289BD004B089
:1057F400BDE81040FEF778B908220021684601F0A0
:10580400DDFEA08800226946FFF755FF9AE70948A4
:1058140000231A4619460088FFF751FFE5E70021E7
:105824008088FFF74EFFE0E7682A0020A883020083
:105834000C330020FA2A0020B283020008B5037852
:105844004BB9054B3B211888FFF72BFF18B1BDE876
:105854000840FEF749B908BDFA2A0020072808B510
:1058640013D00A280DD0042819D10D4B1321188800
:10587400FFF717FF30F0080311D0BDE80840FEF72A
:1058840033B9BDE80840FFF724BF054B1A884FF62B
:10589400FF739A4203D1034800F07CFEEAE708BD97
:1058A400FA2A00201033002008B548B103280BD190
:1058B4000220FFF75BFE38B1BDE80840FEF714B9DB
:1058C400BDE80840FFF705BF08BD00002DE9F04121
:1058D400047805461CB3BDE8F081AB68185DFEF79B
:1058E40019FD064660B11128F7D03888000440F04D
:1058F400010032464146FDF7A9FF3046FEF7F4F8B1
:105904000134AA899442E8D3AB68134413F8013CE8
:105914000D2BE0D10A20FEF7FDFC1128F9E7024F18
:10592400DFF80880EDE700BF682A0020BF8302008B
:10593400084B1B7863B14FF0A042D2F80435D94329
:1059440001F0007103F00073C2F80815C2F80C35B9
:10595400704700BF0C3300200C4B4A881B889A42C6
:1059640012D10A8840F677239A420DD18B88084ACF
:105974000849033B9BB21380074A108800041A4667
:1059840040F00300FDF76BBF704700BFFA2A002008
:10599400F82A0020EA830200682A002008B5084992
:1059A400084800F0D9FF08B1FEF79EF805484021E9
:1059B40000F0E6FF18B1BDE80840FEF795B808BD51
:1059C4005D590200E833002000B5ABB0FEF708FCD7
:1059D40008B1FEF789F80020FDF790FD08B1FEF745
:1059E40083F8FDF7EFFC64490120FFF7CBFD08B114
:1059F400FEF77AF801F0B2FA08B1FEF775F8002361
:105A040002A90120029301F05FFB08B1FEF76CF8D4
:105A140002A801F021FC08B1FEF766F811235748EB
:105A24008DF8043001F01FFE544982B201A8FFF73B
:105A34003CFE08B1FEF758F8082200210DEB0200E5
:105A440001F0BCFD1023ADF808303C23ADF80A305A
:105A54000023ADF80C3002A84FF4C873ADF80E3033
:105A6400FFF721FE08B1FEF73FF8FFF797FF00218B
:105A7400042202A801F0A2FD414B4248029302A96C
:105A840001F03EF908B1FEF72FF8A022002102A888
:105A940001F094FD02238DF808304FF4A0633A4AD4
:105AA400ADF80A300123ADF8543016928DF88430E5
:105AB4004022B423CDE924233448354B289302A94A
:105AC40000F09FFB08B1FEF70FF83048012100F009
:105AD40095FB1C22002102A801F070FD00234FF465
:105AE4002032CDE90232ADF816304FF470228DF831
:105AF4001830284B049207930322274B8DF8142067
:105B040002A8089300F064FE08B1FDF7EDFF2348F6
:105B140001F0FAFC224B23491888000440F00300EA
:105B2400FDF790FE1948032100F009FC08B1FDF7C8
:105B3400DBFF1D4A0A210120FEF73AF808B1FDF700
:105B4400D3FF1A4A1A480121FEF77AFB19480022AA
:105B540041F69A11FEF786FBFDF738FDFEF7B4F81F
:105B6400FDF734FD0028F7D1FFF7AFFD0028F3D08F
:105B7400FDF7BAFFF0E700BF615802000684020097
:105B8400D1580200FC330020F42A002010330020F6
:105B9400AD58020041580200D3560200128402009C
:105BA400682A002022840200A83200200157020043
:105BB40030840200183400200369C26893429CBFF9
:105BC40080681B18013B981A70472DE9F843D0E907
:105BD40002940546A9EB04084068904520440F460A
:105BE400144404D901F0C1FCEC60BDE8F8834246DA
:105BF400A4EB090401F0B9FC6868224607EB08012C
:105C0400F0E72DE9F843C5680646894617464FF084
:105C140000083469B3687068A54228BFE418013CE1
:105C2400621B5C1BBC4228BF3C46944228BF1446FE
:105C340049462844224601F098FCB3682544AB4207
:105C440008BF00253F1BA044A144F560E1D14046B4
:105C5400BDE8F88310B5114C114AA2610223C4E9CE
:105C64000433104BE361A2644FF400730E4A0F49EE
:105C74002362E26400231022E01DA3626362E362F4
:105C8400A3656365E365226501F0CBFC0849204602
:105C940001F0C7FC2023A37110BD00BF38340020DD
:105CA40034840200C0340020B03400203D8402005B
:105CB4004184020070B5164B182400FB04451D44B2
:105CC40004FB00331646DC6A012C0ED0022C18D0DB
:105CD400E4B92846FFF770FF864204D832462846C6
:105CE400FFF773FF3446204670BD2846FFF764FF74
:105CF4008642344628BF044622462846FFF765FFFD
:105D0400F1E72846BDE87040FFF77BBF0024EAE7CF
:105D140038340020FFF79EBF6DDF704772DF704795
:105D240079DF70477DDF704764DF70472DE9F04FFE
:105D340085B000250E9CBDF83CB0B4F800A00191DC
:105D4400074690461E46A9463A884A450DDC45B1A9
:105D54002388013BA3EB0A039BB2FF2B3AD806F836
:105D64000A30002005B0BDE8F08F7A6852F82900A7
:105D7400039000220DF10B0103A8FFF7D5FF0028C3
:105D8400F0D19DF80B20424521D12288002D14BF6B
:105D94000020022002EB0801014459451ADC3DB9F8
:105DA400013292B2019B2280B354228801322280B4
:105DB40022880DF10B01324403A8FFF7B5FF002838
:105DC400D0D121889DF80B200A442280012509F1B5
:105DD4000109B9E70C20C5E72DE9F341089FBDF897
:105DE40024801546CDE90078022204461E46FFF7BA
:105DF4009DFF50B93346102229462046CDE9087844
:105E040002B0BDE8F041FFF791BF02B0BDE8F081F8
:105E14002DE9F04F00231788138090F82D3085B0BA
:105E240006460D46144653B3082F01D80C204DE105
:105E340002A8FFF771FF002840F048812388082258
:105E4400EA54238801339BB21B222380EA5420881E
:105E5400013080B2208006220DF10901284401F0AE
:105E640084FB23889DF8082006339BB212F0FE02BF
:105E740018BF01222380EA54238801332380B37896
:105E8400FBB123880433BB42D0D802A8FFF748FFF4
:105E9400002840F01B8123880322EA54238801331D
:105EA4009BB219222380EA542388BDF808200133C9
:105EB4009BB2E9182380EA54120A4A7023880233F9
:105EC4002380F2789AB12388D91CB942AED8022132
:105ED400E954238801339BB201212380E9542388A8
:105EE4000B449BB22380EA5423880B4423807268BA
:105EF400AAB12388D91CB94298D8022192F900206A
:105F0400E954238801339BB20A212380E95423886E
:105F140001339BB22380EA542388013323803389DD
:105F2400002B40F0C780338A5BB1CDE900472B4694
:105F34000722032106F11000FFF74EFF002840F06E
:105F4400C580338B5BB1CDE900472B461522142164
:105F540006F11800FFF740FF002840F0B780326ACE
:105F6400002A40F0B680D6F82480B8F1000F31D072
:105F7400B8F804302188981C8A1C0244BA423FF6BF
:105F840055AFFE283FF652AF03336B5423880133D9
:105F94009BB2FF222380EA54238801339BB22380DF
:105FA400B8F80020EA54E918120A4A70208802302E
:105FB40080B22080B8F8042062B1D8F80810002913
:105FC40000F09180284401F0D0FA2388B8F8042026
:105FD4001344238096F82C30002B43D0B36A002B53
:105FE40000F081804FF000084FF00C0A4FF0160BC0
:105FF400B16A5FFA88F20AFB02F201EB0209B9F80E
:106004000430981CFE283FF611AF208803332B542C
:10601400238801339BB2238005F803B0238801331E
:106024009BB223808A5AEA54E918120A4A702088DB
:10603400023080B22080B9F804205AB1D9F808108F
:10604400002950D0284401F090FA2388B9F804209C
:106054001344238096F82C2008F101085FFA88F392
:106064009A42C5D8307888B33388012B3BD0228834
:1060740002F1020CBC453FF6D9AE012805D1737874
:10608400023313449F42FFF4D1AE023FBF1ABFB2A2
:1060940002A905EB0C00ADF80870FFF743FEA8B9A0
:1060A4003378022B58D1BDF80830BB426DD9ADF816
:1060B400087058E0CDE900472B460622022106F17C
:1060C4000800FFF789FE00283FF42DAF05B0BDE8B6
:1060D400F08FB4F800C00CF10603BB423FF6A6AE45
:1060E4001188052901D80720F0E76FF4486E01EB09
:1060F4000E039BB24FF27D3E7345F4D95388052BB2
:10610400F1D96FF44860181880B27045EBD94FF696
:10611400FF70814201D09942E5D8052305F80C307F
:10612400238801339BB212212380E954238801334D
:106134009BB223801188E954E818090A4170238826
:1061440002339BB223805288EA54E918120A4A7037
:1061540023880233238006E7012BA8D173789F425A
:10616400A5D3ADF808300821BDF80830FE2B3FF662
:106174005DAE22880133AB542288013292B2228070
:10618400A954228813442380A0E70921ECE730B501
:1061940093B01F230D46ADF80430ADF80630044625
:1061A40010B3C3785B0702D4072013B030BD01AA33
:1061B40002A9FFF72DFE0028F7D102ACBDB1EB78A0
:1061C400002BF1D10DF106020AA92846FFF720FEA3
:1061D4000028EAD10AAD9DF806309DF804102A463D
:1061E4002046FFF79BFDE0E7ADF80400E6E7ADF8D5
:1061F4000650F0E773DF704774DF704780F82410AF
:106204007047F8B504460D46002900F09680002832
:1062140000F093800026C670012301F1780C03700E
:10622400071DBCE80F000FC79CE80F0087E80F00AC
:1062340084F82460D5F89830C4F8CC30D5F89C3074
:10624400C4F8D0304FF6FF73A4F8C83007223146A3
:1062540004F1250004F1300701F0B0F93C22314685
:10626400384601F0ABF92B7884F83030AB7884F8F9
:106274003230EB7884F833306B7884F83130D5E9F8
:10628400040104F1400383E80300D5E9020104F1A9
:10629400380383E80300D5E9060104F148036A6A78
:1062A40083E8030095F82D3084F85D30B2B9A96A0B
:1062B40041BB2B6A43B104F1C40222655A881B888E
:1062C400A4F8C620A4F8C4306B6803B1636305F175
:1062D4003C013846BDE8F840FFF759BF1188A4F8DF
:1062E4006C1004F16C039188636504F178036367AF
:1062F400A4F87010B142DAD99068805D03F8010BFC
:106304000136F7E704F198028888A26504F1A40332
:106314000A88A4F89820C4F8A030A4F89C000022AD
:10632400904204D895F82C3084F85C30C1E78E682C
:10633400B65C03F8016B0132F2E70E20F8BDF0B54C
:10634400067885B004460D46002E00F0D780C17053
:106354000020FEF795FA014620B101236370002066
:1063640005B0F0BD04F125070722384601F026F9EF
:10637400E38813B1E378012B04D0E37953B1E378D4
:10638400022B07D1D4F8CC30ABB1012284F82C20F5
:106394000820984704F1260304F12C0113F8012B7B
:1063A40012B99942FAD116466B1E032B38D8DFE88E
:1063B40003F005080B0D84F82C30EBE7A37903B147
:1063C4004EB9E37903B16EBB237A6BBB637A002BBE
:1063D4000CBF00250425D4F8CC30E57033B3033D5D
:1063E400012D23D862790AB394F8D420F2B984F841
:1063F400D620012284F8D5200720984710220021B6
:10640400684601F0DBF8E27800238DF800308DF85F
:106414000830042A18D8DFE802F0470D212C4B007D
:106424000025D8E70225D6E70325D4E7002384F81E
:10643400D530E3E70123A3708DF8003000230197E2
:10644400ADF80C30ADF80A30E378002B4ED1D4F817
:10645400CC30002B83D0A078984780E70223A37028
:1064640001238DF800302369ADF80C300197E368FF
:10647400E8E76369ADF80A30A369ADF80C306379D5
:10648400A3B194F8D41089B994F8D63073B1022327
:106494008DF80830042384F8333004F13000FFF71A
:1064A40076FE0028D0D10523A370CDE70323FBE7B4
:1064B400E369ADF80A30236AADF80C3063799BB117
:1064C40094F8D41081B994F8D6306BB102238DF8C6
:1064D4000830042384F8333004F13000FFF757FE0A
:1064E4000028B1D10623DFE70423DDE794F8241064
:1064F4006846FFF77FFE0028A9D031E708202FE780
:106504000388112B10B50C460AD01B2B20D0102B5E
:1065140005D1C37B012B02D18388A1F8C83010BDFB
:106524000022838881F8D420B1F8C8209A42F6D199
:106534000B79002BF3D101212046FFF700FF00283F
:10654400EDD0D4F8D030002BE9D0BDE81040184786
:10655400037A002BE3D1C97805230131B1FBF3F3AE
:1065640003EB8303C91AC9B2E6E70238012810B560
:106574000C460ED84B7863B100234B702046C97883
:10658400FFF7DDFE28B1D4F8D03013B1BDE81040D8
:10659400184710BD38B50446FFF72EFE012384F8D2
:1065A400D4300021062384F8D61084F8333004F163
:1065B4003000FFF7ECFD054640B9E1782046FFF7CF
:1065C400BEFE18B1D4F8D03003B19847284638BD80
:1065D40075DF704776DF70477ADF70477BDF70477F
:1065E400034B1A8882420CBF18460020704700BF34
:1065F400DC360020024B9B6903B11847704700BF8B
:10660400C036002073B585B22846FFF7E9FF04467B
:1066140038B3174E027A337B9A420CD200F10A0146
:106624002846FFF7D5FFF0B111281AD002B0BDE813
:106634007040FFF7DFBF00230372337C43B13B217B
:106644002846FFF7C7FF30F0080301D0FFF7D2FF59
:10665400736933B100228DF80420ADF8065001A807
:10666400984702B070BD237A01332372F9E700BF63
:10667400C036002013B50B46497A02460E4871B95C
:10668400D0E901101C7A002C18BF01465868FDF7A8
:10669400E9FD78B102B0BDE81040FFF7ABBF0021BF
:1066A4001972436933B101218DF80410ADF8062045
:1066B40001A8984702B010BDC03600204B8802885C
:1066C4009A4212D842889A420FD380888B8840F22B
:1066D400F311884294BF021A421A9A4205D8084418
:1066E400984234BF0020012070470020704700000A
:1066F4000388122B70B5014659D004D8102B1ED034
:10670400112B44D070BD502BFCD12F4BC288DB8998
:106714009A42F7D1038A022BF4D186883046FFF7D8
:106724005FFF05460028EDD001F1120000F00AF9E0
:1067340038BB6868FDF7DEFD0028E3D009E0C37BC1
:10674400012BDFD14FF6FF70FFF74AFF054620B952
:106754000420BDE87040FFF74DBF1C4A8E880680B8
:10676400002303721368C0F80A305368C0F80E306F
:1067740010310A30FFF7A2FF134B6872DB89002B3C
:10678400C0D129463046BDE87040FFF773BF80880A
:10679400FFF726FF04460028B4D04068FDF7AAFDA1
:1067A40008B1FFF727FF4FF6FF732380AAE7868817
:1067B4003046FFF715FF05460028A3D008310A30FC
:1067C400FFF77CFF6872DCE7C0360020F03600205B
:1067D400F8B5064648B305460FCD154F3C460FC4E1
:1067E40095E8070084E807003068124C3C60B0B1BB
:1067F400FFF7F2FEC0B93268136823605368636020
:106804000D480E4A4FF6FF7303800D4B40F8043FCA
:106814000021FDF715FD002818BF032004E02046E1
:10682400FFF7DCFE0028EBD0F8BD0E20FCE700BF2C
:10683400C0360020F0360020DC3600200966020055
:10684400F83600202DE9F0430388112B95B0044657
:106854004CD01A2B50D0102B63D1334DD5E91132C3
:10686400291D23EA020203A8FEF742FA002604AF18
:10687400B04605F14409039B9E420ED3686CA6887A
:10688400C043FEF7FDF94FF6FF73984210D1042080
:1068940015B0BDE8F043FDF727B9CDF8008037F80F
:1068A400023B22481D224946FEF7F9F90136E2E788
:1068B4001F4905EB40050123A1F144003246AE8097
:1068C400FEF70DFA1B490123A1F140003246FEF701
:1068D40006FAE37B18499A1E53425341A288A1F158
:1068E400480015B0BDE8F043FEF7F9B910498288B5
:1068F4000023A1F14400F4E7037A104982881F2B96
:1069040094BF00230123A1F14C00FEF7E8F9237A98
:106914000B49A2882F2B94BF00230123A1F150001F
:10692400DFE715B0BDE8F083183700201C370020DE
:10693400603700205C37002064370020683700206F
:106944006C370020008800F00100704790DF70472A
:106954009EDF7047ADDF704780B14FF0F7130360DF
:10696400FB230371F723C3801723038141F6FB3212
:106974000023016143818281184670470E207047CD
:1069840030B1A1F11703E02B04D801800020704737
:106994000E2070470720704737B582880C46CAB965
:1069A4000388242B00F0AF8016D8112B00F08780C9
:1069B400232B00F0B980102B3CD0A37A53B1E1888B
:1069C4000020FFF7C5FF0246002840F0C8804FF4BE
:1069D4008073638103B030BD3A2B79D0552BECD151
:1069E400C388C988A272172B38BF17238B4228BFCC
:1069F4000B4610462381FFF7ADFF024638B15F4BCB
:106A04005F491888000440F00100FCF71FFFE27A98
:106A1400002AD2D12369002BCFD040F67721ADF8DC
:106A240002202289ADF80010ADF804206946204602
:106A34009847C2E7C37B0A790A73012B2CD0022B37
:106A44002DD0E18823898B4206D20020FFF780FFF6
:106A5400024630BB0123E372237B627B9A42ACD2B1
:106A640000259BB22A4669462846ADF80030ADF8A9
:106A74000230ADF80450ADF80650FFF767FF034647
:106A840000289AD03D4A3F49108800042A4640F025
:106A94000100FCF7E4FE90E70B88E380D1E74B8824
:106AA400FBE7112802D10123A372D5E7334B364902
:106AB4001888000440F00100FCF7C8FECCE7F72377
:106AC400CB8017230B8141F6FB334A818B8174E71A
:106AD4004389C98825698B4228BF0B46172B38BFC9
:106AE4001723238165B1E17A51B140F67721ADF8DE
:106AF4000010ADF80220ADF8043069462046A847DE
:106B04000023638159E72369017A6173002B3FF401
:106B140054AF4DF67A208DF80520ADF80000ADF89D
:106B240002208DF8041081E7037A097B01928B42DD
:106B340028BF0B4610466946ADF80030ADF8023068
:106B4400FFF704FF024600283FF437AF0B4B0F4911
:106B54001888000440F00100FCF778FE2DE71128A6
:106B64003FF438AF054B08491888000440F0010091
:106B740003B0BDE83040FCF769BE00BF802A0020A6
:106B8400E98402008C840200488402002B85020000
:106B94004FF080534FF08041D3F84422C2F3423285
:106BA400C1F83C250022C1F80C21C1F81021C1F81C
:106BB4003825284AD3F80404C2F82005D3F8080479
:106BC400C2F82405D3F80C04C2F82805D3F810043D
:106BD400C2F82C05D3F81404C2F83005D3F818040D
:106BE400C2F83405D3F81C04C2F84005D3F82004D5
:106BF400C2F84405D3F82404C2F84805D3F828049D
:106C0400C2F84C05D3F82C04C2F85005D3F830046C
:106C1400C2F85405D3F83404C2F86005D3F8380434
:106C2400C2F86405D3F83C04C2F86805D3F84004FC
:106C3400C2F86C05D3F84434C2F87035D1F8003486
:106C4400054ADB0744BF6FF00103C1F80034034B6E
:106C54001A60704700C000400090D003FC2A002056
:106C6400A0DF7047A2DF704762DF704730B50C4683
:106C740085B041B138B10388502B18D005D8102BFA
:106C84000FD0112B10D005B030BD572BFBD11022E3
:106C94000021684600F092FC01238DF80030019435
:106CA40015E08388A382EEE74FF6FF73FAE7C38803
:106CB4000A8901919A4211D1058A022D0ED112300E
:106CC400FFF740FE28B10123A3758DF80050A36996
:106CD40013E00323A0758DF80030F8E7A2899A42E7
:106CE400D1D1A369002BCED000F112020292028A04
:106CF400ADF80C2000228DF8002068469847C2E7C2
:106D04002DE9F047644B94B004AC05460A4603F100
:106D1400100C274618685968264603C6083363458D
:106D24003446F7D1002D00F0B480002A00F0B18081
:106D34004FF6FF73AB821368AB610023AB75294632
:106D44003846FFF791FF0446002840F09E802A460B
:106D54004FF0010812F8023B8DF80A3002A94046B0
:106D6400ADF80880FFF77CFF0446002840F08D80D2
:106D740001461C220DA800F021FC9DF834300E942D
:106D8400AA4623F00C0343F00C038DF834301AF8B0
:106D94000C3B8DF80E3021460223032201A8ADF8E6
:106DA4000C30CDE91044CDE9124400F007FC9DF805
:106DB400062022F01F0242F00302214611268DF81C
:106DC400062008A814228DF804608DF8056000F0F0
:106DD400F5FB01ABCDE90938688803AF4FF0F4093E
:106DE400534608AA0DA90897ADF82C90FFF73AFF6F
:106DF4000446002849D101460322684600F0DEFB20
:106E04009DF802308DF8006068F3420321461C228D
:106E14000DA88DF802308DF8016000F0CFFB9DF8CD
:106E240034300E94AA4643F01003032221468DF811
:106E3400343001A81AF8043B8DF80E30CDE9104423
:106E44001394ADF80C20CDF848D000F0B7FB9DF8B2
:106E540006208DF8046022F01F0242F0030221464E
:106E64008DF8062008A814228DF8056000F0A6FB12
:106E740001ABCDE9093868880897534608AA0DA9DB
:106E8400ADF82C90FFF7EEFE0446204614B0BDE8A2
:106E9400F0870E24F9E700BF7C85020010DF7047FD
:106EA40011DF704713B5044609496846FDF7A9FE8A
:106EB400019808B902B010BDD0E9003120469847C6
:106EC40018B16846FDF7A7FEF2E71120F2E700BF0C
:106ED4009885020013B5044607496846FDF791FEFC
:106EE400019B0BB902B010BD2046D3E900219047A5
:106EF4006846FDF790FEF3E7B08502000C4A92F86D
:106F040016333F2B4FEA53110DD904290BD0094BEB
:106F1400996821B11A6842F480021A6070474FF4EC
:106F240080031360704742F20200FCF7DDBD00BF2E
:106F340000E100E090310020064B9A6822B11A6803
:106F440022F480021A607047034B4FF48002C3F8A6
:106F5400802070479031002000E100E0F7B5154F24
:106F64003C782CBB144E012520463570FFF79AFF60
:106F740011281AD02046FFF7ADFF104B10491868AE
:106F8400019001A8FFF78AFF044670B90D4B3070D9
:106F940018700D4B3D70E02283F8162383F81523F7
:106FA400FFF7ACFF2846FFF795FF204603B0F0BD7E
:106FB4000824FAE7D1370020D03700209485020056
:106FC400093B0200D237002000E100E070B50F4E0B
:106FD4003378B3B10E4D01202870FFF763FF1128F9
:106FE40011D00220FFF776FFFFF75AFF044630B9AD
:106FF400307028700320FFF79FFFFFF76BFF2046D8
:1070040070BD0824FBE70024F9E700BFD137002056
:10701400D0370020054B1B7833B1054B1B780BB1DF
:10702400FFF7D4BFFFF79ABF08207047D03700207E
:10703400D1370020014B1878704700BFD1370020AA
:1070440007B508496846FDF7DCFD019B13B903B099
:107054005DF804FBD3E9002090476846FDF7DBFDAB
:10706400F3E700BFA4850200FFF7EABF60DF7047C3
:1070740069DF704761DF704730B5124DEBB04FF4F4
:10708400CE740DF1020103A8ADF80240FFF7F2FF40
:1070940070B9294601A8FDF7B4FD029B002BF0D07E
:1070A40003A8D3E90021904701A8FDF7B4FDF4E754
:1070B400052804D06BB0BDE83040FCF715BD6BB0BB
:1070C40030BD00BF008802007FB506460C4600298B
:1070D40000F0AF80584B0B600C22002101A800F097
:1070E4006DFA01238DF8063022688DF804600323BD
:1070F40001A92020ADF80830FFF7BAFF58B14F4B73
:107104001D88FDF7B3FD2D0445F0010502464C49E9
:107114002846FCF79BFB0C22002101A800F04EFA44
:107124000123ADF804302268002301A940208DF822
:107134000630FFF79DFF58B1404B1D88FDF796FDC3
:107144002D0445F0010502463E492846FCF77EFB26
:107154000C22002101A800F031FAF72322688DF8EF
:10716400046001A92320ADF80630FFF781FF58B170
:10717400324B1D88FDF77AFD2D0445F001050246CA
:1071840031492846FCF762FB0C22002101A800F0DB
:1071940015FA012022688DF8040001A9FFF768FFA1
:1071A40058B1264B1D88FDF761FD2D0445F00105FE
:1071B400024626492846FCF749FB0C22002101A877
:1071C40000F0FCF94FF4B0632268019301A9A120F7
:1071D400FFF74EFF58B1194B1D88FDF747FD2D04ED
:1071E40045F0010502461A492846FCF72FFB0C22FC
:1071F400002101A800F0E2F99DF8043022686FF341
:10720400000301A9A0208DF80430FFF731FF0346E5
:1072140060B10A4B1C88FDF729FD240444F00104E5
:1072240002460C492046FCF711FB0023184604B023
:1072340070BD0E23FAE700BF682A0020B02A0020A0
:10724400BC850200028602004E860200958602007A
:10725400E186020032870200F8B505460768FFF7A9
:1072640005FF2B689F42044618D0144E14493088F9
:1072740000043A4640F00200FCF7F1FA4FF0805364
:107284003088D3F80C312A680E499B0203F100536D
:1072940000049A1A40F00200FCF7D8FA64B1074BD4
:1072A40020461D88FDF7E2FC2D0445F00105024649
:1072B40005492846FCF7CAFA2046F8BDB02A002042
:1072C40085870200B2870200D487020048DF704736
:1072D4001FB50E4C01A8FFF7F9FF70B9214602A8AB
:1072E400FDF78FFC039B002BF4D00198D3E9002118
:1072F400904702A8FDF78FFCF4E7052804D004B0FA
:10730400BDE81040FCF7F0BB04B010BD18880200C3
:1073140053EA020C61D02DE9F04BB3FA83F51E0059
:1073240007BFB2FA82F502FA05F403FA05F4164629
:10733400C5F120051EBF22FA05F73C43203556EA65
:10734400044C4FEA144418BF0134A3464FF000091B
:10735400C846904271EB030C39D3094207BFB0FA17
:1073640080F700FA07F6B1FA81F701FA07F6C7F1D8
:1073740020071EBF20FA07FC46EA0C062037B6FB9E
:10738400FBFC7F1B103F07F01F04C4F120060CFA1E
:1073940004F42CFA06F644BF34460026202FA4BF7A
:1073A4002646002454EA060C08BF012418EB0408FE
:1073B40049EB0609A4FB027CC01B06FB02CC04FBC0
:1073C40003CC71EB0C01904271EB030CC5D20B465C
:1073D400024649464046BDE8F08BB2FBF3F200009A
:1073E4007F2805D8034B185C034B5B5C184070473F
:1073F4000020704730880200B0880200A0F16103C9
:10740400192B98BF20387047A0F14103192B98BF5E
:10741400203070477F2805D8034B185C034B5B5C16
:10742400184070470020704730880200B08802007E
:10743400A0F16103192B98BF20387047A0F14103D4
:10744400192B98BF203070477F299ABF0170012003
:107454006FF02E0070475AB10A787F2A0AD800B11B
:107464000260002119605960501A18BF012070474A
:10747400002070476FF02E00704710B50446084690
:10748400A2684AB12368616803F1010C8C4508BF06
:1074940000208B4208D2D054E3682BB12168626883
:1074A400914201D22146984723680133236010BDDD
:1074B40070B54C1E09D41646C5B229463046FFF7AE
:1074C400DCFF013CB4F1FF3FF7D170BD10F0100FA9
:1074D40008D108B510F4007F14BF30202020FFF736
:1074E400E7FF08BD7047000008B5034B5B689B6865
:1074F4001B68984708BD00BF002B002008B5092170
:10750400FFF7F2FF08BD00000FB410B586B008AB5A
:1075140053F8044B0593002303936FF00043029345
:10752400084B049300F0ECFB059A214601A800F0F7
:10753400CBF8044600F0E5FB204606B0BDE8104059
:1075440004B07047A5320200037853B159B1014425
:10755400034613F8012F12B18B42FAD10B46181AC5
:1075640070470346FBE70346F9E7844640EA010314
:1075740013F0030F18D18446202A0BD32DE9F0070A
:10758400B1E8F807A0E8F807A2F12002202AF7D210
:10759400BDE8F007042A07D351F8043B40F8043B44
:1075A400A2F10402042AF7D2002A05D011F8013B03
:1075B40000F8013B013AF9D1604670478446002A3D
:1075C4002DD010F0030F04D000F8011B013A26D08F
:1075D400F7E7C9B241EA012141EA0141202A12D365
:1075E400A2F120022DE9F0030B460C460D460E468F
:1075F4000F4688468946A0E8FA03203AFBD2BDE844
:10760400F00320320BD0042A05D340F8041B043ABB
:1076140005D0042AF9D200F8011B013AFBD16046D7
:107624007047024610F0030F16D111F0030F13D167
:107634002DE9F0004FF001374FF0803351F8044B3F
:10764400A4EB070525EA04051D4002D142F8044BCA
:10765400F4E7A1F10401F0BC11F8013B02F8013B8D
:10766400002BF9D1704700F1010110F0030F11D084
:1076740010F8012B002A23D010F0030F0AD010F8C1
:10768400012B002A1CD010F0030F03D010F8012B9B
:10769400002A15D02DE970004FF001324FF08033ED
:1076A40050F8044BA4EB020525EA04051D4000D163
:1076B400F6E7A0F1040070BC10F8012B002AFBD1FE
:1076C400A0EB0100704700002DE9F04F89B0074698
:1076D4000392002303600C4614F8011B002900F0F8
:1076E400FD82DFF86CB2E6E2002507E05E2868D18F
:1076F40045F4805501E045F040051C46234613F847
:10770400010B3028F2D81F2837D9A0F12002102A03
:1077140033D801A151F822F0FB7602007F770200F2
:107724007F770200617702007F7702007F77020093
:107734007F770200677702007F7702007F7702007D
:107744007F7702006D7702007F7702007377020073
:107754007F7702007F7702007977020045F0800589
:10776400CBE745F40045C8E745F02005C5E745F0FB
:107774001005C2E745F40075BFE72A2821D1039A12
:10778400111D0391D2F800A0BAF1000FBCBFCAF1D9
:10779400000A45F010051878A31C2AEAEA7A2E2874
:1077A40026D00021742847D07A2845D06C2800F0D0
:1077B400A8804C2800F0AB80682800F0B8801C46F4
:1077C4003DE0A0F13002D2B2092A88BF4FF0000A8E
:1077D400E3D84FF0000A0AEB8A0A303800EB4A0A71
:1077E40013F8010BA0F13002D2B2092AF3D9D4E77D
:1077F40018782A280AD1039A111D03911168587820
:1078040002330029CEDB45F48075CBE70133A0F1C8
:107814003002D2B2092A88BF0021F4D8002101EB3A
:107824008101303800EB410113F8010BA0F1300263
:10783400D2B2092AF3D9E4E71C4614F8010B002854
:1078440000F05882A0F12503DBB2532B62D8A0F1DB
:107854002503532B5ED8DFE813F076005D005D004E
:107864005D005D005D005D005D005D005D005D002C
:107874005D005D005D005D005D005D005D005D001C
:107884005D005D005D005D005D005D005D005D000C
:107894005D005D005D005D005D005D005D005D00FC
:1078A4005D005D005D005D005D005D005D005D00EC
:1078B4005D005D005D005D005D005D005D005D00DC
:1078C400EF005D005D005D005D005D005D005D003A
:1078D4005D005D005D007F0024015D005D005D00D2
:1078E4005D0024015D005D005D005D0099001201F2
:1078F400D6005D005D00AA005D001D015D005D0015
:10790400F1001C4614F8010B45F0010597E745F01A
:1079140001051C460F4B1E68002E00F0C98103AB05
:107924000193009153462A463946B047C0E118787E
:10793400682803D05C1C45F0040580E745F0080581
:107944009C1C58787BE725213846FFF796FDAFE16C
:10795400CDCCCCCCD4370020039B1A1D03921E78C7
:107964000AF1FF3A3A4651462846FFF7AFFD314641
:107974003846FFF782FDA94619F0100F00F09881F0
:107984003A4651462020FFF793FD91E115F0080F88
:1079940006D03A68039B191D03911B681A7087E18E
:1079A400039B1A1D03921B683A681A6080E1039BCB
:1079B4001A1D0392D3F80080C24BB8F1000F08BF20
:1079C4009846464625F4007915F4807F16D0404643
:1079D400FFF7BAFD0546AAEB050A3A465146484662
:1079E400FFF774FD002DC7D016F8011B3846FFF7CA
:1079F40044FDA8EB0603EB42F6D1BDE74046FFF792
:107A040032FE0546E7E7039B1A1D03921B6815F037
:107A1400800F0CBF0026232645F4807508211A46E2
:107A2400002B00F0218105AB4FF0000805F4005C49
:107A340060468C460146D3E045F4005515F0800FAE
:107A44001BD043F2780643F25803782818BF1E4629
:107A540015F4807F01D025F4007515F4804F32D0E1
:107A6400039B1A1D03921B6815F0040F1FD01BB251
:107A7400002B20DA5B422D262DE00026E8E715F0E6
:107A8400800F0CBF0026302615F4807FE5D025F446
:107A94000075E2E715F4807F07D025F40075002611
:107AA400DBE745F480450026D7E70026D5E715F047
:107AB400080FDDD0DBB215F0200F60D115F0400FB8
:107AC40018BF202607E0039B1A1D03921B6815F0BC
:107AD400040F4FD09BB215F4807F14BF25F40075BA
:107AE40001215838202800F2A78001A252F820F082
:107AF400237A02003D7C02003D7C02003D7C0200B2
:107B04003D7C02003D7C02003D7C02003D7C020085
:107B14003D7C02003D7C02003D7C02003D7C020075
:107B2400AF7B02003D7C02003D7C02003D7C0200F4
:107B34003D7C0200AF7B02003D7C02003D7C0200E4
:107B44003D7C02003D7C02003D7C0200877B0200FC
:107B5400237A02003D7C02003D7C02003D7C020051
:107B64003D7C0200AF7B02003D7C02003D7C0200B4
:107B7400237A020015F0080FADD0DBB2ABE72B2659
:107B8400A9E71A464FF00008002B57D005A84FF07C
:107B9400000803F00703303300F8013B08F1010843
:107BA400D2081346002AF4D148E018464FF00008E2
:107BB400002B43D04FF0000805F4004E4FF02C0981
:107BC40073468E46194628E002F00F00DFF8F8E00D
:107BD4001EF8000003F8010B08F10108120908D08F
:107BE4000029F1D002F00F00DFF8E0E01EF80000F9
:107BF400F0E7614622E008AB03EB080CABFB003274
:107C0400D20802EB8203A0EB430330330CF80C3CA4
:107C140008F1010809280DD910460029EBD008F015
:107C24000303032BE7D108AB434403F80C9C08F18E
:107C34000108E0E7714601E04FF00008A1EB0801FC
:107C440021EAE179AAEB090AAAEB080AFF2E0ED968
:107C5400AAF1020AC6F307213846FFF70EFCF1B277
:107C64003846FFF70AFC04E04FF00008E6E7002E70
:107C740043D13A4651462846FFF728FC3A4649463E
:107C84003020FFF715FCB8F1000F0EDD0DF11409DB
:107C940008F1FF38C84498F8001046463846FFF704
:107CA400ECFBC14508F1FF38F5D115F0100F0FD1E9
:107CB40014F8011B91B125293FF416AD3846FFF79E
:107CC400DCFBF5E7848A0200648A0200748A0200FD
:107CD4003A4651462020FFF7EBFBE9E7BB682BB19E
:107CE4003A6879688A423CBF00219954386809B0DF
:107CF400BDE8F08F4FF0FF30F9E70AF1FF3AAEE745
:107D04007047704710B504460146172000F008F884
:107D140000280CBF20464FF0FF3010BD704770475D
:107D240038B504460D46FFF7F9FF074B1D6044F0D4
:107D34008004064B1C601A461368002BFCD1FFF725
:107D4400EEFF014B186838BDDC370020D83700201F
:107D54003549020000000000214E0200000000002E
:087D64006F65020010330020DE
:107D6C0049680200000000000956020000000000F3
:107D7C0005650200103300209D690200E8330020E5
:107D8C00F566020000000000716C0200FC3300205C
:087D9C00115702000000000075
:107DA400A07E0200000003007D7F020000000000AE
:107DB40073850200000003008B83020000000000B2
:107DC40091830200000000008C8502000000030083
:107DD400F1870200000003000C8802000000030089
:107DE400947F02000000000098830200000000005D
:087DF40021490200000000001B
:107DFC00754A020000000000A14E020000000000C5
:107E0C007D70020000000000D5720200000000002E
:107E1C000000000000000000000000000000000056
:107E2C000000000000000000000000000000000046
:107E3C000000000000000000000000000000000036
:107E4C000000000000000000000000000000000026
:107E5C000000000000000000000000000000000016
:107E6C000000000000000000000000000000000006
:107E7C0000000000000000000000000000000000F6
:087E8C000000000000000000EE
:107E9400AD320200EF320200A932020061707000BC
:107EA400742F00203C300020443000207C2F002020
:107EB400180000001B5B306D002573003C25733EE9
:107EC4002025733A2000202530327800202020001D
:107ED4007C002563001B5B313B33306D001B5B3141
:107EE4003B33316D001B5B313B33326D001B5B3127
:107EF4003B33336D001B5B313B33346D001B5B3113
:107F04003B33356D001B5B313B33366D001B5B31FE
:107F14003B33376D007761726E696E6700696E6618
:107F24006F00646562756700B87E0200D97E020046
:107F3400E17E0200E97E0200F17E0200F97E020089
:107F4400017F0200097F0200117F0200000000008F
:107F54006A7F0200197F0200217F0200267F02004F
:107F6400466174616C206572726F72005379737428
:107F7400656D2072657365740062616C6C6F63007B
:107F8400303132333435363738394142434445464B
:107F94007077725F6D676D74004E52465F53554340
:107FA40043455353004E52465F4552524F525F531E
:107FB40056435F48414E444C45525F4D49535349E3
:107FC4004E47004E52465F4552524F525F534F4602
:107FD400544445564943455F4E4F545F454E4142D4
:107FE4004C4544004E52465F4552524F525F494EF3
:107FF4005445524E414C004E52465F4552524F52E8
:108004005F4E4F5F4D454D004E52465F4552524FB5
:10801400525F4E4F545F464F554E44004E52465F9A
:108024004552524F525F4E4F545F535550504F522A
:10803400544544004E52465F4552524F525F494E9A
:1080440056414C49445F504152414D004E52465FA7
:108054004552524F525F494E56414C49445F535426
:10806400415445004E52465F4552524F525F494E6D
:1080740056414C49445F4C454E475448004E524685
:108084005F4552524F525F494E56414C49445F46F8
:108094004C414753004E52465F4552524F525F493E
:1080A4004E56414C49445F44415441004E52465F50
:1080B4004552524F525F444154415F53495A45001F
:1080C4004E52465F4552524F525F54494D454F55AB
:1080D40054004E52465F4552524F525F4E554C4CDF
:1080E400004E52465F4552524F525F464F524249EC
:1080F4004444454E004E52465F4552524F525F49EA
:108104004E56414C49445F41444452004E52465FEE
:108114004552524F525F42555359004E52465F45A5
:1081240052524F525F4D4F44554C455F4E4F545F32
:10813400494E495449414C5A4544004E52465F45C4
:1081440052524F525F4D555445585F494E49545F02
:108154004641494C4544004E52465F4552524F52A7
:108164005F4D555445585F4C4F434B5F4641494C16
:108174004544004E52465F4552524F525F4D55544E
:1081840045585F554E4C4F434B5F4641494C45441F
:10819400004E52465F4552524F525F4D555445581A
:1081A4005F434F4E445F494E49545F4641494C45F5
:1081B40044004E52465F4552524F525F4D4F445514
:1081C4004C455F414C52454144595F494E495449DD
:1081D400414C495A4544004E52465F4552524F5213
:1081E4005F53544F524147455F46554C4C004E52E5
:1081F400465F4552524F525F4150495F4E4F545F64
:10820400494D504C454D454E544544004E52465FF1
:108214004552524F525F464541545552455F4E4F69
:10822400545F454E41424C4544004E52465F4552D0
:10823400524F525F4452565F5457495F4552525F02
:108244004F56455252554E004E52465F4552524F7C
:10825400525F4452565F5457495F4552525F414EF4
:1082640041434B004E52465F4552524F525F445277
:10827400565F5457495F4552525F444E41434B0049
:10828400556E6B6E6F776E206572726F7220636FBE
:1082940064650000000000009D7F020001000000F2
:1082A400A97F020002000000C77F02000300000053
:1082B400E87F020004000000FB7F020005000000CC
:1082C4000C8002000600000020800200070000006D
:1082D40038800200080000005080020009000000FD
:1082E400688002000A000000818002000B00000088
:1082F400998002000C000000B08002000D00000014
:10830400C48002000E000000D68002000F000000AE
:10831400E580020010000000F98002001100000056
:1083240010810200800000001F8102008100000013
:108334003F810200820000005B8102008300000094
:10834400778102008400000095810200850000000E
:10835400B681020086000000DB810200900000006C
:10836400F2810200910000001082020000820000ED
:108374002E820200018200004C8202000282000070
:10838400688202001C191C636C6F636B0067706960
:108394006F7465007561727400000000543200202F
:1083A4007C320020436F6E6E6563746564004469BB
:1083B40073636F6E6E6563746564004661696C65B2
:1083C4006420726563656976696E67204E55532033
:1083D4006D6573736167652E204572726F7220300C
:1083E4007825782E200044617461206C656E2069C4
:1083F400732073657420746F2030782558282564A1
:1084040029004E6F726469635F55415254000D0A2E
:1084140055415254205374617274210D0A00554120
:1084240052542053746172742100000018340020E7
:108434005465726D696E616C005254540053454723
:108444004745520073645F626C655F67617474636F
:108454005F65786368616E67655F6D74755F72658B
:10846400717565737428292072657475726E6564FC
:1084740020756E65787065637465642076616C75CB
:108484006520307825782E0073645F626C655F67C1
:1084940061705F646174615F6C656E6774685F7559
:1084A4007064617465282920287265717565737418
:1084B40029206F6E20636F6E6E656374696F6E2022
:1084C400307825782072657475726E656420756ED7
:1084D40065787065637465642076616C75652030B9
:1084E4007825782E0073645F626C655F67617474CD
:1084F400735F65786368616E67655F6D74755F72DD
:1085040065706C7928292072657475726E656420B3
:10851400756E65787065637465642076616C7565E5
:1085240020307825782E0073645F626C655F676124
:10853400705F646174615F6C656E6774685F7570A9
:1085440064617465282920287265706C7929207209
:10855400657475726E656420756E65787065637494
:1085640065642076616C756520307825782E00620C
:108574006C655F67617474009ECADC240EE5A9E033
:1085840093F3A3B50000406E6E72665F7364680077
:1085940001000005F47D0200FC7D020008000000DB
:1085A4000C7E02001C7E020008000000FC7D02001C
:1085B4000C7E02000800000073645F626C655F63F8
:1085C40066675F73657428292072657475726E65B9
:1085D40064202573207768656E20617474656D70FE
:1085E40074696E6720746F2073657420424C455F14
:1085F400434F4E4E5F4346475F4741502E007364DE
:108604005F626C655F6366675F73657428292072B7
:10861400657475726E6564202573207768656E20B5
:10862400617474656D7074696E6720746F2073650E
:108634007420424C455F4741505F4346475F524F69
:108644004C455F434F554E542E0073645F626C6516
:108654005F6366675F736574282920726574757239
:108664006E6564202573207768656E206174746577
:108674006D7074696E6720746F2073657420424C4A
:10868400455F434F4E4E5F4346475F474154542E28
:108694000073645F626C655F6366675F736574280B
:1086A400292072657475726E65642025732077685D
:1086B400656E20617474656D7074696E6720746F83
:1086C4002073657420424C455F434F4D4D4F4E5FC0
:1086D4004346475F56535F555549442E0073645FC4
:1086E400626C655F6366675F7365742829207265D1
:1086F4007475726E6564202573207768656E2061D9
:108704007474656D7074696E6720746F207365741A
:1087140020424C455F47415454535F4346475F41B1
:108724005454525F5441425F53495A452E00736476
:108734005F626C655F6366675F7365742829207286
:10874400657475726E6564202573207768656E2084
:10875400617474656D7074696E6720746F207365DD
:108764007420424C455F47415454535F4346475F2E
:10877400534552564943455F4348414E4745442E6D
:108784000052414D207374617274732061742030FF
:108794007825782C2063616E2062652061646A7597
:1087A4007374656420746F20307825782E005241EC
:1087B4004D2073697A652063616E2062652061646F
:1087C4006A757374656420746F20307825782E0080
:1087D40073645F626C655F656E61626C65282920F5
:1087E40072657475726E65642025732E006E7266F0
:1087F4005F7364685F626C65000000006C7D02005A
:10880400A47D0200080000006E72665F7364685FF6
:10881400736F6300547D02006C7D02000800000049
:1088240043000000504F53495800000020202020EE
:1088340020202020206828282828202020202020CC
:10884400202020202020202020202020481010102C
:108854001010101010101010101010108484848444
:1088640084848484848410101010101010818181F9
:108874008181810101010101010101010101010164
:1088840001010101010101101010101010828282F7
:108894008282820202020202020202020202020234
:1088A400020202020202021010101020000703202C
:1088B40004170201085710408000000024880200B9
:1088C400288902003C8A020053756E004D6F6E00C9
:1088D40054756500576564005468750046726900F4
:1088E40053617400000000004A616E004665620036
:1088F4004D617200417072004D6179004A756E00DD
:108904004A756C0041756700536570004F637400CD
:108914004E6F76004465630000000000414D005036
:108924004D000000608A02005C8A02005C8A02003A
:108934005C8A02005C8A02005C8A02005C8A020093
:108944005C8A02005C8A02005C8A0200FFFFFFFF6F
:10895400FFFFFFFFFFFFFFFFFFFF00009C890200F6
:10896400CC880200D8890200EC8802002089020029
:1089740080890200308A02008C890200256D2F252F
:10898400642F2579000000002561202562202565DB
:10899400202554202559000053756E646179004DDB
:1089A4006F6E64617900547565736461790057650D
:1089B400646E657364617900546875727364617977
:1089C40000467269646179005361747572646179F7
:1089D400000000004A616E7561727900466562723A
:1089E40075617279004D6172636800417072696CDF
:1089F400004D6179004A756E65004A756C790041D5
:108A040075677573740053657074656D6265720083
:108A14004F63746F626572004E6F76656D62657246
:108A240000446563656D62657200000025483A255F
:108A34004D3A255300000000E57302000174020062
:108A44000D740200197402003574020041740200AE
:108A54004D7402005B740200000000002E00000050
:108A640030313233343536373839616263646566A0
:108A74003031323334353637383941424344454650
:078A8400286E756C6C2900DF
:108A8C00947E020000000000000000000020004066
:108A9C0000000000010002001400FFFF0090D00352
:108AAC00C0880200C0880200C0880200C088020092
:048ABC00C08802006C
:040000032000321592
:00000001FF
